:0460000057EF30F036
:10600800F153F153F153F153F153F153F153F15368
:10601800F153F153F153A450F153F153F153F153A8
:10602800F153F153F153F153F153F153F153F15348
:10603800F153F153F15362514F51F1537551B85027
:106048002450F153F153F1532B18F153F153F153F9
:10605800F153F153F153F153F153F153F153F15318
:10606800F153F153F153F153F153F153F153F15308
:10607800F153F1532B18F153F153F1532B182B18FB
:106088002B182B182B182B182B182B18F153F153EE
:10609800F153F153F153F1532B182B182B182B18DC
:1060A800F153F153FF00D5EF8DF000EAD496A81212
:1060B8002C6E507F41033D87B9FBC5A59BD9E75D91
:1060C80063211F300E4C72C8F6B48A744A08368CA5
:1060D800B2F0CEE1DF9DA31927655B3B054779C385
:1060E800FDBF81AE90D2EC56682A14B38DCFF14B28
:1060F80075370926185A64DEE0A29CFCC280BE04EB
:106108003A78466957152B91AFEDD32D13516FD5BA
:10611800EBA997B886C4FA407E3C02625C1E209ABE
:10612800A4E6D8F7C98BB50F31734D5866241AA069
:106138009EDCE2CDF3B18F350B497717296B55EF0C
:10614800D193AD82BCFEC07A440638C6F8BA843E04
:1061580000427C536D2F11AB95D7E989B7F5CB7108
:106168004F0D331C22605EE4DA98A6013F7D43F9A7
:10617800C785BB94AAE8D66C52102E4E70320CB666
:1061880088CAF4DBE5A799231D5F619FA1E3DD675A
:10619800591B250A347648F2CC8EB0D0EEAC922842
:1061A80016546A457B3907BD83C1FF00C201000050
:1061B800E1000000960000004B0000802500000070
:1061C80000003F000000BF8A15A0418200010103C2
:1061D800060240000800155235BB8FAA2A3E8EBE23
:1061E800BF350072313F080E3BAAB83F2C636E746E
:1061F800303A256C6C752C636E74313A256C6C756D
:106208002C636E74323A256C6C752C636E74333A59
:10621800256C6C752C636E74343A256C6C752C6324
:106228006E74353A256C6C752C636E74363A256C31
:106238006C752C636E74373A256C6C750069643A1A
:1062480025732C747970653A25732C766572736999
:106258006F6E3A257328257329002C7077723A25BA
:10626800642E253032642C7077724F75743A256429
:106278002E25303264002C616463303A25642E2563
:106288003032642C616463313A25642E25303264DF
:106298000069643A25732C6D73673A6261644372CE
:1062A80063002C6372633A253032780D0A004A7510
:1062B8006E20313920323032360069643A25732C29
:1062C80064693A2564006E65774964353035303A3B
:1062D800006D73673A636F6E666967006D73673A3E
:1062E800737461747573002C74303A25642E2564B8
:1062F800002C74313A25642E2564002C74323A251A
:10630800642E2564002C72683A25642E2564006387
:106318006D643A726573657400494E46494E495436
:106328005900696E66696E69747900736574436EA5
:1063380074303A00736574436E74313A007365744F
:10634800436E74323A00736574436E74333A007363
:106358006574436E74343A00736574436E74353AE9
:1063680000736574436E74363A00736574436E74D3
:10637800373A006D73673A64617461002C62746E19
:10638800323A2564002C62746E333A2564002C621C
:10639800746E4C3A25640069643A616C6C2C002C6C
:1063A800636F323A2564002C766F633A2564002CBB
:1063B80062746E3A256400286E756C6C29006E65EF
:1063C8007749643A002C200D0A0900646163303A69
:1063D80000646163313A00426F78494F0069643A5A
:1063E8002573004E414E00696E66006E616E003086
:1063F8002E310069643A00646F3A00616C6C0000E9
:10640800000E0001B96F000EB86FAE51AF11D8B4CD
:1064180010EF32F012EF32F022EF32F06000BBF2F0
:10642800D9FF6000BFF2DAFF6000B3F2DEFF600060
:10643800B7F2DDFF22EF32F0AC4BAD2B6000B3F2C8
:10644800D9FF6000B7F2DAFF200EDE18D8B42FEFBC
:1064580032F032EF32F0010E33EF32F0000EBE6F41
:10646800BF6BBE51BF11D8A43CEF32F03EEF32F003
:1064780020EF32F06000B3F2D9FF6000B7F2DAFF24
:10648800DF50B06FB051BE6FBF6BBEC0B1F0F70E3A
:10649800B127040EB16553EF32F055EF32F020EF1B
:1064A80032F0BB6B2D0EBE19BF11D8A45EEF32F0CF
:1064B80060EF32F066EF32F0010EBB6FAC4BAD2BE4
:1064C80072EF32F02B0EBE19BF11D8A46EEF32F066
:1064D80070EF32F072EF32F062EF32F0C46B76EFA9
:1064E80032F0C42BC451AC25D96E000EAD21DA6E42
:1064F800DF50D8B482EF32F084EF32F0BAEF32F0E6
:10650800C451AC25D96E000EAD21DA6EDF50B06FE4
:106518002A0EC425F66EF76A630EF722F86A000E93
:10652800F8220800F550B019D8B49DEF32F09FEF6B
:1065380032F075EF32F0C451AC25D96E000EAD21A2
:10654800DA6EDF50B06F210EC425F66EF76A630E5F
:10655800F722F86A000EF8220800F550B019D8B4EE
:10656800B8EF32F0BAEF32F075EF32F0020EC465D0
:10657800C0EF32F0C2EF32F0F2EF32F0000EC06F2F
:10658800000EC16F800EC26F7F0EC36FAE51AF1188
:10659800D8B4D1EF32F0D3EF32F045EF3AF0080E2D
:1065A800C419D8B4DAEF32F0DCEF32F0DEEF32F0B3
:1065B800030EC46FC451AC25B06F000EAD21B16F8E
:1065C8006000BBF2D9FF6000BFF2DAFF6000C3F2DF
:1065D800DEFF6000C7F2DDFF45EF3AF0C46BF6EF6F
:1065E80032F0C42BC451AC25D96E000EAD21DA6E41
:1065F800DF50D8B402EF33F004EF33F03AEF33F062
:10660800C451AC25D96E000EAD21DA6EDF50B06FE3
:10661800F30EC425F66EF76A630EF722F86A000EC9
:10662800F8220800F550B019D8B41DEF33F01FEF69
:1066380033F0F5EF32F0C451AC25D96E000EAD2120
:10664800DA6EDF50B06FEB0EC425F66EF76A630E94
:10665800F722F86A000EF8220800F550B019D8B4ED
:1066680038EF33F03AEF33F0F5EF32F0030EC41998
:10667800D8A441EF33F043EF33F0B7EF33F0D20E45
:10668800116E630E126E05ECA6F011C0C0F012C0B8
:10669800C1F013C0C2F014C0C3F00001AE51AF1175
:1066A800D8B459EF33F05BEF33F045EF3AF0C4510B
:1066B800AC27000EAD236000B3F2D9FF6000B7F23B
:1066C800DAFF280EDE18D8A46CEF33F06EEF33F043
:1066D800A9EF33F0C46B72EF33F0C42BC451AC256F
:1066E800D96E000EAD21DA6EDF50D8B47EEF33F0EC
:1066F80080EF33F08FEF33F0C451AC25D96E000E24
:10670800AD21DA6E290EDE18D8A48DEF33F08FEFA5
:1067180033F071EF33F0C451AC25D96E000EAD21C2
:10672800DA6E290EDE18D8A49CEF33F09EEF33F012
:10673800A9EF33F0C451B06FB16B010EB027000E52
:10674800B123B051AC27B151AD236000BBF2D9FFE2
:106758006000BFF2DAFF6000B3F2DEFF6000B7F25C
:10676800DDFF45EF3AF0000EBF6F000EBE6F000E62
:10677800C06F000EC16F000EC26F000EC36FB66B04
:10678800B76B000EBD6F000EBC6FC46BCDEF33F05E
:10679800C42BC451AC25D96E000EAD21DA6E300E73
:1067A800DE18D8B4DAEF33F0DCEF33F0CCEF33F0A7
:1067B800C451D8B4E2EF33F0E4EF33F099EF37F097
:1067C800C451AC25D96E000EAD21DA6E780EDE18F4
:1067D800D8B4F1EF33F0F3EF33F002EF34F0C451F3
:1067E800AC25D96E000EAD21DA6E580EDE18D8A48D
:1067F80000EF34F002EF34F099EF37F0C451AC25D4
:10680800B06F000EAD21B16F010EB025D96E000E2C
:10681800B121DA6EDF50B26FB251116E126ACCEC50
:10682800A0F011501210D8A41CEF34F01EEF34F071
:1068380036EF34F00001C451AC25B06F000EAD2125
:10684800B16F010EB025D96E000EB121DA6E2E0E91
:10685800DE18D8B432EF34F034EF34F036EF34F0D9
:10686800B8EF36F0C4C0B6F00001C42BC451AC2553
:10687800D96E000EAD21DA6E300EDE18D8B447EFAF
:1068880034F049EF34F038EF34F0C451AC25D96E08
:10689800000EAD21DA6E700EDE18D8B456EF34F063
:1068A80058EF34F0CDEF35F0C451AC25D96E000E59
:1068B800AD21DA6E500EDE18D8A465EF34F067EF1C
:1068C80034F069EF34F0CDEF35F0C451AC25D96E12
:1068D800000EAD21DA6E2E0EDE18D8A476EF34F055
:1068E80078EF34F07EEF34F0BB89C4C0B7F0C42B26
:1068F800CDEF35F0C451AC25D96E000EAD21DA6E5E
:10690800DF50B06FB051116E126ACCECA0F011508C
:106918001210D8B492EF34F094EF34F0B8EF36F0A8
:106928000001BA6BC451AC25D96E000EAD21DA6EE8
:10693800DF50B06FB051116E126A61ECA5F01150C2
:106948001210D8B4AAEF34F0ACEF34F0B8EF34F04A
:106958000001C451AC25D96E000EAD21DA6EDF50AE
:10696800D00FBA6FCAEF34F00001C451AC25D96E0C
:10697800000EAD21DA6EDF50B06FB051116E126AA1
:106988004AECA5F01150C90F0001BA6FBFBFD8EF8C
:1069980034F0BF5107E1080EBE5DD8B0D6EF34F031
:1069A800D8EF34F0F7EF34F0BE510708B06FD89045
:1069B800B037D890B037BAC0B1F0B26BB36BB46B24
:1069C800B02BECEF34F0D890B137B237B337B437D7
:1069D800B02FE7EF34F0B151C013B251C113B35126
:1069E800C213B451C313BE4BBF2B040EBC27000EF9
:1069F800BD23C42B49EF34F0C451AC25D96E000E29
:106A0800AD21DA6E300EDE18D8A40DEF35F00FEF99
:106A180035F01EEF35F0BE51BF11D8A416EF35F092
:106A280018EF35F01EEF35F0FC0EBC27FF0EBD2326
:106A3800CCEF35F0C451AC25D96E000EAD21DA6E1D
:106A4800DF50B06FB051116E126ACCECA0F011504B
:106A58001210D8B432EF35F034EF35F09BEF35F043
:106A68000001BA6BC451AC25D96E000EAD21DA6EA7
:106A7800DF50B06FB051116E126A61ECA5F0115081
:106A88001210D8B44AEF35F04CEF35F058EF35F026
:106A98000001C451AC25D96E000EAD21DA6EDF506D
:106AA800D00FBA6F6AEF35F00001C451AC25D96E2A
:106AB800000EAD21DA6EDF50B06FB051116E126A60
:106AC8004AECA5F01150C90F0001BA6FBFBF78EFAB
:106AD80035F0BF5107E1080EBE5DD8B076EF35F04E
:106AE80078EF35F097EF35F0BE510708B06FD890C2
:106AF800B037D890B037BAC0B1F0B26BB36BB46BE3
:106B0800B02B8CEF35F0D890B137B237B337B437F4
:106B1800B02F87EF35F0B151C013B251C113B35143
:106B2800C213B451C313BE4BBF2BCCEF35F00001D9
:106B3800C451B06FB16BB751B26FB36B010EB227CE
:106B4800000EB323B051B21907E1B151B319D8A45B
:106B5800B0EF35F0B2EF35F0D4EF35F0B751B06F94
:106B6800B16BB651B26FB36B010EB227000EB323EF
:106B7800B051B21907E1B151B319D8A4C6EF35F035
:106B8800C8EF35F0D4EF35F0B6C0C4F0B8EF36F042
:106B9800C42BBBB9D2EF35F0D4EF35F000EF35F0A8
:106BA800C451AC27000EAD23C46B6000B3F2D9FF0B
:106BB8006000B7F2DAFF700EDE18D8B4E6EF35F0F1
:106BC800E8EF35F0F9EF35F06000B3F2D9FF600077
:106BD800B7F2DAFF500EDE18D8B4F5EF35F0F7EF5C
:106BE80035F0F9EF35F0B8EF36F0C42B20EE01F0B0
:106BF800AC51D926AD51DA222B0EDE18D8A407EFF6
:106C080036F009EF36F00CEF36F0C42B1DEF36F0F6
:106C180020EE01F0AC51D926AD51DA222D0EDE1846
:106C2800D8A419EF36F01BEF36F01DEF36F0BB870E
:106C3800C42BC451AC25D96E000EAD21DA6EDF50DD
:106C4800B06FB051116E126A61ECA5F011501210BC
:106C5800D8A431EF36F033EF36F037EF36F00001D5
:106C6800C46BB8EF36F00001C451AC27000EAD2359
:106C7800C46B40EF36F0C42BC451AC25D96E000E5E
:106C8800AD21DA6E300EDE18D8B44DEF36F04FEF86
:106C980036F03FEF36F0000EBF6F000EBE6F80EF8C
:106CA80036F00001C451D8B45CEF36F05EEF36F030
:106CB8006CEF36F0BEC011F0BFC012F0000E146EBB
:106CC8000A0E136EA3ECA5F011C0BEF012C0BFF0FF
:106CD8000001C451AC25D96E000EAD21DA6EDF502B
:106CE800B06FD00EB025B16FB26BFF0EB223B151A9
:106CF800BE27B251BF23C42BC451AC25D96E000E98
:106D0800AD21DA6EDF50B06FB051116E126A61ECCE
:106D1800A5F011501210D8A494EF36F096EF36F083
:106D280055EF36F00001C451D8A49DEF36F09FEF1F
:106D380036F0A9EF36F0000EAC6F000EAD6F000E06
:106D4800AE6F000EAF6F7CEF3AF0BBA7AEEF36F038
:106D5800B0EF36F0B4EF36F0BE6DBF1FD8B0BF2B22
:106D6800BE51BC27BF51BD230001AE51AF11D8B4ED
:106D7800C0EF36F0C2EF36F0D4EF36F0C451AC2590
:106D8800B06F000EAD21B16F6000BBF2D9FF60009B
:106D9800BFF2DAFF6000C3F2DEFF6000C7F2DDFF7A
:106DA800C051C111C211C311D8A4DDEF36F0DFEF15
:106DB80036F0E9EF36F0000EAC6F000EAD6F000E46
:106DC800AE6F000EAF6F7CEF3AF0FF0EC015B06FDC
:106DD800000EC115B16F000EC215B26F000EC315BB
:106DE800B36FB351B211B11109E1810EB05DD8A0F2
:106DF80000EF37F002EF37F014EF37F0000EC0273E
:106E0800010EC123000EC223000EC32314EF37F076
:106E1800D890C037C137C237C337BC07D8A0BD0721
:106E2800C3AF19EF37F01BEF37F00CEF37F0BDAFFA
:106E380027EF37F0830EBC5DFF0EBD59D8B027EFA2
:106E480037F029EF37F035EF37F0FF0EBD6F810EC1
:106E5800BC6F000EC06F000EC16F000EC26F000E37
:106E6800C36F810EBC1908E1BD29D8B43EEF37F0D5
:106E780040EF37F048EF37F0D890C037C137C23706
:106E8800C337BC07D8A0BD07BDBF54EF37F0BD510D
:106E980009E1800EBC5DD8A054EF37F056EF37F00B
:106EA80068EF37F0000EC06F000EC16F000EC26FA2
:106EB800000EC36F000EBD6F800EBC6F000EB96F61
:106EC800220EB86F45EF3AF0090EB06FD890C33371
:106ED800C233C133C033B02F6AEF37F0FF0EC0178B
:106EE800FF0EC1177F0EC217000EC3177F0EBC25F9
:106EF800B06F000EBD21B16FFF0EB015B26FB36B4E
:106F0800B46BB56B170ED890B237B337B437B53703
:106F1800E82E87EF37F0B251C013B351C113B45103
:106F2800C213B551C31345EF3AF0BBB99EEF37F022
:106F3800A0EF37F0B4EF37F06000B3F2D9FF60008C
:106F4800B7F2DAFF2E0EDE18D8A4ADEF37F0AFEFA8
:106F580037F0B4EF37F0BB89AC4BAD2B99EF37F076
:106F68006000B3F2D9FF6000B7F2DAFFDF50B06F0C
:106F7800B051116E126A61ECA5F011501210D8A42C
:106F8800C8EF37F0CAEF37F0CCEF37F01EEF38F024
:106F98000001BB83090EBE19BF11D8B4D6EF37F074
:106FA800D8EF37F011EF38F0BBA9DDEF37F0DFEF9E
:106FB80037F0E2EF37F0BC07D8A0BD07BE4BBF2BB8
:106FC800C0C019F0C1C01AF0C2C01BF0C3C01CF089
:106FD8000A0E1D6E000E1E6E000E1F6E000E206E35
:106FE800FAEC9DF019C0C0F01AC0C1F01BC0C2F085
:106FF8001CC0C3F06000B3F2D9FF6000B7F2DAFF3B
:10700800DF500001B06FD00EB027B051C027000E7E
:10701800C123C223C3231AEF38F0BBB916EF38F0E7
:1070280018EF38F01AEF38F0BC4BBD2BAC4BAD2B3A
:1070380099EF37F0000E0001BF6F000EBE6F6000C1
:10704800B3F2D9FF6000B7F2DAFF650EDE18D8B4E4
:1070580030EF38F032EF38F041EF38F06000B3F23B
:10706800D9FF6000B7F2DAFF450EDE18D8A43FEF6B
:1070780038F041EF38F0D5EF38F0AC4BAD2B60006D
:10708800B3F2D9FF6000B7F2DAFF2D0EDE18D8A4EC
:1070980050EF38F052EF38F057EF38F0BB87AC4B71
:1070A800AD2B68EF38F06000B3F2D9FF6000B7F29B
:1070B800DAFF2B0EDE18D8A464EF38F066EF38F04C
:1070C80068EF38F0AC4BAD2B6000B3F2D9FF60002D
:1070D800B7F2DAFF300EDE18D8B475EF38F077EF74
:1070E80038F066EF38F0BA6B99EF38F06000B3F219
:1070F800D9FF6000B7F2DAFFDF500001B06FD00EA1
:10710800B0270A0EBE036F00CCFFB1F06F00D0FFAE
:10711800B2F0BF03F350B227B051B125BE6F000ED5
:10712800B221BF6FAC4BAD2BBA2B6000B3F2D9FFC5
:107138006000B7F2DAFFDF50B06FB051116E126A1B
:1071480061ECA5F011501210D8A4ADEF38F0AFEFF4
:1071580038F07AEF38F00001BA51D8A4B6EF38F019
:10716800B8EF38F0CAEF38F02FEEFFF3AC51D9265C
:10717800AD51DA22300EDE18D8B4C5EF38F0C7EFBB
:1071880038F0CAEF38F0AC07D8A0AD07BBA7CFEFEF
:1071980038F0D1EF38F0D5EF38F0BE6DBF1FD8B05A
:1071A800BF2BBE51BC27BF51BD23AE51AF11D8B4C0
:1071B800E0EF38F0E2EF38F0F5EF38F0BBA3E7EF97
:1071C80038F0E9EF38F0F5EF38F06000BBF2D9FF9E
:1071D8006000BFF2DAFF6000B3F2DEFF6000B7F2D2
:1071E800DDFFC0C033F0C1C034F0C2C035F0C3C049
:1071F80036F0000E0EEC81F033C0C0F034C0C1F0A0
:1072080035C0C2F036C0C3F0C0C011F0C1C012F022
:10721800C2C013F0C3C014F0000E156E000E166E37
:10722800000E176E000E186E8AEC95F0D8A01FEFAE
:1072380039F021EF39F02CEF39F0000E0001AC6F76
:10724800000EAD6F000EAE6F000EAF6F7CEF3AF020
:107258000001BDBF34EF39F032EF39F0C5EF39F036
:10726800BC6DBD1FD8B0BD2B59EF39F0C0C093F02D
:10727800C1C094F0C2C095F0C3C096F0F90E976FE4
:10728800020E986F150E996F500E9A6F17EC6EF0EC
:1072980093C0C0F094C0C1F095C0C2F096C0C3F0CE
:1072A8000001F60EBC27FF0EBD23BDBF67EF39F006
:1072B800BD5107E10A0EBC5DD8B065EF39F067EF44
:1072C80039F03AEF39F087EF39F0C0C093F0C1C018
:1072D80094F0C2C095F0C3C096F0000E976F000EF0
:1072E800986F200E996F410E9A6F17EC6EF093C04D
:1072F800C0F094C0C1F095C0C2F096C0C3F00001C0
:10730800BC07D8A0BD07BC51BD11D8A48EEF39F079
:1073180090EF39F069EF39F0C0C011F0C1C012F038
:10732800C2C013F0C3C014F0000E156E000E166E26
:10733800800E176E000E186E53EC8DF0D8B0A7EFC4
:1073480039F0A9EF39F045EF3AF00001BBA1AFEFF2
:1073580039F0B1EF39F0BBEF39F0000EAC6F000E29
:10736800AD6F800EAE6F800EAF6F7CEF3AF0000EFF
:10737800AC6F000EAD6F800EAE6F000EAF6F7CEF7E
:107388003AF0BDBFD0EF39F0BD5108E1BC05D8A037
:10739800D0EF39F0D2EF39F045EF3AF0F3EF39F0AA
:1073A800C0C07AF0C1C07BF0C2C07CF0C3C07DF021
:1073B800F90E7E6F020E7F6F150E806F500E816F73
:1073C800E7EC61F07AC0C0F07BC0C1F07CC0C2F0CD
:1073D8007DC0C3F00001F60EBC27FF0EBD23BD51D2
:1073E80007E10A0EBC5DD8B0FCEF39F0FEEF39F0CA
:1073F800D4EF39F01EEF3AF0C0C07AF0C1C07BF08C
:10740800C2C07CF0C3C07DF0000E7E6F000E7F6F9F
:10741800200E806F410E816FE7EC61F07AC0C0F0FA
:107428007BC0C1F07CC0C2F07DC0C3F00001BC07C6
:10743800D8A0BD07BC51BD11D8A425EF3AF027EF5D
:107448003AF000EF3AF0FF0E116EFF0E126E7F0E4B
:10745800136E7F0E146EC0C015F0C1C016F0C2C006
:1074680017F0C3C018F053EC8DF0D8B03EEF3AF0E7
:1074780040EF3AF045EF3AF0000E0001B96F220EE6
:10748800B86F0001B851B911D8B44DEF3AF04FEFC9
:107498003AF05BEF3AF0B8C05CF1B9C05DF1000EAC
:1074A800C06F000EC16F800EC26F7F0EC36FBBA18D
:1074B80060EF3AF062EF3AF074EF3AF0C0C011F0C2
:1074C800C1C012F0C2C013F0C3C014F0DEECA4F0C7
:1074D80011C0C0F012C0C1F013C0C2F014C0C3F094
:1074E800C0C0ACF0C1C0ADF0C2C0AEF0C3C0AFF018
:1074F80012000001FF5107E1090EFE5DD8B087EFC9
:107508003AF089EF3AF08BEF3AF03FEF40F00101A3
:10751800976B9C0E116E020E126EA4ECA4F0115023
:107528000101956F000E116E040E126EFB0E136EA4
:10753800630E146E000E166E030E156E13EC85F0B6
:1075480011501210D8A4ABEF3AF0ADEF3AF0D8EFE3
:107558003AF0030E116E040E126E9C0E136E020E9C
:10756800146E95C115F0166A13EC85F011501210BF
:10757800D8A4C1EF3AF0C3EF3AF0D8EF3AF0030ECF
:1075880001019525D96EDA6A040EDA222C0EDE186E
:10759800D8A4D1EF3AF0D3EF3AF0D8EF3AF0010E91
:1075A800986FBB9A27EF3BF0000E116E040E126E17
:1075B8009F0E136E630E146E000E166E070E156E78
:1075C80013EC85F011501210D8A4EDEF3AF0EFEF5C
:1075D8003AF03FEF40F0010E0101986FBB9A6BC182
:1075E800F7F0070E0001F7171EECA7F01150070B74
:1075F8000001F72501018A6F000E8E6F000E8D6F56
:1076080012EF3BF0150E0001F76FC60EE82EFED7FD
:10761800F72FFCD7000001018D4B8E2B8A510001FA
:10762800F76FF86BF75101018D5D8E51800A0001EB
:10763800F96FF851800AF959D8A025EF3BF027EFE8
:107648003BF006EF3BF0000E116E040E126EF70EC3
:107658000001FE25136EFF0EFF21146E000E45EC8F
:107668009BF001018B6F966BF70E0001FE25AC6F46
:10767800030EFF21AD6FAA0EAE6F620EAF6F960EAE
:10768800B06F010EB16F9DECA3F0ACC088F1ADC036
:1076980089F1010188518911D8B455EF3BF057EFB2
:1076A8003BF060EF3BF096518B19D8B45EEF3BF09E
:1076B80060EF3BF064EF3BF0BFEC99F03FEF40F038
:1076C800010E676F000E1C6E040E1D6ECD0E1E6E31
:1076D800630E1F6EBEEC8FF01CC099F11DC09AF1AD
:1076E8000BEF40F0FB0E116E630E126E99C113F092
:1076F8009AC114F0000E166E030E156E13EC85F089
:1077080011501210D8A48BEF3BF08DEF3BF0FBEF3C
:107718003BF0030E01019925116E000E9A21126E9D
:107728009C0E136E020E146EC9EC93F011501210D9
:10773800D8A4A1EF3BF0A3EF3BF0ABEF3BF0010E79
:107748000101986FBB9AFDEF3FF0FDEF3FF0030E8C
:1077580001019925116E000E9A21126E030E136E07
:10776800640E146EC9EC93F011501210D8A4BFEF38
:107778003BF0C1EF3BF023EF40F0010E0101986FA1
:107788006BC1F7F0070E0001F7171EECA7F01150B8
:10779800070B0001F72501018C6F000E906F000E9A
:1077A8008F6FE3EF3BF0150E0001F76FC60EE82E62
:1077B800FED7F72FFCD7000001018F4B902B8C517F
:1077C8000001F76FF86BF75101018F5D9051800A46
:1077D8000001F96FF851800AF959D8A0F6EF3BF08B
:1077E800F8EF3BF0D7EF3BF0BB9AFDEF3FF001011C
:1077F8009851D8B402EF3CF004EF3CF020EF3CF095
:107808007B0E116E630E126E99C113F09AC114F0BB
:10781800000E166E080E156E13EC85F0115012103E
:10782800D8A419EF3CF01BEF3CF020EF3CF0010E20
:107838000101976FFDEF3FF001019851D8B427EF90
:107848003CF029EF3CF045EF3CF0D90E116E620E8A
:10785800126E99C113F09AC114F0000E166E0A0E3A
:10786800156E13EC85F011501210D8A43EEF3CF0C1
:1078780040EF3CF045EF3CF0020E0101976FFDEF41
:107888003FF001019851D8B44CEF3CF04EEF3CF07A
:107898006AEF3CF0E40E116E620E126E99C113F09D
:1078A8009AC114F0000E166E0A0E156E13EC85F0D0
:1078B80011501210D8A463EF3CF065EF3CF06AEF6A
:1078C8003CF0030E0101976FFDEF3FF00101985165
:1078D800D8B471EF3CF073EF3CF098EF3CF0FF0E3A
:1078E800116E630E126E99C113F09AC114F0000E56
:1078F800166E030E156E13EC85F011501210D8A4F5
:1079080088EF3CF08AEF3CF098EF3CF0030E010161
:107918009925116E000E9A21126E3DEC7FF01150E0
:10792800B2ECA7F0FDEF3FF001019851D8B49FEFFA
:107938003CF0A1EF3CF0FAEF3CF0D30E116E630E71
:10794800126E99C113F09AC114F0000E166E050E4E
:10795800156E13EC85F011501210D8A4B6EF3CF058
:10796800B8EF3CF0FAEF3CF0000E0001AE6F000EED
:10797800AF6F050E010199250001AC6F000E0101E2
:107988009A210001AD6F04EC32F0ACC091F1ADC0AA
:1079980092F1AEC093F1AFC094F1000E00017E6F7A
:1079A800000E7F6F7A0E806F440E816F91C17AF05E
:1079B80092C17BF093C17CF094C17DF0E7EC61F05B
:1079C8007AC0C5F07BC0C6F07CC0C7F07DC0C8F0E7
:1079D800CFEC8CF0C5C060F1C6C061F160C1D3F0D6
:1079E80061C1D4F038EC9CF0FDEF3FF001019851F3
:1079F800D8B401EF3DF003EF3DF05CEF3DF0D90E58
:107A0800116E630E126E99C113F09AC114F0000E34
:107A1800166E050E156E13EC85F011501210D8A4D1
:107A280018EF3DF01AEF3DF05CEF3DF0000E00015D
:107A3800AE6F000EAF6F050E010199250001AC6F06
:107A4800000E01019A210001AD6F04EC32F0ACC0C8
:107A580091F1ADC092F1AEC093F1AFC094F1000EB8
:107A680000017E6F000E7F6F7A0E806F440E816F6B
:107A780091C17AF092C17BF093C17CF094C17DF002
:107A8800E7EC61F07AC0C5F07BC0C6F07CC0C7F0F7
:107A98007DC0C8F0CFEC8CF0C5C05EF1C6C05FF108
:107AA8005EC1D3F05FC1D4F0FCEC9BF0FDEF3FF07A
:107AB80001019851D8B463EF3DF065EF3DF09AEFBE
:107AC8003DF0330E116E630E126E99C113F09AC118
:107AD80014F0000E166E080E156E13EC85F011509A
:107AE8001210D8A47AEF3DF07CEF3DF09AEF3DF00C
:107AF800080E01019925296E000E9A212A6EF6ECCE
:107B080078F029C071F02AC072F02BC073F02CC035
:107B180074F02DC075F02EC076F02FC077F030C00D
:107B280078F0000EBFECA3F0FDEF3FF00101985193
:107B3800D8B4A1EF3DF0A3EF3DF0D8EF3DF03C0EF7
:107B4800116E630E126E99C113F09AC114F0000EF3
:107B5800166E080E156E13EC85F011501210D8A48D
:107B6800B8EF3DF0BAEF3DF0D8EF3DF0080E010157
:107B78009925296E000E9A212A6EF6EC78F029C014
:107B880071F02AC072F02BC073F02CC074F02DC0B5
:107B980075F02EC076F02FC077F030C078F0010E67
:107BA800BFECA3F0FDEF3FF001019851D8B4DFEF2F
:107BB8003DF0E1EF3DF016EF3EF0450E116E630E1D
:107BC800126E99C113F09AC114F0000E166E080EC9
:107BD800156E13EC85F011501210D8A4F6EF3DF095
:107BE800F8EF3DF016EF3EF0080E01019925296ED9
:107BF800000E9A212A6EF6EC78F029C071F02AC09E
:107C080072F02BC073F02CC074F02DC075F02EC02C
:107C180076F02FC077F030C078F0020EBFECA3F0FA
:107C2800FDEF3FF001019851D8B41DEF3EF01FEF72
:107C38003EF054EF3EF04E0E116E630E126E99C177
:107C480013F09AC114F0000E166E080E156E13ECA0
:107C580085F011501210D8A434EF3EF036EF3EF004
:107C680054EF3EF0080E01019925296E000E9A2165
:107C78002A6EF6EC78F029C071F02AC072F02BC099
:107C880073F02CC074F02DC075F02EC076F02FC0A4
:107C980077F030C078F0030EBFECA3F0FDEF3FF0B3
:107CA80001019851D8B45BEF3EF05DEF3EF092EFE2
:107CB8003EF0570E116E630E126E99C113F09AC101
:107CC80014F0000E166E080E156E13EC85F01150A8
:107CD8001210D8A472EF3EF074EF3EF092EF3EF02F
:107CE800080E01019925296E000E9A212A6EF6ECDC
:107CF80078F029C071F02AC072F02BC073F02CC044
:107D080074F02DC075F02EC076F02FC077F030C01B
:107D180078F0040EBFECA3F0FDEF3FF0010198519D
:107D2800D8B499EF3EF09BEF3EF0D0EF3EF0600EF6
:107D3800116E630E126E99C113F09AC114F0000E01
:107D4800166E080E156E13EC85F011501210D8A49B
:107D5800B0EF3EF0B2EF3EF0D0EF3EF0080E01017A
:107D68009925296E000E9A212A6EF6EC78F029C022
:107D780071F02AC072F02BC073F02CC074F02DC0C3
:107D880075F02EC076F02FC077F030C078F0050E71
:107D9800BFECA3F0FDEF3FF001019851D8B4D7EF45
:107DA8003EF0D9EF3EF00EEF3FF0690E116E630E14
:107DB800126E99C113F09AC114F0000E166E080ED7
:107DC800156E13EC85F011501210D8A4EEEF3EF0AA
:107DD800F0EF3EF00EEF3FF0080E01019925296EF5
:107DE800000E9A212A6EF6EC78F029C071F02AC0AC
:107DF80072F02BC073F02CC074F02DC075F02EC03B
:107E080076F02FC077F030C078F0060EBFECA3F004
:107E1800FDEF3FF001019851D8B415EF3FF017EF8F
:107E28003FF04CEF3FF0720E116E630E126E99C167
:107E380013F09AC114F0000E166E080E156E13ECAE
:107E480085F011501210D8A42CEF3FF02EEF3FF020
:107E58004CEF3FF0080E01019925296E000E9A217A
:107E68002A6EF6EC78F029C071F02AC072F02BC0A7
:107E780073F02CC074F02DC075F02EC076F02FC0B2
:107E880077F030C078F0070EBFECA3F0FDEF3FF0BD
:107E980001019851D8B453EF3FF055EF3FF078EF18
:107EA8003FF0020E9719D8A45CEF3FF05EEF3FF069
:107EB80078EF3FF0170E116E630E126E99C113F032
:107EC8009AC114F0000E166E090E156E13EC85F0AB
:107ED80011501210D8A473EF3FF075EF3FF078EF10
:107EE8003FF0FF00FDEF3FF001019851D8B47FEF5C
:107EF8003FF081EF3FF0B8EF3FF0020E9719D8A49A
:107F080088EF3FF08AEF3FF0B8EF3FF0C60E116EF2
:107F1800630E126E99C113F09AC114F0000E166E1A
:107F2800060E156E13EC85F011501210D8A49FEFB1
:107F38003FF0A1EF3FF0B8EF3FF09C0E116E020E3C
:107F4800126E060E01019925136E000E9A21146E09
:107F5800000E166E1F0E156E1BEC98F00201BB6B1F
:107F680033ECA3F0FDEF3FF001019851D8B4BFEF17
:107F78003FF0C1EF3FF0A9EF3BF0020E9719D8A4EC
:107F8800C8EF3FF0CAEF3FF0A9EF3BF0CE0E116EFD
:107F9800620E126E99C113F09AC114F0000E166E9B
:107FA8000A0E156E13EC85F011501210D8A4DFEFED
:107FB8003FF0E1EF3FF0A9EF3BF01EECA7F011A076
:107FC800E8EF3FF0EAEF3FF0A9EF3BF09C0E116EAF
:107FD800020E126E0A0E01019925136E000E9A21E7
:107FE800146E000E166E1F0E156E1BEC98F0B2EF95
:107FF8003FF0000E1C6E000E1D6ECD0E1E6E630E41
:108008001F6EBEEC8FF01CC099F11DC09AF10101E2
:1080180099519A11D8A413EF40F015EF40F076EF7C
:108028003BF023EF40F0A1EC48F03EEF40F042EC8B
:1080380087F03EEF40F07BEC99F03EEF40F0010115
:1080480097510001F76FF86BF851000AD8B42FEF79
:1080580040F03EEF40F0F751010AD8B417EF40F076
:10806800030AD8B41FEF40F0010AD8B41BEF40F060
:108078003EEF40F0BB8A1200000E0001726FFE0E48
:10808800736FFF0E746F460E756F20EE02F0E551A8
:10809800D926E651DA226F0078FF76F06F0078FF74
:1080A80077F06F0078FF78F06F0078FF79F00FECC9
:1080B800A3F072C0D1F173C0D2F174C0D3F175C00E
:1080C800D4F1000120EE5FF0E551D926E651DA221D
:1080D8006F0078FF11F06F0078FF12F06F0078FFE3
:1080E80013F06F0078FF14F0D1C115F0D2C116F06B
:1080F800D3C117F0D4C118F053EC8DF0D8B087EF86
:1081080040F089EF40F0C3EF40F0000120EE5FF04F
:10811800E551D926E651DA226F0078FF66F06F0044
:1081280078FF67F06F0078FF68F06F0078FF69F0FC
:1081380020EE02F0E551D926E651DA226F0078FFE9
:108148006AF06F0078FF6BF06F0078FF6CF06F00DB
:1081580078FF6DF08BEC5FF0000120EE5FF0E551E9
:10816800D926E651DA2260009BF1DEFF60009FF11C
:10817800DEFF6000A3F1DEFF6000A7F1DEFF000173
:1081880020EE63F0E551D926E651DA226F0078FF38
:1081980011F06F0078FF12F06F0078FF13F06F0096
:1081A80078FF14F0D1C115F0D2C116F0D3C117F081
:1081B800D4C118F053EC8DF0D8B0E5EF40F0E7EFFC
:1081C80040F021EF41F0000120EE63F0E551D9269F
:1081D800E651DA226F0078FF66F06F0078FF67F0EB
:1081E8006F0078FF68F06F0078FF69F020EE02F00A
:1081F800E551D926E651DA226F0078FF6AF06F0060
:1082080078FF6BF06F0078FF6CF06F0078FF6DF00F
:108218008BEC5FF0000120EE63F0E551D926E651C2
:10822800DA2260009BF1DEFF60009FF1DEFF600054
:10823800A3F1DEFF6000A7F1DEFFE5C011F0E6C0A4
:1082480012F0000120EE12F0E551D926E651DA22AB
:108258006F0078FF13F06F0078FF14F06F0078FF5D
:1082680015F06F0078FF16F00A0E176ED70E186E0D
:10827800230E196E3C0E1A6E09ECA2F0E5C0D7F079
:10828800E6C0D8F0000120EE5FF0E551D926E651AE
:10829800DA226F0078FFD9F06F0078FFDAF06F000C
:1082A80078FFDBF06F0078FFDCF0BCEC82F0D7C021
:1082B800D5F1D8C0D6F1D9C0D7F1DAC0D8F1D5C137
:1082C8007EF0D6C17FF0D7C180F0D8C181F000011F
:1082D80020EE47F0E551D926E651DA226F0078FF03
:1082E80076F06F0078FF77F06F0078FF78F06F0016
:1082F80078FF79F020EE4FF0E551D926E651DA22E1
:108308006F0078FF72F06F0078FF73F06F0078FFEE
:1083180074F06F0078FF75F00FECA3F072C07AF07C
:1083280073C07BF074C07CF075C07DF0E7EC61F041
:108338007AC0E5F17BC0E6F17CC0E7F17DC0E8F1E9
:10834800E5C166F0E6C167F0E7C168F0E8C169F029
:10835800000120EE47F0E551D926E651DA226F00F8
:1083680078FF6AF06F0078FF6BF06F0078FF6CF0B1
:108378006F0078FF6DF08BEC5FF066C0B5F167C0F9
:10838800B6F168C0B7F169C0B8F1000120EE63F03A
:10839800E551D926E651DA226F0078FFD9F06F004F
:1083A80078FFDAF06F0078FFDBF06F0078FFDCF021
:1083B800E5C0D7F0E6C0D8F0BCEC82F0D7C0DDF15C
:1083C800D8C0DEF1D9C0DFF1DAC0E0F1DDC17EF05E
:1083D800DEC17FF0DFC180F0E0C181F0000120EE56
:1083E8001AF0E551D926E651DA226F0078FF76F0C7
:1083F8006F0078FF77F06F0078FF78F06F0078FFF4
:1084080079F0000E726F000E736FFF0E746F430EDB
:10841800756F0FECA3F072C07AF073C07BF074C074
:108428007CF075C07DF0E7EC61F07AC0E1F17BC0CB
:10843800E2F17CC0E3F17DC0E4F1E1C166F0E2C1A4
:1084480067F0E3C168F0E4C169F0000120EE1AF0BA
:10845800E551D926E651DA226F0078FF6AF06F00FD
:1084680078FF6BF06F0078FF6CF06F0078FF6DF0AD
:108478008BEC5FF066C0B9F167C0BAF168C0BBF1B8
:1084880069C0BCF1E5C011F0E6C012F0B9C113F043
:10849800BAC114F0BBC115F0BCC116F0EC0E176ED2
:1084A800510E186EB80E196E3D0E1A6E09ECA2F038
:1084B800E5C0D7F0E6C0D8F0000120EE36F0E5516F
:1084C800D926E651DA226F0078FFD9F06F0078FFDD
:1084D800DAF06F0078FFDBF06F0078FFDCF0BCECBF
:1084E80082F0D7C0D9F1D8C0DAF1D9C0DBF1DAC04F
:1084F800DCF1D9C17AF0DAC17BF0DBC17CF0DCC1F8
:108508007DF0B5C17EF0B6C17FF0B7C180F0B8C1CB
:1085180081F0E7EC61F0000120EE57F0E551D92633
:10852800E651DA226000EBF1DEFF6000EFF1DEFFDA
:108538006000F3F1DEFF6000F7F1DEFFE5C011F047
:10854800E6C012F020EE16F0E551D926E651DA22FF
:108558006F0078FF13F06F0078FF14F06F0078FF5A
:1085680015F06F0078FF16F00A0E176ED70E186E0A
:10857800230E196E3C0E1A6E09ECA2F0E5C0D7F076
:10858800E6C0D8F0000120EE5FF0E551D926E651AB
:10859800DA226F0078FFD9F06F0078FFDAF06F0009
:1085A80078FFDBF06F0078FFDCF0BCEC82F0D7C01E
:1085B800BDF1D8C0BEF1D9C0BFF1DAC0C0F1D5C194
:1085C80076F0D6C177F0D7C178F0D8C179F0BDC1BF
:1085D80072F0BEC173F0BFC174F0C0C175F00FEC8A
:1085E800A3F072C07EF073C07FF074C080F075C0D5
:1085F80081F0000120EE4BF0E551D926E651DA2250
:108608006F0078FF76F06F0078FF77F06F0078FFE3
:1086180078F06F0078FF79F020EE53F0E551D92615
:10862800E651DA226F0078FF72F06F0078FF73F07E
:108638006F0078FF74F06F0078FF75F00FECA3F00F
:1086480072C07AF073C07BF074C07CF075C07DF0A6
:10865800E7EC61F07AC0E5F17BC0E6F17CC0E7F1B8
:108668007DC0E8F1E5C166F0E6C167F0E7C168F0F2
:10867800E8C169F0000120EE4BF0E551D926E6513A
:10868800DA226F0078FF6AF06F0078FF6BF06F00F6
:1086980078FF6CF06F0078FF6DF08BEC5FF066C0D0
:1086A800C1F167C0C2F168C0C3F169C0C4F100017B
:1086B80020EE63F0E551D926E651DA226F0078FF03
:1086C800D9F06F0078FFDAF06F0078FFDBF06F0009
:1086D80078FFDCF0E5C0D7F0E6C0D8F0BCEC82F05B
:1086E800D7C0DDF1D8C0DEF1D9C0DFF1DAC0E0F1E2
:1086F800DDC17EF0DEC17FF0DFC180F0E0C181F036
:10870800000120EE1AF0E551D926E651DA226F0071
:1087180078FF76F06F0078FF77F06F0078FF78F0D9
:108728006F0078FF79F0000E726F000E736FFF0E06
:10873800746F430E756F0FECA3F072C07AF073C0BC
:108748007BF074C07CF075C07DF0E7EC61F07AC016
:10875800E1F17BC0E2F17CC0E3F17DC0E4F1E1C16D
:1087680066F0E2C167F0E3C168F0E4C169F00001B6
:1087780020EE1AF0E551D926E651DA226F0078FF8B
:108788006AF06F0078FF6BF06F0078FF6CF06F0095
:1087980078FF6DF08BEC5FF066C0C5F167C0C6F17D
:1087A80068C0C7F169C0C8F1E5C011F0E6C012F0B1
:1087B800C5C113F0C6C114F0C7C115F0C8C116F081
:1087C800EC0E176E510E186EB80E196E3D0E1A6E1D
:1087D80009ECA2F0E5C0D7F0E6C0D8F0000120EE21
:1087E80036F0E551D926E651DA226F0078FFD9F044
:1087F8006F0078FFDAF06F0078FFDBF06F0078FF2A
:10880800DCF0BCEC82F0D7C0C9F1D8C0CAF1D9C03D
:10881800CBF1DAC0CCF1C9C17AF0CAC17BF0CBC1C7
:108828007CF0CCC17DF0C1C17EF0C2C17FF0C3C174
:1088380080F0C4C181F0E7EC61F0000120EE5BF04C
:10884800E551D926E651DA226000EBF1DEFF60003F
:10885800EFF1DEFF6000F3F1DEFF6000F7F1DEFF0D
:10886800660E7E6F660E7F6FA60E806F3F0E816F5D
:10887800D9C176F0DAC177F0DBC178F0DCC179F0E4
:10888800000E726F000E736F800E746F3F0E756F5F
:108898000FECA3F072C07AF073C07BF074C07CF068
:1088A80075C07DF0E7EC61F07AC0E5F17BC0E6F1D8
:1088B8007CC0E7F17DC0E8F1000E0001976F000E63
:1088C800986F700E996F420E9A6F20EE02F0E55184
:1088D800D926E651DA226F0078FF93F06F0078FF0F
:1088E80094F06F0078FF95F06F0078FF96F017EC22
:1088F8006EF093C07EF094C07FF095C080F096C073
:1089080081F09A0E00016A6F990E6B6F990E6C6F69
:10891800BE0E6D6FE5C166F0E6C167F0E7C168F0AD
:10892800E8C169F08BEC5FF066C07AF067C07BF055
:1089380068C07CF069C07DF0E7EC61F07AC0CDF1E9
:108948007BC0CEF17CC0CFF17DC0D0F1CDC166F047
:10895800CEC167F0CFC168F0D0C169F0000120EE48
:1089680067F0E551D926E651DA226F0078FF6AF000
:108978006F0078FF6BF06F0078FF6CF06F0078FF86
:108988006DF08BEC5FF0000120EE67F0E551D92621
:10899800E651DA2260009BF1DEFF60009FF1DEFF06
:1089A8006000A3F1DEFF6000A7F1DEFF20EE67F0B4
:1089B800E551D926E651DA22030EDBBEE8EF44F092
:1089C800E6EF44F0F6EF44F020EE67F0E551D926E3
:1089D800E651DA22000EDE6E000EDE6E000EDE6E4E
:1089E800000EDD6E20EE0EF0E551D926E651DA22B2
:1089F8006F0078FF11F06F0078FF12F06F0078FFBA
:108A080013F06F0078FF14F020EE67F0E551D926D7
:108A1800E651DA226F0078FF15F06F0078FF16F044
:108A28006F0078FF17F06F0078FF18F053EC8DF0A7
:108A3800D8B021EF45F023EF45F032EF45F00001C3
:108A480020EE63F0E551D926E651DA22000EDE6EFB
:108A5800000EDE6E000EDE6E000EDD6E12000101ED
:108A680020EE3AF0E951D926EA51DA22DF50D8A4AB
:108A780040EF45F042EF45F06CEF45F020EE3AF05C
:108A8800E951D926EA51DA22010EDF6E20EE3FF0D5
:108A9800E951D926EA51DA226000AFF7DEFF60001B
:108AA800B3F7DEFF6000B7F7DEFF6000BBF7DEFF5D
:108AB80020EE3BF0E951D926EA51DA22000EDE6EAB
:108AC800000EDE6E000EDE6E000EDD6EA0EF48F0CA
:108AD80020EE3BF0E951D926EA51DA226F0078FFFF
:108AE80011F06F0078FF12F06F0078FF13F06F003D
:108AF80078FF14F0000E156E000E166EC80E176E75
:108B0800420E186E53EC8DF0D8B08DEF45F08FEF14
:108B180045F0B3EF45F0000E116E000E126EC80E50
:108B2800136EC20E146E010120EE3BF0E951D926F6
:108B3800EA51DA226F0078FF15F06F0078FF16F01F
:108B48006F0078FF17F06F0078FF18F053EC8DF086
:108B5800D8A0B1EF45F0B3EF45F0FDEF45F00101C6
:108B680020EE3FF0E951D926EA51DA226F0078FF6A
:108B780066F06F0078FF67F06F0078FF68F06F00AD
:108B880078FF69F020EE3BF0E951D926EA51DA2264
:108B98006F0078FF6AF06F0078FF6BF06F0078FF66
:108BA8006CF06F0078FF6DF08BEC5FF0010120EE48
:108BB8003FF0E951D926EA51DA22000160009BF121
:108BC800DEFF60009FF1DEFF6000A3F1DEFF6000C2
:108BD800A7F1DEFF010120EE3BF0E951D926EA5169
:108BE800DA22000EDE6E000EDE6E000EDE6E000E65
:108BF800DD6EEBC172F0ECC173F0EDC174F0EEC143
:108C080075F0010120EE3FF0E951D926EA51DA2248
:108C18006F0078FF76F06F0078FF77F06F0078FFCD
:108C280078F06F0078FF79F00FECA3F072C0EBF1E9
:108C380073C0ECF174C0EDF175C0EEF1E9C1E5F077
:108C4800EAC1E6F040EC40F0010120EE3BF0E951CA
:108C5800D926EA51DA226F0078FF76F06F0078FFA4
:108C680077F06F0078FF78F06F0078FF79F0EBC14C
:108C780072F0ECC173F0EDC174F0EEC175F00FEC59
:108C8800A3F072C093F073C094F074C095F075C0EF
:108C980096F0000E0001976F000E986F800E996F86
:108CA800420E9A6F17EC6EF093C09BF394C09CF33E
:108CB80095C09DF396C09EF303019EBF68EF46F0F2
:108CC80066EF46F08FEF46F0010120EE43F0E951E0
:108CD800D926EA51DA226F0078FF72F06F0078FF28
:108CE80073F06F0078FF74F06F0078FF75F09BC326
:108CF80076F09CC377F09DC378F09EC379F00FECB3
:108D0800A3F072C093F373C094F374C095F375C065
:108D180096F3B4EF46F0010120EE43F0E951D9266D
:108D2800EA51DA226F0078FF66F06F0078FF67F08B
:108D38006F0078FF68F06F0078FF69F09BC36AF0F6
:108D48009CC36BF09DC36CF09EC36DF08BEC5FF021
:108D580066C093F367C094F368C095F369C096F34F
:108D6800000E0301976F000E986F800E996F3F0EEB
:108D78009A6F000E116E000E126EB40E136E440E32
:108D8800146E93C315F094C316F095C317F096C3E9
:108D980018F053EC8DF0D8B0D4EF46F0D6EF46F08B
:108DA80016EF47F0000E0001976F000E986FB40E93
:108DB800996F440E9A6F93C393F094C394F095C33C
:108DC80095F096C396F017EC6EF093C07AF094C0C5
:108DD8007BF095C07CF096C07DF0000E0001976F87
:108DE800000E986FB40E996F440E9A6F93C393F068
:108DF80094C394F095C395F096C396F017EC6EF073
:108E080093C07EF094C07FF095C080F096C081F04A
:108E1800E7EC61F07AC097F37BC098F37CC099F3D4
:108E28007DC09AF397C397F098C398F099C399F0C7
:108E38009AC39AF09BC37EF09CC37FF09DC380F0D9
:108E48009EC381F0010120EE5BF0E951D926EA5179
:108E5800DA226F0078FF7AF06F0078FF7BF06F00FE
:108E680078FF7CF06F0078FF7DF0E7EC61F07AC066
:108E780093F07BC094F07CC095F07DC096F017EC21
:108E88006EF093C083F394C084F395C085F396C0C5
:108E980086F3000E00017E6F000E7F6F800E806FDC
:108EA800420E816F97C37AF098C37BF099C37CF028
:108EB8009AC37DF0E7EC61F07AC097F07BC098F038
:108EC8007CC099F07DC09AF0010120EE43F0E95191
:108ED800D926EA51DA226F0078FF93F06F0078FF05
:108EE80094F06F0078FF95F06F0078FF96F017EC1C
:108EF8006EF093C087F394C088F395C089F396C049
:108F08008AF397C37EF098C37FF099C380F09AC321
:108F180081F0010120EE5BF0E951D926EA51DA220D
:108F28006F0078FF76F06F0078FF77F06F0078FFBA
:108F380078F06F0078FF79F0000E0001726F000E74
:108F4800736F800E746F420E756F0FECA3F072C0D2
:108F58007AF073C07BF074C07CF075C07DF0E7ECEC
:108F680061F07AC0ACF07BC0ADF07CC0AEF07DC0E3
:108F7800AFF04CEC68F0ACC08BF3ADC08CF3AEC076
:108F88008DF3AFC08EF39BC37EF09CC37FF09DC36F
:108F980080F09EC381F083C37AF084C37BF085C3DD
:108FA8007CF086C37DF0E7EC61F07AC06AF07BC0A4
:108FB8006BF07CC06CF07DC06DF0010120EE43F0D9
:108FC800E951D926EA51DA226F0078FF7EF06F0066
:108FD80078FF7FF06F0078FF80F06F0078FF81F0F6
:108FE80087C37AF088C37BF089C37CF08AC37DF09D
:108FF800E7EC61F07AC066F07BC067F07CC068F08F
:109008007DC069F08BEC5FF066C0ACF067C0ADF076
:1090180068C0AEF069C0AFF04CEC68F0ACC08FF33C
:10902800ADC090F3AEC091F3AFC092F38BC37AF0AA
:109038008CC37BF08DC37CF08EC37DF08FC37EF034
:1090480090C37FF091C380F092C381F0E7EC61F0A8
:10905800010120EE43F0E951D926EA51DA22000154
:109068006000EBF1DEFF6000EFF1DEFF6000F3F17E
:10907800DEFF6000F7F1DEFF000E976F000E986FBD
:10908800000E996F410E9A6F9BC37EF09CC37FF0D0
:109098009DC380F09EC381F0010120EE57F0E95195
:1090A800D926EA51DA226F0078FF7AF06F0078FF4C
:1090B8007BF06F0078FF7CF06F0078FF7DF0E7ECC5
:1090C80061F07AC093F07BC094F07CC095F07DC0CD
:1090D80096F017EC6EF093C066F094C067F095C0F8
:1090E80068F096C069F0010120EE3BF0E951D926FD
:1090F800EA51DA226F0078FF6AF06F0078FF6BF0B0
:109108006F0078FF6CF06F0078FF6DF08BEC5FF00C
:10911800010120EE3BF0E951D926EA51DA2200019B
:1091280060009BF1DEFF60009FF1DEFF6000A3F1AD
:10913800DEFF6000A7F1DEFF1200000E0001F66FEF
:10914800000EF56FC6ECA7F00001EF6FC3ECA7F0B7
:109158000001F06FC0ECA7F00001F16FBDECA7F0C3
:109168000001F26F9C0EF5259B6F0B0EF6219C6F8C
:10917800C20E9D6F620E9E6F9C0E9F6F020EA06FB7
:10918800CFECA7F00001ED6FED51A16FA26BF6ECEB
:10919800A0F000019B51F5279C51F623EF51D8B45C
:1091A800D8EF48F0DAEF48F0EEEF48F09C0EF525DE
:1091B8009B6F0B0EF6219C6FB70E9D6F630E9E6F13
:1091C800EFC09FF0A06BF6ECA0F000019B51F527D3
:1091D8009C51F623F051D8B4F4EF48F0F6EF48F07C
:1091E8000AEF49F09C0EF5259B6F0B0EF6219C6F3C
:1091F800840E9D6F630E9E6FF0C09FF0A06BF6EC1F
:10920800A0F000019B51F5279C51F623F151D8B4E9
:1092180010EF49F012EF49F026EF49F09C0EF525C2
:109228009B6F0B0EF6219C6F8D0E9D6F630E9E6FCC
:10923800F1C09FF0A06BF6ECA0F000019B51F52760
:109248009C51F623F251D8B42CEF49F02EEF49F097
:1092580042EF49F09C0EF5259B6F0B0EF6219C6F93
:10926800960E9D6F630E9E6FF2C09FF0A06BF6EC9A
:10927800A0F000019B51F5279C51F623800E0101B7
:1092880074197311D8B44BEF49F04DEF49F085EFDD
:1092980049F073C123F074C124F030ECA5F023C069
:1092A80027F024C028F0000E2A6E0A0E296EDDEC85
:1092B80094F027C0F3F028C0F4F09C0E0001F525C7
:1092C8009B6F0B0EF6219C6FEF0E9D6F620E9E6FCB
:1092D80073C111F074C112F0000E146E0A0E136EF1
:1092E80008EC93F011C09FF012C0A0F0F3C0A1F0F9
:1092F800F4C0A2F0F6ECA0F000019B51F5279C51B8
:10930800F623800E010176197511D8B48EEF49F055
:1093180090EF49F0C8EF49F075C123F076C124F009
:1093280030ECA5F023C027F024C028F0000E2A6EE8
:109338000A0E296EDDEC94F027C0F3F028C0F4F093
:109348009C0E0001F5259B6F0B0EF6219C6FF90E04
:109358009D6F620E9E6F75C111F076C112F0000EFE
:10936800146E0A0E136E08EC93F011C09FF012C031
:10937800A0F0F3C0A1F0F4C0A2F0F6ECA0F0000158
:109388009B51F5279C51F623800E0101781977111E
:10939800D8B4D1EF49F0D3EF49F00BEF4AF077C1D9
:1093A80023F078C124F030ECA5F023C027F024C0C6
:1093B80028F0000E2A6E0A0E296EDDEC94F027C004
:1093C800F3F028C0F4F09C0E0001F5259B6F0B0EFE
:1093D800F6219C6F030E9D6F630E9E6F77C111F08F
:1093E80078C112F0000E146E0A0E136E08EC93F09A
:1093F80011C09FF012C0A0F0F3C0A1F0F4C0A2F019
:10940800F6ECA0F000019B51F5279C51F623800E45
:1094180001017A197911D8B414EF4AF016EF4AF01D
:109428004EEF4AF079C123F07AC124F030ECA5F070
:1094380023C027F024C028F0000E2A6E0A0E296ED9
:10944800DDEC94F027C0F3F028C0F4F09C0E000186
:10945800F5259B6F0B0EF6219C6F0D0E9D6F630E0D
:109468009E6F79C111F07AC112F0000E146E0A0EC7
:10947800136E08EC93F011C09FF012C0A0F0F3C077
:10948800A1F0F4C0A2F0F6ECA0F000019B51F52782
:109498009C51F623800E01017C197B11D8B457EF3B
:1094A8004AF059EF4AF06FEF4AF09C0E0001F5259B
:1094B8009B6F0B0EF6219C6FA70E9D6F630E9E6F20
:1094C8007BC19FF07CC1A0F0F6ECA0F000019B519D
:1094D800F5279C51F623800E01017E197D11D8B421
:1094E80078EF4AF07AEF4AF090EF4AF09C0E0001CC
:1094F800F5259B6F0B0EF6219C6FAF0E9D6F630ECB
:109508009E6F7DC19FF07EC1A0F0F6ECA0F0000137
:109518009B51F5279C51F6239C0E0001F5259B6F66
:109528000B0EF6219C6F7E0E9D6F620E9E6F6FC1B3
:1095380011F070C112F0030E146EE80E136EAFEC4A
:109548009CF011C09FF012C0A0F0000E146E0A0E1D
:10955800136E6FC111F070C112F0AFEC9CF011C026
:1095680018F012C019F0000E1B6E640E1A6E63EC30
:109578009EF018C0A1F019C0A2F071C111F072C11B
:1095880012F0030E146EE80E136EAFEC9CF011C0CF
:10959800A3F012C0A4F0000E146E0A0E136E71C16F
:1095A80011F072C112F0AFEC9CF011C018F012C0AB
:1095B80019F0000E1B6E640E1A6E63EC9EF018C054
:1095C800A5F019C0A6F0F6ECA0F000019B51F52714
:1095D8009C51F6239C0EF5259B6F0B0EF6219C6F74
:1095E800F40E9D6F610E9E6F000E95EC9EF011C0FB
:1095F8009FF012C0A0F013C0A1F014C0A2F015C0D3
:10960800A3F016C0A4F017C0A5F018C0A6F0010E6C
:1096180095EC9EF011C0A7F012C0A8F013C0A9F0F5
:1096280014C0AAF015C0ABF016C0ACF017C0ADF06E
:1096380018C0AEF0020E95EC9EF011C0AFF012C04B
:10964800B0F013C0B1F014C0B2F015C0B3F016C03A
:10965800B4F017C0B5F018C0B6F0030E95EC9EF044
:1096680011C0B7F012C0B8F013C0B9F014C0BAF006
:1096780015C0BBF016C0BCF017C0BDF018C0BEF0D6
:10968800040E95EC9EF011C0BFF012C0C0F013C0DC
:10969800C1F014C0C2F015C0C3F016C0C4F017C0A2
:1096A800C5F018C0C6F0050E95EC9EF011C0C7F0C5
:1096B80012C0C8F013C0C9F014C0CAF015C0CBF06E
:1096C80016C0CCF017C0CDF018C0CEF0060E95EC41
:1096D8009EF011C0CFF012C0D0F013C0D1F014C06A
:1096E800D2F015C0D3F016C0D4F017C0D5F018C00A
:1096F800D6F0070E95EC9EF011C0D7F012C0D8F046
:1097080013C0D9F014C0DAF015C0DBF016C0DCF0D5
:1097180017C0DDF018C0DEF0F6ECA0F000019B5198
:10972800F5279C51F6239C0E116E0B0E126EF5C098
:1097380013F0F6C014F0000E45EC9BF00001EE6F3C
:109748009C0EF5259B6F0B0EF6219C6FAA0E9D6F44
:10975800620E9E6FEEC09FF0A06BF6ECA0F00001C9
:109768009B51F5279C51F623E80E9B6F630E9C6F67
:109778009C0E9D6F0B0E9E6F76ECA6F084ECA7F006
:109788001200CFC0B1F1D0C0B2F1D1C0B3F1D2C094
:10979800B4F10101B4BFD3EF4BF0D6EF4BF0010E9B
:1097A800D7EF4BF0000EAC6FB49F500EB15DAC0E0E
:1097B800B259AE0EB359420EB459D8A0E6EF4BF0E9
:1097C800E8EF4BF05AEF4CF0000E5D6F220E5C6F25
:1097D800B105000EB259800EB3597F0EB459D8A006
:1097E800F8EF4BF0FAEF4BF004EF4CF0CFC0CFF0AE
:1097F800D0C0D0F0D1C0D1F0D2C0D2F0D1EF4EF06D
:10980800180EB15D720EB259B10EB359420EB45969
:10981800D8A011EF4CF013EF4CF038EF4CF0AC51EE
:10982800D8A419EF4CF01BEF4CF038EF4CF0CFC038
:109838007AF0D0C07BF0D1C07CF0D2C07DF0000EB1
:1098480000017E6F000E7F6F000E806F7F0E816FAC
:10985800E7EC61F07AC0CFF07BC0D0F07CC0D1F0EB
:109868007DC0D2F0D1EF4EF0AC51D8B43EEF4CF001
:1098780040EF4CF05AEF4CF0B50EB15DF10EB25915
:10988800CF0EB359420EB459D8A04DEF4CF04FEF5C
:109898004CF05AEF4CF0000E0001CF6F000ED06F65
:1098A800000ED16F000ED26FD1EF4EF0190EB15DE0
:1098B800720EB259B10EB3593E0EB459D8A067EF23
:1098C8004CF069EF4CF05FEF4DF0930EB15D150E63
:1098D800B259850EB3593F0EB459D8A076EF4CF063
:1098E80078EF4CF0C4EF4CF0AC51040DC70EF324E4
:1098F800F66E610EF420F76EF86A000EF822090081
:109908006F00D4FF6AF009006F00D4FF6BF0090004
:109918006F00D4FF6CF00A006F00D4FF6DF03B0EAF
:1099280000017E6FAA0E7F6FB80E806F3F0E816FA9
:10993800CFC07AF0D0C07BF0D1C07CF0D2C07DF02F
:10994800E7EC61F07AC066F07BC067F07CC068F035
:109958007DC069F08BEC5FF066C0C5F067C0C6F0EB
:1099680068C0C7F069C0C8F0CFEC8CF0C5C0ADF1D5
:10997800C6C0AEF1C7C0AFF1C8C0B0F1E5EF4CF05A
:10998800AC510001D36FD46BFE0ED3036F00CCFF34
:10999800D5F06F00D0FFD6F0D403F350D627FF0ED2
:1099A800D303F350D627010ED527000ED623D5C0F2
:1099B800ADF1D6C0AEF10101000EAEBFFF0EAF6F24
:1099C800B06FCFC072F0D0C073F0D1C074F0D2C005
:1099D80075F0000E00017E6F720E7F6F310E806F82
:1099E8003F0E816FADC133F0AEC134F0AFC135F079
:1099F800B0C136F0010E0EEC81F033C07AF034C0FD
:109A08007BF035C07CF036C07DF0E7EC61F07AC0C1
:109A180076F07BC077F07CC078F07DC079F00FECF1
:109A2800A3F072C0A4F173C0A5F174C0A6F175C00B
:109A3800A7F1ADC133F0AEC134F0AFC135F0B0C15C
:109A480036F0010E0EEC81F033C07AF034C07BF0B2
:109A580035C07CF036C07DF08E0E00017E6FBE0EE4
:109A68007F6FBF0E806F350E816FE7EC61F07AC0B3
:109A7800A8F17BC0A9F17CC0AAF17DC0ABF1A4C15B
:109A880072F0A5C173F0A6C174F0A7C175F0A8C1A2
:109A980076F0A9C177F0AAC178F0ABC179F00FECE4
:109AA800A3F072C0CFF073C0D0F074C0D1F075C00D
:109AB800D2F0A4EF4DF0B105000EB259000EB35923
:109AC800390EB459D8A06BEF4DF06DEF4DF087EF1C
:109AD8004DF0000EAD6F000EAE6F000EAF6F000EB2
:109AE800B06FCFC0A4F1D0C0A5F1D1C0A6F1D2C04B
:109AF800A7F1000EA86F000EA96F000EAA6F000E46
:109B0800AB6FA4EF4DF0CFC066F0D0C067F0D1C006
:109B180068F0D2C069F0000E00016A6F000E6B6F2A
:109B2800800E6C6F3F0E6D6F8BEC5FF066C0CFF0F0
:109B380067C0D0F068C0D1F069C0D2F0D1EF4EF064
:109B4800CFC07AF0D0C07BF0D1C07CF0D2C07DF01D
:109B5800CFC07EF0D0C07FF0D1C080F0D2C081F0FD
:109B6800E7EC61F07AC09CF17BC09DF17CC09EF16E
:109B78007DC09FF18F0E00016A6FAA0E6B6F2A0ECF
:109B88006C6F3E0E6D6F150E7E6F520E7F6F350E29
:109B9800806FBB0E816F9CC17AF09DC17BF09EC126
:109BA8007CF09FC17DF0E7EC61F07AC066F07BC085
:109BB80067F07CC068F07DC069F08BEC5FF066C030
:109BC80088F167C089F168C08AF169C08BF1CFC09C
:109BD80072F0D0C073F0D1C074F0D2C075F09CC1DF
:109BE8007EF09DC17FF09EC180F09FC181F088C149
:109BF8007AF089C17BF08AC17CF08BC17DF0E7ECFB
:109C080061F07AC076F07BC077F07CC078F07DC0D8
:109C180079F00FECA3F072C098F173C099F174C099
:109C28009AF175C09BF198C176F099C177F09AC105
:109C380078F09BC179F0000E0001726F000E736F0F
:109C4800000E746F400E756F0FECA3F072C097F0A2
:109C580073C098F074C099F075C09AF098C17EF0FE
:109C680099C17FF09AC180F09BC181F0CFC07AF092
:109C7800D0C07BF0D1C07CF0D2C07DF0E7EC61F0C1
:109C88007AC093F07BC094F07CC095F07DC096F0CC
:109C980017EC6EF093C08CF194C08DF195C08EF1E5
:109CA80096C08FF1A8C176F0A9C177F0AAC178F063
:109CB800ABC179F08CC172F08DC173F08EC174F0B4
:109CC8008FC175F00FECA3F072C090F173C091F1E1
:109CD80074C092F175C093F1A4C16AF0A5C16BF08C
:109CE800A6C16CF0A7C16DF090C166F091C167F094
:109CF80092C168F093C169F08BEC5FF066C094F193
:109D080067C095F168C096F169C097F194C166F093
:109D180095C167F096C168F097C169F0000E00011F
:109D28006A6F000E6B6F800E6C6F3F0E6D6F8BEC61
:109D38005FF066C0A0F167C0A1F168C0A2F169C078
:109D4800A3F10101AD51AE11AF11B011D8A4AFEF1D
:109D58004EF0B1EF4EF0BBEF4EF0A0C1CFF0A1C175
:109D6800D0F0A2C1D1F0A3C1D2F0D1EF4EF0A0C182
:109D780093F0A1C194F0A2C195F0A3C196F0ADC132
:109D880097F0AEC198F0D7EC77F093C0CFF094C0BD
:109D9800D0F095C0D1F096C0D2F01200000E116E2E
:109DA800000E126E340E136E420E146E010120EE78
:109DB8002EF0EF51D926F051DA226F0078FF15F016
:109DC8006F0078FF16F06F0078FF17F06F0078FFCC
:109DD80018F053EC8DF0D8A0F4EF4EF0F6EF4EF0FB
:109DE80033EF4FF0010120EE2EF0EF51D926F0515C
:109DF800DA226F0078FF66F06F0078FF67F06F0077
:109E080078FF68F06F0078FF69F020EE02F0EF51FC
:109E1800D926F051DA226F0078FF6AF06F0078FFD8
:109E28006BF06F0078FF6CF06F0078FF6DF08BECD3
:109E38005FF0010120EE2EF0EF51D926F051DA2221
:109E4800000160009BF1DEFF60009FF1DEFF600013
:109E5800A3F1DEFF6000A7F1DEFF85EF51F00101FD
:109E6800F4BF41EF4FF0F451F311F21108E1F1059D
:109E7800D8A041EF4FF043EF4FF034EF50F0F4BF6C
:109E880054EF4FF0F451F31109E1E80EF15DFD0EC6
:109E9800F259D8B052EF4FF054EF4FF034EF50F082
:109EA80020EE0AF0EF51D926F051DA226F0078FF40
:109EB800F5F06F0078FFF6F06F0078FFF7F06F00AD
:109EC80078FFF8F0010E0001F525F96F000EF62174
:109ED800FA6F000EF721FB6F000EF821FC6FF951A5
:109EE8000101F15D0001FA510101F2590001FB5134
:109EF8000101F359F451800A0001FD6FFC51800AF9
:109F0800FD59D8B08AEF4FF08CEF4FF0B5EF4FF016
:109F1800010120EE0AF0EF51D926F051DA226F0044
:109F280078FFF5F06F0078FFF6F06F0078FFF7F034
:109F38006F0078FFF8F0010E0001F5250101F16FBF
:109F4800000E0001F6210101F26F000E0001F72159
:109F58000101F36F000E0001F8210101F46FF7EF22
:109F68004FF0010120EE0AF0EF51D926F051DA2224
:109F7800FF0EDE240001F56F7F0EDE20F66F000E67
:109F8800DE20F76F000EDE20F86F0101F1510001AD
:109F9800F55D0101F2510001F6590101F35100018B
:109FA800F759F851800AF96F0101F451800A00014C
:109FB800F959D8B0E2EF4FF0E4EF4FF0F7EF4FF078
:109FC800010120EE0AF0EF51D926F051DA22FF0EF6
:109FD800DE24F16F7F0EDE20F26F000EDE20F36FBD
:109FE800000EDE20F46F010120EE0AF0EF51D926B1
:109FF800F051DA226F0078FFF5F06F0078FFF6F085
:10A008006F0078FFF7F06F0078FFF8F00001F55166
:10A018000101F15D336E0001F6510101F259346E10
:10A028000001F7510101F359356E0001F8510101A2
:10A03800F459366E010E0EEC81F0010120EE32F07B
:10A04800EF51D926F051DA226000CFF0DEFF600030
:10A05800D3F0DEFF6000D7F0DEFF6000DBF0DEFF4C
:10A068006000BFF7D9FF6000C3F7DAFFDE50DE10EB
:10A07800D8B441EF50F043EF50F051EF50F0EFC13A
:10A0880011F0F0C112F027ECA7F00009D8B44FEF97
:10A0980050F051EF50F0ADEF50F0EFC1ACF0F0C11F
:10A0A800ADF0010120EE32F0EF51D926F051DA225D
:10A0B8006F0078FFAEF06F0078FFAFF06F0078FFA9
:10A0C800B0F06F0078FFB1F04CEC7EF0010120EEAB
:10A0D80036F0EF51D926F051DA2200016000B3F2D0
:10A0E800DEFF6000B7F2DEFF6000BBF2DEFF60005B
:10A0F800BFF2DEFFEFC1D7F0F0C1D8F0010120EECA
:10A1080036F0EF51D926F051DA226F0078FFD9F0F6
:10A118006F0078FFDAF06F0078FFDBF06F0078FFF0
:10A12800DCF00DEC64F0010120EE36F0EF51D92699
:10A13800F051DA22000160005FF3DEFF600063F394
:10A14800DEFF600067F3DEFF60006BF3DEFFC6EF43
:10A1580050F0010120EE06F0EF51D926F051DA2235
:10A1680010EE36F0EF51E126F051E2226F007BFF4E
:10A17800E6FF6F007BFFE6FF6F007BFFE6FF6F00E7
:10A188007BFFE6FFEFC1D7F0F0C1D8F0010120EE68
:10A1980036F0EF51D926F051DA226F0078FFD9F066
:10A1A8006F0078FFDAF06F0078FFDBF06F0078FF60
:10A1B800DCF058EC5AF0010120EE36F0EF51D926C8
:10A1C800F051DA22000160005FF3DEFF600063F304
:10A1D800DEFF600067F3DEFF60006BF3DEFF010166
:10A1E80020EE36F0EF51D926F051DA226F0078FFD1
:10A1F80011F06F0078FF12F06F0078FF13F06F0016
:10A2080078FF14F0000E156E000E166E000E176E15
:10A218003F0E186E53EC8DF0D8B015EF51F017EFD4
:10A2280051F026EF51F0010120EE36F0EF51D9261A
:10A23800F051DA22000EDE6E000EDE6E000EDE6ECB
:10A248003F0EDD6E000E116E000E126E000E136EC4
:10A25800000E146E010120EE32F0EF51D926F051B4
:10A26800DA226F0078FF15F06F0078FF16F06F00A4
:10A2780078FF17F06F0078FF18F053EC8DF0D8B026
:10A2880048EF51F04AEF51F085EF51F0EFC1E9F195
:10A29800F0C1EAF1010120EE32F0EF51D926F05178
:10A2A800DA226F0078FFEBF16F0078FFECF16F00B6
:10A2B80078FFEDF16F0078FFEEF133EC45F0EFC178
:10A2C80076F0F0C177F0EFC111F0F0C112F0CDECEB
:10A2D800A5F011C078F012C079F013C07AF014C05C
:10A2E8007BF0EFC172F0F0C173F0BCEC9FF072C06C
:10A2F8007CF073C07DF074C07EF075C07FF097EC81
:10A30800A1F0000E00016A6F000E6B6F000E6C6FFB
:10A318003F0E6D6F010120EE36F0EF51D926F05156
:10A32800DA226F0078FF66F06F0078FF67F06F0041
:10A3380078FF68F06F0078FF69F08BEC5FF066C01B
:10A34800C5F067C0C6F068C0C7F069C0C8F0CFECF8
:10A358008CF06000D7F7D9FF6000DBF7DAFF000167
:10A36800600017F3DEFF60001BF3DEFF60001FF3E1
:10A37800DEFF600023F3DEFF120000018451D96E76
:10A38800DA6A6F007BFFF6FF6F0077FFF7FF000EBA
:10A39800F86E0800F550250AD8A4D5EF51F0D7EF8C
:10A3A80051F08AEF54F08451D96EDA6ADE2A000E31
:10A3B800DD22000E416E000E406E40C047F00101E4
:10A3C8005A695B690001896B0AEF52F04782845130
:10A3D800D96EDA6ADE2A000EDD220AEF52F0010E8B
:10A3E800896F0AEF52F08451D96EDA6A6F007BFFE9
:10A3F800F6FF6F0077FFF7FF000EF86E0800F550C4
:10A40800300AD8B4EAEF51F0F3EF51F08951D8B4DB
:10A4180010EF52F012EF52F0F7EF51F084C011F044
:10A4280085C012F044EC92F011C040F012C041F027
:10A4380041BE23EF52F021EF52F028EF52F047804F
:10A44800406C411ED8B0412A00018451D96EDA6AA5
:10A458006F0078FF93F06F0074FF94F060004FF284
:10A46800F6FF600053F2F7FF000EF86E08006F0069
:10A47800D4FF92F061EF52F0934B942B60004FF2AF
:10A48800F6FF600053F2F7FF000EF86E0800F55073
:10A498006C0AD8A452EF52F054EF52F078EF52F011
:10A4A8004C0E926F934B942B78EF52F0690E926F8B
:10A4B80078EF52F0926B78EF52F09251640AD8B468
:10A4C8005AEF52F00D0AD8B45AEF52F0050AD8B430
:10A4D80040EF52F0190AD8B45AEF52F00D0AD8B426
:10A4E8005AEF52F05EEF52F060004FF2F6FF600054
:10A4F80053F2F7FF000EF86E0800F550640AD8B45E
:10A5080088EF52F08AEF52F0DFEF52F060004FF21E
:10A51800F6FF600053F2F7FF000EF86E0800F550E2
:10A52800690AD8A49AEF52F09CEF52F013EF53F057
:10A53800DFEF52F0600017F2D9FF60001BF2DAFF7C
:10A54800DF50DF2ADF2AD96EDA6A6F0078FF8AF0D7
:10A558006F0074FF8BF0000E8BBFFF0E8C6F8D6F3A
:10A568008E6F8F6F906F916FEAEF52F0600017F265
:10A57800D9FF60001BF2DAFF080EDF26DF5CD96E18
:10A58800DA6A6F0078FF8AF06F0078FF8BF06F004F
:10A5980078FF8CF06F0078FF8DF06F0078FF8EF0F9
:10A5A8006F0078FF8FF06F0078FF90F06F0078FFF2
:10A5B80091F0EAEF52F092514C0AD8B4BAEF52F047
:10A5C800250AD8B49EEF52F0EAEF52F0010E932517
:10A5D800876F000E9421886F8451D96EDA6A600003
:10A5E8001FF2DEFF600023F2DDFF83C06AF08AC03D
:10A5F8006BF08BC06CF08CC06DF08DC06EF08EC0AF
:10A608006FF08FC070F090C071F091C072F00FECD5
:10A618007AF06AC083F06BC084F0A8EF54F0600051
:10A628004FF2F6FF600053F2F7FF000EF86E0800D5
:10A63800F550780AD8B423EF53F025EF53F07BEFA9
:10A6480053F060004FF2F6FF600053F2F7FF000E80
:10A65800F86E0800F550750AD8A435EF53F037EFB7
:10A6680053F0DFEF53F07BEF53F0600017F2D9FFA0
:10A6780060001BF2DAFFDF50DF2ADF2AD96EDA6AC0
:10A688006F0078FF87F06F0074FF88F087C08AF04A
:10A6980088C08BF08C6B8D6B8E6B8F6B906B916B16
:10A6A80086EF53F0600017F2D9FF60001BF2DAFF63
:10A6B800080EDF26DF5CD96EDA6A6F0078FF8AF051
:10A6C8006F0078FF8BF06F0078FF8CF06F0078FFD9
:10A6D8008DF06F0078FF8EF06F0078FF8FF06F00BD
:10A6E80078FF90F06F0078FF91F086EF53F0925169
:10A6F8004C0AD8B456EF53F0250AD8B439EF53F0C2
:10A7080086EF53F0010E9325876F000E9421886F12
:10A718008451D96EDA6A60001FF2DEFF600023F20E
:10A72800DDFFCBEF53F083C02AF08AC02BF08BC03B
:10A738002CF08CC02DF08DC02EF08EC02FF08FC065
:10A7480030F090C031F091C032F086EC83F02AC02E
:10A7580083F02BC084F0A8EF54F083C029F08AC09E
:10A768002AF08BC02BF08CC02CF08DC02DF08EC041
:10A778002EF08FC02FF090C030F091C031F0EFEC88
:10A7880087F029C083F02AC084F0A8EF54F0600055
:10A798004FF2F6FF600053F2F7FF000EF86E080064
:10A7A800F550750AD8B497EF53F00D0AD8B4B1EF45
:10A7B80053F0DFEF53F0896B8451D96EDA6A6F007A
:10A7C8007BFFF6FF6F0077FFF7FF000EF86E0800BB
:10A7D800F550730AD8A4F3EF53F0F5EF53F0FFEFF9
:10A7E80053F08451D96EDA6ADE2A000EDD22010E9A
:10A7F800896F5BEF54F08451D96EDA6A6F007BFF82
:10A80800F6FF6F0077FFF7FF000EF86E0800F550AF
:10A818006C0AD8A412EF54F014EF54F05BEF54F024
:10A828008451D96EDA6A6F0078FF87F06F0074FF81
:10A8380088F0010E8727000E882360001FF2F6FFBC
:10A84800600023F2F7FF000EF86E0800F5506C0A5E
:10A85800D8A431EF54F033EF54F05BEF54F0845147
:10A86800D96EDA6A6F0078FF87F06F0074FF88F09E
:10A87800020E8727000E882360001FF2F6FF600093
:10A8880023F2F7FF000EF86E0800F550730AD8A4FB
:10A8980050EF54F052EF54F05BEF54F08451D96EFE
:10A8A800DA6A030EDE26000EDD22FBEF53F0895133
:10A8B800D8B461EF54F063EF54F07EEF54F083C0E6
:10A8C8001BF0600017F2D9FF60001BF2DAFF020EDE
:10A8D800DF26DF5CD96EDA6A6F0078FF1CF06F0044
:10A8E80078FF1DF0D6EC85F01BC083F01CC084F007
:10A8F800A8EF54F08451D96EDA6ADE2A000EDD2200
:10A90800000E846F000E836FA8EF54F08451D96E47
:10A91800DA6A6F007BFFF6FF6F0077FFF7FF000E24
:10A92800F86E0800F550136E146A83C015F0A6EC93
:10A9380092F000018451D96EDA6ADE2A000EDD2217
:10A94800000E846F010E836F1200000120EE3AF0B2
:10A95800AC51D926AD51DA22DF6A20EE3BF0AC517A
:10A96800D926AD51DA22000EDE6E000EDE6E000E24
:10A97800DE6E000EDD6E20EE3FF0AC51D926AD51F3
:10A98800DA22000EDE6E000EDE6E000EDE6E000EA7
:10A99800DD6E20EE2AF0AC51D926AD51DA2210EE48
:10A9A80043F0AC51E126AD51E2226F007BFFE6FF98
:10A9B8006F007BFFE6FF6F007BFFE6FF6F007BFF0A
:10A9C800E6FF000E7E6F000E7F6F000E806F440E54
:10A9D800816F000E976F000E986F610E996F450E8C
:10A9E8009A6F20EE02F0AC51D926AD51DA226F00F1
:10A9F80078FF93F06F0078FF94F06F0078FF95F080
:10AA08006F0078FF96F017EC6EF093C07AF094C060
:10AA18007BF095C07CF096C07DF0E7EC61F07AC0E1
:10AA2800B0F07BC0B1F07CC0B2F07DC0B3F00001E3
:10AA380020EE22F0AC51D926AD51DA226F0078FF12
:10AA48006AF06F0078FF6BF06F0078FF6CF06F00B2
:10AA580078FF6DF0000E976F000E986F610E996F7A
:10AA6800450E9A6F20EE02F0AC51D926AD51DA228C
:10AA78006F0078FF93F06F0078FF94F06F0078FF15
:10AA880095F06F0078FF96F017EC6EF093C066F0C3
:10AA980094C067F095C068F096C069F08BEC5FF0E1
:10AAA80066C0B4F067C0B5F068C0B6F069C0B7F06A
:10AAB800B0C093F0B1C094F0B2C095F0B3C096F0B6
:10AAC800B4C097F0B5C098F0B6C099F0B7C09AF086
:10AAD80017EC6EF0000120EE47F0AC51D926AD51CD
:10AAE800DA2260004FF2DEFF600053F2DEFF600002
:10AAF80057F2DEFF60005BF2DEFF000E7E6F000E95
:10AB08007F6F800E806F420E816F000E976F000E70
:10AB1800986F610E996F450E9A6F20EE02F0AC5156
:10AB2800D926AD51DA226F0078FF93F06F0078FFD5
:10AB380094F06F0078FF95F06F0078FF96F017ECAF
:10AB48006EF093C07AF094C07BF095C07CF096C00C
:10AB58007DF0E7EC61F07AC0B0F07BC0B1F07CC06A
:10AB6800B2F07DC0B3F0000120EE26F0AC51D9263A
:10AB7800AD51DA226F0078FF6AF06F0078FF6BF052
:10AB88006F0078FF6CF06F0078FF6DF0000E976F24
:10AB9800000E986F610E996F450E9A6F20EE02F0C5
:10ABA800AC51D926AD51DA226F0078FF93F06F00CF
:10ABB80078FF94F06F0078FF95F06F0078FF96F0BB
:10ABC80017EC6EF093C066F094C067F095C068F01B
:10ABD80096C069F08BEC5FF066C0B4F067C0B5F062
:10ABE80068C0B6F069C0B7F0B0C093F0B1C094F0D7
:10ABF800B2C095F0B3C096F0B4C097F0B5C098F065
:10AC0800B6C099F0B7C09AF017EC6EF0000120EECC
:10AC18004BF0AC51D926AD51DA2260004FF2DEFF7D
:10AC2800600053F2DEFF600057F2DEFF60005BF267
:10AC3800DEFF6000B3F2D9FF6000B7F2DAFFDE048E
:10AC4800DE10D8A42AEF56F02CEF56F08CEF56F011
:10AC5800000E7E6F000E7F6F000E806F440E816FB6
:10AC680020EE02F0AC51D926AD51DA226F0078FF00
:10AC78007AF06F0078FF7BF06F0078FF7CF06F0050
:10AC880078FF7DF0E7EC61F07AC093F07BC094F038
:10AC98007CC095F07DC096F0000E00016A6F000E32
:10ACA8006B6F960E6C6F440E6D6F20EE02F0AC5118
:10ACB800D926AD51DA226F0078FF66F06F0078FF71
:10ACC80067F06F0078FF68F06F0078FF69F08BEC31
:10ACD8005FF066C097F067C098F068C099F069C0E7
:10ACE8009AF017EC6EF0000120EE4FF0AC51D92627
:10ACF800AD51DA2260004FF2DEFF600053F2DEFF52
:10AD0800600057F2DEFF60005BF2DEFFEAEF56F00C
:10AD1800000E7E6F000E7F6F000E806F440E816FF5
:10AD280020EE02F0AC51D926AD51DA226F0078FF3F
:10AD38007AF06F0078FF7BF06F0078FF7CF06F008F
:10AD480078FF7DF0E7EC61F07AC093F07BC094F077
:10AD58007CC095F07DC096F0000E00016A6F000E71
:10AD68006B6FA00E6C6F410E6D6F20EE02F0AC5150
:10AD7800D926AD51DA226F0078FF66F06F0078FFB0
:10AD880067F06F0078FF68F06F0078FF69F08BEC70
:10AD98005FF066C097F067C098F068C099F069C026
:10ADA8009AF017EC6EF0000120EE4FF0AC51D92666
:10ADB800AD51DA2260004FF2DEFF600053F2DEFF91
:10ADC800600057F2DEFF60005BF2DEFF000E7E6F70
:10ADD800000E7F6F800E806F420E816F20EE02F0B2
:10ADE800AC51D926AD51DA226F0078FF7AF06F00A6
:10ADF80078FF7BF06F0078FF7CF06F0078FF7DF0C4
:10AE0800E7EC61F07AC093F07BC094F07CC095F0D9
:10AE18007DC096F0000E00016A6F400E6B6F1C0E2D
:10AE28006C6F450E6D6F20EE02F0AC51D926AD5116
:10AE3800DA226F0078FF66F06F0078FF67F06F0026
:10AE480078FF68F06F0078FF69F08BEC5FF066C000
:10AE580097F067C098F068C099F069C09AF017EC4D
:10AE68006EF0000120EE53F0AC51D926AD51DA2234
:10AE780060004FF2DEFF600053F2DEFF600057F221
:10AE8800DEFF60005BF2DEFF20EE57F0AC51D92602
:10AE9800AD51DA22000EDE6E000EDE6E000EDE6EA2
:10AEA800000EDD6E20EE5BF0AC51D926AD51DA22F2
:10AEB800000EDE6E000EDE6E000EDE6E000EDD6E23
:10AEC80020EE5FF0AC51D926AD51DA22000EDE6ECD
:10AED800000EDE6E000EDE6E000EDD6E20EE63F0FC
:10AEE800AC51D926AD51DA22000EDE6E000EDE6EB0
:10AEF800000EDE6E000EDD6E20EE67F0AC51D92636
:10AF0800AD51DA22000EDE6E000EDE6E000EDE6E31
:10AF1800000EDD6E12000001746B20EE75F0070E56
:10AF2800DE6AE806FDE229C07DF02AC07EF02DBE6B
:10AF3800A9EF57F02D5007E1250E2C5CD8B0A7EFEC
:10AF480057F0A9EF57F0B2EF57F02C042D10D8A402
:10AF5800B0EF57F0B2EF57F0B9EF57F0000E01011C
:10AF68005D6F160E5C6F2AEF5AF07D517E11D8B4D2
:10AF7800C0EF57F0C2EF57F02AEF5AF06000F7F130
:10AF8800D9FF6000FBF1DAFFDF50D8A4CEEF57F00D
:10AF9800D0EF57F0D2EF57F02AEF5AF06000F7F1F0
:10AFA800D9FF6000FBF1DAFFDF507F6FE6EF57F063
:10AFB8007D4B7E2B6000F7F1D9FF6000FBF1DAFFD3
:10AFC800DF507F6F200E7F19D8B4EDEF57F0EFEF09
:10AFD80057F0DCEF57F07FC031F0F70E3126040E42
:10AFE8003164F9EF57F0FBEF57F0DCEF57F02D0E17
:10AFF8007F19D8A402EF58F004EF58F011EF58F079
:10B0080074817D4B7E2B6000F7F1D9FF6000FBF166
:10B01800DAFFDF507F6F1CEF58F02B0E7F19D8A492
:10B0280018EF58F01AEF58F01CEF58F005EF58F0E9
:10B03800300E7F19D8A423EF58F025EF58F0C2EF4F
:10B0480058F07D4B7E2B6000F7F1D9FF6000FBF1D3
:10B05800DAFFDF507F6F2C502D10D8B436EF58F040
:10B0680038EF58F042EF58F0100E2C182D10D8A4D5
:10B0780040EF58F042EF58F0B4EF58F0780E7F19CF
:10B08800D8B449EF58F04BEF58F054EF58F0580E39
:10B098007F19D8A452EF58F054EF58F0B4EF58F095
:10B0A800000E2D6E100E2C6E7D4B7E2B6000F7F17E
:10B0B800D9FF6000FBF1DAFFDF507F6F7FC031F00E
:10B0C800200E31129F0E31261A0E31606EEF58F0A5
:10B0D80070EF58F094EF58F07FC031F09F0E312692
:10B0E800190E31647AEF58F07CEF58F081EF58F080
:10B0F8007FC068F0696B88EF58F07FC031F05F0E51
:10B1080031163150686F696B68C031F0C90E31264D
:10B11800100E316092EF58F094EF58F0AEEF58F0FF
:10B128007FC031F0200E31129F0E3126190E316486
:10B13800A0EF58F0A2EF58F0C2EF58F07FC031F0FE
:10B14800D00E3126090E3164ACEF58F0AEEF58F04E
:10B15800C2EF58F074857D07D8A07E072AEF5AF011
:10B1680074852C502D10D8A4BCEF58F0BEEF58F0C1
:10B17800C2EF58F0000E2D6E080E2C6E2C502D10BC
:10B18800D8A4C9EF58F0CBEF58F0CFEF58F0000E25
:10B198002D6E0A0E2C6E2E50D8B4D5EF58F0D7EF7E
:10B1A80058F002EF59F074B1DCEF58F0DEEF58F0C8
:10B1B800F0EF58F0FF0E6C6FFF0E6D6FFF0E6E6FA5
:10B1C800FF0E6F6FFF0E706FFF0E716FFF0E726FC5
:10B1D8007F0E736F0AEF59F0000E6C6F000E6D6FE3
:10B1E800000E6E6F000E6F6F000E706F000E716FA5
:10B1F800000E726F800E736F0AEF59F06C696D69FB
:10B208006E696F69706971697269736975C060F098
:10B2180076C061F077C062F078C063F079C064F0FE
:10B228007AC065F07BC066F07CC067F07FC031F003
:10B23800200E31129F0E31261A0E316026EF59F07A
:10B2480028EF59F045EF59F07FC031F09F0E3126B5
:10B25800190E316432EF59F034EF59F039EF59F0E3
:10B268007FC06AF06B6B40EF59F07FC031F05F0E22
:10B27800311631506A6F6B6B6A51C90F7F6F53EF8C
:10B2880059F07FC031F0D00E31260A0E31604FEFF1
:10B2980059F051EF59F010EF5AF0300E7F5F7F519F
:10B2A800316E326A2C50315C3250800A336E2D5028
:10B2B800800A3358D8A063EF59F065EF59F067EF6B
:10B2C80059F010EF5AF074B36CEF59F06EEF59F073
:10B2D80003EF5AF02CC011F02DC012F0000E12BE70
:10B2E800FF0E136E146E156E166E176E186E75C0FF
:10B2F80019F076C01AF077C01BF078C01CF079C03E
:10B308001DF07AC01EF07BC01FF07CC020F0CCEC92
:10B3180097F011C031F012C032F013C033F014C0EE
:10B3280034F015C035F016C036F017C037F018C025
:10B3380038F000017F513124756F000E3220766F8E
:10B34800000E3320776F000E3420786F000E352002
:10B35800796F000E36207A6F000E37207B6F000E53
:10B3680038207C6F6051755D61517659625177590B
:10B37800635178596451795965517A5966517B59A5
:10B3880067517C59D8A0CBEF59F0CDEF59F0ECEFCD
:10B3980059F02E50D8B4D3EF59F0D5EF59F003EF48
:10B3A8005AF075516C5D76516D5977516E597851D7
:10B3B8006F59795170597A5171597B5172597C5131
:10B3C8007359D8B0EAEF59F0ECEF59F003EF5AF09F
:10B3D8006CC075F06DC076F06EC077F06FC078F015
:10B3E80070C079F071C07AF072C07BF073C07CF0E5
:10B3F800000E01015D6F220E5C6F000174837D4BAE
:10B408007E2B6000F7F1D9FF6000FBF1DAFFDF5017
:10B418007F6F74850AEF59F07451030BE806D8A4BE
:10B4280018EF5AF01AEF5AF02AEF5AF07C1F7B1FD8
:10B438007A1F791F781F771F761F756D000E762388
:10B448007723782379237A237B237C232B50D8B442
:10B4580030EF5AF032EF5AF047EF5AF0000174B566
:10B4680038EF5AF03AEF5AF03EEF5AF029C07DF023
:10B478002AC07EF02B50D96EDA6A6000F7F1DEFF41
:10B488006000FBF1DDFF75C029F076C02AF077C0B7
:10B498002BF078C02CF079C02DF07AC02EF07BC04C
:10B4A8002FF07CC030F01200000120EE8FF0D75151
:10B4B800D926D851DA22DF50D8A465EF5AF067EFC1
:10B4C8005AF0A5EF5AF020EE90F0D751D926D8516E
:10B4D800DA22600067F3DEFF60006BF3DEFF6000D6
:10B4E8006FF3DEFF600073F3DEFF20EE94F0D751B8
:10B4F800D926D851DA22600067F3DEFF60006BF3CB
:10B50800DEFF60006FF3DEFF600073F3DEFF20EE06
:10B5180098F0D751D926D851DA22600067F3DEFFB8
:10B5280060006BF3DEFF60006FF3DEFF600073F313
:10B53800DEFF20EE8FF0D751D926D851DA22010E3E
:10B54800DF6E20EE90F0D751D926D851DA226F005D
:10B5580078FF7EF06F0078FF7FF06F0078FF80F053
:10B568006F0078FF81F020EE87F0D751D926D851A7
:10B57800DA226F0078FF76F06F0078FF77F06F00BF
:10B5880078FF78F06F0078FF79F0000E726F000E88
:10B59800736F800E746F3F0E756F0FECA3F072C05F
:10B5A8007AF073C07BF074C07CF075C07DF0E7EC76
:10B5B80061F07AC0F1F07BC0F2F07CC0F3F07DC09E
:10B5C800F4F0F1C066F0F2C067F0F3C068F0F4C0C0
:10B5D80069F0D9C07EF0DAC07FF0DBC080F0DCC053
:10B5E80081F0000120EE87F0D751D926D851DA2210
:10B5F8006F0078FF7AF06F0078FF7BF06F0078FFBC
:10B608007CF06F0078FF7DF0E7EC61F07AC06AF0BB
:10B618007BC06BF07CC06CF07DC06DF08BEC5FF094
:10B62800000120EE90F0D751D926D851DA226000D7
:10B638009BF1DEFF60009FF1DEFF6000A3F1DEFFFB
:10B648006000A7F1DEFF20EE94F0D751D926D8513B
:10B65800DA226F0078FF7EF06F0078FF7FF06F00CE
:10B6680078FF80F06F0078FF81F020EE8BF0D751E3
:10B67800D926D851DA226F0078FF76F06F0078FF6C
:10B6880077F06F0078FF78F06F0078FF79F0000EA0
:10B69800726F000E736F800E746F3F0E756F0FEC34
:10B6A800A3F072C07AF073C07BF074C07CF075C0F0
:10B6B8007DF0E7EC61F07AC0F1F07BC0F2F07CC07D
:10B6C800F3F07DC0F4F0F1C066F0F2C067F0F3C0AB
:10B6D80068F0F4C069F0D9C07EF0DAC07FF0DBC052
:10B6E80080F0DCC081F0000120EE8BF0D751D92624
:10B6F800D851DA226F0078FF7AF06F0078FF7BF07C
:10B708006F0078FF7CF06F0078FF7DF0E7EC61F068
:10B718007AC06AF07BC06BF07CC06CF07DC06DF0C5
:10B728008BEC5FF0000120EE94F0D751D926D85168
:10B73800DA2260009BF1DEFF60009FF1DEFF60000F
:10B74800A3F1DEFF6000A7F1DEFF20EE90F0D751F5
:10B75800D926D851DA226F0078FF72F06F0078FF8F
:10B7680073F06F0078FF74F06F0078FF75F020EECB
:10B7780094F0D751D926D851DA226F0078FF76F0A5
:10B788006F0078FF77F06F0078FF78F06F0078FF30
:10B7980079F00FECA3F072C0EDF073C0EEF074C056
:10B7A800EFF075C0F0F00001F0BFDFEF5BF0DDEF08
:10B7B8005BF0F9EF5BF0EDC07AF0EEC07BF0EFC024
:10B7C8007CF0F0C07DF0000E7E6F000E7F6F800E63
:10B7D800806FBF0E816FE7EC61F07AC0EDF07BC03F
:10B7E800EEF07CC0EFF07DC0F0F0EDC07AF0EEC076
:10B7F8007BF0EFC07CF0F0C07DF0CD0E00017E6FD5
:10B80800CC0E7F6F4C0E806FBE0E816FE7EC61F03F
:10B818007AC0E5F07BC0E6F07CC0E7F07DC0E8F0D8
:10B82800E5C0CFF0E6C0D0F0E7C0D1F0E8C0D2F074
:10B83800C5EC4BF0CFC0DDF0D0C0DEF0D1C0DFF0FA
:10B84800D2C0E0F0000E00017E6F000E7F6FF00E98
:10B85800806F430E816FDDC07AF0DEC07BF0DFC001
:10B868007CF0E0C07DF0E7EC61F07AC066F07BC068
:10B8780067F07CC068F07DC069F0000E00016A6F57
:10B88800000E6B6FA00E6C6F410E6D6F8BEC5FF04E
:10B8980066C0E1F067C0E2F068C0E3F069C0E4F0B8
:10B8A800000120EE02F0D751D926D851DA226F00D4
:10B8B80078FF93F06F0078FF94F06F0078FF95F0B1
:10B8C8006F0078FF96F0E1C06AF0E2C06BF0E3C069
:10B8D8006CF0E4C06DF020EE02F0D751D926D851B3
:10B8E800DA226F0078FF66F06F0078FF67F06F006C
:10B8F80078FF68F06F0078FF69F08BEC5FF066C046
:10B9080097F067C098F068C099F069C09AF017EC92
:10B918006EF093C0E9F094C0EAF095C0EBF096C0E1
:10B92800ECF0000120EE98F0D751D926D851DA2250
:10B938006F0078FF7EF06F0078FF7FF06F0078FF70
:10B9480080F06F0078FF81F0E9C076F0EAC077F008
:10B95800EBC078F0ECC079F0000E726F000E736FD8
:10B96800800E746F3F0E756F0FECA3F072C07AF003
:10B9780073C07BF074C07CF075C07DF0E7EC61F0BB
:10B988007AC0F1F07BC0F2F07CC0F3F07DC0F4F037
:10B99800F1C066F0F2C067F0F3C068F0F4C069F077
:10B9A800D9C07EF0DAC07FF0DBC080F0DCC081F067
:10B9B800E9C07AF0EAC07BF0EBC07CF0ECC07DF027
:10B9C800E7EC61F07AC06AF07BC06BF07CC06CF089
:10B9D8007DC06DF08BEC5FF0000120EE98F0D75140
:10B9E800D926D851DA2260009BF1DEFF60009FF172
:10B9F800DEFF6000A3F1DEFF6000A7F1DEFF20EEAE
:10BA080098F0D751D926D851DA226F0078FFD7F0AD
:10BA18006F0078FFD8F06F0078FFD9F06F0078FFDB
:10BA2800DAF01200020100A11CEF5DF01EEF5DF0DC
:10BA380021EF5DF0BD8622EF5DF0BD9600A327EFF4
:10BA48005DF029EF5DF02CEF5DF0BC882DEF5DF027
:10BA5800BC9800A532EF5DF034EF5DF037EF5DF094
:10BA6800BC8A38EF5DF0BC9A00A73DEF5DF03FEF70
:10BA78005DF042EF5DF0BC8C43EF5DF0BC9C00A92B
:10BA880048EF5DF04AEF5DF04DEF5DF0BC8E4EEF94
:10BA98005DF0BC9E00AB53EF5DF055EF5DF058EFE5
:10BAA8005DF0BD8859EF5DF0BD9800AD5EEF5DF0CB
:10BAB80060EF5DF063EF5DF0BD8A64EF5DF0BD9A05
:10BAC80000AF69EF5DF06BEF5DF06EEF5DF0BD8C80
:10BAD8006FEF5DF0BD9C1B6ACFA475EF5DF078EF4A
