:0460000057EF30F036
:106008000F550F550F550F550F550F550F550F5568
:106018000F550F550F55A5510F550F550F550F55C6
:106028000F550F550F550F550F550F550F550F5548
:106038000F550F550F55635250520F557652B9519F
:106048003B510F550F550F552B180F550F550F5521
:106058000F550F550F550F550F550F550F550F5518
:106068000F550F550F550F550F550F550F550F5508
:106078000F550F552B180F550F550F552B182B185B
:106088002B182B182B182B182B182B180F550F55AE
:106098000F550F550F550F552B182B182B182B185C
:1060A8000F550F55FF00C4EF8CF000EAD496A812E4
:1060B8002C6E507F41033D87B9FBC5A59BD9E75D91
:1060C80063211F300E4C72C8F6B48A744A08368CA5
:1060D800B2F0CEE1DF9DA31927655B3B054779C385
:1060E800FDBF81AE90D2EC56682A14B38DCFF14B28
:1060F80075370926185A64DEE0A29CFCC280BE04EB
:106108003A78466957152B91AFEDD32D13516FD5BA
:10611800EBA997B886C4FA407E3C02625C1E209ABE
:10612800A4E6D8F7C98BB50F31734D5866241AA069
:106138009EDCE2CDF3B18F350B497717296B55EF0C
:10614800D193AD82BCFEC07A440638C6F8BA843E04
:1061580000427C536D2F11AB95D7E989B7F5CB7108
:106168004F0D331C22605EE4DA98A6013F7D43F9A7
:10617800C785BB94AAE8D66C52102E4E70320CB666
:1061880088CAF4DBE5A799231D5F619FA1E3DD675A
:10619800591B250A347648F2CC8EB0D0EEAC922842
:1061A80016546A457B3907BD83C1FF00C201000050
:1061B800E1000000960000004B0000802500000070
:1061C80000003F000000BF8A15A0418200010103C2
:1061D800060240000800155235BB8FAA2A3E8EBE23
:1061E800BF350072313F080E3BAAB83F2C636E746E
:1061F800303A256C6C752C636E74313A256C6C756D
:106208002C636E74323A256C6C752C636E74333A59
:10621800256C6C752C636E74343A256C6C752C6324
:106228006E74353A256C6C752C636E74363A256C31
:106238006C752C636E74373A256C6C750069643A1A
:1062480025732C747970653A25732C766572736999
:106258006F6E3A257328257329002C7077723A25BA
:10626800642E253032642C7077724F75743A256429
:106278002E25303264002C616463303A25642E2563
:106288003032642C616463313A25642E25303264DF
:106298000069643A25732C6D73673A6261644372CE
:1062A80063002C6372633A253032780D0A004A7510
:1062B8006C20313720323032360069643A25732C2D
:1062C80064693A2564006E65774964353035303A3B
:1062D800006D73673A636F6E666967006D73673A3E
:1062E800737461747573002C74303A25642E2564B8
:1062F800002C74313A25642E2564002C74323A251A
:10630800642E2564002C72683A25642E2564006387
:106318006D643A726573657400494E46494E495436
:106328005900696E66696E69747900736574436EA5
:1063380074303A00736574436E74313A007365744F
:10634800436E74323A00736574436E74333A007363
:106358006574436E74343A00736574436E74353AE9
:1063680000736574436E74363A00736574436E74D3
:10637800373A006D73673A64617461002C62746E19
:10638800323A2564002C62746E333A2564002C621C
:10639800746E4C3A25640069643A616C6C2C002C6C
:1063A800636F323A2564002C766F633A2564002CBB
:1063B80062746E3A256400286E756C6C29006E65EF
:1063C8007749643A002C200D0A0900646163303A69
:1063D80000646163313A00426F78494F0069643A5A
:1063E8002573004E414E00696E66006E616E003086
:1063F8002E310069643A00646F3A00616C6C0000E9
:10640800000E0001C16F000EC06FB651B711D8B4AD
:1064180010EF32F012EF32F022EF32F06000DBF2D0
:10642800D9FF6000DFF2DAFF6000D3F2DEFF600020
:10643800D7F2DDFF22EF32F0B44BB52B6000D3F278
:10644800D9FF6000D7F2DAFF200EDE18D8B42FEF9C
:1064580032F032EF32F0010E33EF32F0000EC66F39
:10646800C76BC651C711D8A43CEF32F03EEF32F0EB
:1064780020EF32F06000D3F2D9FF6000D7F2DAFFE4
:10648800DF50B86FB851C66FC76BC6C0B9F0F70E0A
:10649800B927040EB96553EF32F055EF32F020EF0B
:1064A80032F0C36B2D0EC619C711D8A45EEF32F0B7
:1064B80060EF32F066EF32F0010EC36FB44BB52BCC
:1064C80072EF32F02B0EC619C711D8A46EEF32F056
:1064D80070EF32F072EF32F062EF32F0CC6B76EFA1
:1064E80032F0CC2BCC51B425D96E000EB521DA6E22
:1064F800DF50D8B482EF32F084EF32F0BAEF32F0E6
:10650800CC51B425D96E000EB521DA6EDF50B86FC4
:106518002A0ECC25F66EF76A630EF722F86A000E8B
:10652800F8220800F550B819D8B49DEF32F09FEF63
:1065380032F075EF32F0CC51B425D96E000EB5218A
:10654800DA6EDF50B86F210ECC25F66EF76A630E4F
:10655800F722F86A000EF8220800F550B819D8B4E6
:10656800B8EF32F0BAEF32F075EF32F0020ECC65C8
:10657800C0EF32F0C2EF32F0F2EF32F0000EC86F27
:10658800000EC96F800ECA6F7F0ECB6FB651B71160
:10659800D8B4D1EF32F0D3EF32F045EF3AF0080E2D
:1065A800CC19D8B4DAEF32F0DCEF32F0DEEF32F0AB
:1065B800030ECC6FCC51B425B86F000EB521B96F5E
:1065C8006000DBF2D9FF6000DFF2DAFF6000E3F27F
:1065D800DEFF6000E7F2DDFF45EF3AF0CC6BF6EF47
:1065E80032F0CC2BCC51B425D96E000EB521DA6E21
:1065F800DF50D8B402EF33F004EF33F03AEF33F062
:10660800CC51B425D96E000EB521DA6EDF50B86FC3
:10661800F30ECC25F66EF76A630EF722F86A000EC1
:10662800F8220800F550B819D8B41DEF33F01FEF61
:1066380033F0F5EF32F0CC51B425D96E000EB52108
:10664800DA6EDF50B86FEB0ECC25F66EF76A630E84
:10665800F722F86A000EF8220800F550B819D8B4E5
:1066680038EF33F03AEF33F0F5EF32F0030ECC1990
:10667800D8A441EF33F043EF33F0B7EF33F0D20E45
:10668800136E630E146E2AECA8F013C0C8F014C081
:10669800C9F015C0CAF016C0CBF00001B651B71149
:1066A800D8B459EF33F05BEF33F045EF3AF0CC5103
:1066B800B427000EB5236000D3F2D9FF6000D7F2EB
:1066C800DAFF280EDE18D8A46CEF33F06EEF33F043
:1066D800A9EF33F0CC6B72EF33F0CC2BCC51B4254F
:1066E800D96E000EB521DA6EDF50D8B47EEF33F0E4
:1066F80080EF33F08FEF33F0CC51B425D96E000E14
:10670800B521DA6E290EDE18D8A48DEF33F08FEF9D
:1067180033F071EF33F0CC51B425D96E000EB521AA
:10672800DA6E290EDE18D8A49CEF33F09EEF33F012
:10673800A9EF33F0CC51B86FB96B010EB827000E32
:10674800B923B851B427B951B5236000DBF2D9FF9A
:106758006000DFF2DAFF6000D3F2DEFF6000D7F2FC
:10676800DDFF45EF3AF0000EC76F000EC66F000E52
:10677800C86F000EC96F000ECA6F000ECB6FBE6BDC
:10678800BF6B000EC56F000EC46FCC6BCDEF33F03E
:10679800CC2BCC51B425D96E000EB521DA6E300E53
:1067A800DE18D8B4DAEF33F0DCEF33F0CCEF33F0A7
:1067B800CC51D8B4E2EF33F0E4EF33F099EF37F08F
:1067C800CC51B425D96E000EB521DA6E780EDE18DC
:1067D800D8B4F1EF33F0F3EF33F002EF34F0CC51EB
:1067E800B425D96E000EB521DA6E580EDE18D8A47D
:1067F80000EF34F002EF34F099EF37F0CC51B425C4
:10680800B86F000EB521B96F010EB825D96E000E0C
:10681800B921DA6EDF50BA6FBA51136E146ACEEC32
:10682800A2F013501410D8A41CEF34F01EEF34F06B
:1068380036EF34F00001CC51B425B86F000EB52105
:10684800B96F010EB825D96E000EB921DA6E2E0E79
:10685800DE18D8B432EF34F034EF34F036EF34F0D9
:10686800B8EF36F0CCC0BEF00001CC2BCC51B4252B
:10687800D96E000EB521DA6E300EDE18D8B447EFA7
:1068880034F049EF34F038EF34F0CC51B425D96EF8
:10689800000EB521DA6E700EDE18D8B456EF34F05B
:1068A80058EF34F0CDEF35F0CC51B425D96E000E49
:1068B800B521DA6E500EDE18D8A465EF34F067EF14
:1068C80034F069EF34F0CDEF35F0CC51B425D96E02
:1068D800000EB521DA6E2E0EDE18D8A476EF34F04D
:1068E80078EF34F07EEF34F0C389CCC0BFF0CC2B06
:1068F800CDEF35F0CC51B425D96E000EB521DA6E46
:10690800DF50B86FB851136E146ACEECA2F0135072
:106918001410D8B492EF34F094EF34F0B8EF36F0A6
:106928000001C26BCC51B425D96E000EB521DA6EC8
:10693800DF50B86FB851136E146A86ECA7F0135085
:106948001410D8B4AAEF34F0ACEF34F0B8EF34F048
:106958000001CC51B425D96E000EB521DA6EDF5096
:10696800D00FC26FCAEF34F00001CC51B425D96EF4
:10697800000EB521DA6EDF50B86FB851136E146A85
:106988006FECA7F01350C90F0001C26FC7BFD8EF53
:1069980034F0C75107E1080EC65DD8B0D6EF34F021
:1069A800D8EF34F0F7EF34F0C6510708B86FD89035
:1069B800B837D890B837C2C0B9F0BA6BBB6BBC6BEC
:1069C800B82BECEF34F0D890B937BA37BB37BC37AF
:1069D800B82FE7EF34F0B951C813BA51C913BB51F6
:1069E800CA13BC51CB13C64BC72B040EC427000EC9
:1069F800C523CC2B49EF34F0CC51B425D96E000E09
:106A0800B521DA6E300EDE18D8A40DEF35F00FEF91
:106A180035F01EEF35F0C651C711D8A416EF35F082
:106A280018EF35F01EEF35F0FC0EC427FF0EC52316
:106A3800CCEF35F0CC51B425D96E000EB521DA6E05
:106A4800DF50B86FB851136E146ACEECA2F0135031
:106A58001410D8B432EF35F034EF35F09BEF35F041
:106A68000001C26BCC51B425D96E000EB521DA6E87
:106A7800DF50B86FB851136E146A86ECA7F0135044
:106A88001410D8B44AEF35F04CEF35F058EF35F024
:106A98000001CC51B425D96E000EB521DA6EDF5055
:106AA800D00FC26F6AEF35F00001CC51B425D96E12
:106AB800000EB521DA6EDF50B86FB851136E146A44
:106AC8006FECA7F01350C90F0001C26FC7BF78EF72
:106AD80035F0C75107E1080EC65DD8B076EF35F03E
:106AE80078EF35F097EF35F0C6510708B86FD890B2
:106AF800B837D890B837C2C0B9F0BA6BBB6BBC6BAB
:106B0800B82B8CEF35F0D890B937BA37BB37BC37CC
:106B1800B82F87EF35F0B951C813BA51C913BB5113
:106B2800CA13BC51CB13C64BC72BCCEF35F00001B1
:106B3800CC51B86FB96BBF51BA6FBB6B010EBA2796
:106B4800000EBB23B851BA1907E1B951BB19D8A433
:106B5800B0EF35F0B2EF35F0D4EF35F0BF51B86F84
:106B6800B96BBE51BA6FBB6B010EBA27000EBB23BF
:106B7800B851BA1907E1B951BB19D8A4C6EF35F015
:106B8800C8EF35F0D4EF35F0BEC0CCF0B8EF36F032
:106B9800CC2BC3B9D2EF35F0D4EF35F000EF35F098
:106BA800CC51B427000EB523CC6B6000D3F2D9FFCB
:106BB8006000D7F2DAFF700EDE18D8B4E6EF35F0D1
:106BC800E8EF35F0F9EF35F06000D3F2D9FF600057
:106BD800D7F2DAFF500EDE18D8B4F5EF35F0F7EF3C
:106BE80035F0F9EF35F0B8EF36F0CC2B20EE01F0A8
:106BF800B451D926B551DA222B0EDE18D8A407EFE6
:106C080036F009EF36F00CEF36F0CC2B1DEF36F0EE
:106C180020EE01F0B451D926B551DA222D0EDE1836
:106C2800D8A419EF36F01BEF36F01DEF36F0C38706
:106C3800CC2BCC51B425D96E000EB521DA6EDF50BD
:106C4800B86FB851136E146A86ECA7F0135014107D
:106C5800D8A431EF36F033EF36F037EF36F00001D5
:106C6800CC6BB8EF36F00001CC51B427000EB52339
:106C7800CC6B40EF36F0CC2BCC51B425D96E000E3E
:106C8800B521DA6E300EDE18D8B44DEF36F04FEF7E
:106C980036F03FEF36F0000EC76F000EC66F80EF7C
:106CA80036F00001CC51D8B45CEF36F05EEF36F028
:106CB8006CEF36F0C6C013F0C7C014F0000E166EA5
:106CC8000A0E156EC8ECA7F013C0C6F014C0C7F0C2
:106CD8000001CC51B425D96E000EB521DA6EDF5013
:106CE800B86FD00EB825B96FBA6BFF0EBA23B95179
:106CF800C627BA51C723CC2BCC51B425D96E000E68
:106D0800B521DA6EDF50B86FB851136E146A86EC8D
:106D1800A7F013501410D8A494EF36F096EF36F07D
:106D280055EF36F00001CC51D8A49DEF36F09FEF17
:106D380036F0A9EF36F0000EB46F000EB56F000EF6
:106D4800B66F000EB76F7CEF3AF0C3A7AEEF36F020
:106D5800B0EF36F0B4EF36F0C66DC71FD8B0C72B0A
:106D6800C651C427C751C5230001B651B711D8B4BD
:106D7800C0EF36F0C2EF36F0D4EF36F0CC51B42580
:106D8800B86F000EB521B96F6000DBF2D9FF600063
:106D9800DFF2DAFF6000E3F2DEFF6000E7F2DDFF1A
:106DA800C851C911CA11CB11D8A4DDEF36F0DFEFF5
:106DB80036F0E9EF36F0000EB46F000EB56F000E36
:106DC800B66F000EB76F7CEF3AF0FF0EC815B86FBC
:106DD800000EC915B96F000ECA15BA6F000ECB1593
:106DE800BB6FBB51BA11B91109E1810EB85DD8A0CA
:106DF80000EF37F002EF37F014EF37F0000EC82736
:106E0800010EC923000ECA23000ECB2314EF37F05E
:106E1800D890C837C937CA37CB37C407D8A0C507F1
:106E2800CBAF19EF37F01BEF37F00CEF37F0C5AFEA
:106E380027EF37F0830EC45DFF0EC559D8B027EF92
:106E480037F029EF37F035EF37F0FF0EC56F810EB9
:106E5800C46F000EC86F000EC96F000ECA6F000E17
:106E6800CB6F810EC41908E1C529D8B43EEF37F0BD
:106E780040EF37F048EF37F0D890C837C937CA37EE
:106E8800CB37C407D8A0C507C5BF54EF37F0C551E5
:106E980009E1800EC45DD8A054EF37F056EF37F003
:106EA80068EF37F0000EC86F000EC96F000ECA6F8A
:106EB800000ECB6F000EC56F800EC46F000EC16F41
:106EC800220EC06F45EF3AF0090EB86FD890CB3359
:106ED800CA33C933C833B82F6AEF37F0FF0EC81763
:106EE800FF0EC9177F0ECA17000ECB177F0EC425D9
:106EF800B86F000EC521B96FFF0EB815BA6FBB6B1E
:106F0800BC6BBD6B170ED890BA37BB37BC37BD37D3
:106F1800E82E87EF37F0BA51C813BB51C913BC51DB
:106F2800CA13BD51CB1345EF3AF0C3B99EEF37F002
:106F3800A0EF37F0B4EF37F06000D3F2D9FF60006C
:106F4800D7F2DAFF2E0EDE18D8A4ADEF37F0AFEF88
:106F580037F0B4EF37F0C389B44BB52B99EF37F05E
:106F68006000D3F2D9FF6000D7F2DAFFDF50B86FC4
:106F7800B851136E146A86ECA7F013501410D8A4F5
:106F8800C8EF37F0CAEF37F0CCEF37F01EEF38F024
:106F98000001C383090EC619C711D8B4D6EF37F05C
:106FA800D8EF37F011EF38F0C3A9DDEF37F0DFEF96
:106FB80037F0E2EF37F0C407D8A0C507C64BC72B98
:106FC800C8C01BF0C9C01CF0CAC01DF0CBC01EF061
:106FD8000A0E1F6E000E206E000E216E000E226E2D
:106FE80026ECA0F01BC0C8F01CC0C9F01DC0CAF038
:106FF8001EC0CBF06000D3F2D9FF6000D7F2DAFFF1
:10700800DF500001B86FD00EB827B851C827000E5E
:10701800C923CA23CB231AEF38F0C3B916EF38F0C7
:1070280018EF38F01AEF38F0C44BC52BB44BB52B1A
:1070380099EF37F0000E0001C76F000EC66F6000B1
:10704800D3F2D9FF6000D7F2DAFF650EDE18D8B4A4
:1070580030EF38F032EF38F041EF38F06000D3F21B
:10706800D9FF6000D7F2DAFF450EDE18D8A43FEF4B
:1070780038F041EF38F0D5EF38F0B44BB52B60005D
:10708800D3F2D9FF6000D7F2DAFF2D0EDE18D8A4AC
:1070980050EF38F052EF38F057EF38F0C387B44B61
:1070A800B52B68EF38F06000D3F2D9FF6000D7F253
:1070B800DAFF2B0EDE18D8A464EF38F066EF38F04C
:1070C80068EF38F0B44BB52B6000D3F2D9FF6000FD
:1070D800D7F2DAFF300EDE18D8B475EF38F077EF54
:1070E80038F066EF38F0C26B99EF38F06000D3F2F1
:1070F800D9FF6000D7F2DAFFDF500001B86FD00E79
:10710800B8270A0EC6036F00CCFFB9F06F00D0FF96
:10711800BAF0C703F350BA27B851B925C66F000EA5
:10712800BA21C76FB44BB52BC22B6000D3F2D9FF7D
:107138006000D7F2DAFFDF50B86FB851136E146AE7
:1071480086ECA7F013501410D8A4ADEF38F0AFEFC9
:1071580038F07AEF38F00001C251D8A4B6EF38F011
:10716800B8EF38F0CAEF38F02FEEFFF3B451D92654
:10717800B551DA22300EDE18D8B4C5EF38F0C7EFB3
:1071880038F0CAEF38F0B407D8A0B507C3A7CFEFD7
:1071980038F0D1EF38F0D5EF38F0C66DC71FD8B04A
:1071A800C72BC651C427C751C523B651B711D8B488
:1071B800E0EF38F0E2EF38F0F5EF38F0C3A3E7EF8F
:1071C80038F0E9EF38F0F5EF38F06000DBF2D9FF7E
:1071D8006000DFF2DAFF6000D3F2DEFF6000D7F272
:1071E800DDFFC8C035F0C9C036F0CAC037F0CBC023
:1071F80038F0000E3AEC81F035C0C8F036C0C9F05E
:1072080037C0CAF038C0CBF0C8C013F0C9C014F0FA
:10721800CAC015F0CBC016F0000E176E000E186E1F
:10722800000E196E000E1A6E76EC97F0D8A01FEFBC
:1072380039F021EF39F02CEF39F0000E0001B46F6E
:10724800000EB56F000EB66F000EB76F7CEF3AF008
:107258000001C5BF34EF39F032EF39F0C5EF39F02E
:10726800C46DC51FD8B0C52B59EF39F0C8C09BF005
:10727800C9C09CF0CAC09DF0CBC09EF0F90E9F6FAC
:10728800020EA06F150EA16F500EA26F8BEC71F05D
:107298009BC0C8F09CC0C9F09DC0CAF09EC0CBF08E
:1072A8000001F60EC427FF0EC523C5BF67EF39F0EE
:1072B800C55107E10A0EC45DD8B065EF39F067EF34
:1072C80039F03AEF39F087EF39F0C8C09BF0C9C000
:1072D8009CF0CAC09DF0CBC09EF0000E9F6F000EC0
:1072E800A06F200EA16F410EA26F8BEC71F09BC0B6
:1072F800C8F09CC0C9F09DC0CAF09EC0CBF0000188
:10730800C407D8A0C507C451C511D8A48EEF39F059
:1073180090EF39F069EF39F0C8C013F0C9C014F024
:10732800CAC015F0CBC016F0000E176E000E186E0E
:10733800800E196E000E1A6E72EC8FF0D8B0A7EF9F
:1073480039F0A9EF39F045EF3AF00001C3A1AFEFEA
:1073580039F0B1EF39F0BBEF39F0000EB46F000E21
:10736800B56F800EB66F800EB76F7CEF3AF0000EE7
:10737800B46F000EB56F800EB66F000EB76F7CEF5E
:107388003AF0C5BFD0EF39F0C55108E1C405D8A01F
:10739800D0EF39F0D2EF39F045EF3AF0F3EF39F0AA
:1073A800C8C082F0C9C083F0CAC084F0CBC085F0E1
:1073B800F90E866F020E876F150E886F500E896F53
:1073C8009FEC61F082C0C8F083C0C9F084C0CAF0E5
:1073D80085C0CBF00001F60EC427FF0EC523C551AA
:1073E80007E10A0EC45DD8B0FCEF39F0FEEF39F0C2
:1073F800D4EF39F01EEF3AF0C8C082F0C9C083F06C
:10740800CAC084F0CBC085F0000E866F000E876F6F
:10741800200E886F410E896F9FEC61F082C0C8F022
:1074280083C0C9F084C0CAF085C0CBF00001C4078E
:10743800D8A0C507C451C511D8A425EF3AF027EF45
:107448003AF000EF3AF0FF0E136EFF0E146E7F0E47
:10745800156E7F0E166EC8C017F0C9C018F0CAC0E6
:1074680019F0CBC01AF072EC8FF0D8B03EEF3AF0BA
:1074780040EF3AF045EF3AF0000E0001C16F220EDE
:10748800C06F0001C051C111D8B44DEF3AF04FEFB1
:107498003AF05BEF3AF0C0C052F1C1C053F1000EB0
:1074A800C86F000EC96F800ECA6F7F0ECB6FC3A165
:1074B80060EF3AF062EF3AF074EF3AF0C8C013F0B8
:1074C800C9C014F0CAC015F0CBC016F003ECA7F081
:1074D80013C0C8F014C0C9F015C0CAF016C0CBF06C
:1074E800C8C0B4F0C9C0B5F0CAC0B6F0CBC0B7F0D8
:1074F80012000001FD5107E1090EFC5DD8B087EFCD
:107508003AF089EF3AF08BEF3AF049EF40F0010199
:10751800916B930E136E020E146EE6ECA6F01350E8
:1075280001018F6F000E136E040E146EFB0E156EA4
:10753800630E166E000E186E030E176E17EC86F0AB
:1075480013501410D8A4ABEF3AF0ADEF3AF0D8EFDF
:107558003AF0030E136E040E146E930E156E020E9F
:10756800166E8FC117F0186A17EC86F013501410B6
:10757800D8A4C1EF3AF0C3EF3AF0D8EF3AF0030ECF
:1075880001018F25D96EDA6A040EDA222C0EDE1874
:10759800D8A4D1EF3AF0D3EF3AF0D8EF3AF0010E91
:1075A800926FBB9A27EF3BF0000E136E040E146E19
:1075B8009F0E156E630E166E000E186E070E176E70
:1075C80017EC86F013501410D8A4EDEF3AF0EFEF53
:1075D8003AF049EF40F0010E0101926FBB9A65C184
:1075E800F5F0070E0001F5175BECA9F01350070B37
:1075F8000001F5250101846F000E886F000E876F6A
:1076080012EF3BF0150E0001F56FC60EE82EFED7FF
:10761800F52FFCD700000101874B882B845100010E
:10762800F56FF66BF5510101875D8851800A0001FD
:10763800F76FF651800AF759D8A025EF3BF027EFEE
:107648003BF006EF3BF05BECA9F013C008F214C066
:1076580009F215C00AF216C00BF2000E136E040EE2
:10766800146EF70E0001FC25156EFF0EFD21166E37
:10767800000E72EC9DF00101856F906BF70E000112
:10768800FC25B26F030EFD21B36FAA0EB46F620E14
:10769800B56F900EB66F010EB76FC3ECA5F0B2C010
:1076A80082F1B3C083F1010182518311D8B45FEF35
:1076B8003BF061EF3BF06AEF3BF090518519D8B48D
:1076C80068EF3BF06AEF3BF06EEF3BF0AFEC9BF0FE
:1076D80049EF40F0010E616F000E1E6E040E1F6E22
:1076E800CD0E206E630E216E5EEC91F01EC093F1FC
:1076F8001FC094F115EF40F0FB0E136E630E146E6D
:1077080093C115F094C116F0000E186E030E176E93
:1077180017EC86F013501410D8A495EF3BF097EFB0
:107728003BF005EF3CF0030E01019325136E000EAC
:107738009421146E930E156E020E166E60EC95F081
:1077480013501410D8A4ABEF3BF0ADEF3BF0B5EFFE
:107758003BF0010E0101926FBB9A07EF40F007EF73
:1077680040F0030E01019325136E000E9421146E50
:10777800030E156E640E166E60EC95F0135014101F
:10778800D8A4C9EF3BF0CBEF3BF02DEF40F0010E52
:107798000101926F65C1F5F0070E0001F5175BEC6A
:1077A800A9F01350070B0001F5250101866F000EA3
:1077B8008A6F000E896FEDEF3BF0150E0001F56F33
:1077C800C60EE82EFED7F52FFCD700000101894B25
:1077D8008A2B86510001F56FF66BF5510101895D21
:1077E8008A51800A0001F76FF651800AF759D8A02C
:1077F80000EF3CF002EF3CF0E1EF3BF0BB9A07EF03
:1078080040F001019251D8B40CEF3CF00EEF3CF07F
:107818002AEF3CF07B0E136E630E146E93C115F0C5
:1078280094C116F0000E186E080E176E17EC86F04D
:1078380013501410D8A423EF3CF025EF3CF02AEFA6
:107848003CF0010E0101916F07EF40F001019251E8
:10785800D8B431EF3CF033EF3CF04FEF3CF0D90EA9
:10786800136E620E146E93C115F094C116F0000EDB
:10787800186E0A0E176E17EC86F013501410D8A461
:1078880048EF3CF04AEF3CF04FEF3CF0020E0101AC
:10789800916F07EF40F001019251D8B456EF3CF0D8
:1078A80058EF3CF074EF3CF0E40E136E620E146E69
:1078B80093C115F094C116F0000E186E0A0E176EDB
:1078C80017EC86F013501410D8A46DEF3CF06FEF4E
:1078D8003CF074EF3CF0030E0101916F07EF40F0AC
:1078E80001019251D8B47BEF3CF07DEF3CF0A2EF60
:1078F8003CF0FF0E136E630E146E93C115F094C125
:1079080016F0000E186E030E176E17EC86F0135063
:107918001410D8A492EF3CF094EF3CF0A2EF3CF0A6
:10792800030E01019325136E000E9421146E62EC70
:107938007FF01350EFECA9F007EF40F001019251EE
:10794800D8B4A9EF3CF0ABEF3CF004EF3DF0D30E18
:10795800136E630E146E93C115F094C116F0000EE9
:10796800186E050E176E17EC86F013501410D8A475
:10797800C0EF3CF0C2EF3CF004EF3DF0000E000118
:10798800B66F000EB76F050E010193250001B46FA5
:10799800000E010194210001B56F04EC32F0B4C06F
:1079A8008BF1B5C08CF1B6C08DF1B7C08EF1000E69
:1079B8000001866F000E876F7A0E886F440E896FFC
:1079C8008BC182F08CC183F08DC184F08EC185F0AB
:1079D8009FEC61F082C0CDF083C0CEF084C0CFF0C0
:1079E80085C0D0F0EEEC8EF0CDC056F1CEC057F188
:1079F80056C1D9F057C1DAF064EC9EF007EF40F0B9
:107A080001019251D8B40BEF3DF00DEF3DF066EF58
:107A18003DF0D90E136E630E146E93C115F094C128
:107A280016F0000E186E050E176E17EC86F0135040
:107A38001410D8A422EF3DF024EF3DF066EF3DF09E
:107A4800000E0001B66F000EB76F050E01019325F9
:107A58000001B46F000E010194210001B56F04EC20
:107A680032F0B4C08BF1B5C08CF1B6C08DF1B7C09F
:107A78008EF1000E0001866F000E876F7A0E886FF8
:107A8800440E896F8BC182F08CC183F08DC184F064
:107A98008EC185F09FEC61F082C0CDF083C0CEF03E
:107AA80084C0CFF085C0D0F0EEEC8EF0CDC054F19C
:107AB800CEC055F154C1D9F055C1DAF028EC9EF08A
:107AC80007EF40F001019251D8B46DEF3DF06FEF30
:107AD8003DF0A4EF3DF0330E136E630E146E93C1A8
:107AE80015F094C116F0000E186E080E176E17ECFC
:107AF80086F013501410D8A484EF3DF086EF3DF0C3
:107B0800A4EF3DF0080E010193252B6E000E942181
:107B18002C6E1CEC79F02BC071F02CC072F02DC0CB
:107B280073F02EC074F02FC075F030C076F031C0FD
:107B380077F032C078F0000E35ECA5F007EF40F092
:107B480001019251D8B4ABEF3DF0ADEF3DF0E2EF5B
:107B58003DF03C0E136E630E146E93C115F094C184
:107B680016F0000E186E080E176E17EC86F01350FC
:107B78001410D8A4C2EF3DF0C4EF3DF0E2EF3DF0A1
:107B8800080E010193252B6E000E94212C6E1CEC1F
:107B980079F02BC071F02CC072F02DC073F02EC09C
:107BA80074F02FC075F030C076F031C077F032C075
:107BB80078F0010E35ECA5F007EF40F00101925185
:107BC800D8B4E9EF3DF0EBEF3DF020EF3EF0450E85
:107BD800136E630E146E93C115F094C116F0000E67
:107BE800186E080E176E17EC86F013501410D8A4F0
:107BF80000EF3EF002EF3EF020EF3EF0080E0101EC
:107C080093252B6E000E94212C6E1CEC79F02BC062
:107C180071F02CC072F02DC073F02EC074F02FC01C
:107C280075F030C076F031C077F032C078F0020ECF
:107C380035ECA5F007EF40F001019251D8B427EFD9
:107C48003EF029EF3EF05EEF3EF04E0E136E630EEF
:107C5800146E93C115F094C116F0000E186E080E3C
:107C6800176E17EC86F013501410D8A43EEF3EF0B0
:107C780040EF3EF05EEF3EF0080E010193252B6EBB
:107C8800000E94212C6E1CEC79F02BC071F02CC0E6
:107C980072F02DC073F02EC074F02FC075F030C094
:107CA80076F031C077F032C078F0030E35ECA5F0ED
:107CB80007EF40F001019251D8B465EF3EF067EF4D
:107CC8003EF09CEF3EF0570E136E630E146E93C198
:107CD80015F094C116F0000E186E080E176E17EC0A
:107CE80086F013501410D8A47CEF3EF07EEF3EF0DF
:107CF8009CEF3EF0080E010193252B6E000E942197
:107D08002C6E1CEC79F02BC071F02CC072F02DC0D9
:107D180073F02EC074F02FC075F030C076F031C00B
:107D280077F032C078F0040E35ECA5F007EF40F09C
:107D380001019251D8B4A3EF3EF0A5EF3EF0DAEF7F
:107D48003EF0600E136E630E146E93C115F094C16D
:107D580016F0000E186E080E176E17EC86F013500A
:107D68001410D8A4BAEF3EF0BCEF3EF0DAEF3EF0C4
:107D7800080E010193252B6E000E94212C6E1CEC2D
:107D880079F02BC071F02CC072F02DC073F02EC0AA
:107D980074F02FC075F030C076F031C077F032C083
:107DA80078F0050E35ECA5F007EF40F0010192518F
:107DB800D8B4E1EF3EF0E3EF3EF018EF3FF0690E84
:107DC800136E630E146E93C115F094C116F0000E75
:107DD800186E080E176E17EC86F013501410D8A4FE
:107DE800F8EF3EF0FAEF3EF018EF3FF0080E010111
:107DF80093252B6E000E94212C6E1CEC79F02BC071
:107E080071F02CC072F02DC073F02EC074F02FC02A
:107E180075F030C076F031C077F032C078F0060ED9
:107E280035ECA5F007EF40F001019251D8B41FEFEF
:107E38003FF021EF3FF056EF3FF0720E136E630EE6
:107E4800146E93C115F094C116F0000E186E080E4A
:107E5800176E17EC86F013501410D8A436EF3FF0C5
:107E680038EF3FF056EF3FF0080E010193252B6ED7
:107E7800000E94212C6E1CEC79F02BC071F02CC0F4
:107E880072F02DC073F02EC074F02FC075F030C0A2
:107E980076F031C077F032C078F0070E35ECA5F0F7
:107EA80007EF40F001019251D8B45DEF3FF05FEF6A
:107EB8003FF082EF3FF0020E9119D8A466EF3FF031
:107EC80068EF3FF082EF3FF0170E136E630E146EEB
:107ED80093C115F094C116F0000E186E090E176EB6
:107EE80017EC86F013501410D8A47DEF3FF07FEF05
:107EF8003FF082EF3FF0FF0007EF40F001019251A1
:107F0800D8B489EF3FF08BEF3FF0C2EF3FF0020E9D
:107F18009119D8A492EF3FF094EF3FF0C2EF3FF0F1
:107F2800C60E136E630E146E93C115F094C116F04D
:107F3800000E186E060E176E17EC86F0135014100C
:107F4800D8A4A9EF3FF0ABEF3FF0C2EF3FF0930E9C
:107F5800136E020E146E060E01019325156E000EA7
:107F68009421166E000E186E1F0E176E07EC9AF00D
:107F78000201B26B59ECA5F007EF40F001019251F4
:107F8800D8B4C9EF3FF0CBEF3FF0B3EF3BF0020EB0
:107F98009119D8A4D2EF3FF0D4EF3FF0B3EF3BF004
:107FA800CE0E136E620E146E93C115F094C116F0C6
:107FB800000E186E0A0E176E17EC86F01350141088
:107FC800D8A4E9EF3FF0EBEF3FF0B3EF3BF05BEC09
:107FD800A9F013A0F2EF3FF0F4EF3FF0B3EF3BF05E
:107FE800930E136E020E146E0A0E01019325156E80
:107FF800000E9421166E000E186E1F0E176E07ECF9
:108008009AF0BCEF3FF0000E1E6E000E1F6ECD0EF4
:10801800206E630E216E5EEC91F01EC093F11FC0BE
:1080280094F1010193519411D8A41DEF40F01FEF72
:1080380040F080EF3BF02DEF40F0ECEC9DF048EF86
:1080480040F0C1ECA8F048EF40F04FEC9AF048EF50
:1080580040F0010191510001F56FF66BF651000AED
:10806800D8B439EF40F048EF40F0F551010AD8B4E0
:1080780021EF40F0030AD8B429EF40F0010AD8B440
:1080880025EF40F048EF40F0BB8A1200000E0001D7
:108098007A6FFE0E7B6FFF0E7C6F460E7D6F20EEB3
:1080A80002F0EB51D926EC51DA226F0078FF7EF00E
:1080B8006F0078FF7FF06F0078FF80F06F0078FF27
:1080C80081F011ECA5F07AC0CBF17BC0CCF17CC07B
:1080D800CDF17DC0CEF1000120EE5FF0EB51D92645
:1080E800EC51DA226F0078FF13F06F0078FF14F07C
:1080F8006F0078FF15F06F0078FF16F0CBC117F00E
:10810800CCC118F0CDC119F0CEC11AF072EC8FF0C5
:10811800D8B091EF40F093EF40F0CDEF40F0000180
:1081280020EE5FF0EB51D926EC51DA226F0078FF90
:108138006AF06F0078FF6BF06F0078FF6CF06F00EB
:1081480078FF6DF020EE02F0EB51D926EC51DA22DF
:108158006F0078FF6EF06F0078FF6FF06F0078FFA8
:1081680070F06F0078FF71F043EC5FF0000120EED3
:108178005FF0EB51D926EC51DA226000ABF1DEFF5B
:108188006000AFF1DEFF6000B3F1DEFF6000B7F121
:10819800DEFF000120EE63F0EB51D926EC51DA2224
:1081A8006F0078FF13F06F0078FF14F06F0078FF0E
:1081B80015F06F0078FF16F0CBC117F0CCC118F09E
:1081C800CDC119F0CEC11AF072EC8FF0D8B0EFEF34
:1081D80040F0F1EF40F02BEF41F0000120EE63F0AA
:1081E800EB51D926EC51DA226F0078FF6AF06F0064
:1081F80078FF6BF06F0078FF6CF06F0078FF6DF020
:1082080020EE02F0EB51D926EC51DA226F0078FF0C
:108218006EF06F0078FF6FF06F0078FF70F06F00FE
:1082280078FF71F043EC5FF0000120EE63F0EB5152
:10823800D926EC51DA226000ABF1DEFF6000AFF125
:10824800DEFF6000B3F1DEFF6000B7F1DEFFEBC0D8
:1082580013F0ECC014F0000120EE12F0EB51D92617
:10826800EC51DA226F0078FF15F06F0078FF16F0F6
:108278006F0078FF17F06F0078FF18F00A0E196E7C
:10828800D70E1A6E230E1B6E3C0E1C6E0BECA4F060
:10829800EBC0DDF0ECC0DEF0000120EE5FF0EB514A
:1082A800D926EC51DA226F0078FFDFF06F0078FFF3
:1082B800E0F06F0078FFE1F06F0078FFE2F0BFECCC
:1082C80083F0DDC0CFF1DEC0D0F1DFC0D1F1E0C076
:1082D800D2F1CFC186F0D0C187F0D1C188F0D2C128
:1082E80089F0000120EE47F0EB51D926EC51DA2253
:1082F8006F0078FF7EF06F0078FF7FF06F0078FFE7
:1083080080F06F0078FF81F020EE4FF0EB51D92616
:10831800EC51DA226F0078FF7AF06F0078FF7BF07B
:108328006F0078FF7CF06F0078FF7DF011ECA5F00E
:108338007AC082F07BC083F07CC084F07DC085F079
:108348009FEC61F082C0DFF183C0E0F184C0E1F10D
:1083580085C0E2F1DFC16AF0E0C16BF0E1C16CF009
:10836800E2C16DF0000120EE47F0EB51D926EC5147
:10837800DA226F0078FF6EF06F0078FF6FF06F0001
:1083880078FF70F06F0078FF71F043EC5FF06AC01F
:10839800AFF16BC0B0F16CC0B1F16DC0B2F10001CA
:1083A80020EE63F0EB51D926EC51DA226F0078FF0A
:1083B800DFF06F0078FFE0F06F0078FFE1F06F000A
:1083C80078FFE2F0EBC0DDF0ECC0DEF0BFEC83F04C
:1083D800DDC0D7F1DEC0D8F1DFC0D9F1E0C0DAF1F5
:1083E800D7C186F0D8C187F0D9C188F0DAC189F041
:1083F800000120EE1AF0EB51D926EC51DA226F0079
:1084080078FF7EF06F0078FF7FF06F0078FF80F0D4
:108418006F0078FF81F0000E7A6F000E7B6FFF0E01
:108428007C6F430E7D6F11ECA5F07AC082F07BC0A3
:1084380083F07CC084F07DC085F09FEC61F082C041
:10844800DBF183C0DCF184C0DDF185C0DEF1DBC186
:108458006AF0DCC16BF0DDC16CF0DEC16DF00001CB
:1084680020EE1AF0EB51D926EC51DA226F0078FF92
:108478006EF06F0078FF6FF06F0078FF70F06F009C
:1084880078FF71F043EC5FF06AC0B3F16BC0B4F1F0
:108498006CC0B5F16DC0B6F1EBC013F0ECC014F0D0
:1084A800B3C115F0B4C116F0B5C117F0B6C118F0D4
:1084B800EC0E196E510E1A6EB80E1B6E3D0E1C6E28
:1084C8000BECA4F0EBC0DDF0ECC0DEF0000120EE18
:1084D80036F0EB51D926EC51DA226F0078FFDFF045
:1084E8006F0078FFE0F06F0078FFE1F06F0078FF31
:1084F800E2F0BFEC83F0DDC0D3F1DEC0D4F1DFC021
:10850800D5F1E0C0D6F1D3C182F0D4C183F0D5C192
:1085180084F0D6C185F0AFC186F0B0C187F0B1C193
:1085280088F0B2C189F09FEC61F0000120EE57F0AD
:10853800EB51D926EC51DA2260000BF2DEFF600025
:108548000FF2DEFF600013F2DEFF600017F2DEFFBD
:10855800EBC013F0ECC014F020EE16F0EB51D92666
:10856800EC51DA226F0078FF15F06F0078FF16F0F3
:108578006F0078FF17F06F0078FF18F00A0E196E79
:10858800D70E1A6E230E1B6E3C0E1C6E0BECA4F05D
:10859800EBC0DDF0ECC0DEF0000120EE5FF0EB5147
:1085A800D926EC51DA226F0078FFDFF06F0078FFF0
:1085B800E0F06F0078FFE1F06F0078FFE2F0BFECC9
:1085C80083F0DDC0B7F1DEC0B8F1DFC0B9F1E0C0BB
:1085D800BAF1CFC17EF0D0C17FF0D1C180F0D2C155
:1085E80081F0B7C17AF0B8C17BF0B9C17CF0BAC1EB
:1085F8007DF011ECA5F07AC086F07BC087F07CC0D6
:1086080088F07DC089F0000120EE4BF0EB51D926AF
:10861800EC51DA226F0078FF7EF06F0078FF7FF070
:108628006F0078FF80F06F0078FF81F020EE53F044
:10863800EB51D926EC51DA226F0078FF7AF06F00FF
:1086480078FF7BF06F0078FF7CF06F0078FF7DF09B
:1086580011ECA5F07AC082F07BC083F07CC084F076
:108668007DC085F09FEC61F082C0DFF183C0E0F14E
:1086780084C0E1F185C0E2F1DFC16AF0E0C16BF0CE
:10868800E1C16CF0E2C16DF0000120EE4BF0EB515E
:10869800D926EC51DA226F0078FF6EF06F0078FF70
:1086A8006FF06F0078FF70F06F0078FF71F043ECA7
:1086B8005FF06AC0BBF16BC0BCF16CC0BDF16DC0AE
:1086C800BEF1000120EE63F0EB51D926EC51DA221D
:1086D8006F0078FFDFF06F0078FFE0F06F0078FF41
:1086E800E1F06F0078FFE2F0EBC0DDF0ECC0DEF007
:1086F800BFEC83F0DDC0D7F1DEC0D8F1DFC0D9F11F
:10870800E0C0DAF1D7C186F0D8C187F0D9C188F0C6
:10871800DAC189F0000120EE1AF0EB51D926EC51AC
:10872800DA226F0078FF7EF06F0078FF7FF06F002D
:1087380078FF80F06F0078FF81F0000E7A6F000EEE
:108748007B6FFF0E7C6F430E7D6F11ECA5F07AC036
:1087580082F07BC083F07CC084F07DC085F09FEC04
:1087680061F082C0DBF183C0DCF184C0DDF185C03B
:10877800DEF1DBC16AF0DCC16BF0DDC16CF0DEC19B
:108788006DF0000120EE1AF0EB51D926EC51DA22F7
:108798006F0078FF6EF06F0078FF6FF06F0078FF62
:1087A80070F06F0078FF71F043EC5FF06AC0BFF1C2
:1087B8006BC0C0F16CC0C1F16DC0C2F1EBC013F069
:1087C800ECC014F0BFC115F0C0C116F0C1C117F05C
:1087D800C2C118F0EC0E196E510E1A6EB80E1B6E4F
:1087E8003D0E1C6E0BECA4F0EBC0DDF0ECC0DEF02F
:1087F800000120EE36F0EB51D926EC51DA226F0059
:1088080078FFDFF06F0078FFE0F06F0078FFE1F0AD
:108818006F0078FFE2F0BFEC83F0DDC0C3F1DEC08B
:10882800C4F1DFC0C5F1E0C0C6F1C3C182F0C4C164
:1088380083F0C5C184F0C6C185F0BBC186F0BCC158
:1088480087F0BDC188F0BEC189F09FEC61F00001DE
:1088580020EE5BF0EB51D926EC51DA2260000BF2E6
:10886800DEFF60000FF2DEFF600013F2DEFF600043
:1088780017F2DEFF660E866F660E876FA60E886F8C
:108888003F0E896FD3C17EF0D4C17FF0D5C180F08F
:10889800D6C181F0000E7A6F000E7B6F800E7C6F60
:1088A8003F0E7D6F11ECA5F07AC082F07BC083F09B
:1088B8007CC084F07DC085F09FEC61F082C0DFF160
:1088C80083C0E0F184C0E1F185C0E2F1000E00014F
:1088D8009F6F000EA06F700EA16F420EA26F20EE68
:1088E80002F0EB51D926EC51DA226F0078FF9BF0A9
:1088F8006F0078FF9CF06F0078FF9DF06F0078FFA5
:108908009EF08BEC71F09BC086F09CC087F09DC0F8
:1089180088F09EC089F09A0E00016E6F990E6F6FF5
:10892800990E706FBE0E716FDFC16AF0E0C16BF017
:10893800E1C16CF0E2C16DF043EC5FF06AC082F017
:108948006BC083F06CC084F06DC085F09FEC61F063
:1089580082C0C7F183C0C8F184C0C9F185C0CAF11B
:10896800C7C16AF0C8C16BF0C9C16CF0CAC16DF06B
:10897800000120EE67F0EB51D926EC51DA226F00A6
:1089880078FF6EF06F0078FF6FF06F0078FF70F07F
:108998006F0078FF71F043EC5FF0000120EE67F0A4
:1089A800EB51D926EC51DA226000ABF1DEFF600012
:1089B800AFF1DEFF6000B3F1DEFF6000B7F1DEFF6C
:1089C80020EE67F0EB51D926EC51DA22030EDBBE1C
:1089D800F2EF44F0F0EF44F000EF45F020EE67F0DE
:1089E800EB51D926EC51DA22000EDE6E000EDE6E57
:1089F800000EDE6E000EDD6E20EE0EF0EB51D92675
:108A0800EC51DA226F0078FF13F06F0078FF14F052
:108A18006F0078FF15F06F0078FF16F020EE67F012
:108A2800EB51D926EC51DA226F0078FF17F06F006E
:108A380078FF18F06F0078FF19F06F0078FF1AF0D0
:108A480072EC8FF0D8B02BEF45F02DEF45F03CEFEE
:108A580045F0000120EE63F0EB51D926EC51DA2203
:108A6800000EDE6E000EDE6E000EDE6E000EDD6E97
:108A78001200010120EE3AF0E351D926E451DA223E
:108A8800DF50D8A44AEF45F04CEF45F076EF45F0BB
:108A980020EE3AF0E351D926E451DA22010EDF6ED6
:108AA80020EE3FF0E351D926E451DA22600097F72F
:108AB800DEFF60009BF7DEFF60009FF7DEFF6000CF
:108AC800A3F7DEFF20EE3BF0E351D926E451DA228A
:108AD800000EDE6E000EDE6E000EDE6E000EDD6E27
:108AE800AAEF48F020EE3BF0E351D926E451DA2210
:108AF8006F0078FF13F06F0078FF14F06F0078FFB5
:108B080015F06F0078FF16F0000E176E000E186E45
:108B1800C80E196E420E1A6E72EC8FF0D8B097EF2D
:108B280045F099EF45F0BDEF45F0000E136E000ECD
:108B3800146EC80E156EC20E166E010120EE3BF0C3
:108B4800E351D926E451DA226F0078FF17F06F005D
:108B580078FF18F06F0078FF19F06F0078FF1AF0AF
:108B680072EC8FF0D8A0BBEF45F0BDEF45F007EFF2
:108B780046F0010120EE3FF0E351D926E451DA2214
:108B88006F0078FF6AF06F0078FF6BF06F0078FF76
:108B98006CF06F0078FF6DF020EE3BF0E351D926C2
:108BA800E451DA226F0078FF6EF06F0078FF6FF003
:108BB8006F0078FF70F06F0078FF71F043EC5FF0A2
:108BC800010120EE3FF0E351D926E451DA220001F9
:108BD8006000ABF1DEFF6000AFF1DEFF6000B3F1D3
:108BE800DEFF6000B7F1DEFF010120EE3BF0E3514C
:108BF800D926E451DA22000EDE6E000EDE6E000E7B
:108C0800DE6E000EDD6EE5C17AF0E6C17BF0E7C1ED
:108C18007CF0E8C17DF0010120EE3FF0E351D92658
:108C2800E451DA226F0078FF7EF06F0078FF7FF062
:108C38006F0078FF80F06F0078FF81F011ECA5F0ED
:108C48007AC0E5F17BC0E6F17CC0E7F17DC0E8F1D0
:108C5800E3C1EBF0E4C1ECF04AEC40F0010120EE96
:108C68003BF0E351D926E451DA226F0078FF7EF019
:108C78006F0078FF7FF06F0078FF80F06F0078FF5B
:108C880081F0E5C17AF0E6C17BF0E7C17CF0E8C18C
:108C98007DF011ECA5F07AC09BF07BC09CF07CC005
:108CA8009DF07DC09EF0000E00019F6F000EA06F2A
:108CB800800EA16F420EA26F8BEC71F09BC0B4F5D1
:108CC8009CC0B5F59DC0B6F59EC0B7F50501B7BF08
:108CD80072EF46F070EF46F099EF46F0010120EE92
:108CE80043F0E351D926E451DA226F0078FF7AF095
:108CF8006F0078FF7BF06F0078FF7CF06F0078FFE3
:108D08007DF0B4C57EF0B5C57FF0B6C580F0B7C5B7
:108D180081F011ECA5F07AC0ACF57BC0ADF57CC054
:108D2800AEF57DC0AFF5BEEF46F0010120EE43F091
:108D3800E351D926E451DA226F0078FF6AF06F0018
:108D480078FF6BF06F0078FF6CF06F0078FF6DF0C4
:108D5800B4C56EF0B5C56FF0B6C570F0B7C571F0A3
:108D680043EC5FF06AC0ACF56BC0ADF56CC0AEF516
:108D78006DC0AFF5000E0501B06F000EB16F800E2B
:108D8800B26F3F0EB36F000E136E000E146EB40E6A
:108D9800156E440E166EACC517F0ADC518F0AEC50D
:108DA80019F0AFC51AF072EC8FF0D8B0DEEF46F0CC
:108DB800E0EF46F020EF47F0000E00019F6F000E35
:108DC800A06FB40EA16F440EA26FACC59BF0ADC5E9
:108DD8009CF0AEC59DF0AFC59EF08BEC71F09BC0CA
:108DE80082F09CC083F09DC084F09EC085F0000E88
:108DF80000019F6F000EA06FB40EA16F440EA26F0A
:108E0800ACC59BF0ADC59CF0AEC59DF0AFC59EF05E
:108E18008BEC71F09BC086F09CC087F09DC088F0F9
:108E28009EC089F09FEC61F082C0B0F583C0B1F5B7
:108E380084C0B2F585C0B3F5B0C59FF0B1C5A0F048
:108E4800B2C5A1F0B3C5A2F0B4C586F0B5C587F028
:108E5800B6C588F0B7C589F0010120EE5BF0E35193
:108E6800D926E451DA226F0078FF82F06F0078FF8C
:108E780083F06F0078FF84F06F0078FF85F09FEC37
:108E880061F082C09BF083C09CF084C09DF085C0D7
:108E98009EF08BEC71F09BC09CF59CC09DF59DC02D
:108EA8009EF59EC09FF5000E0001866F000E876F2D
:108EB800800E886F420E896FB0C582F0B1C583F00D
:108EC800B2C584F0B3C585F09FEC61F082C09FF015
:108ED80083C0A0F084C0A1F085C0A2F0010120EEFB
:108EE80043F0E351D926E451DA226F0078FF9BF072
:108EF8006F0078FF9CF06F0078FF9DF06F0078FF9F
:108F08009EF08BEC71F09BC0A0F59CC0A1F59DC0B4
:108F1800A2F59EC0A3F5B0C586F0B1C587F0B2C56D
:108F280088F0B3C589F0010120EE5BF0E351D92642
:108F3800E451DA226F0078FF7EF06F0078FF7FF04F
:108F48006F0078FF80F06F0078FF81F0000E00015D
:108F58007A6F000E7B6F800E7C6F420E7D6F11EC76
:108F6800A5F07AC082F07BC083F07CC084F07DC01D
:108F780085F09FEC61F082C0B4F083C0B5F084C086
:108F8800B6F085C0B7F0F6EC69F0B4C0A4F5B5C08A
:108F9800A5F5B6C0A6F5B7C0A7F5B4C586F0B5C5A2
:108FA80087F0B6C588F0B7C589F09CC582F09DC525
:108FB80083F09EC584F09FC585F09FEC61F082C068
:108FC8006EF083C06FF084C070F085C071F001014D
:108FD80020EE43F0E351D926E451DA226F0078FFFE
:108FE80086F06F0078FF87F06F0078FF88F06F00D9
:108FF80078FF89F0A0C582F0A1C583F0A2C584F0EE
:10900800A3C585F09FEC61F082C06AF083C06BF065
:1090180084C06CF085C06DF043EC5FF06AC0B4F0BA
:109028006BC0B5F06CC0B6F06DC0B7F0F6EC69F087
:10903800B4C0A8F5B5C0A9F5B6C0AAF5B7C0ABF5D8
:10904800A4C582F0A5C583F0A6C584F0A7C585F0A0
:10905800A8C586F0A9C587F0AAC588F0ABC589F070
:109068009FEC61F0010120EE43F0E351D926E45171
:10907800DA22000160000BF2DEFF60000FF2DEFF73
:10908800600013F2DEFF600017F2DEFF000E9F6F34
:10909800000EA06F000EA16F410EA26FB4C586F03E
:1090A800B5C587F0B6C588F0B7C589F0010120EECF
:1090B80057F0E351D926E451DA226F0078FF82F0A5
:1090C8006F0078FF83F06F0078FF84F06F0078FFFF
:1090D80085F09FEC61F082C09BF083C09CF084C057
:1090E8009DF085C09EF08BEC71F09BC06AF09CC02F
:1090F8006BF09DC06CF09EC06DF0010120EE3BF05E
:10910800E351D926E451DA226F0078FF6EF06F0040
:1091180078FF6FF06F0078FF70F06F0078FF71F0E4
:1091280043EC5FF0010120EE3BF0E351D926E45116
:10913800DA2200016000ABF1DEFF6000AFF1DEFF74
:109148006000B3F1DEFF6000B7F1DEFF1200D5C0AA
:10915800ABF1D6C0ACF1D7C0ADF1D8C0AEF10101CA
:10916800AEBFB9EF48F0BCEF48F0010EBDEF48F0D4
:10917800000EA66FAE9F500EAB5DAC0EAC59AE0E96
:10918800AD59420EAE59D8A0CCEF48F0CEEF48F01A
:1091980040EF49F0000E536F220E526FAB05000EE0
:1091A800AC59800EAD597F0EAE59D8A0DEEF48F00D
:1091B800E0EF48F0EAEF48F0D5C0D5F0D6C0D6F0D9
:1091C800D7C0D7F0D8C0D8F0B7EF4BF0180EAB5DCA
:1091D800720EAC59B10EAD59420EAE59D8A0F7EF88
:1091E80048F0F9EF48F01EEF49F0A651D8A4FFEF78
:1091F80048F001EF49F01EEF49F0D5C082F0D6C023
:1092080083F0D7C084F0D8C085F0000E0001866FC7
:10921800000E876F000E886F7F0E896F9FEC61F0DC
:1092280082C0D5F083C0D6F084C0D7F085C0D8F00E
:10923800B7EF4BF0A651D8B424EF49F026EF49F028
:1092480040EF49F0B50EAB5DF10EAC59CF0EAD59FC
:10925800420EAE59D8A033EF49F035EF49F040EF50
:1092680049F0000E0001D56F000ED66F000ED76FC3
:10927800000ED86FB7EF4BF0190EAB5D720EAC59FC
:10928800B10EAD593E0EAE59D8A04DEF49F04FEF93
:1092980049F045EF4AF0930EAB5D150EAC59850EBB
:1092A800AD593F0EAE59D8A05CEF49F05EEF49F0DA
:1092B800AAEF49F0A651040DC70EF324F66E610E0D
:1092C800F420F76EF86A000EF82209006F00D4FF48
:1092D8006EF009006F00D4FF6FF009006F00D4FF33
:1092E80070F00A006F00D4FF71F03B0E0001866F2A
:1092F800AA0E876FB80E886F3F0E896FD5C082F0AF
:10930800D6C083F0D7C084F0D8C085F09FEC61F058
:1093180082C06AF083C06BF084C06CF085C06DF0C9
:1093280043EC5FF06AC0CDF06BC0CEF06CC0CFF0FC
:109338006DC0D0F0EEEC8EF0CDC0A7F1CEC0A8F194
:10934800CFC0A9F1D0C0AAF1CBEF49F0A6510001D6
:10935800D96FDA6BFE0ED9036F00CCFFDBF06F001C
:10936800D0FFDCF0DA03F350DC27FF0ED903F3500B
:10937800DC27010EDB27000EDC23DBC0A7F1DCC0F5
:10938800A8F10101000EA8BFFF0EA96FAA6FD5C0F2
:109398007AF0D6C07BF0D7C07CF0D8C07DF0000E44
:1093A8000001866F720E876F310E886F3F0E896FCE
:1093B800A7C135F0A8C136F0A9C137F0AAC138F065
:1093C800010E3AEC81F035C082F036C083F037C028
:1093D80084F038C085F09FEC61F082C07EF083C0D5
:1093E8007FF084C080F085C081F011ECA5F07AC0D0
:1093F8009EF17BC09FF17CC0A0F17DC0A1F1A7C107
:1094080035F0A8C136F0A9C137F0AAC138F0010E6D
:109418003AEC81F035C082F036C083F037C084F072
:1094280038C085F08E0E0001866FBE0E876FBF0EA6
:10943800886F350E896F9FEC61F082C0A2F183C0FE
:10944800A3F184C0A4F185C0A5F19EC17AF09FC1A3
:109458007BF0A0C17CF0A1C17DF0A2C17EF0A3C1C8
:109468007FF0A4C180F0A5C181F011ECA5F07AC00D
:10947800D5F07BC0D6F07CC0D7F07DC0D8F08AEF9D
:109488004AF0AB05000EAC59000EAD59390EAE5975
:10949800D8A051EF4AF053EF4AF06DEF4AF0000EB2
:1094A800A76F000EA86F000EA96F000EAA6FD5C097
:1094B8009EF1D6C09FF1D7C0A0F1D8C0A1F1000E8F
:1094C800A26F000EA36F000EA46F000EA56F8AEFA7
:1094D8004AF0D5C06AF0D6C06BF0D7C06CF0D8C0DF
:1094E8006DF0000E00016E6F000E6F6F800E706FD2
:1094F8003F0E716F43EC5FF06AC0D5F06BC0D6F0D9
:109508006CC0D7F06DC0D8F0B7EF4BF0D5C082F083
:10951800D6C083F0D7C084F0D8C085F0D5C086F017
:10952800D6C087F0D7C088F0D8C089F09FEC61F02A
:1095380082C096F183C097F184C098F185C099F1F3
:109548008F0E00016E6FAA0E6F6F2A0E706F3E0E9F
:10955800716F150E866F520E876F350E886FBB0EB2
:10956800896F96C182F097C183F098C184F099C140
:1095780085F09FEC61F082C06AF083C06BF084C014
:109588006CF085C06DF043EC5FF06AC082F16BC08F
:1095980083F16CC084F16DC085F1D5C07AF0D6C076
:1095A8007BF0D7C07CF0D8C07DF096C186F097C11B
:1095B80087F098C188F099C189F082C182F083C18F
:1095C80083F084C184F085C185F09FEC61F082C08E
:1095D8007EF083C07FF084C080F085C081F011ECFC
:1095E800A5F07AC092F17BC093F17CC094F17DC064
:1095F80095F192C17EF093C17FF094C180F095C13E
:1096080081F0000E00017A6F000E7B6F000E7C6FF8
:10961800400E7D6F11ECA5F07AC09FF07BC0A0F0E2
:109628007CC0A1F07DC0A2F092C186F093C187F002
:1096380094C188F095C189F0D5C082F0D6C083F076
:10964800D7C084F0D8C085F09FEC61F082C09BF051
:1096580083C09CF084C09DF085C09EF08BEC71F0B7
:109668009BC086F19CC087F19DC088F19EC089F19E
:10967800A2C17EF0A3C17FF0A4C180F0A5C181F092
:1096880086C17AF087C17BF088C17CF089C17DF002
:1096980011ECA5F07AC08AF17BC08BF17CC08CF10B
:1096A8007DC08DF19EC16EF09FC16FF0A0C170F0BA
:1096B800A1C171F08AC16AF08BC16BF08CC16CF0EA
:1096C8008DC16DF043EC5FF06AC08EF16BC08FF115
:1096D8006CC090F16DC091F18EC16AF08FC16BF0D2
:1096E80090C16CF091C16DF0000E00016E6F000E1C
:1096F8006F6F800E706F3F0E716F43EC5FF06AC042
:109708009AF16BC09BF16CC09CF16DC09DF1010199
:10971800A751A811A911AA11D8A495EF4BF097EF5A
:109728004BF0A1EF4BF09AC1D5F09BC1D6F09CC18C
:10973800D7F09DC1D8F0B7EF4BF09AC19BF09BC111
:109748009CF09CC19DF09DC19EF0A7C19FF0A8C14F
:10975800A0F0FDEC77F09BC0D5F09CC0D6F09DC082
:10976800D7F09EC0D8F01200000E0001F16F000E75
:10977800F06F360E246E020E256E16EC82F09C0EEB
:109788000001F0259B6F0D0EF1219C6FC20E9D6F9D
:10979800620E9E6F930E9F6F020EA06F36C2A1F0ED
:1097A800A26BF8ECA2F000019B51F0279C51F12329
:1097B80002013751D8B4E3EF4BF0E5EF4BF0FAEF85
:1097C8004BF09C0E0001F0259B6F0D0EF1219C6F54
:1097D800B70E9D6F630E9E6F37C29FF0A06BF8ECBB
:1097E800A2F000019B51F0279C51F123020138514E
:1097F800D8B401EF4CF003EF4CF018EF4CF09C0E8E
:109808000001F0259B6F0D0EF1219C6F840E9D6F5A
:10981800630E9E6F38C29FF0A06BF8ECA2F00001B7
:109828009B51F0279C51F12302013951D8B41FEF05
:109838004CF021EF4CF036EF4CF09C0E0001F02577
:109848009B6F0D0EF1219C6F8D0E9D6F630E9E6FA9
:1098580039C29FF0A06BF8ECA2F000019B51F027F1
:109868009C51F12302013A51D8B43DEF4CF03FEF3F
:109878004CF054EF4CF09C0E0001F0259B6F0D0E40
:10988800F1219C6F960E9D6F630E9E6F3AC29FF0FA
:10989800A06BF8ECA2F000019B51F0279C51F1233A
:1098A800800E02013C193B11D8B45DEF4CF05FEF1C
:1098B8004CF097EF4CF03BC225F03CC226F055EC3B
:1098C800A7F025C029F026C02AF0000E2C6E0A0E3B
:1098D8002B6E74EC96F029C0EEF02AC0EFF09C0EC7
:1098E8000001F0259B6F0D0EF1219C6FEF0E9D6F0F
:1098F800620E9E6F3BC213F03CC214F0000E166E4F
:109908000A0E156E9FEC94F013C09FF014C0A0F0DF
:10991800EEC0A1F0EFC0A2F0F8ECA2F000019B515C
:10992800F0279C51F123800E02013E193D11D8B455
:10993800A0EF4CF0A2EF4CF0DAEF4CF03DC225F06E
:109948003EC226F055ECA7F025C029F026C02AF023
:10995800000E2C6E0A0E2B6E74EC96F029C0EEF0F9
:109968002AC0EFF09C0E0001F0259B6F0D0EF1212F
:109978009C6FF90E9D6F620E9E6F3DC213F03EC242
:1099880014F0000E166E0A0E156E9FEC94F013C0BC
:109998009FF014C0A0F0EEC0A1F0EFC0A2F0F8EC68
:1099A800A2F000019B51F0279C51F123800E020187
:1099B80040193F11D8B4E3EF4CF0E5EF4CF01DEF40
:1099C8004DF03FC225F040C226F055ECA7F025C067
:1099D80029F026C02AF0000E2C6E0A0E2B6E74ECAD
:1099E80096F029C0EEF02AC0EFF09C0E0001F02599
:1099F8009B6F0D0EF1219C6F030E9D6F630E9E6F82
:109A08003FC213F040C214F0000E166E0A0E156E17
:109A18009FEC94F013C09FF014C0A0F0EEC0A1F02A
:109A2800EFC0A2F0F8ECA2F000019B51F0279C5186
:109A3800F123800E020142194111D8B426EF4DF0EE
:109A480028EF4DF060EF4DF041C225F042C226F0FC
:109A580055ECA7F025C029F026C02AF0000E2C6E80
:109A68000A0E2B6E74EC96F029C0EEF02AC0EFF0C7
:109A78009C0E0001F0259B6F0D0EF1219C6F0D0EC1
:109A88009D6F630E9E6F41C213F042C214F0000E28
:109A9800166E0A0E156E9FEC94F013C09FF014C05A
:109AA800A0F0EEC0A1F0EFC0A2F0F8ECA2F0000127
:109AB8009B51F0279C51F123800E02014419431158
:109AC800D8B469EF4DF06BEF4DF081EF4DF09C0E7F
:109AD8000001F0259B6F0D0EF1219C6FA70E9D6F65
:109AE800630E9E6F43C29FF044C2A0F0F8ECA2F050
:109AF80000019B51F0279C51F123800E0201461969
:109B08004511D8B48AEF4DF08CEF4DF0A2EF4DF02F
:109B18009C0E0001F0259B6F0D0EF1219C6FAF0E7E
:109B28009D6F630E9E6F45C29FF046C2A0F0F8EC91
:109B3800A2F000019B51F0279C51F1239C0E0001DB
:109B4800F0259B6F0D0EF1219C6F7E0E9D6F620EAE
:109B58009E6F47C213F048C214F0030E166EE80E4B
:109B6800156EDBEC9EF013C09FF014C0A0F0000E41
:109B7800166E0A0E156E47C213F048C214F0DBECDD
:109B88009EF013C01AF014C01BF0000E1D6E640E78
:109B98001C6EF3ECA0F01AC0A1F01BC0A2F049C2E1
:109BA80013F04AC214F0030E166EE80E156EDBECC5
:109BB8009EF013C0A3F014C0A4F0000E166E0A0E97
:109BC800156E49C213F04AC214F0DBEC9EF013C0C4
:109BD8001AF014C01BF0000E1D6E640E1C6EF3EC20
:109BE800A0F01AC0A5F01BC0A6F0F8ECA2F0000186
:109BF8009B51F0279C51F1239C0EF0259B6F0D0E75
:109C0800F1219C6FF40E9D6F610E9E6F4BC29FF009
:109C18004CC2A0F04DC2A1F04EC2A2F04FC2A3F0B8
:109C280050C2A4F051C2A5F052C2A6F053C2A7F088
:109C380054C2A8F055C2A9F056C2AAF057C2ABF058
:109C480058C2ACF059C2ADF05AC2AEF05BC2AFF028
:109C58005CC2B0F05DC2B1F05EC2B2F05FC2B3F0F8
:109C680060C2B4F061C2B5F062C2B6F063C2B7F0C8
:109C780064C2B8F065C2B9F066C2BAF067C2BBF098
:109C880068C2BCF069C2BDF06AC2BEF06BC2BFF068
:109C98006CC2C0F06DC2C1F06EC2C2F06FC2C3F038
:109CA80070C2C4F071C2C5F072C2C6F073C2C7F008
:109CB80074C2C8F075C2C9F076C2CAF077C2CBF0D8
:109CC80078C2CCF079C2CDF07AC2CEF07BC2CFF0A8
:109CD8007CC2D0F07DC2D1F07EC2D2F07FC2D3F078
:109CE80080C2D4F081C2D5F082C2D6F083C2D7F048
:109CF80084C2D8F085C2D9F086C2DAF087C2DBF018
:109D080088C2DCF089C2DDF08AC2DEF0F8ECA2F08D
:109D180000019B51F0279C51F1239C0E136E0D0EF0
:109D2800146EF0C015F0F1C016F0000E72EC9DF044
:109D38000001ED6F9C0EF0259B6F0D0EF1219C6FBD
:109D4800AA0E9D6F620E9E6FEDC09FF0A06BF8EC9F
:109D5800A2F0120000018451D96EDA6A6F007BFF0D
:109D6800F6FF6F0077FFF7FF000EF86E0800F5505A
:109D7800250AD8A4C2EF4EF0C4EF4EF077EF51F0A9
:109D88008451D96EDA6ADE2A000EDD22000E3D6E9D
:109D9800000E3C6E3CC043F001015069516900015E
:109DA800896BF7EF4EF043828451D96EDA6ADE2A66
:109DB800000EDD22F7EF4EF0010E896FF7EF4EF03F
:109DC8008451D96EDA6A6F007BFFF6FF6F0077FF68
:109DD800F7FF000EF86E0800F550300AD8B4D7EF38
:109DE8004EF0E0EF4EF08951D8B4FDEF4EF0FFEFA2
:109DF8004EF0E4EF4EF084C013F085C014F0DBECB5
:109E080093F013C03CF014C03DF03DBE10EF4FF08E
:109E18000EEF4FF015EF4FF043803C6C3D1ED8B06D
:109E28003D2A00018451D96EDA6A6F0078FF93F0F9
:109E38006F0074FF94F060004FF2F6FF600053F279
:109E4800F7FF000EF86E08006F00D4FF92F04EEF97
:109E58004FF0934B942B60004FF2F6FF600053F2E3
:109E6800F7FF000EF86E0800F5506C0AD8A43FEF13
:109E78004FF041EF4FF065EF4FF04C0E926F934B60
:109E8800942B65EF4FF0690E926F65EF4FF0926B70
:109E980065EF4FF09251640AD8B447EF4FF00D0ABE
:109EA800D8B447EF4FF0050AD8B42DEF4FF0190A90
:109EB800D8B447EF4FF00D0AD8B447EF4FF04BEF47
:109EC8004FF060004FF2F6FF600053F2F7FF000E0C
:109ED800F86E0800F550640AD8B475EF4FF077EFC4
:109EE8004FF0CCEF4FF060004FF2F6FF600053F2F6
:109EF800F7FF000EF86E0800F550690AD8A487EF3E
:109F08004FF089EF4FF000EF50F0CCEF4FF06000CA
:109F180017F2D9FF60001BF2DAFFDF50DF2ADF2AD1
:109F2800D96EDA6A6F0078FF8AF06F0074FF8BF0E1
:109F3800000E8BBFFF0E8C6F8D6F8E6F8F6F906FC3
:109F4800916FD7EF4FF0600017F2D9FF60001BF256
:109F5800DAFF080EDF26DF5CD96EDA6A6F0078FF59
:109F68008AF06F0078FF8BF06F0078FF8CF06F003D
:109F780078FF8DF06F0078FF8EF06F0078FF8FF01C
:109F88006F0078FF90F06F0078FF91F0D7EF4FF0F7
:109F980092514C0AD8B4A7EF4FF0250AD8B48BEFEA
:109FA8004FF0D7EF4FF0010E9325876F000E9421E5
:109FB800886F8451D96EDA6A60001FF2DEFF600094
:109FC80023F2DDFF83C06AF08AC06BF08BC06CF0AF
:109FD8008CC06DF08DC06EF08EC06FF08FC070F0C9
:109FE80090C071F091C072F048EC7BF06AC083F0C9
:109FF8006BC084F095EF51F060004FF2F6FF6000FF
:10A0080053F2F7FF000EF86E0800F550780AD8B43E
:10A0180010EF50F012EF50F068EF50F060004FF280
:10A02800F6FF600053F2F7FF000EF86E0800F550D7
:10A03800750AD8A422EF50F024EF50F0CCEF50F07E
:10A0480068EF50F0600017F2D9FF60001BF2DAFFEA
:10A05800DF50DF2ADF2AD96EDA6A6F0078FF87F0CF
:10A068006F0074FF88F087C08AF088C08BF08C6B13
:10A078008D6B8E6B8F6B906B916B73EF50F06000F4
:10A0880017F2D9FF60001BF2DAFF080EDF26DF5C4B
:10A09800D96EDA6A6F0078FF8AF06F0078FF8BF06C
:10A0A8006F0078FF8CF06F0078FF8DF06F0078FFFD
:10A0B8008EF06F0078FF8FF06F0078FF90F06F00E0
:10A0C80078FF91F073EF50F092514C0AD8B443EFF7
:10A0D80050F0250AD8B426EF50F073EF50F0010E77
:10A0E8009325876F000E9421886F8451D96EDA6AA0
:10A0F80060001FF2DEFF600023F2DDFFB8EF50F0D2
:10A1080083C02CF08AC02DF08BC02EF08CC02FF0AD
:10A118008DC030F08EC031F08FC032F090C033F077
:10A1280091C034F089EC84F02CC083F02DC084F009
:10A1380095EF51F083C02BF08AC02CF08BC02DF026
:10A148008CC02EF08DC02FF08EC030F08FC031F053
:10A1580090C032F091C033F046EC88F02BC083F009
:10A168002CC084F095EF51F060004FF2F6FF6000CC
:10A1780053F2F7FF000EF86E0800F550750AD8B4D0
:10A1880084EF50F00D0AD8B49EEF50F0CCEF50F0A9
:10A19800896B8451D96EDA6A6F007BFFF6FF6F0016
:10A1A80077FFF7FF000EF86E0800F550730AD8A481
:10A1B800E0EF50F0E2EF50F0ECEF50F08451D96E40
:10A1C800DA6ADE2A000EDD22010E896F48EF51F0AF
:10A1D8008451D96EDA6A6F007BFFF6FF6F0077FF54
:10A1E800F7FF000EF86E0800F5506C0AD8A4FFEFD0
:10A1F80050F001EF51F048EF51F08451D96EDA6A0E
:10A208006F0078FF87F06F0074FF88F0010E8727D2
:10A21800000E882360001FF2F6FF600023F2F7FFAC
:10A22800000EF86E0800F5506C0AD8A41EEF51F025
:10A2380020EF51F048EF51F08451D96EDA6A6F007F
:10A2480078FF87F06F0074FF88F0020E8727000EF2
:10A25800882360001FF2F6FF600023F2F7FF000E6C
:10A26800F86E0800F550730AD8A43DEF51F03FEF9F
:10A2780051F048EF51F08451D96EDA6A030EDE26A8
:10A28800000EDD22E8EF50F08951D8B44EEF51F0BE
:10A2980050EF51F06BEF51F083C01DF0600017F2E2
:10A2A800D9FF60001BF2DAFF020EDF26DF5CD96EF1
:10A2B800DA6A6F0078FF1EF06F0078FF1FF0DAECA3
:10A2C80086F01DC083F01EC084F095EF51F08451D4
:10A2D800D96EDA6ADE2A000EDD22000E846F000EC7
:10A2E800836F95EF51F08451D96EDA6A6F007BFF66
:10A2F800F6FF6F0077FFF7FF000EF86E0800F550C5
:10A30800156E166A83C017F03DEC94F00001845175
:10A31800D96EDA6ADE2A000EDD22000E846F010E85
:10A32800836F120020EE3AF03950D9263A50DA22DB
:10A33800DF6A20EE3BF03950D9263A50DA22000E77
:10A34800DE6E000EDE6E000EDE6E000EDD6E20EE9E
:10A358003FF03950D9263A50DA22000EDE6E000E50
:10A36800DE6E000EDE6E000EDD6E20EE2AF0395035
:10A37800D9263A50DA2210EE43F03950E1263A5005
:10A38800E2226F007BFFE6FF6F007BFFE6FF6F00B6
:10A398007BFFE6FF6F007BFFE6FF000E0001866F84
:10A3A800000E876F000E886F440E896F000E9F6F36
:10A3B800000EA06F610EA16F450EA26F20EE02F095
:10A3C8003950D9263A50DA226F0078FF9BF06F0097
:10A3D80078FF9CF06F0078FF9DF06F0078FF9EF08B
:10A3E8008BEC71F09BC082F09CC083F09DC084F020
:10A3F8009EC085F09FEC61F082C0B6F083C0B7F0D4
:10A4080084C0B8F085C0B9F020EE22F03950D926C2
:10A418003A50DA226F0078FF6EF06F0078FF6FF025
:10A428006F0078FF70F06F0078FF71F0000E000188
:10A438009F6F000EA06F610EA16F450EA26F20EEF8
:10A4480002F03950D9263A50DA226F0078FF9BF093
:10A458006F0078FF9CF06F0078FF9DF06F0078FF29
:10A468009EF08BEC71F09BC06AF09CC06BF09DC0B5
:10A478006CF09EC06DF043EC5FF06AC0BAF06BC040
:10A48800BBF06CC0BCF06DC0BDF0B6C09BF0B7C0EF
:10A498009CF0B8C09DF0B9C09EF0BAC09FF0BBC098
:10A4A800A0F0BCC0A1F0BDC0A2F08BEC71F020EE12
:10A4B80047F03950D9263A50DA22000160006FF28D
:10A4C800DEFF600073F2DEFF600077F2DEFF6000FF
:10A4D8007BF2DEFF000E866F000E876F800E886F9E
:10A4E800420E896F000E9F6F000EA06F610EA16F64
:10A4F800450EA26F20EE02F03950D9263A50DA22E2
:10A508006F0078FF9BF06F0078FF9CF06F0078FF7A
:10A518009DF06F0078FF9EF08BEC71F09BC082F08D
:10A528009CC083F09DC084F09EC085F09FEC61F0D4
:10A5380082C0B6F083C0B7F084C0B8F085C0B9F067
:10A5480020EE26F03950D9263A50DA226F0078FFEB
:10A558006EF06F0078FF6FF06F0078FF70F06F009B
:10A5680078FF71F0000E00019F6F000EA06F610E62
:10A57800A16F450EA26F20EE02F03950D9263A504D
:10A58800DA226F0078FF9BF06F0078FF9CF06F0075
:10A5980078FF9DF06F0078FF9EF08BEC71F09BC008
:10A5A8006AF09CC06BF09DC06CF09EC06DF043ECEF
:10A5B8005FF06AC0BAF06BC0BBF06CC0BCF06DC095
:10A5C800BDF0B6C09BF0B7C09CF0B8C09DF0B9C054
:10A5D8009EF0BAC09FF0BBC0A0F0BCC0A1F0BDC047
:10A5E800A2F08BEC71F020EE4BF03950D9263A509E
:10A5F800DA22000160006FF2DEFF600073F2DEFF16
:10A60800600077F2DEFF60007BF2DEFF6000E7F0BB
:10A61800D9FF6000EBF0DAFFDE04DE10D8A417EFF4
:10A6280053F019EF53F079EF53F0000E866F000ED8
:10A63800876F000E886F440E896F20EE02F0395044
:10A64800D9263A50DA226F0078FF82F06F0078FF3F
:10A6580083F06F0078FF84F06F0078FF85F09FEC3F
:10A6680061F082C09BF083C09CF084C09DF085C0DF
:10A678009EF0000E00016E6F000E6F6F960E706FE9
:10A68800440E716F20EE02F03950D9263A50DA2282
:10A698006F0078FF6AF06F0078FF6BF06F0078FF4B
:10A6A8006CF06F0078FF6DF043EC5FF06AC09FF0CC
:10A6B8006BC0A0F06CC0A1F06DC0A2F08BEC71F083
:10A6C80020EE4FF03950D9263A50DA2200016000C6
:10A6D8006FF2DEFF600073F2DEFF600077F2DEFFEC
:10A6E80060007BF2DEFFD7EF53F0000E866F000E9E
:10A6F800876F000E886F440E896F20EE02F0395084
:10A70800D9263A50DA226F0078FF82F06F0078FF7E
:10A7180083F06F0078FF84F06F0078FF85F09FEC7E
:10A7280061F082C09BF083C09CF084C09DF085C01E
:10A738009EF0000E00016E6F000E6F6FA00E706F1E
:10A74800410E716F20EE02F03950D9263A50DA22C4
:10A758006F0078FF6AF06F0078FF6BF06F0078FF8A
:10A768006CF06F0078FF6DF043EC5FF06AC09FF00B
:10A778006BC0A0F06CC0A1F06DC0A2F08BEC71F0C2
:10A7880020EE4FF03950D9263A50DA220001600005
:10A798006FF2DEFF600073F2DEFF600077F2DEFF2B
:10A7A80060007BF2DEFF000E866F000E876F800E62
:10A7B800886F420E896F20EE02F03950D9263A5040
:10A7C800DA226F0078FF82F06F0078FF83F06F0065
:10A7D80078FF84F06F0078FF85F09FEC61F082C00D
:10A7E8009BF083C09CF084C09DF085C09EF0000E55
:10A7F80000016E6F400E6F6F1C0E706F450E716F0B
:10A8080020EE02F03950D9263A50DA226F0078FF4C
:10A818006AF06F0078FF6BF06F0078FF6CF06F00E4
:10A8280078FF6DF043EC5FF06AC09FF06BC0A0F05A
:10A838006CC0A1F06DC0A2F08BEC71F020EE53F06B
:10A848003950D9263A50DA22000160006FF2DEFF53
:10A85800600073F2DEFF600077F2DEFF60007BF2DB
:10A86800DEFF20EE57F03950D9263A50DA22000E92
:10A87800DE6E000EDE6E000EDE6E000EDD6E20EE69
:10A888005BF03950D9263A50DA22000EDE6E000EFF
:10A89800DE6E000EDE6E000EDD6E20EE5FF03950CB
:10A8A800D9263A50DA22000EDE6E000EDE6E000E59
:10A8B800DE6E000EDD6E20EE63F03950D9263A5078
:10A8C800DA22000EDE6E000EDE6E000EDE6E000E68
:10A8D800DD6E20EE67F03950D9263A50DA22000EA4
:10A8E800DE6E000EDE6E000EDE6E000EDD6E1200F5
:10A8F800000E136E000E146E340E156E420E166E98
:10A90800010120EE2EF0E951D926EA51DA226F0032
:10A9180078FF17F06F0078FF18F06F0078FF19F0D4
:10A928006F0078FF1AF072EC8FF0D8A09EEF54F009
:10A93800A0EF54F0DDEF54F0010120EE2EF0E951C4
:10A94800D926EA51DA226F0078FF6AF06F0078FFA3
:10A958006BF06F0078FF6CF06F0078FF6DF020EE01
:10A9680002F0E951D926EA51DA226F0078FF6EF039
:10A978006F0078FF6FF06F0078FF70F06F0078FF5E
:10A9880071F043EC5FF0010120EE2EF0E951D92679
:10A99800EA51DA2200016000ABF1DEFF6000AFF19E
:10A9A800DEFF6000B3F1DEFF6000B7F1DEFF0BEF02
:10A9B80057F00101EEBFEBEF54F0EE51ED11EC1141
:10A9C80008E1EB05D8A0EBEF54F0EDEF54F0BAEF47
:10A9D80055F0EEBFFEEF54F0EE51ED1109E1E80E2F
:10A9E800EB5DFD0EEC59D8B0FCEF54F0FEEF54F0DF
:10A9F800BAEF55F020EE0AF0E951D926EA51DA22E9
:10AA08006F0078FFF1F16F0078FFF2F16F0078FFC7
:10AA1800F3F16F0078FFF4F1010EF125F56F000EE8
:10AA2800F221F66F000EF321F76F000EF421F86F94
:10AA3800F551EB5DF651EC59F751ED59EE51800A9D
:10AA4800F96FF851800AF959D8B02DEF55F02FEF6A
:10AA580055F04FEF55F020EE0AF0E951D926EA51AA
:10AA6800DA226F0078FFF1F16F0078FFF2F16F00E2
:10AA780078FFF3F16F0078FFF4F1010EF125EB6F29
:10AA8800000EF221EC6F000EF321ED6F000EF421A1
:10AA9800EE6F86EF55F020EE0AF0E951D926EA511B
:10AAA800DA22FF0EDE24F16F7F0EDE20F26F000E39
:10AAB800DE20F36F000EDE20F46FEB51F15DEC51F8
:10AAC800F259ED51F359F451800AF56FEE51800AAD
:10AAD800F559D8B072EF55F074EF55F086EF55F090
:10AAE80020EE0AF0E951D926EA51DA22FF0EDE24D7
:10AAF800EB6F7F0EDE20EC6F000EDE20ED6F000E98
:10AB0800DE20EE6F20EE0AF0E951D926EA51DA226A
:10AB18006F0078FFF1F16F0078FFF2F16F0078FFB6
:10AB2800F3F16F0078FFF4F1F151EB5D356EF251FE
:10AB3800EC59366EF351ED59376EF451EE59386EC3
:10AB4800010E3AEC81F0010120EE32F0E951D926EC
:10AB5800EA51DA226000D7F0DEFF6000DBF0DEFFAA
:10AB68006000DFF0DEFF6000E3F0DEFF6000A7F7C3
:10AB7800D9FF6000ABF7DAFFDE50DE10D8B4C7EFBC
:10AB880055F0C9EF55F0D7EF55F0E9C113F0EAC118
:10AB980014F064ECA9F00009D8B4D5EF55F0D7EF5C
:10ABA80055F033EF56F0E9C1B4F0EAC1B5F0010150
:10ABB80020EE32F0E951D926EA51DA226F0078FF07
:10ABC800B6F06F0078FFB7F06F0078FFB8F06F004D
:10ABD80078FFB9F071EC7EF0010120EE36F0E95112
:10ABE800D926EA51DA2200016000D3F2DEFF6000C4
:10ABF800D7F2DEFF6000DBF2DEFF6000DFF2DEFF8F
:10AC0800E9C1DDF0EAC1DEF0010120EE36F0E951DC
:10AC1800D926EA51DA226F0078FFDFF06F0078FF5B
:10AC2800E0F06F0078FFE1F06F0078FFE2F0C5EC2C
:10AC380063F0010120EE36F0E951D926EA51DA2213
:10AC48000001600077F3DEFF60007BF3DEFF600049
:10AC58007FF3DEFF600083F3DEFF4CEF56F0010167
:10AC680020EE06F0E951D926EA51DA2210EE36F044
:10AC7800E951E126EA51E2226F007BFFE6FF6F000F
:10AC88007BFFE6FF6F007BFFE6FF6F007BFFE6FFC1
:10AC9800E9C1DDF0EAC1DEF0010120EE36F0E9514C
:10ACA800D926EA51DA226F0078FFDFF06F0078FFCB
:10ACB800E0F06F0078FFE1F06F0078FFE2F010EC51
:10ACC8005AF0010120EE36F0E951D926EA51DA228C
:10ACD8000001600077F3DEFF60007BF3DEFF6000B9
:10ACE8007FF3DEFF600083F3DEFF010120EE36F024
:10ACF800E951D926EA51DA226F0078FF13F06F0084
:10AD080078FF14F06F0078FF15F06F0078FF16F0E9
:10AD1800000E176E000E186E000E196E3F0E1A6E9A
:10AD280072EC8FF0D8B09BEF56F09DEF56F0ACEF79
:10AD380056F0010120EE36F0E951D926EA51DA221F
:10AD4800000EDE6E000EDE6E000EDE6E3F0EDD6E55
:10AD5800000E136E000E146E000E156E000E166EA9
:10AD6800010120EE32F0E951D926EA51DA226F00CA
:10AD780078FF17F06F0078FF18F06F0078FF19F070
:10AD88006F0078FF1AF072EC8FF0D8B0CEEF56F063
:10AD9800D0EF56F00BEF57F0E9C1E3F1EAC1E4F167
:10ADA800010120EE32F0E951D926EA51DA226F008A
:10ADB80078FFE5F16F0078FFE6F16F0078FFE7F1C3
:10ADC8006F0078FFE8F13DEC45F0E9C17EF0EAC19B
:10ADD8007FF0E9C113F0EAC114F0F2ECA7F013C058
:10ADE80080F014C081F015C082F016C083F0E9C16C
:10ADF8007AF0EAC17BF0B8ECA1F07AC084F07BC0AD
:10AE080085F07CC086F07DC087F099ECA3F0000E39
:10AE180000016E6F000E6F6F000E706F3F0E716F46
:10AE2800010120EE36F0E951D926EA51DA226F0005
:10AE380078FF6AF06F0078FF6BF06F0078FF6CF0B6
:10AE48006F0078FF6DF043EC5FF06AC0CDF06BC027
:10AE5800CEF06CC0CFF06DC0D0F0EEEC8EF060009C
:10AE6800BFF7D9FF6000C3F7DAFF0001600037F3CE
:10AE7800DEFF60003BF3DEFF60003FF3DEFF6000B3
:10AE880043F3DEFF12000001746B20EE75F0070E2D
:10AE9800DE6AE806FDE22BC07DF02CC07EF02FBEF6
:10AEA80061EF57F02F5007E1250E2E5CD8B05FEF09
:10AEB80057F061EF57F06AEF57F02E042F10D8A41F
:10AEC80068EF57F06AEF57F071EF57F0000E010185
:10AED800536F160E526FE2EF59F07D517E11D8B4C0
:10AEE80078EF57F07AEF57F0E2EF59F06000F7F19A
:10AEF800D9FF6000FBF1DAFFDF50D8A486EF57F0E6
:10AF080088EF57F08AEF57F0E2EF59F06000F7F159
:10AF1800D9FF6000FBF1DAFFDF507F6F9EEF57F03B
:10AF28007D4B7E2B6000F7F1D9FF6000FBF1DAFF63
:10AF3800DF507F6F200E7F19D8B4A5EF57F0A7EF29
:10AF480057F094EF57F07FC033F0F70E3326040E16
:10AF58003364B1EF57F0B3EF57F094EF57F02D0E7D
:10AF68007F19D8A4BAEF57F0BCEF57F0C9EF57F0E4
:10AF780074817D4B7E2B6000F7F1D9FF6000FBF1F7
:10AF8800DAFFDF507F6FD4EF57F02B0E7F19D8A46C
:10AF9800D0EF57F0D2EF57F0D4EF57F0BDEF57F09E
:10AFA800300E7F19D8A4DBEF57F0DDEF57F07AEFBA
:10AFB80058F07D4B7E2B6000F7F1D9FF6000FBF164
:10AFC800DAFFDF507F6F2E502F10D8B4EEEF57F016
:10AFD800F0EF57F0FAEF57F0100E2E182F10D8A4F4
:10AFE800F8EF57F0FAEF57F06CEF58F0780E7F193A
:10AFF800D8B401EF58F003EF58F00CEF58F0580EA2
:10B008007F19D8A40AEF58F00CEF58F06CEF58F0FD
:10B01800000E2F6E100E2E6E7D4B7E2B6000F7F10A
:10B02800D9FF6000FBF1DAFFDF507F6F7FC033F09C
:10B03800200E33129F0E33261A0E336026EF58F077
:10B0480028EF58F04CEF58F07FC033F09F0E3326AE
:10B05800190E336432EF58F034EF58F039EF58F0E6
:10B068007FC068F0696B40EF58F07FC033F05F0E27
:10B0780033163350686F696B68C033F0C90E3326D6
:10B08800100E33604AEF58F04CEF58F066EF58F066
:10B098007FC033F0200E33129F0E3326190E33640F
:10B0A80058EF58F05AEF58F07AEF58F07FC033F065
:10B0B800D00E3326090E336464EF58F066EF58F06B
:10B0C8007AEF58F074857D07D8A07E07E2EF59F033
:10B0D80074852E502F10D8A474EF58F076EF58F0DE
:10B0E8007AEF58F0000E2F6E080E2E6E2E502F108D
:10B0F800D8A481EF58F083EF58F087EF58F0000E8E
:10B108002F6E0A0E2E6E3050D8B48DEF58F08FEF98
:10B1180058F0BAEF58F074B194EF58F096EF58F031
:10B12800A8EF58F0FF0E6C6FFF0E6D6FFF0E6E6F7D
:10B13800FF0E6F6FFF0E706FFF0E716FFF0E726F55
:10B148007F0E736FC2EF58F0000E6C6F000E6D6FBC
:10B15800000E6E6F000E6F6F000E706F000E716F35
:10B16800000E726F800E736FC2EF58F06C696D69D4
:10B178006E696F69706971697269736975C060F029
:10B1880076C061F077C062F078C063F079C064F08F
:10B198007AC065F07BC066F07CC067F07FC033F092
:10B1A800200E33129F0E33261A0E3360DEEF58F04E
:10B1B800E0EF58F0FDEF58F07FC033F09F0E3326D4
:10B1C800190E3364EAEF58F0ECEF58F0F1EF58F04D
:10B1D8007FC06AF06B6BF8EF58F07FC033F05F0EFA
:10B1E800331633506A6F6B6B6A51C90F7F6F0BEF61
:10B1F80059F07FC033F0D00E33260A0E336007EFC4
:10B2080059F009EF59F0C8EF59F0300E7F5F7F51C0
:10B21800336E346A2E50335C3450800A356E2F50AA
:10B22800800A3558D8A01BEF59F01DEF59F01FEFD1
:10B2380059F0C8EF59F074B324EF59F026EF59F0DC
:10B24800BBEF59F02EC013F02FC014F0000E14BE3F
:10B25800FF0E156E166E176E186E196E1A6E75C083
:10B268001BF076C01CF077C01DF078C01EF079C0C6
:10B278001FF07AC020F07BC021F07CC022F0B8EC2F
:10B2880099F013C033F014C034F015C035F016C06F
:10B2980036F017C037F018C038F019C039F01AC0A6
:10B2A8003AF000017F513324756F000E3420766F19
:10B2B800000E3520776F000E3620786F000E37208D
:10B2C800796F000E38207A6F000E39207B6F000EE0
:10B2D8003A207C6F6051755D61517659625177599A
:10B2E800635178596451795965517A5966517B5936
:10B2F80067517C59D8A083EF59F085EF59F0A4EF36
:10B3080059F03050D8B48BEF59F08DEF59F0BBEFAE
:10B3180059F075516C5D76516D5977516E59785168
:10B328006F59795170597A5171597B5172597C51C1
:10B338007359D8B0A2EF59F0A4EF59F0BBEF59F008
:10B348006CC075F06DC076F06EC077F06FC078F0A5
:10B3580070C079F071C07AF072C07BF073C07CF075
:10B36800000E0101536F220E526F000174837D4B52
:10B378007E2B6000F7F1D9FF6000FBF1DAFFDF50A8
:10B388007F6F7485C2EF58F07451030BE806D8A498
:10B39800D0EF59F0D2EF59F0E2EF59F07C1F7B1F44
:10B3A8007A1F791F781F771F761F756D000E762319
:10B3B8007723782379237A237B237C232D50D8B4D1
:10B3C800E8EF59F0EAEF59F0FFEF59F0000174B5D2
:10B3D800F0EF59F0F2EF59F0F6EF59F02BC07DF08D
:10B3E8002CC07EF02D50D96EDA6A6000F7F1DEFFCE
:10B3F8006000FBF1DDFF75C02BF076C02CF077C044
:10B408002DF078C02EF079C02FF07AC030F07BC0D4
:10B4180031F07CC032F01200000120EE8FF0DD51D7
:10B42800D926DE51DA22DF50D8A41DEF5AF01FEFDB
:10B438005AF05DEF5AF020EE90F0DD51D926DE513A
:10B44800DA2260007FF3DEFF600083F3DEFF600036
:10B4580087F3DEFF60008BF3DEFF20EE94F0DD5112
:10B46800D926DE51DA2260007FF3DEFF600083F325
:10B47800DEFF600087F3DEFF60008BF3DEFF20EE67
:10B4880098F0DD51D926DE51DA2260007FF3DEFF25
:10B49800600083F3DEFF600087F3DEFF60008BF35C
:10B4A800DEFF20EE8FF0DD51D926DE51DA22010EC3
:10B4B800DF6E20EE90F0DD51D926DE51DA226F00E2
:10B4C80078FF86F06F0078FF87F06F0078FF88F0CC
:10B4D8006F0078FF89F020EE87F0DD51D926DE5124
:10B4E800DA226F0078FF7EF06F0078FF7FF06F0040
:10B4F80078FF80F06F0078FF81F0000E7A6F000E01
:10B508007B6F800E7C6F3F0E7D6F11ECA5F07AC0CB
:10B5180082F07BC083F07CC084F07DC085F09FEC16
:10B5280061F082C0F7F083C0F8F084C0F9F085C0FC
:10B53800FAF0F7C06AF0F8C06BF0F9C06CF0FAC026
:10B548006DF0DFC086F0E0C087F0E1C088F0E2C0AF
:10B5580089F0000120EE87F0DD51D926DE51DA228C
:10B568006F0078FF82F06F0078FF83F06F0078FF3C
:10B5780084F06F0078FF85F09FEC61F082C06EF078
:10B5880083C06FF084C070F085C071F043EC5FF049
:10B59800000120EE90F0DD51D926DE51DA2260005C
:10B5A800ABF1DEFF6000AFF1DEFF6000B3F1DEFF5C
:10B5B8006000B7F1DEFF20EE94F0DD51D926DE51B0
:10B5C800DA226F0078FF86F06F0078FF87F06F004F
:10B5D80078FF88F06F0078FF89F020EE8BF0DD515E
:10B5E800D926DE51DA226F0078FF7EF06F0078FFEF
:10B5F8007FF06F0078FF80F06F0078FF81F0000E19
:10B608007A6F000E7B6F800E7C6F3F0E7D6F11ECA2
:10B61800A5F07AC082F07BC083F07CC084F07DC046
:10B6280085F09FEC61F082C0F7F083C0F8F084C029
:10B63800F9F085C0FAF0F7C06AF0F8C06BF0F9C00D
:10B648006CF0FAC06DF0DFC086F0E0C087F0E1C0B2
:10B6580088F0E2C089F0000120EE8BF0DD51D92698
:10B66800DE51DA226F0078FF82F06F0078FF83F0F6
:10B678006F0078FF84F06F0078FF85F09FEC61F031
:10B6880082C06EF083C06FF084C070F085C071F026
:10B6980043EC5FF0000120EE94F0DD51D926DE5135
:10B6A800DA226000ABF1DEFF6000AFF1DEFF600080
:10B6B800B3F1DEFF6000B7F1DEFF20EE90F0DD5160
:10B6C800D926DE51DA226F0078FF7AF06F0078FF12
:10B6D8007BF06F0078FF7CF06F0078FF7DF020EE44
:10B6E80094F0DD51D926DE51DA226F0078FF7EF022
:10B6F8006F0078FF7FF06F0078FF80F06F0078FFB1
:10B7080081F011ECA5F07AC0F3F07BC0F4F07CC0B6
:10B71800F5F07DC0F6F00001F6BF97EF5BF095EF0E
:10B728005BF0B1EF5BF0F3C082F0F4C083F0F5C0DA
:10B7380084F0F6C085F0000E866F000E876F800ECD
:10B74800886FBF0E896F9FEC61F082C0F3F083C0F1
:10B75800F4F084C0F5F085C0F6F0F3C082F0F4C0D0
:10B7680083F0F5C084F0F6C085F0CD0E0001866F39
:10B77800CC0E876F4C0E886FBE0E896F9FEC61F000
:10B7880082C0EBF083C0ECF084C0EDF085C0EEF031
:10B79800EBC0D5F0ECC0D6F0EDC0D7F0EEC0D8F0D5
:10B7A800ABEC48F0D5C0E3F0D6C0E4F0D7C0E5F084
:10B7B800D8C0E6F0000E0001866F000E876FF00E0D
:10B7C800886F430E896FE3C082F0E4C083F0E5C060
:10B7D80084F0E6C085F09FEC61F082C06AF083C017
:10B7E8006BF084C06CF085C06DF0000E00016E6FC8
:10B7F800000E6F6FA00E706F410E716F43EC5FF01B
:10B808006AC0E7F06BC0E8F06CC0E9F06DC0EAF020
:10B81800000120EE02F0DD51D926DE51DA226F0058
:10B8280078FF9BF06F0078FF9CF06F0078FF9DF029
:10B838006F0078FF9EF0E7C06EF0E8C06FF0E9C0D7
:10B8480070F0EAC071F020EE02F0DD51D926DE5129
:10B85800DA226F0078FF6AF06F0078FF6BF06F00F4
:10B8680078FF6CF06F0078FF6DF043EC5FF06AC012
:10B878009FF06BC0A0F06CC0A1F06DC0A2F08BEC83
:10B8880071F09BC0EFF09CC0F0F09DC0F1F09EC03D
:10B89800F2F0000120EE98F0DD51D926DE51DA22CF
:10B8A8006F0078FF86F06F0078FF87F06F0078FFF1
:10B8B80088F06F0078FF89F0EFC07EF0F0C07FF06D
:10B8C800F1C080F0F2C081F0000E7A6F000E7B6F3D
:10B8D800800E7C6F3F0E7D6F11ECA5F07AC082F070
:10B8E8007BC083F07CC084F07DC085F09FEC61F064
:10B8F80082C0F7F083C0F8F084C0F9F085C0FAF090
:10B90800F7C06AF0F8C06BF0F9C06CF0FAC06DF0DF
:10B91800DFC086F0E0C087F0E1C088F0E2C089F0BF
:10B92800EFC082F0F0C083F0F1C084F0F2C085F07F
:10B938009FEC61F082C06EF083C06FF084C070F03D
:10B9480085C071F043EC5FF0000120EE98F0DD5106
:10B95800D926DE51DA226000ABF1DEFF6000AFF1DC
:10B96800DEFF6000B3F1DEFF6000B7F1DEFF20EE1E
:10B9780098F0DD51D926DE51DA226F0078FFDDF02C
:10B988006F0078FFDEF06F0078FFDFF06F0078FF60
:10B99800E0F01200030100A1D4EF5CF0D6EF5CF0F8
:10B9A800D9EF5CF0BD86DAEF5CF0BD9600A3DFEF5F
:10B9B8005CF0E1EF5CF0E4EF5CF0BC88E5EF5CF094
:10B9C800BC9800A5EAEF5CF0ECEF5CF0EFEF5CF000
:10B9D800BC8AF0EF5CF0BC9A00A7F5EF5CF0F7EFDB
:10B9E8005CF0FAEF5CF0BC8CFBEF5CF0BC9C00A94F
:10B9F80000EF5DF002EF5DF005EF5DF0BC8E06EF45
:10BA08005DF0BC9E00AB0BEF5DF00DEF5DF010EF4D
:10BA18005DF0BD8811EF5DF0BD9800AD16EF5DF0EB
:10BA280018EF5DF01BEF5DF0BD8A1CEF5DF0BD9A6D
:10BA380000AF21EF5DF023EF5DF026EF5DF0BD8CE8
:10BA480027EF5DF0BD9C1D6ACFA42DEF5DF030EFB0
:10BA58005DF0010E31EF5DF0000E010B1D12CFA25B
:10BA680038EF5DF03CEF5DF0176A172A3DEF5DF0A7
:10BA7800176A010E1716D89017341D12CFA047EF7A
:10BA88005DF04BEF5DF0176A172A4CEF5DF0176A0F
:10BA9800010E1716D8901736D89017341D12CCA25D
:10BAA80058EF5DF05CEF5DF0176A172A5DEF5DF007
:10BAB800176A010E1716D8901736D8901736D890EF
:10BAC80017341D12CEA46BEF5DF06FEF5DF0176AAF
:10BAD800172A70EF5DF0176A010E17161738F00B6A
