:0460000057EF30F036
:10600800756A756A756A756A756A756A756A756A90
:10601800756A756A756AE264756A756A5D66756A35
:10602800756A756A756A756A756A756A756A756A70
:10603800756A756A756A8D657A65756AA065CE64D4
:10604800756A756A756A756A2B18756A756A756AEC
:10605800756A756A756A756A756A756A756A756A40
:10606800756A756A756A756A756A756A756A756A30
:10607800756A756A2B18756A756A756A2B182B18F4
:106088002B182B182B182B182B182B18756A756AB8
:10609800756A756A756A756A2B182B182B182B1870
:1060A800756A756AFF0094EFB2F000EAD496A812F8
:1060B8002C6E507F41033D87B9FBC5A59BD9E75D91
:1060C80063211F300E4C72C8F6B48A744A08368CA5
:1060D800B2F0CEE1DF9DA31927655B3B054779C385
:1060E800FDBF81AE90D2EC56682A14B38DCFF14B28
:1060F80075370926185A64DEE0A29CFCC280BE04EB
:106108003A78466957152B91AFEDD32D13516FD5BA
:10611800EBA997B886C4FA407E3C02625C1E209ABE
:10612800A4E6D8F7C98BB50F31734D5866241AA069
:106138009EDCE2CDF3B18F350B497717296B55EF0C
:10614800D193AD82BCFEC07A440638C6F8BA843E04
:1061580000427C536D2F11AB95D7E989B7F5CB7108
:106168004F0D331C22605EE4DA98A6013F7D43F9A7
:10617800C785BB94AAE8D66C52102E4E70320CB666
:1061880088CAF4DBE5A799231D5F619FA1E3DD675A
:10619800591B250A347648F2CC8EB0D0EEAC922842
:1061A80016546A457B3907BD83C1FF0240001700BA
:1061B80009000000000000000000000000000000CE
:1061C80000000000000000000000000000000000C7
:1061D80000050000FEEFFEEFFEEFFEEF00000000FE
:1061E80000000000000000000000000000000000A7
:1061F8000000083F003F003F003F003F003F003FD6
:10620800003F000000000000000000000000000047
:106218000000000E600C60EC60FFF0FFFEFFFE3F28
:10622800FEED6EFFF8FFFEFFFE1FFE0D6E0C600C0C
:10623800000000000BF040F8E1FCE1FCC38FC38FC5
:10624800C30FC70FFF1CFE1C7E003C0000000000AF
:106258000000000000107800FC00FE01FE8186E1CD
:10626800FEF9FEFFFC7FF81FF03FFC7FFEFF3EFFBC
:106278000EC302FF00FF0E003C007E78FEFCFFFE0E
:10628800E7FEC3C6C7FEFFFE7EFC7E38FE00FE00AA
:10629800C6008000000000043F003F003F003F00B0
:1062A80000000000000000000000000000000000E6
:1062B800000000000000000007C03FF0FFFCFFFEE8
:1062C800FF3FC00F000200000000000000000000B7
:1062D800000000000000000000060F003FC0FEFFA5
:1062E800FCFFF0FFC03F00000000000000000000BD
:1062F800000000000000000000000910009800D80D
:1063080001FE01FE00FE01D8019800100000000007
:1063180000000000000000000000000B000600065E
:1063280000060006E07FE07FE07F0006000600062A
:10633800000600000000000000000000050000004A
:10634800E000E000E000E0000000000000000000C5
:106358000000000000000000000000000007000628
:106368000006000600060006000600060000000001
:106378000000000000000000000000000000050010
:106388000000E000E000E000E00000000000000085
:1063980000000000000000000000000000000009EC
:1063A80000E000FC80FFF0FFFE1FFF037F000F00EE
:1063B80001000000000000000000000000000000D4
:1063C8000BE00FF83FFC7FFEFF0EE006C00EE0FE7C
:1063D800FFFC7FF83FE00F00000000000000000015
:1063E80000081000380038001C00FEFFFEFFFEFF0A
:1063F800FEFF000000000000000000000000000098
:1064080000000B04E00CF00EF806FC06DE06CF8E4A
:10641800C7FEC3FEC1FCC078C00000000000000039
:106428000000000B04600EE00EC086C186C1CEC11C
:10643800FEE3FEFFFC7F787E003C000000000000C9
:10644800000000000C000E800FC00FF00FF80C3C8D
:106458000CFEFFFEFFFEFFFEFF000C000C0000001C
:1064680000000000000B0060FEE1FEC1FEC1FEC19D
:1064780086C386E386FF067F067F003E0000000095
:106488000000000000000BC01FF07FF87FFCFFBC7D
:10649800E18CC18EE386FF867F067F001E00000028
:1064A800000000000000000B0600060006E006FCE5
:1064B80086FFE6FFF61FFE017E001E000E000000AC
:1064C80000000000000000000B783CFC7EFEFFFE90
:1064D800FFCEE386C3CEE3FEFFFEFF7C7E383C00A2
:1064E8000000000000000000000BF000FCC1FCC32D
:1064F800FEC38EE306E30E7BFE7FFC3FFC1FF00726
:1065080000000000000000000000050000E0E0E0DE
:10651800E0E0E0E0E0000000000000000000000013
:106528000000000000000000000000050000E0E09E
:10653800E0E0E0E0E0E00000000000000000000013
:106548000000000000000000000000000B000F0029
:106558000F801F801FC03FC039E079E079E070E00C
:10656800706060000000000000000000000B80194F
:10657800801980198019801980198019801980194B
:1065880080198019000000000000000000000B6066
:1065980060E070E070E079E079C039C03F801F802A
:1065A8001F000F000F00000000000000000000089E
:1065B800060686E786E7C6E7FEE1FE007C003800AF
:1065C80000000000000000000000000000000000C3
:1065D80010C03FF0FFF8FFFCFF7EC08E3FE77FF75B
:1065E800FFF3FFF3FFF3FFF3FFF7FF0EC03EE0FCFE
:1065F800FF1000C000F800FEC0FFF83FFE0FFE0DC0
:106608003E0C3E0CFE0DFE0FF83FC0FF00FE00F8EA
:1066180000C00D0000FEFFFEFFFEFFFEFF86C186E4
:10662800C1CEC1FEE3FEFFFC7F787E003C00000087
:106638000000000CE00FF03FFC7FFC7F1EF00EE036
:1066480006C006C006C00EE00EE0044000000000D0
:10665800000000000E0000FEFFFEFFFEFFFEFF062A
:10666800C006C006C00EE01C78FC7FF83FF01FE0B3
:106678000F000000000B0000FEFFFEFFFEFFFEFF04
:1066880086C186C186C186C186C100C000000000DF
:106698000000000000000B0000FEFFFEFFFEFFFEF2
:1066A800FF8601860186018601860106000000003A
:1066B800000000000000000DC00FF03FF87FFC7FD5
:1066C8003EF80EE006C006C006C006FF0EFF0EFF2D
:1066D80004FF0000000000000D0000FEFFFEFFFEAA
:1066E800FFFEFF8001800180018001FEFFFEFFFEAA
:1066F800FFFEFF00000000000004FEFFFEFFFEFF9B
:10670800FEFF000000000000000000000000000084
:10671800000000000000000000000A006000E00027
:10672800E000C000C000E0FEFFFEFFFE7FFE3F006D
:1067380000000000000000000000000DFEFFFEFF4A
:10674800FEFFFEFFC007E00FF01F783E3C7C1EF8FE
:106758000EF006E002800000000000000AFEFFFEC6
:10676800FFFEFFFEFF00C000C000C000C000C00068
:10677800C000000000000000000000000010FEFF44
:10678800FEFFFEFF7E00FC01F00FC03F003E003E12
:10679800C03FF00FFC017E00FEFFFEFFFEFF0DFE76
:1067A800FFFEFFFEFFFEFF7C00F001E007800F0008
:1067B8003FFEFFFEFFFEFFFEFF0000000000000F8F
:1067C800E00FF01FF83FFC7F3EF80EE006C006C061
:1067D80006C00EE03EF8FC7FF87FF01FE00F0000D7
:1067E8000BFEFFFEFFFEFFFEFF060606060E07FE77
:1067F80007FC03FC03F0010000000000000000009B
:106808000010E00FF03FF87FFC7F3EF80EE006C274
:1068180006CE06DC0EF83EF8FC7FF8FFF0FFE0CF6E
:1068280000C00CFEFFFEFFFEFFFEFF0603060F8EF4
:106838001FFE7FFCFDFCF1F8E00080000000000076
:106848000000000A7840FCE0FEE1FEC1C6C386E70E
:1068580086FF0EFF0E7F043E0000000000000000CF
:10686800000000000B060006000600FEFFFEFFFE0B
:10687800FFFEFF06000600060006000000000000FC
:1068880000000000000CFE1FFE7FFE7FFEFF00E000
:1068980000C000C000E0FEFFFE7FFE7FFE1F00007C
:1068A8000000000000000F1E00FE00FE07FC1FE0B5
:1068B800FF00FF00FC00FC00FFE0FFFC1FFE07FEDE
:1068C800001E0006000000103E00FE0FFEFFFEFF47
:1068D800E0FF00FCC0FFF8FFF81FF801F80FF8FF11
:1068E800C0FF00FE80FFFEFF0D06E01EF03EF8FC34
:1068F8007EF83FE00FE00FF83FFC7E3EF81EF00602
:10690800E002800000000000000D0E003E00FE00C6
:10691800FC01F0FFC0FFC0FFF0FFFC01FE003E00DD
:106928000E0002000000000000000B06C006F00682
:10693800FC06FFC6FFE6CFFEC3FEC03EC01EC00673
:10694800C00000000000000000000007FFFFFFFF7C
:10695800FFFFFFFF0300030003000000000000002A
:10696800000000000000000000000000080F007F89
:1069780000FF03FE1FF0FF80FF00FC00E0000000A6
:1069880000000000000000000000000000060300F6
:106998000300FFFFFFFFFFFFFFFF000000000000F4
:1069A80000000000000000000000000000000C00D3
:1069B80001C003F003F8017E003E003E007E00F8AF
:1069C80001F003C003000100000000000000000106
:1069D80000000000000000000000000000000000AF
:1069E800000000000000000000000000000000009F
:1069F800060100030007000F000E0004000000005D
:106A0800000000000000000000000000000000007E
:106A1800000A0038C07CE0FE60FE60C660C6E0FF89
:106A2800E0FFC0FF80FF0000000000000000000041
:106A380000000BFFFFFFFFFFFFFFFF60C060C0E02B
:106A4800E0E0FFE07FC03F001F0000000000000002
:106A580000000009001FC07FC07FE0FFE0E060C0C9
:106A680060C060E04060000000000000000000001E
:106A7800000000000B001FC07FE07FE0FFE0E06047
:106A8800C060C0FFFFFFFFFFFFFFFF000000000026
:106A980000000000000B001FC07FC07FE0FFE0E6A1
:106AA80060C6E0C6E0C7E0E7C067800700000000F6
:106AB80000000000000009FCFFFEFFFFFFFFFF676A
:106AC8000063006300630003000000000000000092
:106AD800000000000000000BE003F00FF89FFC9F8F
:106AE8001C9C0C980CD8FCFFFCFFFCFFFC7F0000F2
:106AF80000000000000000000AFFFFFFFFFFFFFF8B
:106B0800FF6000E000E0FFE0FFC0FF80FF00000042
:106B180000000000000000000004E7FFE7FFE7FFB7
:106B2800E7FF000000000000000000000000000077
:106B3800000000000000000000000600E000E0E7A0
:106B4800FFE7FFE77FE73F000000000000000000CC
:106B580000000000000000000000000BFFFFFFFF26
:106B6800FFFFFFFF800FC03FE07FE0F860F020E00C
:106B780000800000000000000000000006FF7FFF0A
:106B88007FFFFFFFFF00C000C00000000000000002
:106B9800000000000000000000000000000FE0FFFF
:106BA800E0FFE0FFE0FF60006000E0FFE0FFE0FFE3
:106BB800E0FF6000E000E0FFE0FFC0FF00000AE047
:106BC800FFE0FFE0FFE0FF6000E000E0FFE0FFC063
:106BD800FF80FF0000000000000000000000000C23
:106BE800001F803FC07FE0FFE0E060C060C0E0E0E1
:106BF800E0FFC07F803F001F000000000000000091
:106C08000BFCFFFCFFFCFFFCFF0C1C0C181C1CFC05
:106C18001FF81FF80FE0030000000000000000004C
:106C2800000BF001F807FC0FFE0F0E0E060C060C09
:106C3800FEFFFEFFFEFFFEFF000000000000000058
:106C4800000008E0FFE0FFE0FFE0FF600060006098
:106C580000600000000000000000000000000000CC
:106C680000000009C063C0E7E0C7E0CF60CE60FE67
:106C7800E0FCC07C0078000000000000000000007C
:106C88000000000008FC3FFC7FFCFFFCFF60C060C8
:106C9800C060C060C00000000000000000000000EC
:106CA80000000000000AE03FE07FE0FFE0FF00E0B6
:106CB80000C0E0FFE0FFE0FFE0FF00000000000090
:106CC8000000000000000BE007E03FE0FF80FF004D
:106CD800FC00FC80FFE0FFE03FE0076000000000F0
:106CE8000000000000000010E01FE0FFE0FF00FFD0
:106CF80000FC80FFE0FFE01FE01FE0FF80FF00FCDA
:106D080000FFE0FFE0FFE00F0B60C0E0F0E0FBC039
:106D18007F803F803FC07FE0FBE0F060C0208000C4
:106D28000000000000000000000B3FE0FFE1FFE76B
:106D3800FCE7E0FFE07FFC7FFF0FFF013F0003005F
:106D4800000000000000000000000960C060F06062
:106D5800F860FE60FFE0CFE0C7E0C1E0C0000000DF
:106D6800000000000000000000000007000FFCFF0A
:106D7800FEFFFFFFFFF90300030000000000000012
:106D880000000000000000000000000004FFFFFFFA
:106D9800FFFFFFFFFF0000000000000000000000F0
:106DA80000000000000000000000000000070300D1
:106DB800FFF9FFFFFEFFFCFF000F000600000000C8
:106DC80000000000000000000000000000000B00B0
:106DD8000C000E000F000300070006000E000C0058
:106DE8000F0007000300000000000000000000067C
:106DF800FF7FFF7F00400040FF7FFF7F0000000013
:106E0800000000000000000000000000000000007A
:106E18000100000000000000000000000000000069
:106E2800000000000000000000000000000000005A
:106E38000001000000000000000000000000000049
:106E4800000000000000000000000000000000003A
:106E58000000010000000000000000000000000029
:106E6800000000000000000000000000000000001A
:106E78000000000100000000000000000000000009
:106E880000000000000000000000000000000000FA
:106E980000000000010000000000000000000000E9
:106EA80000000000000000000000000000000000DA
:106EB80000000000000100000000000000000000C9
:106EC80000000000000000000000000000000000BA
:106ED80000000000000001000000000000000000A9
:106EE800000000000000000000000000000000009A
:106EF8000000000000000001000000000000000089
:106F08000000000000000000000000000000000079
:106F18000000000000000000010000000000000068
:106F28000000000000000000000000000000000059
:106F38000000000000000000000100000000000048
:106F48000000000000000000000000000000000039
:106F58000000000000000000000001000000000028
:106F68000000000000000000000000000000000019
:106F78000000000000000000000000010000000008
:106F880000000000000000000000000000000000F9
:106F980000000000000000000000000001000000E8
:106FA80000000000000000000000000000000000D9
:106FB80000000000000000000000000000010000C8
:106FC80000000000000000000000000000000000B9
:106FD80000000000000000000000000000000100A8
:106FE8000000000000000000000000000000000099
:106FF8000000000000000000000000000000000188
:107008000000000000000000000000000000000078
:107018000000000000000000000000000000000068
:107028000100000000000000000000000000000057
:107038000000000000000000000000000000000048
:107048000001000000000000000000000000000037
:107058000000000000000000000000000000000028
:107068000000010000000000000000000000000017
:107078000000000000000000000000000000000008
:1070880000000001000000000000000000000000F7
:1070980000000000000000000000000000000000E8
:1070A80000000000010000000000000000000000D7
:1070B80000000000000000000000000000000000C8
:1070C80000000000000100000000000000000000B7
:1070D80000000000000000000000000000000000A8
:1070E8000000000000000100000000000000000097
:1070F8000000000000000000000000000000000088
:107108000000000000000001000000000000000076
:107118000000000000000000000000000000000067
:107128000000000000000000010000000000000056
:107138000000000000000000000000000000000047
:107148000000000000000000000100000000000036
:107158000000000000000000000000000000000027
:107168000000000000000000000001000000000016
:107178000000000000000000000000000000000007
:1071880000000000000000000000000100000000F6
:1071980000000000000000000000000000000000E7
:1071A80000000000000000000000000001000000D6
:1071B80000000000000000000000000000000000C7
:1071C80000000000000000000000000000010000B6
:1071D80000000000000000000000000000000000A7
:1071E8000000000000000000000000000000010096
:1071F8000000000000000000000000000000000087
:107208000000000000000000000000000000000175
:107218000000000000000000000000000000000066
:107228000000000000000000000000000000000056
:107238000100000000000000000000000000000045
:107248000000000000000000000000000000000036
:107258000004E0FEE0FEE0FEE0FE000000000000AA
:107268000000000000000000000000000000000016
:1072780000000A800FE03FE03FF07F7EF03EE03EF6
:10728800E03EE030603060000000000000000000D8
:107298000000000B000300C3F0FFFCFFFEFFFEFF31
:1072A8000EC306C306C306C306C0000000000000E4
:1072B800000000000B1010F83FF83FF01FF01F709F
:1072C8001CF01FF01FF83FF83F10100000000000EE
:1072D80000000000000C1E337E33FC33F0FFE0FF9B
:1072E800E0FFF0FFFC337E331E330E000200000087
:1072F80000000000000004FFF0FFF0FFF0FFF000C6
:107308000000000000000000000000000000000075
:10731800000000000000000A383FFC3FFE3FFE71FD
:10732800C671C6E386FF8EFF0EFF0C9E00000000AC
:107338000000000000000000080C000C000C000C0D
:10734800000C000C000C000C000000000000000005
:1073580000000000000000000010F01FF83FFC7F54
:10736800BC7BCEE7EEEFE6CF66CC66CC6EEC6EEC7F
:107378003C78FC7FF83FF01FC00708E601E601E60D
:1073880001A601FE01FE01FE01FC01000000000053
:1073980000000000000000000000000B0006000FC5
:1073A800C03FE07FE0794026000FC03FE07FE079F2
:1073B8004020000000000000000000000B0000005A
:1073C80003000300030003000300030003007F0021
:1073D8007F007F000000000000000000000700069A
:1073E8000006000600060006000600060000000071
:1073F800000000000000000000000000000010F085
:107408001FF83FFC7F3C78FEFFEEEFE6CFE6CFE6C5
:10741800C7E6CFEEEFDEFF3C78FC7FF83FF01F07B2
:107428000C000C000C000C000C000C000C00000000
:107438000000000000000000000000000000000044
:10744800081C003E007F00630063007F003E001CB4
:107458000000000000000000000000000000000024
:10746800000B80C180C180C180C1F8DFF8DFF8DF80
:1074780080C180C180C180C1000000000000000000
:107488000000078E03CE03E6037E033E033E031C83
:1074980003000000000000000000000000000000E1
:1074A800000000073E0336033603FE03FE03FE0317
:1074B800EC010000000000000000000000000000D7
:1074C8000000000007000004000E000F0007000382
:1074D80000010000000000000000000000000000A3
:1074E80000000000000AE0FFE0FFE0FFE0FF00E02E
:1074F80000C0E0FFE0FFE0FFE07F000000000000C8
:107508000000000000000CFC03FC03FE03FEFFFE6D
:10751800FFFEFFFEFF0600FEFFFEFFFEFFFEFF0070
:107528000000000000000004000700070007000733
:107538000000000000000000000000000000000043
:107548000000000000000000010000000000000032
:107558000000000000000000000000000000000023
:10756800000000000000000000060C000C00FE03F4
:10757800FE03FE03FE030000000000000000000000
:107588000000000000000000000009FC00FE01FEF1
:107598000186018601FE01FE01FC00780000000062
:1075A80000000000000000000000000B4020E0790F
:1075B800E07FC03F000F4026E079E07FC03F000F2A
:1075C800000600000000000000000000100C000C85
:1075D80000FE03FE83FEE3FEFB00FE007FC01FF0FB
:1075E80007FC39FE3C3E3E8E3782FF80FF100C00C0
:1075F8000C00FE83FEE3FEFBFEFF007FC01FF007CA
:10760800FC01FEC1BEE38EF382F980DF80CF103E1D
:107618000336033603FE83FEE3FEFBECFF007FC068
:107628001FF007FC39FE3C3E3E8E3782FF80FF0785
:10763800008000E000F0E0FCE07CE03CE01C0000A2
:107648000000000000000000000000000000000032
:107658000E00FEC0FFF83FFE0FFE0D3E0C3E0CFE76
:107668000DFE0FF83FC0FF00FE00F800C00000004C
:10767800000E00FEC0FFF83FFE0FFE0D3E0C3E0C54
:10768800FE0DFE0FF83FC0FF00FE00F800C000002E
:1076980000000E00FEC0FFF83FFE0FFE0D3E0C3E40
:1076A8000CFE0DFE0FF83FC0FF00FE00F800C00002
:1076B8000000000E00FEC0FFF83FFE0FFE0D3E0C5E
:1076C8003E0CFE0DFE0FF83FC0FF00FE00F800C0A4
:1076D800000000000E00FEC0FFF83FFE0FFE0D3E4A
:1076E8000C3E0CFE0DFE0FF83FC0FF00FE00F80038
:1076F800C0000000000E00FEC0FFF03FFF0FFF0DAE
:107708003E0C3E0CFF0DFF0FF03FC0FF00FE00F0E7
:1077180000C0000000001000E000F800FE807FE0DC
:107728001FF00FFC0DFE0C3E0CFEFFFEFFFEFFFEE1
:10773800FF86C186C186C10CE00FF03FFC7FFC7F4D
:107748003EF00EE006C006C006C00EE00EE00440A3
:1077580000000000000000000B0000FEFFFEFFFE1E
:10776800FFFEFF86C186C186C186C186C100C000F2
:107778000000000000000000000B0000FEFFFEFFFC
:10778800FEFFFEFF86C186C186C186C186C100C0D4
:10779800000000000000000000000B0000FEFFFEDB
:1077A800FFFEFFFEFF86C186C186C186C186C10075
:1077B800C0000000000000000000000B0000FEFFF9
:1077C800FEFFFEFFFEFF86C186C186C186C186C157
:1077D80000C00000000000000000000004FEFFFEE2
:1077E800FFFEFFFEFF000000000000000000000098
:1077F8000000000000000000000000000004FEFF80
:10780800FEFFFEFFFEFF0000000000000000000079
:10781800000000000000000000000000000004FE5E
:10782800FFFEFFFEFFFEFF0000000000000000005A
:10783800000000000000000000000000000000043C
:10784800FEFFFEFFFEFFFEFF00000000000000003C
:107858000000000000000000000000000000000020
:107868000F8001FEFFFEFFFEFFFEFF86C186C18678
:10787800C10EE00EE03C78FC7FF83FF01FE00F00FF
:10788800000E0000FEFFFEFFFEFFFEFF7C00F00181
:10789800E007800F003FFEFFFEFFFEFFFEFF000037
:1078A80000000FE00FF01FF83FFC7F3EF80EE006E7
:1078B800C006C006C00EE03EF8FC7FF87FF01FE06F
:1078C8000F00000FE00FF01FF83FFC7F3EF80EE0BE
:1078D80006C006C006C00EE03EF8FC7FF87FF01F29
:1078E800E00F00000FE00FF01FF83FFC7F3EF80E9E
:1078F800E006C006C006C00EE03EF8FC7FF87FF048
:107908001FE00F00000FE00FF01FF83FFC7F3EF86C
:107918000EE006C006C006C00EE03EF8FC7FF87F09
:10792800F01FE00F00000FE00FF01FF83FFC7F3E54
:10793800F80EE006C006C006C00EE03EF8FC7FF870
:107948007FF01FE00F00000A4010E038E03DC01F44
:10795800800F800FC01FE03DE0384010000000009D
:1079680000000000000000000FE08FF8FFFCFFFCA3
:10797800FF3E7C0EFF86DFC6C7F6C3FEE07CF8FF3D
:107988007FFF7FFF3FE20F00000D0000FE1FFE7F1C
:10799800FE7FFEFF00E000C000C000E0FEFFFE7FAB
:1079A800FE7FFE1F0000000000000D0000FE1FFE0D
:1079B8007FFE7FFEFF00E000C000C000E0FEFFFE8B
:1079C8007FFE7FFE1F0000000000000D0000FE1F6C
:1079D800FE7FFE7FFEFF00E000C000C000E0FEFF6B
:1079E800FE7FFE7FFE1F0000000000000D0000FE6D
:1079F8001FFE7FFE7FFEFF00E000C000C000E0FE2B
:107A0800FFFE7FFE7FFE1F0000000000000D0E003D
:107A18003E00FE00FC01F0FFC0FFC0FFF0FFFC01CC
:107A2800FE003E000E0002000000000000000C00F6
:107A380000FEFFFEFFFEFFFEFF18181818381CF89E
:107A48001FF00FF00FE00700000000000000000C1E
:107A58000000FCFFFEFFFFFFFFFFC7E3E3C7FFC710
:107A6800FFFF7EFE1C7E003C0000000000000000BE
:107A78000A0038C07CE1FE63FE67C66FC6EEFFE40D
:107A8800FFC0FF80FF0000000000000000000000B1
:107A9800000A0038C07CE0FE64FE6EC66FC6E7FFD1
:107AA800E3FFC1FF80FF00000000000000000000AD
:107AB80000000A0038C47CECFE6EFE67C667C6EE9E
:107AC800FFECFFC4FF80FF00000000000000000082
:107AD8000000000A0038CC7CEEFE6EFE66C66EC65C
:107AE800EEFFEEFFC6FF80FF000000000000000070
:107AF800000000000A0038CC7CECFE6CFE6CC66C02
:107B0800C6ECFFECFFCCFF80FF0000000000000087
:107B180000000000000A0038C07CE7FE6FFE6FC658
:107B28006FC6EFFFE7FFC0FF80FF00000000000006
:107B3800000000000000100038607C60FE60FE60FD
:107B4800C660C6E0DFE0FFC07FE0FFE0E660C6E0B9
:107B5800C6E0C7E0E7C0E70A001F807FC07FE0FFFC
:107B6800E0E060C060C060C060C060C000000000AD
:107B780000000000000000000B001FC07FC17FE371
:107B8800FFE7E66FC6EEC6E4C7E0E7C06780070018
:107B98000000000000000000000B001FC07FC07F35
:107BA800E4FFEEE66FC6E7C6E3C7E1E7C067800714
:107BB800000000000000000000000B001FC07FC490
:107BC8007FECFFEEE667C6E7C6EEC7ECE7C4678062
:107BD80007000000000000000000000B001FC07F2D
:107BE800CC7FECFFECE66CC6ECC6ECC7ECE7CC67E8
:107BF80080070000000000000000000004E7FFEF1D
:107C0800FFEEFFE4FF00000000000000000000009D
:107C18000000000000000000000000000006E4FF73
:107C2800EEFFEFFFE7FF0300010000000000000087
:107C3800000000000000000000000000000006EE48
:107C4800FFE7FFE7FFEEFF0C000400000000000064
:107C58000000000000000000000000000000000616
:107C6800ECFFECFFECFFECFF0C000C000000000048
:107C780000000000000000000000000000000000FC
:107C88000B001F807FC07FC8FFDBE1DFC0DFE0FEA5
:107C9800FFFE7FF67FC61F00000000000000000006
:107CA800000B0000E0FFECFFEEFFEEFF6600EE00C9
:107CB800EEFFEEFFC6FF80FF00000000000000009E
:107CC80000000C001F803FC07FE1FFE3E067C06F4A
:107CD800C0EEE0E4FFC07F803F001F00000000000E
:107CE8000000000C001F803FC07FE4FFEEE06FC083
:107CF80067C0E3E0E1FFC07F803F001F0000000095
:107D0800000000000C001F803FC47FECFFEEE0671E
:107D1800C067C0EEE0ECFFC47F803F001F0000009A
:107D280000000000000C001F803FCC7FEEFFEEE05B
:107D380066C06EC0EEE0EEFFC67F803F001F000009
:107D48000000000000000C001F803FCC7FECFFEC1F
:107D5800E06CC06CC0ECE0ECFFCC7F803F001F0003
:107D6800000000000000000B0006000600060006E8
:107D780070E670E670E670E6000600060006000091
:107D880000000000000000000C009F80FFC0FFE022
:107D9800FFE0F860DE60CFE0E3E0FFF07FF03F0057
:107DA8001F00000000000000000AE03FE17FE3FF41
:107DB800E7FF0FE00EC0E4FFE0FFE0FFE0FF000098
:107DC800000000000000000000000AE03FE07FE043
:107DD800FFE4FF0EE00FC0E7FFE3FFE1FFE0FF0075
:107DE80000000000000000000000000AE03FE47FFF
:107DF800ECFFEEFF07E007C0EEFFECFFE4FFE0FF5B
:107E08000000000000000000000000000AE03FEC55
:107E18007FECFFECFF0CE00CC0ECFFECFFECFFE0AC
:107E2800FF0000000000000000000000000BE00759
:107E3800E03FE0FF84FF0EFC0FFC87FFE3FFE13F1C
:107E4800E0076000000000000000000000000C00D7
:107E580000FEFFFFFFFFFFFFFF60C060C0E0E0E043
:107E6800FFC0FFC07F001F00000000000000000BE3
:107E7800E007EC3FECFF8CFF0CFC0CFC8CFFECFFEC
:107E8800EC3FE00760000000000000000000000078
:107E980009000000000000000000000000000000D1
:107EA80000000000000000000000000000000000CA
:107EB80000030000FCE7FCE70000000000000000F1
:107EC80000000000000000000000000000000000AA
:107ED80000000700001F001F00000000001F001F17
:107EE800000000000000000000000000000000008A
:107EF8000000000BC00CC0CCC0FEF03FFC0DCCCC89
:107F0800C0FEF03FFC0DCC0CC00C000000000000CF
:107F18000000000009E060F0C1B8C118C31EC31E0C
:107F2800C618E6387C007800000000000000000059
:107F380000000000000F7000F8008401048184E153
:107F4800F878701E8007E039787C1CC2048200C271
:107F5800007C003800000B003C787EF8E78CC38C6E
:107F6800C3CCCFFCDC7870007800DC008600000011
:107F7800000000000000000300001F001F000000B8
:107F880000000000000000000000000000000000E9
:107F98000000000000000000050000C03FF8FF3EA0
:107FA800C007000000000000000000000000000002
:107FB800000000000000000000033EC0F8FFC03FC2
:107FC80000000000000000000000000000000000A9
:107FD800000000000000000000000910003001A0AF
:107FE80003A0017C00A001A00330011000000000E4
:107FF80000000000000000000000000A0006000663
:1080080000060006E07FE07F000600060006000686
:108018000000000000000000000000000300000055
:10802800C000C000000000000000000000000000C8
:10803800000000000000000000000000000500062D
:108048000006000600060006000000000000000010
:108058000000000000000000000000000000020016
:10806800E000E00000000000000000000000000048
:1080780000000000000000000000000000000007F1
:10808800008000F0007FE00FFC001F0003000000EC
:1080980000000000000000000000000000000000D8
:1080A80009E01FF87F38700CC00CC00CC03870F89D
:1080B8007FE01F000000000000000000000000003A
:1080C80000063000300018001800FCFFFCFF00001C
:1080D8000000000000000000000000000000000098
:1080E80000000818E018F80CD80CCC0CC61CC3F813
:1080F800C1F0C00000000000000000000000000007
:108108000000000808600CC08CC18CC1CCC1F8E329
:10811800787E003C00000000000000000000000025
:108128000000000009000E800FE00D700C380CFCF8
:10813800FFFCFF000C000C00000000000000000025
:108148000000000000090060FCC1FCC18CC18CC1AA
:108158008CC30C630C7F0C3C000000000000000086
:1081680000000000000009801FE07FF0E198C1983E
:10817800C18CC18CE30C7F003E00000000000000B1
:1081880000000000000000090C000C000CE00CFCD2
:108198000C1FCC03EC003C001C0000000000000099
:1081A800000000000000000009703CF87EDCE38C51
:1081B800C30CC10CC39CE7F87E703C0000000000B3
:1081C80000000000000000000009F001F8C31CC70F
:1081D8000CC60C660C661C3EF81FE0070000000089
:1081E8000000000000000000000002E0E0E0E00005
:1081F8000000000000000000000000000000000077
:108208000000000000000000000000030000E0C0C3
:10821800E0C00000000000000000000000000000B6
:1082280000000000000000000000000009000E002F
:108238000E001B001B001B803180318021C06000B4
:10824800000000000000000000000000000980316C
:10825800803180318031803180318031803180318E
:1082680000000000000000000000000000000900FD
:1082780000C060803180318031001B001B000E007F
:108288000E000000000000000000000000000006D2
:1082980018000C000CE68CE7FC01780000000000D8
:1082A80000000000000000000000000000000000C6
:1082B80010803FE0FFF0E03880181F9C3FCC71CC65
:1082C80060CC60CC60CC7FCC7F186038607070E088
:1082D8003F0D008000F0007E801FF0197C180C18FC
:1082E8007C18F019801F007E00F00080000000005C
:1082F80000000AFCFFFCFF8CC18CC18CC18CC1DC66
:10830800C1F863707F003E0000000000000000001C
:108318000000000AC00FF03F387018600CC00CC095
:108328000CC00CC00CC01860000000000000000069
:10833800000000000BFCFFFCFF0CC00CC00CC00CC4
:10834800C00CC018603870F03FC00F00000000007B
:10835800000000000008FCFFFCFF8CC18CC18CC130
:108368008CC18CC100C000000000000000000000AB
:1083780000000000000008FCFFFCFF0C030C030CCD
:10838800030C030C030C00000000000000000000B8
:10839800000000000000000AC00FF03F387018E02D
:1083A8000CC00CC00CC00CC00CFE18FE0000000075
:1083B80000000000000000000AFCFFFCFF000300B2
:1083C800030003000300030003FCFFFCFF000000A0
:1083D80000000000000000000002FCFFFCFF00009D
:1083E8000000000000000000000000000000000085
:1083F800000000000000000000000700C000C000EE
:10840800C000C000E0FC7FFC3F000000000000004E
:1084180000000000000000000000000AFCFFFCFF54
:1084280000018003C006600C301818700CE004C00E
:1084380000000000000000000000000008FCFFFC35
:10844800FF00C000C000C000C000C000C0000000A5
:10845800000000000000000000000000001080FF85
:10846800FCFFFC003800E0008007001E00380038E0
:10847800001E8007E0003800FC00FCFF00FF0BFC3A
:10848800FFFCFF38007000C00080030007001C00DC
:1084980030FCFFFCFF000000000000000000000EA0
:1084A800C00FF03F787818601CE00CC00CC00CC0FE
:1084B8000CC01CE018607878F03FC00F0000000086
:1084C80009FCFFFCFF0C060C060C060C061807F846
:1084D80003F00100000000000000000000000000A0
:1084E800000EC00FF03F787818601CE00CC00CC07C
:1084F8000CC00CC01C6018607838F01FC00F00005A
:1085080000000BFCFFFCFF0C060C060C060C060C0E
:108518001E183BF873F0E100800000000000000026
:10852800000000097060F8C09CC18CC10CC30CC36A
:108538000CE7087E003C000000000000000000007E
:1085480000000000090C000C000C00FCFFFCFF0CF4
:10855800000C000C000C00000000000000000000EF
:1085680000000000000AFC1FFC7F006000C000C083
:1085780000C000C00060FC7FFC1F0000000000007D
:108588000000000000000C3C00F800C007001F00BD
:108598007800E00078001FC007F8003C00040000E5
:1085A80000000000000000101C00FC03E03F00FC7D
:1085B80000C000F8001FF0037000F003803F00F8CF
:1085C80000C000FCE03FFC030C0CC018603038E031
:1085D8001CC0070003C007E01C303818600CC0043A
:1085E8008000000000000000000B1C003800E000C4
:1085F800C00100FF00FFC001E00038001C000400BB
:1086080000000000000000000000090CE00CF00C65
:10861800DC0CCE8CC3CCC16CC03CC01CC0000000BC
:108628000000000000000000000000060000FFFF3E
:10863800FFFF03000300030000000000000000002B
:10864800000000000000000000000000061F00FC01
:1086580000E00F007F00F000800000000000000034
:1086680000000000000000000000000000040300FB
:108678000300FFFFFFFF00000000000000000000F3
:1086880000000000000000000000000000000900D9
:10869800018003E00038000C003800E0008003008F
:1086A80001000000000000000000000000000001C0
:1086B80000000000000000000000000000000000B2
:1086C80000000000000000000000000000000000A2
:1086D800040000030006000C000000000000000079
:1086E8000000000000000000000000000000000082
:1086F8000007007C60FE60C660C660C6E0FFC0FF81
:108708000000000000000000000000000000000061
:1087180000000A0000FEFFFEFF60C060C060C0608D
:10872800C0E060C07F001F000000000000000000E3
:1087380000000008001FC07FC06060C060C060C04B
:1087480060C060C0000000000000000000000000E1
:108758000000000009001FC07FE06060C060C060CA
:10876800C060C0FEFFFEFF00000000000000000027
:10877800000000000009001FC07FC06C60CC60CC06
:1087880060CCE0CCC0CF000F00000000000000006B
:10879800000000000000070000F8FFFCFF6600660C
:1087A80000660066000000000000000000000000F5
:1087B8000000000000000009001FC07FC0E060C08A
:1087C80060C060C060C0E0FFE0FF00000000000083
:1087D8000000000000000000090000FEFFFEFF602E
:1087E8000060006000E000C0FF80FF0000000000A3
:1087F800000000000000000000030000E6FFE6FFA4
:108808000000000000000000000000000000000060
:1088180000000000000000000000030000E6FFE682
:10882800FF00000000000000000000000000000041
:108838000000000000000000000000090000FEFF2A
:10884800FEFF0006000F8019C07060C02080000085
:10885800000000000000000000000000050000FE0D
:108868007FFEFF00C000C000000000000000000004
:10887800000000000000000000000000000F0000E1
:10888800E0FFE0FF600060006000E000C0FFC0FFA4
:10889800600060006000E000C0FF80FF0000090089
:1088A80000E0FFE0FF600060006000E000C0FF80C3
:1088B800FF00000000000000000000000000000AA7
:1088C800001FC07FC06060C060C060C060C0C06082
:1088D800C07F001F00000000000000000000000032
:1088E8000A0000E0FFE0FF60C060C060C060C0C078
:1088F800E0C07F001F000000000000000000000032
:108908000009001FC07FC0E060C060C060C060C0D8
:10891800E0FFE0FF00000000000000000000000091
:108928000000070000C0FFE0FF600060006000601A
:10893800000000000000000000000000000000002F
:1089480000000007C0C3E0C760C660CC60CC60FC14
:108958000078000000000000000000000000000097
:1089680000000000060000FC7FFCFF60C060C060E3
:10897800C00000000000000000000000000000002F
:108988000000000000090000E03FE07F00E000C0B8
:1089980000C000C0E0FFE0FF000000000000000091
:1089A80000000000000009E003800F007C00F000D8
:1089B800E0007C800FE00360000000000000000081
:1089C800000000000000000EE003801F007800C0D7
:1089D8000078000FE000C00F003C00C00078801F46
:1089E800E0036000000000000960C0C070803B0028
:1089F8001F001F803BC07060C02080000000000086
:108A080000000000000000000008E003803F00FCB8
:108A180000C000FC801FE0036000000000000000B0
:108A2800000000000000000000000760E060F06047
:108A3800DC60CE60C3E0C1E0C000000000000000C0
:108A48000000000000000000000000060006000F03
:108A5800FEFFFFFD0300030000000000000000000F
:108A6800000000000000000000000000030000FFFC
:108A7800FFFFFF00000000000000000000000000F1
:108A880000000000000000000000000000050300D6
:108A9800FFFDFEFF000F00060000000000000000C0
:108AA80000000000000000000000000000000A00B4
:108AB8000C000F0007000300020004000C000E0069
:108AC8000F00030000000000000000000000000488
:108AD800FF7F01400140FF7F000000000000000010
:108AE800000000000000000000000000000000007E
:108AF800010000000000000000000000000000006D
:108B0800000000000000000000000000000000005D
:108B1800000100000000000000000000000000004C
:108B2800000000000000000000000000000000003D
:108B3800000001000000000000000000000000002C
:108B4800000000000000000000000000000000001D
:108B5800000000010000000000000000000000000C
:108B680000000000000000000000000000000000FD
:108B780000000000010000000000000000000000EC
:108B880000000000000000000000000000000000DD
:108B980000000000000100000000000000000000CC
:108BA80000000000000000000000000000000000BD
:108BB80000000000000001000000000000000000AC
:108BC800000000000000000000000000000000009D
:108BD800000000000000000100000000000000008C
:108BE800000000000000000000000000000000007D
:108BF800000000000000000001000000000000006C
:108C0800000000000000000000000000000000005C
:108C1800000000000000000000010000000000004B
:108C2800000000000000000000000000000000003C
:108C3800000000000000000000000100000000002B
:108C4800000000000000000000000000000000001C
:108C5800000000000000000000000001000000000B
:108C680000000000000000000000000000000000FC
:108C780000000000000000000000000001000000EB
:108C880000000000000000000000000000000000DC
:108C980000000000000000000000000000010000CB
:108CA80000000000000000000000000000000000BC
:108CB80000000000000000000000000000000100AB
:108CC800000000000000000000000000000000009C
:108CD800000000000000000000000000000000018B
:108CE800000000000000000000000000000000007C
:108CF800000000000000000000000000000000006C
:108D0800010000000000000000000000000000005A
:108D1800000000000000000000000000000000004B
:108D2800000100000000000000000000000000003A
:108D3800000000000000000000000000000000002B
:108D4800000001000000000000000000000000001A
:108D5800000000000000000000000000000000000B
:108D680000000001000000000000000000000000FA
:108D780000000000000000000000000000000000EB
:108D880000000000010000000000000000000000DA
:108D980000000000000000000000000000000000CB
:108DA80000000000000100000000000000000000BA
:108DB80000000000000000000000000000000000AB
:108DC800000000000000010000000000000000009A
:108DD800000000000000000000000000000000008B
:108DE800000000000000000100000000000000007A
:108DF800000000000000000000000000000000006B
:108E08000000000000000000010000000000000059
:108E1800000000000000000000000000000000004A
:108E28000000000000000000000100000000000039
:108E3800000000000000000000000000000000002A
:108E48000000000000000000000001000000000019
:108E5800000000000000000000000000000000000A
:108E680000000000000000000000000100000000F9
:108E780000000000000000000000000000000000EA
:108E880000000000000000000000000001000000D9
:108E980000000000000000000000000000000000CA
:108EA80000000000000000000000000000010000B9
:108EB80000000000000000000000000000000000AA
:108EC8000000000000000000000000000000010099
:108ED800000000000000000000000000000000008A
:108EE8000000000000000000000000000000000179
:108EF800000000000000000000000000000000006A
:108F08000000000000000000000000000000000059
:108F18000100000000000000000000000000000048
:108F28000000000000000000000000000000000039
:108F380000030000E0FCE0FC00000000000000006E
:108F48000000000000000000000000000000000019
:108F58000000080000001FC07FE0E07CC07CC0600B
:108F6800C060C00000000000000000000000000019
:108F780000000009000300C3F0FFF8FF1CC30CC386
:108F88000CC30CC00CC00000000000000000000072
:108F9800000000000A2010F03FE01FE01C6018608D
:108FA80018E01CE01FF03F20100000000000000047
:108FB8000000000000091C367836E03780FF80FF8B
:108FC800E03778361C36040000000000000000007E
:108FD800000000000000030000FFF0FFF0000000A8
:108FE8000000000000000000000000000000000079
:108FF80000000000000000080087BC0FFE1C661877
:10900800C610C63886EF0EE700000000000000001A
:109018000000000000000000050C000C0000000C1F
:10902800000C00000000000000000000000000002C
:109038000000000000000000000EC00FE01F7038A4
:1090480018609CE7CCCF4CC84CC84CC81CE01860D2
:109058007838F03FC00F0000000006C001E4032488
:10906800022402FC03F803000000000000000000D6
:109078000000000000000000000000080004001FBD
:10908800803BC0600004001F803BC06000000000FF
:1090980000000000000000000000000009000300BC
:1090A8000300030003000300030003007F007F00A8
:1090B800000000000000000000000000000500069D
:1090C8000006000600060006000000000000000080
:1090D80000000000000000000000000000000EC0BA
:1090E8000FF03F78781860DCEFCCCF4CC24CC6CC80
:1090F800CF9CE918607878F03FC00F0000000006A8
:109108000600060006000600060006000000000033
:109118000000000000000000000000000000000047
:10912800051C003E0022003E001C0000000000005C
:109138000000000000000000000000000000000027
:10914800000980C180C180C180C1F8DFF8DF80C11B
:1091580080C180C100000000000000000000000085
:109168000000050803C403E4027C02380200000082
:1091780000000000000000000000000000000000E7
:10918800000000050C0224022402FC03D8010000A0
:1091980000000000000000000000000000000000C7
:1091A8000000000005000000000C0006000300009D
:1091B80000000000000000000000000000000000A7
:1091C80000000000000A000000000000000000008D
:1091D8000000000000000000000000000000000087
:1091E80000000000000000000000030000FE1BFE5D
:1091F8001B0000000000000000000000000000004C
:109208000000000000000000000000000000000650
:109218001F001F00000000001F001F0000000000CA
:109228000000000000000000000000000000000036
:10923800000000000C0003301BB007780336033031
:10924800033003301BB007780336033000000000FA
:1092580000000000000000000009700CF81C8C10D1
:109268008410FF7F841084189C0F180700000000EA
:10927800000000000000000000000000000012FCD8
:1092880000FE01020102010201FE11FC0C00028035
:109298000160001000CC0FE21F201020102010E009
:1092A8001FC00F0C000000079C0FFE186210C210B0
:1092B800E2113E1B1C0EC00FC01900100000000078
:1092C80000000000000000000300001F001F000055
:1092D8000000000000000000000000000000000086
:1092E8000000000000000000000000000006000070
:1092F800F00FFC3F0E7003C001800000000000006A
:109308000000000000000000000000000000000055
:109318000000060000018003C00E70FC3FF00F0043
:109328000000000000000000000000000000000035
:10933800000000000000000900004200240018009E
:10934800FF00FF0018002400420000000000000099
:109358000000000000000000000000000B000000FA
:10936800008000800080008000F80F80008000806E
:109378000080000000000000000000000000000065
:10938800000400C000FC003C0004000000000000D5
:1093980000000000000000000000000000000000C5
:1093A80000000000000006000080008000800080AF
:1093B8000080000000000000000000000000000025
:1093C8000000000000000000000000030000001C76
:1093D800001C000000000000000000000000000069
:1093E8000000000000000000000000000000000075
:1093F80008000000C00030000E800170000C00035F
:109408000000000000000000000000000000000054
:10941800000000000009F807FC0F061802100210EF
:1094280002100618FC0FF8070000000000000000FA
:109438000000000000000000000008000000000814
:10944800100810FE1FFE1F00100010000000000092
:1094580000000000000000000000000000000009FB
:109468000C100E18021C021602138211C6107C1072
:10947800381000000000000000000000000000009C
:1094880000000000090C0C0E1C0210421042104291
:1094980010E618BC0F1807000000000000000000CC
:1094A8000000000000000000000A800140012001C7
:1094B800100108010401FE1FFE1F00010001000049
:1094C800000000000000000000000000000009008B
:1094D8000C3E1C3E102210221022106218C20F826D
:1094E800070000000000000000000000000000006D
:1094F80000000009F007F80F2C182610221022107F
:109508006218C20F80070000000000000000000081
:10951800000000000000000009020002000218021A
:109528001E8207E2017A001E00060000000000000B
:1095380000000000000000000000000000091807FB
:10954800BC0FE618421042104210E618BC0F18076C
:109558000000000000000000000000000000000003
:109568000000097800FC1086110211021102190688
:109578000DFC07F8030000000000000000000000D8
:10958800000000000000000400000000701C701CB7
:1095980000000000000000000000000000000000C3
:1095A80000000000000000000000000005000000AE
:1095B800C070FC703C0004000000000000000000C7
:1095C8000000000000000000000000000000000093
:1095D800000B0000800180014002400220042004AA
:1095E8001008100808100810000000000000000013
:1095F8000000000000000B000020022002200220D2
:109608000220022002200220022002200200000084
:1096180000000000000000000000000B000008101F
:10962800081010081008200420044002400280019D
:1096380080010000000000000000000000000000A1
:10964800080C000E000200021B821BC6007C0038BA
:109658000000000000000000000000000000000002
:1096680000000000000EE00710080810C423E247BD
:10967800324C12481248F247F24F04080808100406
:10968800E00300000000000000000B001C001FE0C9
:1096980003F8011E0106011E01F801E003001F0086
:1096A8001C00000000000000000000000000000A8C
:1096B800FE1FFE1F42104210421042106610FC1896
:1096C800980F0007000000000000000000000000E4
:1096D800000000000AF003FC0F0C0C061802100230
:1096E80010021002100E1C0C0C00000000000000FC
:1096F8000000000000000000000BFE1FFE1F02100B
:10970800021002100210061804081C0EF807E001E7
:10971800000000000000000000000000000009FE3A
:109728001FFE1F42104210421042104210421042C7
:109738001000000000000000000000000000000011
:1097480000000008FE1FFE1F4200420042004200C7
:10975800420042000000000000000000000000007D
:1097680000000000000000000BF003FC0F0C0C06CA
:1097780018021002108210821082108E1F8C0F00A7
:10978800000000000000000000000000000BFE1FA9
:10979800FE1F4000400040004000400040004000E4
:1097A800FE1FFE1F00000000000000000000000077
:1097B80000000602100210FE1FFE1F021002100019
:1097C8000000000000000000000000000000000091
:1097D8000000000000000007001002100210021034
:1097E8000218FE0FFE070000000000000000000045
:1097F8000000000000000000000000000AFE1FFE3C
:109808001F4000E000B00118030C06060C02180007
:109818001000000000000000000000000000000030
:109828000008FE1FFE1F001000100010001000109E
:109838000010000000000000000000000000000010
:109848000000000000000DFE1F0E003C00F000C0EC
:1098580001000700060001C00030000C00FE1FFEDA
:109868001F000000000000000000000BFE1F0E009B
:109878001C0038007000E000C00180030007000EE3
:10988800FE1F0000000000000000000000000000B3
:109898000BF003FC0F0C0C06180210021002100645
:1098A800180C0CFC0FF00300000000000000000082
:1098B80000000000000AFE1FFE1F02010201020153
:1098C800020102018601FC0078000000000000008F
:1098D800000000000000000000000BF003FC0F0C6B
:1098E8000C061802100230027006D80C8CFC8FF09F
:1098F8008300000000000000000000000000000BD2
:10990800FE1FFE1F02010201020102018603FC067E
:10991800780C001800100000000000000000000093
:109928000000000009380C7C1CE610C210C210C2EE
:1099380010C2198E0F0C0700000000000000000084
:109948000000000000000000000A020002000200FF
:109958000200FE1FFE1F02000200020002000000BB
:1099680000000000000000000000000000000BFEE6
:1099780007FE0F0018001000100010001000100063
:1099880018FE0FFE070000000000000000000000A5
:109998000000000A0E007E00F003801F001C001C5F
:1099A800801FF0037E000E00000000000000000091
:1099B80000000000000000000F1E00FE03E01F0072
:1099C8001C001FE007FC003E00FC00E007001F0031
:1099D8001CE01FFE031E000000000000000A06181D
:1099E8000E1C18063003E001E001300318060E1CB7
:1099F8000618000000000000000000000000000041
:109A080000000A06001E003800E000C01FC01FE06A
:109A18000038001E000600000000000000000000E2
:109A280000000000000000090218021C021782133F
:109A3800C21072103A100E1006100000000000004C
:109A4800000000000000000000000000060000FF09
:109A5800FFFFFF018001800180000000000000007E
:109A680000000000000000000000000000000000EE
:109A78000008000003000C0070008001000E003098
:109A880000C000000000000000000000000000000E
:109A9800000000000000060000018001800180FF36
:109AA800FFFFFF00000000000000000000000000B1
:109AB80000000000000000000000000B0000400053
:109AC8002000180004000200020004001800200012
:109AD800400000000000000000000000000000003E
:109AE8000A004000400040004000400040004000A4
:109AF800400040004000000000000000000000009E
:109B0800000000000005000000000200060004003C
:109B1800000000000000000000000000000000003D
:109B28000000000000000000000009000E201F30A7
:109B380011901090109010B008E01FC01F00000096
:109B48000000000000000000000000000000000904
:109B5800FF1FFF1F20081010101010103018E00F02
:109B6800C007000000000000000000000000000026
:109B78000000000007C007E00F3018101010101088
:109B88001020080000000000000000000000000095
:109B980000000000000000000009C007E00F3018B6
:109BA8001010101010102008FF1FFF1F00000000E9
:109BB800000000000000000000000000000009C0D4
:109BC80007E00F30191011101110113011E019C0F1
:109BD8000900000000000000000000000000000074
:109BE800000000061000FE1FFF1F110011000100F9
:109BF800000000000000000000000000000000005D
:109C0800000000000000000009C007E04F30D81035
:109C1800901090109020C8F07FF03F0000000000E6
:109C28000000000000000000000000000009FF1F05
:109C3800FF1F20001000100010003000E01FC01FA0
:109C4800000000000000000000000000000000000C
:109C58000000030000F61FF61F00000000000000CF
:109C680000000000000000000000000000000000EC
:109C78000000000000000005008010801080F6FF42
:109C8800F67F000000000000000000000000000057
:109C980000000000000000000000000009FF1FFF96
:109CA8001F00018001C0036006300C10180010006E
:109CB800000000000000000000000000000000009C
:109CC80000030000FF1FFF1F00000000000000004D
:109CD800000000000000000000000000000000007C
:109CE8000000000000000EF01FF01F200010001000
:109CF800001000F01FE01F2000100010001000F0FE
:109D08001FE01F000000000000000009F01FF01F06
:109D180020001000100010003000E01FC01F0000DD
:109D2800000000000000000000000000000000002B
:109D380009C007E00F30181010101010103018E08C
:109D48000FC0070000000000000000000000000035
:109D5800000000000009F0FFF0FF200810101010AC
:109D680010103018E00FC0070000000000000000CD
:109D78000000000000000000000009C007E00F30EC
:109D8800181010101010102008F0FFF0FF0000004D
:109D980000000000000000000000000000000006B5
:109DA800F01FF01F200030003000300000000000DD
:109DB800000000000000000000000000000000009B
:109DC8000000000007E008F0119011901310131024
:109DD8001F200E000000000000000000000000002E
:109DE800000000000000000000061000FE0FFE1F2B
:109DF80010101010101000000000000000000000FB
:109E0800000000000000000000000000000009F051
:109E180007F00F00180010001000100008F01FF0E5
:109E28001F0000000000000000000000000000000B
:109E3800000000087000F003800F001C001C800F59
:109E4800F0037000000000000000000000000000A7
:109E580000000000000000000D3000F003C01F00EB
:109E68001C800FE0037000E003800F001CC01FF08F
:109E7800033000000000000000000000000910107E
:109E88003018600CC0078003C007600C3018101031
:109E980000000000000000000000000000000000BA
:109EA8000000087000F003808F00FC007C800FF039
:109EB8000370000000000000000000000000000027
:109EC80000000000000000081018101C10161013E5
:109ED8009011D01070103010000000000000000039
:109EE8000000000000000000000000000980008061
:109EF80000C0017C3F3E7E03C001800180018000DC
:109F08000000000000000000000000000000000049
:109F180000060000000000000000FFFFFFFF000037
:109F28000000000000000000000000000000000029
:109F38000000000000000901800180018003C03E8C
:109F48007E7C3FC00180008000000000000000000F
:109F580000000000000000000000000C8003C000AA
:109F6800600060006000C00080010003000300037F
:109F78008001E00000000000000000000000000078
:109F880005FE0FFE0F0208FE0FFE0F000000000086
:109F980000000000000000000000000000000000B9
:109FA8000000000000071C003E006300630063001F
:109FB8003E001C000000000000000000000000003F
:109FC8000000000000000000000008000000000081
:109FD8000000000000000000000000000000000079
:109FE800000000000000000000020000FE1B00004E
:109FF8000000000000000000000000000000000059
:10A0080000000000000000000500001F0000000024
:10A01800001F000000000000000000000000000019
:10A02800000000000000000B0002101A90077802E0
:10A0380016021002101A900778021602100000008B
:10A04800000000000000080000700888108810FE5A
:10A05800FF08110811100E000000000000000000A9
:10A0680000000000000F00007C00820082008210C7
:10A07800820C7C0280016000900F4C10421040104E
:10A088004010800F0A00079C0862104210C210227C
:10A09800111C0A0006C009001000000000000000A2
:10A0A8000000000200001F00000000000000000087
:10A0B8000000000000000000000000000000000098
:10A0C8000000050000F00F0C300240018000000085
:10A0D8000000000000000000000000000000000078
:10A0E80000050000018002400C30F00F0000000065
:10A0F8000000000000000000000000000000000058
:10A108000800002200140008007F00080014002244
:10A118000000000000000000000000000000000A2D
:10A1280000008000800080008000F80F8000800020
:10A138008000800000000000000000000000030014
:10A148000000C0003800000000000000000000000F
:10A158000000000000000000000000000005800072
:10A1680080008000800080000000000000000000E7
:10A1780000000000000000000000000003000000D4
:10A1880000001800000000000000000000000000AF
:10A1980000000000000000000000000600C00038B9
:10A1A8000007E0001C0003000000000000000000A1
:10A1B8000000000000000000000008F80704080282
:10A1C800100210021002100408F807000000000036
:10A1D8000000000000000000000700000000081058
:10A1E8000810FE1F00100010000000000000000012
:10A1F800000000000000000008000004180214021B
:10A2080012021182104410381000000000000000F3
:10A2180000000000000000080000040802104210BE
:10A2280042104210A40818070000000000000000B7
:10A238000000000000000880014001200110010812
:10A24800010401FE1F0001000000000000000000E2
:10A2580000000000000800003E0822102210221012
:10A2680022104208820700000000000000000000E1
:10A278000000000008F007480824102210221022CD
:10A2880010420880070000000000000000000000E5
:10A2980000000008000002000218020682016200A5
:10A2A8001A00060000000000000000000000000086
:10A2B8000000081807A4084210421042104210A4D7
:10A2C800081807000000000000000000000000005F
:10A2D8000008780084100211021102110209840496
:10A2E800F80300000000000000000000000000006B
:10A2F800030000000030180000000000000000000B
:10A308000000000000000000000000000000000342
:10A31800000000C03038000000000000000000000D
:10A3280000000000000000000000000000000A001B
:10A3380000000080004001400120022002100410AB
:10A34800040808000000000000000000000B0000E6
:10A358000000400240024002400240024002400227
:10A368004002400200000000000000000A00000057
:10A378000008081004100420022002400140018057
:10A3880000000000000000000000000700000400BA
:10A398000200021B82004400380000000000000098
:10A3A800000000000000000000000E0000E0071898
:10A3B800180420C42322441248124812481244F4B4
:10A3C8000F04081808E00700000A00180007E00159
:10A3D8001C01020102011C01E00100070018000035
:10A3E800000000000000000008FE1F42104210425A
:10A3F80010421062109C08000700000000000000D6
:10A408000000000000000009F0030C0C0408021012
:10A4180002100210021002100408000000000000E0
:10A428000000000000000AFE1F02100210021002C5
:10A43800100210040804081806E0010000000000DB
:10A44800000000000008FE1F421042104210421097
:10A4580042104210421000000000000000000000FE
:10A468000000000007FE1F42004200420042004276
:10A478000042000000000000000000000000000092
:10A488000000000AF0030C0C0408021002108210ED
:10A49800821082108210840F00000000000000006B
:10A4A80000000AFE1F4000400040004000400040FD
:10A4B8000040004000FE1F000000000000000000F7
:10A4C800000400000210FE1F02100000000000003F
:10A4D8000000000000000000000000000000000074
:10A4E8000600100010021002100210FE0F000000FB
:10A4F800000000000000000000000000000000084C
:10A50800FE1F8000C0002001100208040408021089
:10A51800000000000000000000000000000007FE2E
:10A528001F001000100010001000100010000000A4
:10A53800000000000000000000000000000BFE1FEB
:10A548000600180060008001000280016000180009
:10A558000600FE1F00000000000000000AFE1F04A5
:10A56800000800300040008000000300040008FEDE
:10A578001F000000000000000000000BF0030C0C9E
:10A5880004080210021002100210021004080C0C39
:10A59800F003000000000000000008FE1F02010296
:10A5A800010201020102018400780000000000009D
:10A5B8000000000000000000000BF0030C0C040871
:10A5C8000210021002100270029004880C8CF083B2
:10A5D800000000000000000009FE1F8200820082C7
:10A5E80000820142023C0400080010000000000044
:10A5F8000000000000000008380844104210421013
:10A608008210821082080407000000000000000089
:10A61800000000000000090200020002000200FE23
:10A628001F020002000200020000000000000000FB
:10A6380000000000000AFE070008001000100010CB
:10A648000010001000100008FE07000000000000C5
:10A65800000000000906003800C001000E001000CC
:10A668000EC00138000600000000000000000000D5
:10A678000000000D0600F800000F001880077C009D
:10A6880002007C0080070018000FF8000600000098
:10A6980000000802100C0C1002E001E00110020C8E
:10A6A8000C02100000000000000000000000000084
:10A6B800000902000C0010006000801F60001000FC
:10A6C8000C00020000000000000000000000000074
:10A6D800080218021402138210421032100A1006DF
:10A6E800100000000000000000000000000000054D
:10A6F8000000FFFF018001800180000000000000D1
:10A708000000000000000000000000000000060338
:10A71800001C00E0000007003800C0000000000036
:10A72800000000000000000000000000000500001C
:10A73800018001800180FFFF000000000000000090
:10A748000000000000000000000000000B000040B6
:10A7580000200010000C00020002000C0010002075
:10A768000040000000000000000000090040004018
:10A778000040004000400040004000400040000011
:10A7880000000000000000000000050000000000BC
:10A7980000030004000000000000000000000000AA
:10A7A80000000000000000000007000E20119010BB
:10A7B800901090109008E01F0000000000000000BA
:10A7C800000000000000000008FF1F2010101010FB
:10A7D80010101010102008C0070000000000000032
:10A7E8000000000000000006C0072008101010102C
:10A7F8001010200800000000000000000000000009
:10A8080000000000000008C00720081010101010F9
:10A818001010101008FF1F000000000000000000CA
:10A82800000000000007C0072009101110111011C6
:10A838002011C00900000000000000000000000016
:10A8480000000000051000FE1F11001100010000AB
:10A8580000000000000000000000000000000000F0
:10A8680000000008C0072048109010901090109029
:10A878001048F03F00000000000000000000000049
:10A88800000008FF1F20001000100010001000201A
:10A8980000C01F00000000000000000000000000D1
:10A8A80000020000F61F0000000000000000000089
:10A8B8000000000000000000000000000000000090
:10A8C80004008010801080F67F0000000000000067
:10A8D8000000000000000000000000000000000769
:10A8E800FF1F000180014002200410080010000032
:10A8F800000000000000000000000000000002004E
:10A9080000FF1F0000000000000000000000000021
:10A91800000000000000000000000000000C000023
:10A92800F01F2000100010001000E01F2000100091
:10A9380010001000E01F00000000000008F01F20B9
:10A948000010001000100010002000C01F000000C0
:10A95800000000000000000000000008C0072008F8
:10A9680010101010101010102008C0070000000070
:10A978000000000000000000000008F0FF20101098
:10A98800101010101010102008C007000000000060
:10A9980000000000000000000008C0072008101098
:10A9A8001010101010101008F0FF00000000000038
:10A9B800000000000000000005F01F20001000103B
:10A9C800001000000000000000000000000000006F
:10A9D8000000000000000006E0081011101110111E
:10A9E8001011200E00000000000000000000000010
:10A9F800000000000000051000FE0F1010101010DD
:10AA0800100000000000000000000000000000002E
:10AA1800000000000008F0070008001000100010F7
:10AA280000100008F01F00000000000000000000F7
:10AA380000000000073000C001000600180006C032
:10AA480001300000000000000000000000000000CD
:10AA58000000000B3000C003001C0006C0013000DD
:10AA6800C0010006001CC003300000000000000008
:10AA780000000710102008C0060001C006200810BA
:10AA880010000000000000000000000000000000AE
:10AA980000073000C00100E600180006C0013000C1
:10AAA800000000000000000000000000000000009E
:10AAB80006101810141013901050103010000000D9
:10AAC8000000000000000000000000000000000777
:10AAD8008000800040013E7E0180018001800000EE
:10AAE800000000000000000000000000000003005B
:10AAF800000000FFFF000000000000000000000050
:10AB080000000000000000000000000000070180B5
:10AB1800018001803E7E400180008000000000002E
:10AB28000000000000000000000000000B00000012
:10AB38000380004000400080000001000200020085
:10AB480001C000000000000000000004FE0F020821
:10AB58000208FE0F000000000000000000000000D6
:10AB680000000000000000000000060000000000D7
:10AB780000000000000200BF00000000000000000C
:10AB880003030003000000000000000720E43CE786
:10AB98003C2704000000058C92FF92620000000030
:10ABA800000A060909C6300C639090600776898907
:10ABB80096605880000000010300000000000000BB
:10ABC8000000027C830000000000000000030083F6
:10ABD8007C000000000000000505020F02050000CF
:10ABE80000000007101010FE1010100000000200F6
:10ABF800C00000000000000000031010100000005A
:10AC0800000000000200C000000000000000000377
:10AC1800807C0300000000000000057E8181817EA9
:10AC28000000000000040082FF8000000000000017
:10AC380005C2A1918986000000000005428189892A
:10AC480076000000000005181412FF100000000034
:10AC580000054F898989710000000000057C8A89F8
:10AC6800897000000000000501C1310D03000000DB
:10AC780000000576898989760000000000050E919C
:10AC880091513E00000000000200CC0000000000CE
:10AC98000000000200CC00000000000000000700D7
:10ACA800102828444482000000072828282828283B
:10ACB80028000000070082444428281000000004EF
:10ACC80001B10906000000000000097C8299A5A5D1
:10ACD800BD21221C0006E03C23233CE000000000CC
:10ACE80005FF898989760000000000063C428181C1
:10ACF80081810000000006FF818181423C00000044
:10AD08000005FF89898981000000000005FF090905
:10AD180009090000000000063C42819191F1000001
:10AD2800000006FF08080808FF000000000381FF74
:10AD38008100000000000000048081817F00000085
:10AD480000000005FF18244281000000000004FFF5
:10AD580080808000000000000007FF030C300C0317
:10AD6800FF00000006FF030C30C0FF0000000007D2
:10AD78003C42818181423C00000005FF1111110E07
:10AD88000000000000073C42818181423C00000035
:10AD980006FF1111314E800000000005868989895F
:10ADA800710000000000050101FF01010000000022
:10ADB80000067F808080807F00000000050738C083
:10ADC80038070000000000090738C0380738C038C5
:10ADD800070005C3241824C3000000000005030C65
:10ADE800F00C03000000000005C1A1998583000054
:10ADF80000000001FF000000000000000000030345
:10AE08007C8000000000000000030000FF0000003C
:10AE18000000000007080402010204080000000105
:10AE28000000000000000000000003000001000016
:10AE380000000000000560949494F80000000000F1
:10AE480005FF8484847800000000000478848484EA
:10AE58000000000000000578848484FF00000000E2
:10AE680000057894949458000000000003FF04043F
:10AE7800000000000000000578848484FC000000C5
:10AE8800000005FF040404F8000000000001FD00B4
:10AE980000000000000000000204FD0000000000A7
:10AEA80000000005FF10284480000000000001FF9A
:10AEB80000000000000000000007FC0404F804047F
:10AEC800F800000005FC040404F800000000000578
:10AED8007884848478000000000005FC84848478E9
:10AEE80000000000000578848484FC000000000055
:10AEF80003FC080400000000000000049894A46407
:10AF0800000000000000037F8484000000000000AF
:10AF180000057C808080FC0000000000050C30C02B
:10AF2800300C0000000000073CC0300C30C03C0072
:10AF380000000584483048840000000000050C30FB
:10AF4800C0300C000000000004C4A4948C00000071
:10AF5800000000031010EF000000000000000200D5
:10AF6800FF00000000000000000400EF10100000C7
:10AF78000000000007300808102020180000000317
:10AF8800FF81FF000000000000000000000000003A
:10AF980000000000000000000000000000000000A9
:10AFA8000000000000000000000000000000000099
:10AFB8000000000000000000000000000000000089
:10AFC8000000000000000000000000000000000079
:10AFD8000000000000000000000000000000000069
:10AFE8000000000000000000000000000000000059
:10AFF8000000000000000000000000000000000049
:10B008000000000000000000000000000000000038
:10B018000000000000000000000000000000000028
:10B028000000000000000000000064002C01000087
:10B038000000000000000000000000000000000008
:10B0480000000000000000000000000000000000F8
:10B0580000000000000000000000000000000000E8
:10B0680000000000000000000000000000000000D8
:10B078000000000000000000000078002C01000023
:10B088002C0178002C0100000000000000000000E6
:10B0980000000000000000000000000000000000A8
:10B0A8000000000000000000000000000000000098
:10B0B8000000000000000000000000000000000088
:10B0C80000000000000000000000FA00C8000000B6
:10B0D800C800FA00C8000000C800FA00C800000054
:10B0E800C800C800C8000000C800C800C8000000A8
:10B0F800C800C800C8000000C8009600C8000000CA
:10B10800C8009600C8000000C8009600C8000000EB
:10B11800C800000000000000000050008813000074
:10B128000000000000000000000000000000000017
:10B138000000000000000000000000000000000007
:10B1480000000000000000000000000000000000F7
:10B1580000000000000000000000000000000000E7
:10B1680000000000000000000000080001800380CB
:10B178000380038003800380038001000000000037
:10B188000000000400F000F000F000700000000073
:10B198000000000000000000000000000A00F000AD
:10B1A800FC003FC00FF003F8017E001F00070001FC
:10B1B80000000000000B800FE03FF07F78F01CE0FB
:10B1C8001CE01CE01C70FC7FF83FF00F000007102B
:10B1D8000038001870FCFFFCFFFC3F3C000000003A
:10B1E800000000000000000B00E0F0E0F8F0F8F0CC
:10B1F8001CF81CFC1CFE1CEFFCE7F8E3F0E0000068
:10B208000B2078707878E01CE21CE31CE39CE7FCD8
:10B21800FFFC7FF83C300000000C000C801FE01F92
:10B22800F81FFC1C3C1C0C1C00FFE0FFE07FE01C2E
:10B23800001C0B0030DC7BFCF3FCE3BCE31CE31CD0
:10B24800E71CFF1C7F1C3E0C0000000B001FE03FAA
:10B25800F07FF8FE3CE31CE39CE31CF73C7F783E60
:10B26800780C00000B18001C001CF81CFE98FFD876
:10B278000FF801F80078003C001C0000000B0038B3
:10B28800F07CF8FFFCE79CE31CE31CE79CFFFC7FD9
:10B29800F83C700000000B0030F071F8F3FCE71C7C
:10B2A800E71CE71CE79C73F87FF81FE00F00000518
:10B2B80000F0E0F1E0F1E071E000000000000000C3
:10B2C80000000000000000000F0000000000FEFF6A
:10B2D8000303FFFC00545454540000000078FFC7D7
:10B2E8008080C7FF78010101010F000000C0F0381D
:10B2F8001C07071C38F0C000000000001F3F60C09A
:10B30800C0C0C0C0C0603F1F00000F00388CC6C658
:10B31800C68C8C18181010109CCE0000E731181835
:10B3280018313163634242427339000F000000C094
:10B33800602C332121332C60C0000000000000077E
:10B348000CFF80F8F880FF0C070000000F000204D3
:10B358000810C060202F60C01008040200014121BD
:10B368001108030604F4060308112141010FC04027
:10B37800406030180CFE0000584C66222200030280
:10B3880002060C18307F00001A326644440014008C
:10B398000000F8FC0603E3E3E30306FCF8009898D2
:10B3A8009898000000000000000000000000000065
:10B3B8000000FFFF0000FFFFFF0000FFFF0099995A
:10B3C800999900000000000000000000000000C083
:10B3D800F0380FC7E0F0FFFFFFF0E0C70F38F1C10A
:10B3E800010100000000000000000000000000074C
:10B3F8000F1C30634FCFDFDFDFCF4F63301C0F07E9
:10B408000000000000000000000000000000000034
:10B4180000000000000000000000000000640101BE
:10B4280001000000000000000000000000640102AC
:10B43800020000000000000000000000006401009D
:10B448002F800180001000000000012E8001800084
:10B458001000000000022D80018000100000000094
:10B468002D5E0000EBE1000008FC000080FF0000FA
:10B47800E1B7020016220100080401008000010063
:10B488002C72683A25642C6D6F3A25642C766F63AC
:10B498003A25642C6C75783A256C642C6E6C3A25C8
:10B4A800640069643A25732C64693A25642C6275D2
:10B4B80074743A25642C743A25642C74323A2564E1
:10B4C8000069643A25732C747970653A25732C7673
:10B4D800657273696F6E3A257328257329002C707D
:10B4E80077723A25642E253032642C7077724F7546
:10B4F800743A25642E25303264002C616463303A36
:10B5080025642E253032642C616463313A25642E1B
:10B51800253032640069643A25732C6D73673A628A
:10B528006164437263002C6372633A253032780D8C
:10B538000A005365702032332032303234006E6591
:10B54800774964353035303A006D73673A636F6E0A
:10B55800666967006D73673A737461747573006325
:10B568006D643A726573657400494E46494E495494
:10B578005900696E66696E6974790025642E2564C0
:10B58800B04320006D73673A64617461002C726582
:10B5980071543A256400526F6F6D53656E730025C0
:10B5A800642E2564B02000202020202020200025A3
:10B5B800346C752020200025642E2564B043006972
:10B5C800643A616C6C2C0069643A25732C006E65D2
:10B5D8007749643A006C696768743A002C74333AA6
:10B5E8002564002C74343A25640025642525200040
:10B5F8002C200D0A0900646163303A0064616331EC
:10B608003A007265714C3A00726571543A0062658D
:10B6180065703A0069643A25730025642020004E5D
:10B62800414E00696E66006E616E006C6C73002599
:10B63800642000202D2D00302E3200646F3A006CFB
:0FB6480058006C64006C69006C75006C78000031
:10B65800E351E411D8B410D060008FF3D9FF600033
:10B6680093F3DAFF600087F3DEFF60008BF3DDFF02
:10B6780003D00001E14BE22B600087F3D9FF6000A3
:10B688008BF3DAFF200EDE18D8A402D0010E01D009
:10B69800000E0101046F056B04510511D8A4E9D708
:10B6A800F70E0001E56FFF0EE66F600087F3D9FF24
:10B6B80060008BF3DAFFDF50E76FE7510101046F99
:10B6C800056B04C1E8F005C1E9F00001E551E82780
:10B6D800E651E923E95104E1050EE85DD8A0C9D790
:10B6E800000E0101016F2D0E04190511D8A406D012
:10B6F800010E016F0001E14BE22B05D02B0E04195E
:10B708000511D8B4F7D7000E01010A6F02D0010164
:10B718000A2B0A510001E125D96E0101000E000132
:10B72800E221DA6EDF50D8B438D001010A510001A5
:10B73800E125D96E0101000E0001E221DA6EDF5029
:10B74800E56F7A0E01010A25F66EF76AB50EF72243
:10B75800F86A000EF8220800F5500001E519D8B47F
:10B76800D6D701010A510001E125D96E0101000E69
:10B778000001E221DA6EDF50E56F710E01010A2542
:10B78800F66EF76AB50EF722F86A000EF82208007E
:10B79800F5500001E519D8B4BAD7020E01010A65BF
:10B7A8002AD0000E066F000E076F800E086F7F0EFE
:10B7B800096F0001E351E411D8B4A3EF62F0080E59
:10B7C80001010A19D8B402D0030E0A6F0A51000108
:10B7D800E125E56F000EE221E66F60008FF3D9FFE7
:10B7E800600093F3DAFF600097F3DEFF60009BF3DD
:10B7F800DDFFA3EF62F0000E0A6F02D001010A2BF1
:10B808000A510001E125D96E0101000E0001E22173
:10B81800DA6EDF50D8B438D001010A510001E125B1
:10B82800D96E0101000E0001E221DA6EDF50E56FEA
:10B838002F0E01010A25F66EF76AB60EF722F86A8E
:10B84800000EF8220800F5500001E519D8B4D6D743
:10B8580001010A510001E125D96E0101000E000124
:10B86800E221DA6EDF50E56F270E01010A25F66E38
:10B87800F76AB60EF722F86A000EF8220800F550AB
:10B888000001E519D8B4BAD7030E01010A19D8A4E2
:10B898006DD0FD0E0001716FB50E726FA4ECD1F082
:10B8A80071C006F172C007F173C008F174C009F1E4
:10B8B800E351E411D8B4A3EF62F001010A51000189
:10B8C800E127000EE223600087F3D9FF60008BF3C5
:10B8D800DAFF280EDE18D8A43BD0000E01010A6F4B
:10B8E80002D001010A2B0A510001E125D96E01019C
:10B8F800000E0001E221DA6EDF50D8B40ED001014B
:10B908000A510001E125D96E0101000E0001E22172
:10B91800DA6E290EDE18D8A4E4D701010A51000115
:10B92800E125D96E0101000E0001E221DA6E290E2F
:10B93800DE18D8A40DD001010A510001E56FE66BAD
:10B94800010EE527000EE623E551E127E651E22343
:10B9580060008FF3D9FF600093F3DAFF600087F38C
:10B96800DEFF60008BF3DDFFA3EF62F0000E056FD2
:10B97800000E046F000E066F000E076F000E086FB2
:10B98800000E096F000E036F000E026F000E0A6FA3
:10B9980002D001010A2B0A510001E125D96E0101EB
:10B9A800000E0001E221DA6E300EDE18D8B4F1D7AD
:10B9B80001010A51D8B439D30A510001E125D96EE1
:10B9C8000101000E0001E221DA6E780EDE18D8B40B
:10B9D8000ED001010A510001E125D96E0101000EC6
:10B9E8000001E221DA6E580EDE18D8A41ED3010138
:10B9F8000A510001E56FE66B010EE527000EE6230C
:10BA0800E551E127E651E223000E01010A6F02D059
:10BA180001010A2B0A510001E125D96E0101000E2E
:10BA28000001E221DA6E300EDE18D8B4F1D7000E2C
:10BA380001010A6F0A510001E125D96E0101000ECA
:10BA48000001E221DA6E700EDE18D8B46ED1010161
:10BA58000A510001E125D96E0101000E0001E22121
:10BA6800DA6E500EDE18D8B460D101010A51000117
:10BA7800E125D96E0101000E0001E221DA6E2E0ED9
:10BA8800DE18D8A403D0010101894ED101010A5161
:10BA98000001E125D96E0101000E0001E221DA6EF4
:10BAA800DF50E56FE551776F786B23ECC7F077517E
:10BAB8007811D8B475D0000E0101006FD00E0001C6
:10BAC800E56FFF0EE66F01010A510001E125D96E0D
:10BAD8000101000E0001E221DA6EDF50E76FE86B2A
