:0460000057EF30F036
:10600800F553F553F553F553F553F553F553F55348
:10601800F553F553F5539B50F553F553F553F55395
:10602800F553F553F553F553F553F553F553F55328
:10603800F553F553F55359514651F5536C51AF503B
:106048004550F553F553F5532B18F553F553F553C0
:10605800F553F553F553F553F553F553F553F553F8
:10606800F553F553F553F553F553F553F553F553E8
:10607800F553F5532B18F553F553F5532B182B18E7
:106088002B182B182B182B182B182B18F553F553E6
:10609800F553F553F553F5532B182B182B182B18CC
:1060A800F553F553FF0063EF8BF000EAD496A8127E
:1060B8002C6E507F41033D87B9FBC5A59BD9E75D91
:1060C80063211F300E4C72C8F6B48A744A08368CA5
:1060D800B2F0CEE1DF9DA31927655B3B054779C385
:1060E800FDBF81AE90D2EC56682A14B38DCFF14B28
:1060F80075370926185A64DEE0A29CFCC280BE04EB
:106108003A78466957152B91AFEDD32D13516FD5BA
:10611800EBA997B886C4FA407E3C02625C1E209ABE
:10612800A4E6D8F7C98BB50F31734D5866241AA069
:106138009EDCE2CDF3B18F350B497717296B55EF0C
:10614800D193AD82BCFEC07A440638C6F8BA843E04
:1061580000427C536D2F11AB95D7E989B7F5CB7108
:106168004F0D331C22605EE4DA98A6013F7D43F9A7
:10617800C785BB94AAE8D66C52102E4E70320CB666
:1061880088CAF4DBE5A799231D5F619FA1E3DD675A
:10619800591B250A347648F2CC8EB0D0EEAC922842
:1061A80016546A457B3907BD83C1FF00C201000050
:1061B800E1000000960000004B0000802500000070
:1061C80000003F000000BF8A15A0418200010103C2
:1061D800060240000800155235BB8FAA2A3E8EBE23
:1061E800BF350072313F080E3BAAB83F2C636E746E
:1061F800303A256C6C752C636E74313A256C6C756D
:106208002C636E74323A256C6C752C636E74333A59
:10621800256C6C752C636E74343A256C6C752C6324
:106228006E74353A256C6C752C636E74363A256C31
:106238006C752C636E74373A256C6C750069643A1A
:1062480025732C747970653A25732C766572736999
:106258006F6E3A257328257329002C7077723A25BA
:10626800642E253032642C7077724F75743A256429
:106278002E25303264002C616463303A25642E2563
:106288003032642C616463313A25642E25303264DF
:106298000069643A25732C6D73673A6261644372CE
:1062A80063002C6372633A253032780D0A004A7510
:1062B8006C20313720323032360069643A25732C2D
:1062C80064693A2564006E65774964353035303A3B
:1062D800006D73673A636F6E666967006D73673A3E
:1062E800737461747573002C74303A25642E2564B8
:1062F800002C74313A25642E2564002C74323A251A
:10630800642E2564002C72683A25642E2564006387
:106318006D643A726573657400494E46494E495436
:106328005900696E66696E69747900736574436EA5
:1063380074303A00736574436E74313A007365744F
:10634800436E74323A00736574436E74333A007363
:106358006574436E74343A00736574436E74353AE9
:1063680000736574436E74363A00736574436E74D3
:10637800373A006D73673A64617461002C62746E19
:10638800323A2564002C62746E333A2564002C621C
:10639800746E4C3A25640069643A616C6C2C002C6C
:1063A800636F323A2564002C766F633A2564002CBB
:1063B80062746E3A256400286E756C6C29006E65EF
:1063C8007749643A00526F6F6D494F002C200D0ACF
:1063D8000900646163303A00646163313A006964BA
:1063E8003A2573004E414E00696E66006E616E007C
:1063F800302E350069643A00646F3A00616C6C00B5
:016408000093
:10640A00000E0001C16F000EC06FB651B711D8B4AB
:10641A0011EF32F013EF32F023EF32F06000DBF2CB
:10642A00D9FF6000DFF2DAFF6000D3F2DEFF60001E
:10643A00D7F2DDFF23EF32F0B44BB52B6000D3F275
:10644A00D9FF6000D7F2DAFF200EDE18D8B430EF99
:10645A0032F033EF32F0010E34EF32F0000EC66F35
:10646A00C76BC651C711D8A43DEF32F03FEF32F0E7
:10647A0021EF32F06000D3F2D9FF6000D7F2DAFFE1
:10648A00DF50B86FB851C66FC76BC6C0B9F0F70E08
:10649A00B927040EB96554EF32F056EF32F021EF06
:1064AA0032F0C36B2D0EC619C711D8A45FEF32F0B4
:1064BA0061EF32F067EF32F0010EC36FB44BB52BC8
:1064CA0073EF32F02B0EC619C711D8A46FEF32F052
:1064DA0071EF32F073EF32F063EF32F0CC6B77EF9B
:1064EA0032F0CC2BCC51B425D96E000EB521DA6E20
:1064FA00DF50D8B483EF32F085EF32F0BBEF32F0E1
:10650A00CC51B425D96E000EB521DA6EDF50B86FC2
:10651A002A0ECC25F66EF76A630EF722F86A000E89
:10652A00F8220800F550B819D8B49EEF32F0A0EF5F
:10653A0032F076EF32F0CC51B425D96E000EB52187
:10654A00DA6EDF50B86F210ECC25F66EF76A630E4D
:10655A00F722F86A000EF8220800F550B819D8B4E4
:10656A00B9EF32F0BBEF32F076EF32F0020ECC65C3
:10657A00C1EF32F0C3EF32F0F3EF32F0000EC86F22
:10658A00000EC96F800ECA6F7F0ECB6FB651B7115E
:10659A00D8B4D2EF32F0D4EF32F046EF3AF0080E28
:1065AA00CC19D8B4DBEF32F0DDEF32F0DFEF32F0A6
:1065BA00030ECC6FCC51B425B86F000EB521B96F5C
:1065CA006000DBF2D9FF6000DFF2DAFF6000E3F27D
:1065DA00DEFF6000E7F2DDFF46EF3AF0CC6BF7EF43
:1065EA0032F0CC2BCC51B425D96E000EB521DA6E1F
:1065FA00DF50D8B403EF33F005EF33F03BEF33F05D
:10660A00CC51B425D96E000EB521DA6EDF50B86FC1
:10661A00F40ECC25F66EF76A630EF722F86A000EBE
:10662A00F8220800F550B819D8B41EEF33F020EF5D
:10663A0033F0F6EF32F0CC51B425D96E000EB52105
:10664A00DA6EDF50B86FEC0ECC25F66EF76A630E81
:10665A00F722F86A000EF8220800F550B819D8B4E3
:10666A0039EF33F03BEF33F0F6EF32F0030ECC198B
:10667A00D8A442EF33F044EF33F0B8EF33F0D90E39
:10668A00136E630E146E16ECA6F013C0C8F014C095
:10669A00C9F015C0CAF016C0CBF00001B651B71147
:1066AA00D8B45AEF33F05CEF33F046EF3AF0CC51FE
:1066BA00B427000EB5236000D3F2D9FF6000D7F2E9
:1066CA00DAFF280EDE18D8A46DEF33F06FEF33F03F
:1066DA00AAEF33F0CC6B73EF33F0CC2BCC51B4254B
:1066EA00D96E000EB521DA6EDF50D8B47FEF33F0E1
:1066FA0081EF33F090EF33F0CC51B425D96E000E10
:10670A00B521DA6E290EDE18D8A48EEF33F090EF99
:10671A0033F072EF33F0CC51B425D96E000EB521A7
:10672A00DA6E290EDE18D8A49DEF33F09FEF33F00E
:10673A00AAEF33F0CC51B86FB96B010EB827000E2F
:10674A00B923B851B427B951B5236000DBF2D9FF98
:10675A006000DFF2DAFF6000D3F2DEFF6000D7F2FA
:10676A00DDFF46EF3AF0000EC76F000EC66F000E4F
:10677A00C86F000EC96F000ECA6F000ECB6FBE6BDA
:10678A00BF6B000EC56F000EC46FCC6BCEEF33F03B
:10679A00CC2BCC51B425D96E000EB521DA6E300E51
:1067AA00DE18D8B4DBEF33F0DDEF33F0CDEF33F0A2
:1067BA00CC51D8B4E3EF33F0E5EF33F09AEF37F08A
:1067CA00CC51B425D96E000EB521DA6E780EDE18DA
:1067DA00D8B4F2EF33F0F4EF33F003EF34F0CC51E6
:1067EA00B425D96E000EB521DA6E580EDE18D8A47B
:1067FA0001EF34F003EF34F09AEF37F0CC51B425BF
:10680A00B86F000EB521B96F010EB825D96E000E0A
:10681A00B921DA6EDF50BA6FBA51136E146AE2EC1C
:10682A00A0F013501410D8A41DEF34F01FEF34F069
:10683A0037EF34F00001CC51B425B86F000EB52102
:10684A00B96F010EB825D96E000EB921DA6E2E0E77
:10685A00DE18D8B433EF34F035EF34F037EF34F0D4
:10686A00B9EF36F0CCC0BEF00001CC2BCC51B42528
:10687A00D96E000EB521DA6E300EDE18D8B448EFA4
:10688A0034F04AEF34F039EF34F0CC51B425D96EF4
:10689A00000EB521DA6E700EDE18D8B457EF34F058
:1068AA0059EF34F0CEEF35F0CC51B425D96E000E45
:1068BA00B521DA6E500EDE18D8A466EF34F068EF10
:1068CA0034F06AEF34F0CEEF35F0CC51B425D96EFE
:1068DA00000EB521DA6E2E0EDE18D8A477EF34F04A
:1068EA0079EF34F07FEF34F0C389CCC0BFF0CC2B02
:1068FA00CEEF35F0CC51B425D96E000EB521DA6E43
:10690A00DF50B86FB851136E146AE2ECA0F013505E
:10691A001410D8B493EF34F095EF34F0B9EF36F0A1
:10692A000001C26BCC51B425D96E000EB521DA6EC6
:10693A00DF50B86FB851136E146A72ECA5F0135099
:10694A001410D8B4ABEF34F0ADEF34F0B9EF34F043
:10695A000001CC51B425D96E000EB521DA6EDF5094
:10696A00D00FC26FCBEF34F00001CC51B425D96EF1
:10697A00000EB521DA6EDF50B86FB851136E146A83
:10698A005BECA5F01350C90F0001C26FC7BFD9EF66
:10699A0034F0C75107E1080EC65DD8B0D7EF34F01E
:1069AA00D9EF34F0F8EF34F0C6510708B86FD89031
:1069BA00B837D890B837C2C0B9F0BA6BBB6BBC6BEA
:1069CA00B82BEDEF34F0D890B937BA37BB37BC37AC
:1069DA00B82FE8EF34F0B951C813BA51C913BB51F3
:1069EA00CA13BC51CB13C64BC72B040EC427000EC7
:1069FA00C523CC2B4AEF34F0CC51B425D96E000E06
:106A0A00B521DA6E300EDE18D8A40EEF35F010EF8D
:106A1A0035F01FEF35F0C651C711D8A417EF35F07E
:106A2A0019EF35F01FEF35F0FC0EC427FF0EC52312
:106A3A00CDEF35F0CC51B425D96E000EB521DA6E02
:106A4A00DF50B86FB851136E146AE2ECA0F013501D
:106A5A001410D8B433EF35F035EF35F09CEF35F03C
:106A6A000001C26BCC51B425D96E000EB521DA6E85
:106A7A00DF50B86FB851136E146A72ECA5F0135058
:106A8A001410D8B44BEF35F04DEF35F059EF35F01F
:106A9A000001CC51B425D96E000EB521DA6EDF5053
:106AAA00D00FC26F6BEF35F00001CC51B425D96E0F
:106ABA00000EB521DA6EDF50B86FB851136E146A42
:106ACA005BECA5F01350C90F0001C26FC7BF79EF85
:106ADA0035F0C75107E1080EC65DD8B077EF35F03B
:106AEA0079EF35F098EF35F0C6510708B86FD890AE
:106AFA00B837D890B837C2C0B9F0BA6BBB6BBC6BA9
:106B0A00B82B8DEF35F0D890B937BA37BB37BC37C9
:106B1A00B82F88EF35F0B951C813BA51C913BB5110
:106B2A00CA13BC51CB13C64BC72BCDEF35F00001AE
:106B3A00CC51B86FB96BBF51BA6FBB6B010EBA2794
:106B4A00000EBB23B851BA1907E1B951BB19D8A431
:106B5A00B1EF35F0B3EF35F0D5EF35F0BF51B86F7F
:106B6A00B96BBE51BA6FBB6B010EBA27000EBB23BD
:106B7A00B851BA1907E1B951BB19D8A4C7EF35F012
:106B8A00C9EF35F0D5EF35F0BEC0CCF0B9EF36F02D
:106B9A00CC2BC3B9D3EF35F0D5EF35F001EF35F093
:106BAA00CC51B427000EB523CC6B6000D3F2D9FFC9
:106BBA006000D7F2DAFF700EDE18D8B4E7EF35F0CE
:106BCA00E9EF35F0FAEF35F06000D3F2D9FF600053
:106BDA00D7F2DAFF500EDE18D8B4F6EF35F0F8EF38
:106BEA0035F0FAEF35F0B9EF36F0CC2B20EE01F0A4
:106BFA00B451D926B551DA222B0EDE18D8A408EFE3
:106C0A0036F00AEF36F00DEF36F0CC2B1EEF36F0E9
:106C1A0020EE01F0B451D926B551DA222D0EDE1834
:106C2A00D8A41AEF36F01CEF36F01EEF36F0C38701
:106C3A00CC2BCC51B425D96E000EB521DA6EDF50BB
:106C4A00B86FB851136E146A72ECA5F01350141091
:106C5A00D8A432EF36F034EF36F038EF36F00001D0
:106C6A00CC6BB9EF36F00001CC51B427000EB52336
:106C7A00CC6B41EF36F0CC2BCC51B425D96E000E3B
:106C8A00B521DA6E300EDE18D8B44EEF36F050EF7A
:106C9A0036F040EF36F0000EC76F000EC66F81EF78
:106CAA0036F00001CC51D8B45DEF36F05FEF36F024
:106CBA006DEF36F0C6C013F0C7C014F0000E166EA2
:106CCA000A0E156EB4ECA5F013C0C6F014C0C7F0D6
:106CDA000001CC51B425D96E000EB521DA6EDF5011
:106CEA00B86FD00EB825B96FBA6BFF0EBA23B95177
:106CFA00C627BA51C723CC2BCC51B425D96E000E66
:106D0A00B521DA6EDF50B86FB851136E146A72EC9F
:106D1A00A5F013501410D8A495EF36F097EF36F07B
:106D2A0056EF36F00001CC51D8A49EEF36F0A0EF12
:106D3A0036F0AAEF36F0000EB46F000EB56F000EF3
:106D4A00B66F000EB76F7DEF3AF0C3A7AFEF36F01C
:106D5A00B1EF36F0B5EF36F0C66DC71FD8B0C72B06
:106D6A00C651C427C751C5230001B651B711D8B4BB
:106D7A00C1EF36F0C3EF36F0D5EF36F0CC51B4257B
:106D8A00B86F000EB521B96F6000DBF2D9FF600061
:106D9A00DFF2DAFF6000E3F2DEFF6000E7F2DDFF18
:106DAA00C851C911CA11CB11D8A4DEEF36F0E0EFF1
:106DBA0036F0EAEF36F0000EB46F000EB56F000E33
:106DCA00B66F000EB76F7DEF3AF0FF0EC815B86FB9
:106DDA00000EC915B96F000ECA15BA6F000ECB1591
:106DEA00BB6FBB51BA11B91109E1810EB85DD8A0C8
:106DFA0001EF37F003EF37F015EF37F0000EC82731
:106E0A00010EC923000ECA23000ECB2315EF37F05B
:106E1A00D890C837C937CA37CB37C407D8A0C507EF
:106E2A00CBAF1AEF37F01CEF37F00DEF37F0C5AFE5
:106E3A0028EF37F0830EC45DFF0EC559D8B028EF8E
:106E4A0037F02AEF37F036EF37F0FF0EC56F810EB5
:106E5A00C46F000EC86F000EC96F000ECA6F000E15
:106E6A00CB6F810EC41908E1C529D8B43FEF37F0BA
:106E7A0041EF37F049EF37F0D890C837C937CA37EA
:106E8A00CB37C407D8A0C507C5BF55EF37F0C551E2
:106E9A0009E1800EC45DD8A055EF37F057EF37F0FF
:106EAA0069EF37F0000EC86F000EC96F000ECA6F87
:106EBA00000ECB6F000EC56F800EC46F000EC16F3F
:106ECA00220EC06F46EF3AF0090EB86FD890CB3356
:106EDA00CA33C933C833B82F6BEF37F0FF0EC81760
:106EEA00FF0EC9177F0ECA17000ECB177F0EC425D7
:106EFA00B86F000EC521B96FFF0EB815BA6FBB6B1C
:106F0A00BC6BBD6B170ED890BA37BB37BC37BD37D1
:106F1A00E82E88EF37F0BA51C813BB51C913BC51D8
:106F2A00CA13BD51CB1346EF3AF0C3B99FEF37F0FE
:106F3A00A1EF37F0B5EF37F06000D3F2D9FF600068
:106F4A00D7F2DAFF2E0EDE18D8A4AEEF37F0B0EF84
:106F5A0037F0B5EF37F0C389B44BB52B9AEF37F05A
:106F6A006000D3F2D9FF6000D7F2DAFFDF50B86FC2
:106F7A00B851136E146A72ECA5F013501410D8A409
:106F8A00C9EF37F0CBEF37F0CDEF37F01FEF38F01E
:106F9A000001C383090EC619C711D8B4D7EF37F059
:106FAA00D9EF37F012EF38F0C3A9DEEF37F0E0EF90
:106FBA0037F0E3EF37F0C407D8A0C507C64BC72B95
:106FCA00C8C01BF0C9C01CF0CAC01DF0CBC01EF05F
:106FDA000A0E1F6E000E206E000E216E000E226E2B
:106FEA003AEC9EF01BC0C8F01CC0C9F01DC0CAF024
:106FFA001EC0CBF06000D3F2D9FF6000D7F2DAFFEF
:10700A00DF500001B86FD00EB827B851C827000E5C
:10701A00C923CA23CB231BEF38F0C3B917EF38F0C3
:10702A0019EF38F01BEF38F0C44BC52BB44BB52B16
:10703A009AEF37F0000E0001C76F000EC66F6000AE
:10704A00D3F2D9FF6000D7F2DAFF650EDE18D8B4A2
:10705A0031EF38F033EF38F042EF38F06000D3F216
:10706A00D9FF6000D7F2DAFF450EDE18D8A440EF48
:10707A0038F042EF38F0D6EF38F0B44BB52B600059
:10708A00D3F2D9FF6000D7F2DAFF2D0EDE18D8A4AA
:10709A0051EF38F053EF38F058EF38F0C387B44B5C
:1070AA00B52B69EF38F06000D3F2D9FF6000D7F250
:1070BA00DAFF2B0EDE18D8A465EF38F067EF38F048
:1070CA0069EF38F0B44BB52B6000D3F2D9FF6000FA
:1070DA00D7F2DAFF300EDE18D8B476EF38F078EF50
:1070EA0038F067EF38F0C26B9AEF38F06000D3F2ED
:1070FA00D9FF6000D7F2DAFFDF500001B86FD00E77
:10710A00B8270A0EC6036F00CCFFB9F06F00D0FF94
:10711A00BAF0C703F350BA27B851B925C66F000EA3
:10712A00BA21C76FB44BB52BC22B6000D3F2D9FF7B
:10713A006000D7F2DAFFDF50B86FB851136E146AE5
:10714A0072ECA5F013501410D8A4AEEF38F0B0EFDB
:10715A0038F07BEF38F00001C251D8A4B7EF38F00D
:10716A00B9EF38F0CBEF38F02FEEFFF3B451D92650
:10717A00B551DA22300EDE18D8B4C6EF38F0C8EFAF
:10718A0038F0CBEF38F0B407D8A0B507C3A7D0EFD3
:10719A0038F0D2EF38F0D6EF38F0C66DC71FD8B046
:1071AA00C72BC651C427C751C523B651B711D8B486
:1071BA00E1EF38F0E3EF38F0F6EF38F0C3A3E8EF89
:1071CA0038F0EAEF38F0F6EF38F06000DBF2D9FF7A
:1071DA006000DFF2DAFF6000D3F2DEFF6000D7F270
:1071EA00DDFFC8C035F0C9C036F0CAC037F0CBC021
:1071FA0038F0000ED9EC7FF035C0C8F036C0C9F0BF
:10720A0037C0CAF038C0CBF0C8C013F0C9C014F0F8
:10721A00CAC015F0CBC016F0000E176E000E186E1D
:10722A00000E196E000E1A6E15EC96F0D8A020EF1B
:10723A0039F022EF39F02DEF39F0000E0001B46F6A
:10724A00000EB56F000EB66F000EB76F7DEF3AF005
:10725A000001C5BF35EF39F033EF39F0C6EF39F029
:10726A00C46DC51FD8B0C52B5AEF39F0C8C09BF002
:10727A00C9C09CF0CAC09DF0CBC09EF0F90E9F6FAA
:10728A00020EA06F150EA16F500EA26F8EEC71F058
:10729A009BC0C8F09CC0C9F09DC0CAF09EC0CBF08C
:1072AA000001F60EC427FF0EC523C5BF68EF39F0EB
:1072BA00C55107E10A0EC45DD8B066EF39F068EF30
:1072CA0039F03BEF39F088EF39F0C8C09BF0C9C0FC
:1072DA009CF0CAC09DF0CBC09EF0000E9F6F000EBE
:1072EA00A06F200EA16F410EA26F8EEC71F09BC0B1
:1072FA00C8F09CC0C9F09DC0CAF09EC0CBF0000186
:10730A00C407D8A0C507C451C511D8A48FEF39F056
:10731A0091EF39F06AEF39F0C8C013F0C9C014F020
:10732A00CAC015F0CBC016F0000E176E000E186E0C
:10733A00800E196E000E1A6E11EC8EF0D8B0A8EFFE
:10734A0039F0AAEF39F046EF3AF00001C3A1B0EFE5
:10735A0039F0B2EF39F0BCEF39F0000EB46F000E1D
:10736A00B56F800EB66F800EB76F7DEF3AF0000EE4
:10737A00B46F000EB56F800EB66F000EB76F7DEF5B
:10738A003AF0C5BFD1EF39F0C55108E1C405D8A01C
:10739A00D1EF39F0D3EF39F046EF3AF0F4EF39F0A4
:1073AA00C8C082F0C9C083F0CAC084F0CBC085F0DF
:1073BA00F90E866F020E876F150E886F500E896F51
:1073CA00A0EC61F082C0C8F083C0C9F084C0CAF0E2
:1073DA0085C0CBF00001F60EC427FF0EC523C551A8
:1073EA0007E10A0EC45DD8B0FDEF39F0FFEF39F0BE
:1073FA00D5EF39F01FEF3AF0C8C082F0C9C083F068
:10740A00CAC084F0CBC085F0000E866F000E876F6D
:10741A00200E886F410E896FA0EC61F082C0C8F01F
:10742A0083C0C9F084C0CAF085C0CBF00001C4078C
:10743A00D8A0C507C451C511D8A426EF3AF028EF41
:10744A003AF001EF3AF0FF0E136EFF0E146E7F0E44
:10745A00156E7F0E166EC8C017F0C9C018F0CAC0E4
:10746A0019F0CBC01AF011EC8EF0D8B03FEF3AF019
:10747A0041EF3AF046EF3AF0000E0001C16F220EDA
:10748A00C06F0001C051C111D8B44EEF3AF050EFAD
:10749A003AF05CEF3AF0C0C054F1C1C055F1000EA9
:1074AA00C86F000EC96F800ECA6F7F0ECB6FC3A163
:1074BA0061EF3AF063EF3AF075EF3AF0C8C013F0B3
:1074CA00C9C014F0CAC015F0CBC016F0EFECA4F096
:1074DA0013C0C8F014C0C9F015C0CAF016C0CBF06A
:1074EA00C8C0B4F0C9C0B5F0CAC0B6F0CBC0B7F0D6
:1074FA0012000001FD5107E1090EFC5DD8B088EFCA
:10750A003AF08AEF3AF08CEF3AF04AEF40F0010194
:10751A00936B880E136E020E146ED2ECA4F0135005
:10752A000101916F000E136E040E146EFC0E156E9F
:10753A00630E166E000E186E030E176EB6EC84F00C
:10754A0013501410D8A4ACEF3AF0AEEF3AF0D9EFDA
:10755A003AF0030E136E040E146E880E156E020EA8
:10756A00166E91C117F0186AB6EC84F01350141015
:10757A00D8A4C2EF3AF0C4EF3AF0D9EF3AF0030ECA
:10758A0001019125D96EDA6A040EDA222C0EDE1870
:10759A00D8A4D2EF3AF0D4EF3AF0D9EF3AF0010E8C
:1075AA00946FBB9A28EF3BF0000E136E040E146E14
:1075BA009F0E156E630E166E000E186E070E176E6E
:1075CA00B6EC84F013501410D8A4EEEF3AF0F0EFB2
:1075DA003AF04AEF40F0010E0101946FBB9A67C17D
:1075EA00F5F0070E0001F51737ECA7F01350070B5B
:1075FA000001F5250101866F000E8A6F000E896F62
:10760A0013EF3BF0150E0001F56FC60EE82EFED7FC
:10761A00F52FFCD700000101894B8A2B8651000106
:10762A00F56FF66BF5510101895D8A51800A0001F7
:10763A00F76FF651800AF759D8A026EF3BF028EFEA
:10764A003BF007EF3BF037ECA7F013C008F214C089
:10765A0009F215C00AF216C00BF2000E136E040EE0
:10766A00146EF70E0001FC25156EFF0EFD21166E35
:10767A00000E86EC9BF00101876F926BF70E0001FA
:10768A00FC25B26F030EFD21B36FAA0EB46F620E12
:10769A00B56F920EB66F010EB76FAFECA3F0B2C022
:1076AA0084F1B3C085F1010184518511D8B460EF2A
:1076BA003BF062EF3BF06BEF3BF092518719D8B485
:1076CA0069EF3BF06BEF3BF06FEF3BF007EC9AF0A2
:1076DA004AEF40F0010E636F000E1E6E040E1F6E1D
:1076EA00D40E206E630E216EFDEC8FF01EC095F154
:1076FA001FC096F116EF40F0FC0E136E630E146E67
:10770A0095C115F096C116F0000E186E030E176E8D
:10771A00B6EC84F013501410D8A496EF3BF098EF0F
:10772A003BF006EF3CF0030E01019525136E000EA7
:10773A009621146E880E156E020E166EFFEC93F0EB
:10774A0013501410D8A4ACEF3BF0AEEF3BF0B6EFF9
:10775A003BF0010E0101946FBB9A08EF40F008EF6D
:10776A0040F0030E01019525136E000E9621146E4A
:10777A00040E156E640E166EFFEC93F0135014107F
:10778A00D8A4CAEF3BF0CCEF3BF02EEF40F0010E4D
:10779A000101946F67C1F5F0070E0001F51737EC88
:1077AA00A7F01350070B0001F5250101886F000EA1
:1077BA008C6F000E8B6FEEEF3BF0150E0001F56F2C
:1077CA00C60EE82EFED7F52FFCD7000001018B4B21
:1077DA008C2B88510001F56FF66BF55101018B5D19
:1077EA008C51800A0001F76FF651800AF759D8A028
:1077FA0001EF3CF003EF3CF0E2EF3BF0BB9A08EFFD
:10780A0040F001019451D8B40DEF3CF00FEF3CF079
:10781A002BEF3CF07B0E136E630E146E95C115F0C0
:10782A0096C116F0000E186E080E176EB6EC84F0AC
:10783A0013501410D8A424EF3CF026EF3CF02BEFA1
:10784A003CF0010E0101936F08EF40F001019451E1
:10785A00D8B432EF3CF034EF3CF050EF3CF0D90EA4
:10786A00136E620E146E95C115F096C116F0000ED5
:10787A00186E0A0E176EB6EC84F013501410D8A4C2
:10788A0049EF3CF04BEF3CF050EF3CF0020E0101A7
:10789A00936F08EF40F001019451D8B457EF3CF0D0
:1078AA0059EF3CF075EF3CF0E40E136E620E146E65
:1078BA0095C115F096C116F0000E186E0A0E176ED5
:1078CA00B6EC84F013501410D8A46EEF3CF070EFAD
:1078DA003CF075EF3CF0030E0101936F08EF40F0A6
:1078EA0001019451D8B47CEF3CF07EEF3CF0A3EF59
:1078FA003CF0000E136E640E146E95C115F096C11D
:10790A0016F0000E186E030E176EB6EC84F01350C4
:10791A001410D8A493EF3CF095EF3CF0A3EF3CF0A1
:10792A00030E01019525136E000E9621146E01ECCB
:10793A007EF01350C1ECA7F008EF40F0010194511A
:10794A00D8B4AAEF3CF0ACEF3CF005EF3DF0DA0E0C
:10795A00136E630E146E95C115F096C116F0000EE3
:10796A00186E050E176EB6EC84F013501410D8A4D6
:10797A00C1EF3CF0C3EF3CF005EF3DF0000E000113
:10798A00B66F000EB76F050E010195250001B46FA1
:10799A00000E010196210001B56F05EC32F0B4C06A
:1079AA008DF1B5C08EF1B6C08FF1B7C090F1000E5F
:1079BA000001866F000E876F7A0E886F440E896FFA
:1079CA008DC182F08EC183F08FC184F090C185F0A1
:1079DA00A0EC61F082C0CDF083C0CEF084C0CFF0BD
:1079EA0085C0D0F08DEC8DF0CDC058F1CEC059F1E4
:1079FA0058C1D9F059C1DAF078EC9CF008EF40F0A0
:107A0A0001019451D8B40CEF3DF00EEF3DF067EF51
:107A1A003DF0E00E136E630E146E95C115F096C11B
:107A2A0016F0000E186E050E176EB6EC84F01350A1
:107A3A001410D8A423EF3DF025EF3DF067EF3DF099
:107A4A00000E0001B66F000EB76F050E01019525F5
:107A5A000001B46F000E010196210001B56F05EC1B
:107A6A0032F0B4C08DF1B5C08EF1B6C08FF1B7C097
:107A7A0090F1000E0001866F000E876F7A0E886FF4
:107A8A00440E896F8DC182F08EC183F08FC184F05C
:107A9A0090C185F0A0EC61F082C0CDF083C0CEF039
:107AAA0084C0CFF085C0D0F08DEC8DF0CDC056F1FA
:107ABA00CEC057F156C1D9F057C1DAF03CEC9CF070
:107ACA0008EF40F001019451D8B46EEF3DF070EF29
:107ADA003DF0A5EF3DF0330E136E630E146E95C1A3
:107AEA0015F096C116F0000E186E080E176EB6EC59
:107AFA0084F013501410D8A485EF3DF087EF3DF0C1
:107B0A00A5EF3DF0080E010195252B6E000E96217A
:107B1A002C6EBBEC77F02BC071F02CC072F02DC02C
:107B2A0073F02EC074F02FC075F030C076F031C0FB
:107B3A0077F032C078F0000E21ECA3F008EF40F0A5
:107B4A0001019451D8B4ACEF3DF0AEEF3DF0E3EF54
:107B5A003DF03C0E136E630E146E95C115F096C17E
:107B6A0016F0000E186E080E176EB6EC84F013505D
:107B7A001410D8A4C3EF3DF0C5EF3DF0E3EF3DF09C
:107B8A00080E010195252B6E000E96212C6EBBEC7A
:107B9A0077F02BC071F02CC072F02DC073F02EC09C
:107BAA0074F02FC075F030C076F031C077F032C073
:107BBA0078F0010E21ECA3F008EF40F00101945196
:107BCA00D8B4EAEF3DF0ECEF3DF021EF3EF0450E80
:107BDA00136E630E146E95C115F096C116F0000E61
:107BEA00186E080E176EB6EC84F013501410D8A451
:107BFA0001EF3EF003EF3EF021EF3EF0080E0101E7
:107C0A0095252B6E000E96212C6EBBEC77F02BC0BF
:107C1A0071F02CC072F02DC073F02EC074F02FC01A
:107C2A0075F030C076F031C077F032C078F0020ECD
:107C3A0021ECA3F008EF40F001019451D8B428EFE9
:107C4A003EF02AEF3EF05FEF3EF04E0E136E630EEB
:107C5A00146E95C115F096C116F0000E186E080E36
:107C6A00176EB6EC84F013501410D8A43FEF3EF010
:107C7A0041EF3EF05FEF3EF0080E010195252B6EB5
:107C8A00000E96212C6EBBEC77F02BC071F02CC045
:107C9A0072F02DC073F02EC074F02FC075F030C092
:107CAA0076F031C077F032C078F0030E21ECA3F001
:107CBA0008EF40F001019451D8B466EF3EF068EF46
:107CCA003EF09DEF3EF0570E136E630E146E95C193
:107CDA0015F096C116F0000E186E080E176EB6EC67
:107CEA0084F013501410D8A47DEF3EF07FEF3EF0DD
:107CFA009DEF3EF0080E010195252B6E000E962190
:107D0A002C6EBBEC77F02BC071F02CC072F02DC03A
:107D1A0073F02EC074F02FC075F030C076F031C009
:107D2A0077F032C078F0040E21ECA3F008EF40F0AF
:107D3A0001019451D8B4A4EF3EF0A6EF3EF0DBEF78
:107D4A003EF0600E136E630E146E95C115F096C167
:107D5A0016F0000E186E080E176EB6EC84F013506B
:107D6A001410D8A4BBEF3EF0BDEF3EF0DBEF3EF0BF
:107D7A00080E010195252B6E000E96212C6EBBEC88
:107D8A0077F02BC071F02CC072F02DC073F02EC0AA
:107D9A0074F02FC075F030C076F031C077F032C081
:107DAA0078F0050E21ECA3F008EF40F001019451A0
:107DBA00D8B4E2EF3EF0E4EF3EF019EF3FF0690E7F
:107DCA00136E630E146E95C115F096C116F0000E6F
:107DDA00186E080E176EB6EC84F013501410D8A45F
:107DEA00F9EF3EF0FBEF3EF019EF3FF0080E01010C
:107DFA0095252B6E000E96212C6EBBEC77F02BC0CE
:107E0A0071F02CC072F02DC073F02EC074F02FC028
:107E1A0075F030C076F031C077F032C078F0060ED7
:107E2A0021ECA3F008EF40F001019451D8B420EFFF
:107E3A003FF022EF3FF057EF3FF0720E136E630EE2
:107E4A00146E95C115F096C116F0000E186E080E44
:107E5A00176EB6EC84F013501410D8A437EF3FF025
:107E6A0039EF3FF057EF3FF0080E010195252B6ED1
:107E7A00000E96212C6EBBEC77F02BC071F02CC053
:107E8A0072F02DC073F02EC074F02FC075F030C0A0
:107E9A0076F031C077F032C078F0070E21ECA3F00B
:107EAA0008EF40F001019451D8B45EEF3FF060EF63
:107EBA003FF083EF3FF0020E9319D8A467EF3FF02B
:107ECA0069EF3FF083EF3FF0170E136E630E146EE7
:107EDA0095C115F096C116F0000E186E090E176EB0
:107EEA00B6EC84F013501410D8A47EEF3FF080EF64
:107EFA003FF083EF3FF0FF0008EF40F0010194519B
:107F0A00D8B48AEF3FF08CEF3FF0C3EF3FF0020E98
:107F1A009319D8A493EF3FF095EF3FF0C3EF3FF0EA
:107F2A00C60E136E630E146E95C115F096C116F047
:107F3A00000E186E060E176EB6EC84F0135014106D
:107F4A00D8A4AAEF3FF0ACEF3FF0C3EF3FF0880EA2
:107F5A00136E020E146E060E01019525156E000EA3
:107F6A009621166E000E186E1F0E176EA6EC98F06C
:107F7A000201A76B45ECA3F008EF40F00101945110
:107F8A00D8B4CAEF3FF0CCEF3FF0B4EF3BF0020EAB
:107F9A009319D8A4D3EF3FF0D5EF3FF0B4EF3BF0FD
:107FAA00CE0E136E620E146E95C115F096C116F0C0
:107FBA00000E186E0A0E176EB6EC84F013501410E9
:107FCA00D8A4EAEF3FF0ECEF3FF0B4EF3BF037EC28
:107FDA00A7F013A0F3EF3FF0F5EF3FF0B4EF3BF05B
:107FEA00880E136E020E146E0A0E01019525156E87
:107FFA00000E9621166E000E186E1F0E176EA6EC56
:10800A0098F0BDEF3FF0000E1E6E000E1F6ED40EEC
:10801A00206E630E216EFDEC8FF01EC095F11FC01D
:10802A0096F1010195519611D8A41EEF40F020EF68
:10803A0040F081EF3BF02EEF40F000EC9CF049EF6E
:10804A0040F09DECA6F049EF40F0EEEC98F049EFD5
:10805A0040F0010193510001F56FF66BF651000AE9
:10806A00D8B43AEF40F049EF40F0F551010AD8B4DC
:10807A0022EF40F0030AD8B42AEF40F0010AD8B43C
:10808A0026EF40F049EF40F0BB8A1200000E0001D3
:10809A007A6FFE0E7B6FFF0E7C6F460E7D6F20EEB1
:1080AA0002F0EB51D926EC51DA226F0078FF7EF00C
:1080BA006F0078FF7FF06F0078FF80F06F0078FF25
:1080CA0081F0FDECA2F07AC0CDF17BC0CEF17CC08C
:1080DA00CFF17DC0D0F1000120EE5FF0EB51D9263F
:1080EA00EC51DA226F0078FF13F06F0078FF14F07A
:1080FA006F0078FF15F06F0078FF16F0CDC117F00A
:10810A00CEC118F0CFC119F0D0C11AF011EC8EF01F
:10811A00D8B092EF40F094EF40F0CEEF40F000017B
:10812A0020EE5FF0EB51D926EC51DA226F0078FF8E
:10813A006AF06F0078FF6BF06F0078FF6CF06F00E9
:10814A0078FF6DF020EE02F0EB51D926EC51DA22DD
:10815A006F0078FF6EF06F0078FF6FF06F0078FFA6
:10816A0070F06F0078FF71F044EC5FF0000120EED0
:10817A005FF0EB51D926EC51DA226000ABF1DEFF59
:10818A006000AFF1DEFF6000B3F1DEFF6000B7F11F
:10819A00DEFF000120EE63F0EB51D926EC51DA2222
:1081AA006F0078FF13F06F0078FF14F06F0078FF0C
:1081BA0015F06F0078FF16F0CDC117F0CEC118F098
:1081CA00CFC119F0D0C11AF011EC8EF0D8B0F0EF8F
:1081DA0040F0F2EF40F02CEF41F0000120EE63F0A6
:1081EA00EB51D926EC51DA226F0078FF6AF06F0062
:1081FA0078FF6BF06F0078FF6CF06F0078FF6DF01E
:10820A0020EE02F0EB51D926EC51DA226F0078FF0A
:10821A006EF06F0078FF6FF06F0078FF70F06F00FC
:10822A0078FF71F044EC5FF0000120EE63F0EB514F
:10823A00D926EC51DA226000ABF1DEFF6000AFF123
:10824A00DEFF6000B3F1DEFF6000B7F1DEFFEBC0D6
:10825A0013F0ECC014F0000120EE12F0EB51D92615
:10826A00EC51DA226F0078FF15F06F0078FF16F0F4
:10827A006F0078FF17F06F0078FF18F00A0E196E7A
:10828A00D70E1A6E230E1B6E3C0E1C6EF7ECA1F075
:10829A00EBC0DDF0ECC0DEF0000120EE5FF0EB5148
:1082AA00D926EC51DA226F0078FFDFF06F0078FFF1
:1082BA00E0F06F0078FFE1F06F0078FFE2F05EEC2B
:1082CA0082F0DDC0D1F1DEC0D2F1DFC0D3F1E0C06F
:1082DA00D4F1D1C186F0D2C187F0D3C188F0D4C11C
:1082EA0089F0000120EE47F0EB51D926EC51DA2251
:1082FA006F0078FF7EF06F0078FF7FF06F0078FFE5
:10830A0080F06F0078FF81F020EE4FF0EB51D92614
:10831A00EC51DA226F0078FF7AF06F0078FF7BF079
:10832A006F0078FF7CF06F0078FF7DF0FDECA2F023
:10833A007AC082F07BC083F07CC084F07DC085F077
:10834A00A0EC61F082C0E1F183C0E2F184C0E3F104
:10835A0085C0E4F1E1C16AF0E2C16BF0E3C16CF0FF
:10836A00E4C16DF0000120EE47F0EB51D926EC5143
:10837A00DA226F0078FF6EF06F0078FF6FF06F00FF
:10838A0078FF70F06F0078FF71F044EC5FF06AC01C
:10839A00B1F16BC0B2F16CC0B3F16DC0B4F10001C0
:1083AA0020EE63F0EB51D926EC51DA226F0078FF08
:1083BA00DFF06F0078FFE0F06F0078FFE1F06F0008
:1083CA0078FFE2F0EBC0DDF0ECC0DEF05EEC82F0AC
:1083DA00DDC0D9F1DEC0DAF1DFC0DBF1E0C0DCF1EB
:1083EA00D9C186F0DAC187F0DBC188F0DCC189F037
:1083FA00000120EE1AF0EB51D926EC51DA226F0077
:10840A0078FF7EF06F0078FF7FF06F0078FF80F0D2
:10841A006F0078FF81F0000E7A6F000E7B6FFF0EFF
:10842A007C6F430E7D6FFDECA2F07AC082F07BC0B8
:10843A0083F07CC084F07DC085F0A0EC61F082C03E
:10844A00DDF183C0DEF184C0DFF185C0E0F1DDC17A
:10845A006AF0DEC16BF0DFC16CF0E0C16DF00001C3
:10846A0020EE1AF0EB51D926EC51DA226F0078FF90
:10847A006EF06F0078FF6FF06F0078FF70F06F009A
:10848A0078FF71F044EC5FF06AC0B5F16BC0B6F1E9
:10849A006CC0B7F16DC0B8F1EBC013F0ECC014F0CA
:1084AA00B5C115F0B6C116F0B7C117F0B8C118F0CA
:1084BA00EC0E196E510E1A6EB80E1B6E3D0E1C6E26
:1084CA00F7ECA1F0EBC0DDF0ECC0DEF0000120EE2D
:1084DA0036F0EB51D926EC51DA226F0078FFDFF043
:1084EA006F0078FFE0F06F0078FFE1F06F0078FF2F
:1084FA00E2F05EEC82F0DDC0D5F1DEC0D6F1DFC07D
:10850A00D7F1E0C0D8F1D5C182F0D6C183F0D7C186
:10851A0084F0D8C185F0B1C186F0B2C187F0B3C189
:10852A0088F0B4C189F0A0EC61F0000120EE57F0A8
:10853A00EB51D926EC51DA2260000BF2DEFF600023
:10854A000FF2DEFF600013F2DEFF600017F2DEFFBB
:10855A00EBC013F0ECC014F020EE16F0EB51D92664
:10856A00EC51DA226F0078FF15F06F0078FF16F0F1
:10857A006F0078FF17F06F0078FF18F00A0E196E77
:10858A00D70E1A6E230E1B6E3C0E1C6EF7ECA1F072
:10859A00EBC0DDF0ECC0DEF0000120EE5FF0EB5145
:1085AA00D926EC51DA226F0078FFDFF06F0078FFEE
:1085BA00E0F06F0078FFE1F06F0078FFE2F05EEC28
:1085CA0082F0DDC0B9F1DEC0BAF1DFC0BBF1E0C0B4
:1085DA00BCF1D1C17EF0D2C17FF0D3C180F0D4C149
:1085EA0081F0B9C17AF0BAC17BF0BBC17CF0BCC1E1
:1085FA007DF0FDECA2F07AC086F07BC087F07CC0EB
:10860A0088F07DC089F0000120EE4BF0EB51D926AD
:10861A00EC51DA226F0078FF7EF06F0078FF7FF06E
:10862A006F0078FF80F06F0078FF81F020EE53F042
:10863A00EB51D926EC51DA226F0078FF7AF06F00FD
:10864A0078FF7BF06F0078FF7CF06F0078FF7DF099
:10865A00FDECA2F07AC082F07BC083F07CC084F08B
:10866A007DC085F0A0EC61F082C0E1F183C0E2F147
:10867A0084C0E3F185C0E4F1E1C16AF0E2C16BF0C4
:10868A00E3C16CF0E4C16DF0000120EE4BF0EB5158
:10869A00D926EC51DA226F0078FF6EF06F0078FF6E
:1086AA006FF06F0078FF70F06F0078FF71F044ECA4
:1086BA005FF06AC0BDF16BC0BEF16CC0BFF16DC0A6
:1086CA00C0F1000120EE63F0EB51D926EC51DA2219
:1086DA006F0078FFDFF06F0078FFE0F06F0078FF3F
:1086EA00E1F06F0078FFE2F0EBC0DDF0ECC0DEF005
:1086FA005EEC82F0DDC0D9F1DEC0DAF1DFC0DBF179
:10870A00E0C0DCF1D9C186F0DAC187F0DBC188F0BC
:10871A00DCC189F0000120EE1AF0EB51D926EC51A8
:10872A00DA226F0078FF7EF06F0078FF7FF06F002B
:10873A0078FF80F06F0078FF81F0000E7A6F000EEC
:10874A007B6FFF0E7C6F430E7D6FFDECA2F07AC04B
:10875A0082F07BC083F07CC084F07DC085F0A0EC01
:10876A0061F082C0DDF183C0DEF184C0DFF185C033
:10877A00E0F1DDC16AF0DEC16BF0DFC16CF0E0C18F
:10878A006DF0000120EE1AF0EB51D926EC51DA22F5
:10879A006F0078FF6EF06F0078FF6FF06F0078FF60
:1087AA0070F06F0078FF71F044EC5FF06AC0C1F1BD
:1087BA006BC0C2F16CC0C3F16DC0C4F1EBC013F061
:1087CA00ECC014F0C1C115F0C2C116F0C3C117F054
:1087DA00C4C118F0EC0E196E510E1A6EB80E1B6E4B
:1087EA003D0E1C6EF7ECA1F0EBC0DDF0ECC0DEF044
:1087FA00000120EE36F0EB51D926EC51DA226F0057
:10880A0078FFDFF06F0078FFE0F06F0078FFE1F0AB
:10881A006F0078FFE2F05EEC82F0DDC0C5F1DEC0E9
:10882A00C6F1DFC0C7F1E0C0C8F1C5C182F0C6C158
:10883A0083F0C7C184F0C8C185F0BDC186F0BEC14E
:10884A0087F0BFC188F0C0C189F0A0EC61F00001D7
:10885A0020EE5BF0EB51D926EC51DA2260000BF2E4
:10886A00DEFF60000FF2DEFF600013F2DEFF600041
:10887A0017F2DEFF660E866F660E876FA60E886F8A
:10888A003F0E896FD5C17EF0D6C17FF0D7C180F087
:10889A00D8C181F0000E7A6F000E7B6F800E7C6F5C
:1088AA003F0E7D6FFDECA2F07AC082F07BC083F0B0
:1088BA007CC084F07DC085F0A0EC61F082C0E1F15B
:1088CA0083C0E2F184C0E3F185C0E4F1000E000147
:1088DA009F6F000EA06F700EA16F420EA26F20EE66
:1088EA0002F0EB51D926EC51DA226F0078FF9BF0A7
:1088FA006F0078FF9CF06F0078FF9DF06F0078FFA3
:10890A009EF08EEC71F09BC086F09CC087F09DC0F3
:10891A0088F09EC089F09A0E00016E6F990E6F6FF3
:10892A00990E706FBE0E716FE1C16AF0E2C16BF011
:10893A00E3C16CF0E4C16DF044EC5FF06AC082F010
:10894A006BC083F06CC084F06DC085F0A0EC61F060
:10895A0082C0C9F183C0CAF184C0CBF185C0CCF111
:10896A00C9C16AF0CAC16BF0CBC16CF0CCC16DF061
:10897A00000120EE67F0EB51D926EC51DA226F00A4
:10898A0078FF6EF06F0078FF6FF06F0078FF70F07D
:10899A006F0078FF71F044EC5FF0000120EE67F0A1
:1089AA00EB51D926EC51DA226000ABF1DEFF600010
:1089BA00AFF1DEFF6000B3F1DEFF6000B7F1DEFF6A
:1089CA0020EE67F0EB51D926EC51DA22030EDBBE1A
:1089DA00F3EF44F0F1EF44F001EF45F020EE67F0D9
:1089EA00EB51D926EC51DA22000EDE6E000EDE6E55
:1089FA00000EDE6E000EDD6E20EE0EF0EB51D92673
:108A0A00EC51DA226F0078FF13F06F0078FF14F050
:108A1A006F0078FF15F06F0078FF16F020EE67F010
:108A2A00EB51D926EC51DA226F0078FF17F06F006C
:108A3A0078FF18F06F0078FF19F06F0078FF1AF0CE
:108A4A0011EC8EF0D8B02CEF45F02EEF45F03DEF4B
:108A5A0045F0000120EE63F0EB51D926EC51DA2201
:108A6A00000EDE6E000EDE6E000EDE6E000EDD6E95
:108A7A001200010120EE3AF0E551D926E651DA2238
:108A8A00DF50D8A44BEF45F04DEF45F077EF45F0B6
:108A9A0020EE3AF0E551D926E651DA22010EDF6ED0
:108AAA0020EE3FF0E551D926E651DA2260009FF721
:108ABA00DEFF6000A3F7DEFF6000A7F7DEFF6000BD
:108ACA00ABF7DEFF20EE3BF0E551D926E651DA227C
:108ADA00000EDE6E000EDE6E000EDE6E000EDD6E25
:108AEA00ABEF48F020EE3BF0E551D926E651DA2209
:108AFA006F0078FF13F06F0078FF14F06F0078FFB3
:108B0A0015F06F0078FF16F0000E176E000E186E43
:108B1A00C80E196E420E1A6E11EC8EF0D8B098EF8C
:108B2A0045F09AEF45F0BEEF45F0000E136E000EC9
:108B3A00146EC80E156EC20E166E010120EE3BF0C1
:108B4A00E551D926E651DA226F0078FF17F06F0057
:108B5A0078FF18F06F0078FF19F06F0078FF1AF0AD
:108B6A0011EC8EF0D8A0BCEF45F0BEEF45F008EF4F
:108B7A0046F0010120EE3FF0E551D926E651DA220E
:108B8A006F0078FF6AF06F0078FF6BF06F0078FF74
:108B9A006CF06F0078FF6DF020EE3BF0E551D926BE
:108BAA00E651DA226F0078FF6EF06F0078FF6FF0FF
:108BBA006F0078FF70F06F0078FF71F044EC5FF09F
:108BCA00010120EE3FF0E551D926E651DA220001F3
:108BDA006000ABF1DEFF6000AFF1DEFF6000B3F1D1
:108BEA00DEFF6000B7F1DEFF010120EE3BF0E55148
:108BFA00D926E651DA22000EDE6E000EDE6E000E77
:108C0A00DE6E000EDD6EE7C17AF0E8C17BF0E9C1E5
:108C1A007CF0EAC17DF0010120EE3FF0E551D92652
:108C2A00E651DA226F0078FF7EF06F0078FF7FF05E
:108C3A006F0078FF80F06F0078FF81F0FDECA2F002
:108C4A007AC0E7F17BC0E8F17CC0E9F17DC0EAF1C6
:108C5A00E5C1EBF0E6C1ECF04BEC40F0010120EE8F
:108C6A003BF0E551D926E651DA226F0078FF7EF013
:108C7A006F0078FF7FF06F0078FF80F06F0078FF59
:108C8A0081F0E7C17AF0E8C17BF0E9C17CF0EAC182
:108C9A007DF0FDECA2F07AC09BF07BC09CF07CC01A
:108CAA009DF07DC09EF0000E00019F6F000EA06F28
:108CBA00800EA16F420EA26F8EEC71F09BC0FAF388
:108CCA009CC0FBF39DC0FCF39EC0FDF30301FDBFF6
:108CDA0073EF46F071EF46F09AEF46F0010120EE8D
:108CEA0043F0E551D926E651DA226F0078FF7AF08F
:108CFA006F0078FF7BF06F0078FF7CF06F0078FFE1
:108D0A007DF0FAC37EF0FBC37FF0FCC380F0FDC3A5
:108D1A0081F0FDECA2F07AC0F2F37BC0F3F37CC0E1
:108D2A00F4F37DC0F5F3BFEF46F0010120EE43F006
:108D3A00E551D926E651DA226F0078FF6AF06F0012
:108D4A0078FF6BF06F0078FF6CF06F0078FF6DF0C2
:108D5A00FAC36EF0FBC36FF0FCC370F0FDC371F091
:108D6A0044EC5FF06AC0F2F36BC0F3F36CC0F4F347
:108D7A006DC0F5F3000E0301F66F000EF76F800E5B
:108D8A00F86F3F0EF96F000E136E000E146EB40EDC
:108D9A00156E440E166EF2C317F0F3C318F0F4C33F
:108DAA0019F0F5C31AF011EC8EF0D8B0DFEF46F0E7
:108DBA00E1EF46F021EF47F0000E00019F6F000E31
:108DCA00A06FB40EA16F440EA26FF2C39BF0F3C35F
:108DDA009CF0F4C39DF0F5C39EF08EEC71F09BC03D
:108DEA0082F09CC083F09DC084F09EC085F0000E86
:108DFA0000019F6F000EA06FB40EA16F440EA26F08
:108E0A00F2C39BF0F3C39CF0F4C39DF0F5C39EF04C
:108E1A008EEC71F09BC086F09CC087F09DC088F0F4
:108E2A009EC089F0A0EC61F082C0F6F383C0F7F32C
:108E3A0084C0F8F385C0F9F3F6C39FF0F7C3A0F036
:108E4A00F8C3A1F0F9C3A2F0FAC386F0FBC387F016
:108E5A00FCC388F0FDC389F0010120EE5BF0E55107
:108E6A00D926E651DA226F0078FF82F06F0078FF88
:108E7A0083F06F0078FF84F06F0078FF85F0A0EC34
:108E8A0061F082C09BF083C09CF084C09DF085C0D5
:108E9A009EF08EEC71F09BC0E2F39CC0E3F39DC0A0
:108EAA00E4F39EC0E5F3000E0001866F000E876FA3
:108EBA00800E886F420E896FF6C382F0F7C383F083
:108ECA00F8C384F0F9C385F0A0EC61F082C09FF08A
:108EDA0083C0A0F084C0A1F085C0A2F0010120EEF9
:108EEA0043F0E551D926E651DA226F0078FF9BF06C
:108EFA006F0078FF9CF06F0078FF9DF06F0078FF9D
:108F0A009EF08EEC71F09BC0E6F39CC0E7F39DC027
:108F1A00E8F39EC0E9F3F6C386F0F7C387F0F8C317
:108F2A0088F0F9C389F0010120EE5BF0E551D926FA
:108F3A00E651DA226F0078FF7EF06F0078FF7FF04B
:108F4A006F0078FF80F06F0078FF81F0000E00015B
:108F5A007A6F000E7B6F800E7C6F420E7D6FFDEC88
:108F6A00A2F07AC082F07BC083F07CC084F07DC01E
:108F7A0085F0A0EC61F082C0B4F083C0B5F084C083
:108F8A00B6F085C0B7F0F9EC69F0B4C0EAF3B5C041
:108F9A00EBF3B6C0ECF3B7C0EDF3FAC386F0FBC34C
:108FAA0087F0FCC388F0FDC389F0E2C382F0E3C313
:108FBA0083F0E4C384F0E5C385F0A0EC61F082C0DD
:108FCA006EF083C06FF084C070F085C071F001014B
:108FDA0020EE43F0E551D926E651DA226F0078FFF8
:108FEA0086F06F0078FF87F06F0078FF88F06F00D7
:108FFA0078FF89F0E6C382F0E7C383F0E8C384F020
:10900A00E9C385F0A0EC61F082C06AF083C06BF01E
:10901A0084C06CF085C06DF044EC5FF06AC0B4F0B7
:10902A006BC0B5F06CC0B6F06DC0B7F0F9EC69F082
:10903A00B4C0EEF3B5C0EFF3B6C0F0F3B7C0F1F3C6
:10904A00EAC382F0EBC383F0ECC384F0EDC385F08E
:10905A00EEC386F0EFC387F0F0C388F0F1C389F05E
:10906A00A0EC61F0010120EE43F0E551D926E6516A
:10907A00DA22000160000BF2DEFF60000FF2DEFF71
:10908A00600013F2DEFF600017F2DEFF000E9F6F32
:10909A00000EA06F000EA16F410EA26FFAC386F0F8
:1090AA00FBC387F0FCC388F0FDC389F0010120EE01
:1090BA0057F0E551D926E651DA226F0078FF82F09F
:1090CA006F0078FF83F06F0078FF84F06F0078FFFD
:1090DA0085F0A0EC61F082C09BF083C09CF084C054
:1090EA009DF085C09EF08EEC71F09BC06AF09CC02A
:1090FA006BF09DC06CF09EC06DF0010120EE3BF05C
:10910A00E551D926E651DA226F0078FF6EF06F003A
:10911A0078FF6FF06F0078FF70F06F0078FF71F0E2
:10912A0044EC5FF0010120EE3BF0E551D926E6510F
:10913A00DA2200016000ABF1DEFF6000AFF1DEFF72
:10914A006000B3F1DEFF6000B7F1DEFF1200D5C0A8
:10915A00ADF1D6C0AEF1D7C0AFF1D8C0B0F10101C0
:10916A00B0BFBAEF48F0BDEF48F0010EBEEF48F0CD
:10917A00000EA86FB09F500EAD5DAC0EAE59AE0E8C
:10918A00AF59420EB059D8A0CDEF48F0CFEF48F012
:10919A0041EF49F0000E556F220E546FAD05000ED7
:1091AA00AE59800EAF597F0EB059D8A0DFEF48F004
:1091BA00E1EF48F0EBEF48F0D5C0D5F0D6C0D6F0D5
:1091CA00D7C0D7F0D8C0D8F0B8EF4BF0180EAD5DC5
:1091DA00720EAE59B10EAF59420EB059D8A0F8EF7F
:1091EA0048F0FAEF48F01FEF49F0A851D8A400EF71
:1091FA0049F002EF49F01FEF49F0D5C082F0D6C01E
:10920A0083F0D7C084F0D8C085F0000E0001866FC5
:10921A00000E876F000E886F7F0E896FA0EC61F0D9
:10922A0082C0D5F083C0D6F084C0D7F085C0D8F00C
:10923A00B8EF4BF0A851D8B425EF49F027EF49F021
:10924A0041EF49F0B50EAD5DF10EAE59CF0EAF59F3
:10925A00420EB059D8A034EF49F036EF49F041EF49
:10926A0049F0000E0001D56F000ED66F000ED76FC1
:10927A00000ED86FB8EF4BF0190EAD5D720EAE59F5
:10928A00B10EAF593E0EB059D8A04EEF49F050EF8B
:10929A0049F046EF4AF0930EAD5D150EAE59850EB4
:1092AA00AF593F0EB059D8A05DEF49F05FEF49F0D2
:1092BA00ABEF49F0A851040DC70EF324F66E610E08
:1092CA00F420F76EF86A000EF82209006F00D4FF46
:1092DA006EF009006F00D4FF6FF009006F00D4FF31
:1092EA0070F00A006F00D4FF71F03B0E0001866F28
:1092FA00AA0E876FB80E886F3F0E896FD5C082F0AD
:10930A00D6C083F0D7C084F0D8C085F0A0EC61F055
:10931A0082C06AF083C06BF084C06CF085C06DF0C7
:10932A0044EC5FF06AC0CDF06BC0CEF06CC0CFF0F9
:10933A006DC0D0F08DEC8DF0CDC0A9F1CEC0AAF1F0
:10934A00CFC0ABF1D0C0ACF1CCEF49F0A8510001CD
:10935A00D96FDA6BFE0ED9036F00CCFFDBF06F001A
:10936A00D0FFDCF0DA03F350DC27FF0ED903F35009
:10937A00DC27010EDB27000EDC23DBC0A9F1DCC0F1
:10938A00AAF10101000EAABFFF0EAB6FAC6FD5C0E8
:10939A007AF0D6C07BF0D7C07CF0D8C07DF0000E42
:1093AA000001866F720E876F310E886F3F0E896FCC
:1093BA00A9C135F0AAC136F0ABC137F0ACC138F05B
:1093CA00010ED9EC7FF035C082F036C083F037C089
:1093DA0084F038C085F0A0EC61F082C07EF083C0D2
:1093EA007FF084C080F085C081F0FDECA2F07AC0E5
:1093FA00A0F17BC0A1F17CC0A2F17DC0A3F1A9C1FB
:10940A0035F0AAC136F0ABC137F0ACC138F0010E65
:10941A00D9EC7FF035C082F036C083F037C084F0D3
:10942A0038C085F08E0E0001866FBE0E876FBF0EA4
:10943A00886F350E896FA0EC61F082C0A4F183C0F9
:10944A00A5F184C0A6F185C0A7F1A0C17AF0A1C197
:10945A007BF0A2C17CF0A3C17DF0A4C17EF0A5C1BE
:10946A007FF0A6C180F0A7C181F0FDECA2F07AC01E
:10947A00D5F07BC0D6F07CC0D7F07DC0D8F08BEF9A
:10948A004AF0AD05000EAE59000EAF59390EB0596B
:10949A00D8A052EF4AF054EF4AF06EEF4AF0000EAD
:1094AA00A96F000EAA6F000EAB6F000EAC6FD5C08D
:1094BA00A0F1D6C0A1F1D7C0A2F1D8C0A3F1000E85
:1094CA00A46F000EA56F000EA66F000EA76F8BEF9C
:1094DA004AF0D5C06AF0D6C06BF0D7C06CF0D8C0DD
:1094EA006DF0000E00016E6F000E6F6F800E706FD0
:1094FA003F0E716F44EC5FF06AC0D5F06BC0D6F0D6
:10950A006CC0D7F06DC0D8F0B8EF4BF0D5C082F080
:10951A00D6C083F0D7C084F0D8C085F0D5C086F015
:10952A00D6C087F0D7C088F0D8C089F0A0EC61F027
:10953A0082C098F183C099F184C09AF185C09BF1E9
:10954A008F0E00016E6FAA0E6F6F2A0E706F3E0E9D
:10955A00716F150E866F520E876F350E886FBB0EB0
:10956A00896F98C182F099C183F09AC184F09BC136
:10957A0085F0A0EC61F082C06AF083C06BF084C011
:10958A006CF085C06DF044EC5FF06AC084F16BC08A
:10959A0085F16CC086F16DC087F1D5C07AF0D6C06E
:1095AA007BF0D7C07CF0D8C07DF098C186F099C115
:1095BA0087F09AC188F09BC189F084C182F085C185
:1095CA0083F086C184F087C185F0A0EC61F082C087
:1095DA007EF083C07FF084C080F085C081F0FDEC0E
:1095EA00A2F07AC094F17BC095F17CC096F17DC05F
:1095FA0097F194C17EF095C17FF096C180F097C132
:10960A0081F0000E00017A6F000E7B6F000E7C6FF6
:10961A00400E7D6FFDECA2F07AC09FF07BC0A0F0F7
:10962A007CC0A1F07DC0A2F094C186F095C187F0FC
:10963A0096C188F097C189F0D5C082F0D6C083F070
:10964A00D7C084F0D8C085F0A0EC61F082C09BF04E
:10965A0083C09CF084C09DF085C09EF08EEC71F0B2
:10966A009BC088F19CC089F19DC08AF19EC08BF194
:10967A00A4C17EF0A5C17FF0A6C180F0A7C181F088
:10968A0088C17AF089C17BF08AC17CF08BC17DF0F8
:10969A00FDECA2F07AC08CF17BC08DF17CC08EF11A
:1096AA007DC08FF1A0C16EF0A1C16FF0A2C170F0B0
:1096BA00A3C171F08CC16AF08DC16BF08EC16CF0E0
:1096CA008FC16DF044EC5FF06AC090F16BC091F10C
:1096DA006CC092F16DC093F190C16AF091C16BF0C8
:1096EA0092C16CF093C16DF0000E00016E6F000E16
:1096FA006F6F800E706F3F0E716F44EC5FF06AC03F
:10970A009CF16BC09DF16CC09EF16DC09FF101018F
:10971A00A951AA11AB11AC11D8A496EF4BF098EF4E
:10972A004BF0A2EF4BF09CC1D5F09DC1D6F09EC183
:10973A00D7F09FC1D8F0B8EF4BF09CC19BF09DC108
:10974A009CF09EC19DF09FC19EF0A9C19FF0AAC145
:10975A00A0F09CEC76F09BC0D5F09CC0D6F09DC0E2
:10976A00D7F09EC0D8F01200000E0001F16F000E73
:10977A00F06F2B0E246E020E256EB5EC80F09C0E57
:10978A000001F0259B6F0D0EF1219C6FC20E9D6F9B
:10979A00620E9E6F880E9F6F020EA06F2BC2A1F001
:1097AA00A26B0CECA1F000019B51F0279C51F12314
:1097BA0002012C51D8B4E4EF4BF0E6EF4BF0FBEF8B
:1097CA004BF09C0E0001F0259B6F0D0EF1219C6F52
:1097DA00B70E9D6F630E9E6F2CC29FF0A06B0CECB0
:1097EA00A1F000019B51F0279C51F12302012D5158
:1097FA00D8B402EF4CF004EF4CF019EF4CF09C0E89
:10980A000001F0259B6F0D0EF1219C6F840E9D6F58
:10981A00630E9E6F2DC29FF0A06B0CECA1F00001AD
:10982A009B51F0279C51F12302012E51D8B420EF0D
:10983A004CF022EF4CF037EF4CF09C0E0001F02573
:10984A009B6F0D0EF1219C6F8D0E9D6F630E9E6FA7
:10985A002EC29FF0A06B0CECA1F000019B51F027E7
:10986A009C51F12302012F51D8B43EEF4CF040EF46
:10987A004CF055EF4CF09C0E0001F0259B6F0D0E3D
:10988A00F1219C6F960E9D6F630E9E6F2FC29FF003
:10989A00A06B0CECA1F000019B51F0279C51F12325
:1098AA00800E020131193011D8B45EEF4CF060EF2E
:1098BA004CF098EF4CF030C225F031C226F041EC62
:1098CA00A5F025C029F026C02AF0000E2C6E0A0E3B
:1098DA002B6E13EC95F029C0EEF02AC0EFF09C0E27
:1098EA000001F0259B6F0D0EF1219C6FEF0E9D6F0D
:1098FA00620E9E6F30C213F031C214F0000E166E63
:10990A000A0E156E3EEC93F013C09FF014C0A0F03F
:10991A00EEC0A1F0EFC0A2F00CECA1F000019B5147
:10992A00F0279C51F123800E020133193211D8B469
:10993A00A1EF4CF0A3EF4CF0DBEF4CF032C225F074
:10994A0033C226F041ECA5F025C029F026C02AF042
:10995A00000E2C6E0A0E2B6E13EC95F029C0EEF059
:10996A002AC0EFF09C0E0001F0259B6F0D0EF1212D
:10997A009C6FF90E9D6F620E9E6F32C213F033C256
:10998A0014F0000E166E0A0E156E3EEC93F013C01C
:10999A009FF014C0A0F0EEC0A1F0EFC0A2F00CEC52
:1099AA00A1F000019B51F0279C51F123800E020186
:1099BA0035193411D8B4E4EF4CF0E6EF4CF01EEF51
:1099CA004DF034C225F035C226F041ECA5F025C091
:1099DA0029F026C02AF0000E2C6E0A0E2B6E13EC0C
:1099EA0095F029C0EEF02AC0EFF09C0E0001F02598
:1099FA009B6F0D0EF1219C6F030E9D6F630E9E6F80
:109A0A0034C213F035C214F0000E166E0A0E156E2B
:109A1A003EEC93F013C09FF014C0A0F0EEC0A1F08A
:109A2A00EFC0A2F00CECA1F000019B51F0279C5171
:109A3A00F123800E020137193611D8B427EF4DF001
:109A4A0029EF4DF061EF4DF036C225F037C226F00E
:109A5A0041ECA5F025C029F026C02AF0000E2C6E94
:109A6A000A0E2B6E13EC95F029C0EEF02AC0EFF027
:109A7A009C0E0001F0259B6F0D0EF1219C6F0D0EBF
:109A8A009D6F630E9E6F36C213F037C214F0000E3C
:109A9A00166E0A0E156E3EEC93F013C09FF014C0BA
:109AAA00A0F0EEC0A1F0EFC0A2F00CECA1F0000112
:109ABA009B51F0279C51F123800E0201391938116C
:109ACA00D8B46AEF4DF06CEF4DF082EF4DF09C0E7A
:109ADA000001F0259B6F0D0EF1219C6FA70E9D6F63
:109AEA00630E9E6F38C29FF039C2A0F00CECA1F051
:109AFA0000019B51F0279C51F123800E02013B1972
:109B0A003A11D8B48BEF4DF08DEF4DF0A3EF4DF035
:109B1A009C0E0001F0259B6F0D0EF1219C6FAF0E7C
:109B2A009D6F630E9E6F3AC29FF03BC2A0F00CEC91
:109B3A00A1F000019B51F0279C51F1239C0E0001DA
:109B4A00F0259B6F0D0EF1219C6F7E0E9D6F620EAC
:109B5A009E6F3CC213F03DC214F0030E166EE80E5F
:109B6A00156EEFEC9CF013C09FF014C0A0F0000E2D
:109B7A00166E0A0E156E3CC213F03DC214F0EFECDD
:109B8A009CF013C01AF014C01BF0000E1D6E640E78
:109B9A001C6E07EC9FF01AC0A1F01BC0A2F03EC2D7
:109BAA0013F03FC214F0030E166EE80E156EEFECBA
:109BBA009CF013C0A3F014C0A4F0000E166E0A0E97
:109BCA00156E3EC213F03FC214F0EFEC9CF013C0C6
:109BDA001AF014C01BF0000E1D6E640E1C6E07EC0A
:109BEA009FF01AC0A5F01BC0A6F00CECA1F0000172
:109BFA009B51F0279C51F1239C0EF0259B6F0D0E73
:109C0A00F1219C6FF40E9D6F610E9E6F40C29FF012
:109C1A0041C2A0F042C2A1F043C2A2F044C2A3F0E2
:109C2A0045C2A4F046C2A5F047C2A6F048C2A7F0B2
:109C3A0049C2A8F04AC2A9F04BC2AAF04CC2ABF082
:109C4A004DC2ACF04EC2ADF04FC2AEF050C2AFF052
:109C5A0051C2B0F052C2B1F053C2B2F054C2B3F022
:109C6A0055C2B4F056C2B5F057C2B6F058C2B7F0F2
:109C7A0059C2B8F05AC2B9F05BC2BAF05CC2BBF0C2
:109C8A005DC2BCF05EC2BDF05FC2BEF060C2BFF092
:109C9A0061C2C0F062C2C1F063C2C2F064C2C3F062
:109CAA0065C2C4F066C2C5F067C2C6F068C2C7F032
:109CBA0069C2C8F06AC2C9F06BC2CAF06CC2CBF002
:109CCA006DC2CCF06EC2CDF06FC2CEF070C2CFF0D2
:109CDA0071C2D0F072C2D1F073C2D2F074C2D3F0A2
:109CEA0075C2D4F076C2D5F077C2D6F078C2D7F072
:109CFA0079C2D8F07AC2D9F07BC2DAF07CC2DBF042
:109D0A007DC2DCF07EC2DDF07FC2DEF00CECA1F099
:109D1A0000019B51F0279C51F1239C0E136E0D0EEE
:109D2A00146EF0C015F0F1C016F0000E86EC9BF030
:109D3A000001ED6F9C0EF0259B6F0D0EF1219C6FBB
:109D4A00AA0E9D6F620E9E6FEDC09FF0A06B0CEC89
:109D5A00A1F0120000018451D96EDA6A6F007BFF0C
:109D6A00F6FF6F0077FFF7FF000EF86E0800F55058
:109D7A00250AD8A4C3EF4EF0C5EF4EF078EF51F0A4
:109D8A008451D96EDA6ADE2A000EDD22000E3D6E9B
:109D9A00000E3C6E3CC043F0010152695369000158
:109DAA00896BF8EF4EF043828451D96EDA6ADE2A63
:109DBA00000EDD22F8EF4EF0010E896FF8EF4EF03B
:109DCA008451D96EDA6A6F007BFFF6FF6F0077FF66
:109DDA00F7FF000EF86E0800F550300AD8B4D8EF35
:109DEA004EF0E1EF4EF08951D8B4FEEF4EF000EF9D
:109DFA004FF0E5EF4EF084C013F085C014F07AEC12
:109E0A0092F013C03CF014C03DF03DBE11EF4FF08C
:109E1A000FEF4FF016EF4FF043803C6C3D1ED8B069
:109E2A003D2A00018451D96EDA6A6F0078FF93F0F7
:109E3A006F0074FF94F060004FF2F6FF600053F277
:109E4A00F7FF000EF86E08006F00D4FF92F04FEF94
:109E5A004FF0934B942B60004FF2F6FF600053F2E1
:109E6A00F7FF000EF86E0800F5506C0AD8A440EF10
:109E7A004FF042EF4FF066EF4FF04C0E926F934B5C
:109E8A00942B66EF4FF0690E926F66EF4FF0926B6C
:109E9A0066EF4FF09251640AD8B448EF4FF00D0ABA
:109EAA00D8B448EF4FF0050AD8B42EEF4FF0190A8C
:109EBA00D8B448EF4FF00D0AD8B448EF4FF04CEF42
:109ECA004FF060004FF2F6FF600053F2F7FF000E0A
:109EDA00F86E0800F550640AD8B476EF4FF078EFC0
:109EEA004FF0CDEF4FF060004FF2F6FF600053F2F3
:109EFA00F7FF000EF86E0800F550690AD8A488EF3B
:109F0A004FF08AEF4FF001EF50F0CDEF4FF06000C5
:109F1A0017F2D9FF60001BF2DAFFDF50DF2ADF2ACF
:109F2A00D96EDA6A6F0078FF8AF06F0074FF8BF0DF
:109F3A00000E8BBFFF0E8C6F8D6F8E6F8F6F906FC1
:109F4A00916FD8EF4FF0600017F2D9FF60001BF253
:109F5A00DAFF080EDF26DF5CD96EDA6A6F0078FF57
:109F6A008AF06F0078FF8BF06F0078FF8CF06F003B
:109F7A0078FF8DF06F0078FF8EF06F0078FF8FF01A
:109F8A006F0078FF90F06F0078FF91F0D8EF4FF0F4
:109F9A0092514C0AD8B4A8EF4FF0250AD8B48CEFE6
:109FAA004FF0D8EF4FF0010E9325876F000E9421E2
:109FBA00886F8451D96EDA6A60001FF2DEFF600092
:109FCA0023F2DDFF83C06AF08AC06BF08BC06CF0AD
:109FDA008CC06DF08DC06EF08EC06FF08FC070F0C7
:109FEA0090C071F091C072F0E7EC79F06AC083F02A
:109FFA006BC084F096EF51F060004FF2F6FF6000FC
:10A00A0053F2F7FF000EF86E0800F550780AD8B43C
:10A01A0011EF50F013EF50F069EF50F060004FF27B
:10A02A00F6FF600053F2F7FF000EF86E0800F550D5
:10A03A00750AD8A423EF50F025EF50F0CDEF50F079
:10A04A0069EF50F0600017F2D9FF60001BF2DAFFE7
:10A05A00DF50DF2ADF2AD96EDA6A6F0078FF87F0CD
:10A06A006F0074FF88F087C08AF088C08BF08C6B11
:10A07A008D6B8E6B8F6B906B916B74EF50F06000F1
:10A08A0017F2D9FF60001BF2DAFF080EDF26DF5C49
:10A09A00D96EDA6A6F0078FF8AF06F0078FF8BF06A
:10A0AA006F0078FF8CF06F0078FF8DF06F0078FFFB
:10A0BA008EF06F0078FF8FF06F0078FF90F06F00DE
:10A0CA0078FF91F074EF50F092514C0AD8B444EFF3
:10A0DA0050F0250AD8B427EF50F074EF50F0010E73
:10A0EA009325876F000E9421886F8451D96EDA6A9E
:10A0FA0060001FF2DEFF600023F2DDFFB9EF50F0CF
:10A10A0083C02CF08AC02DF08BC02EF08CC02FF0AB
:10A11A008DC030F08EC031F08FC032F090C033F075
:10A12A0091C034F028EC83F02CC083F02DC084F069
:10A13A0096EF51F083C02BF08AC02CF08BC02DF023
:10A14A008CC02EF08DC02FF08EC030F08FC031F051
:10A15A0090C032F091C033F0E5EC86F02BC083F06A
:10A16A002CC084F096EF51F060004FF2F6FF6000C9
:10A17A0053F2F7FF000EF86E0800F550750AD8B4CE
:10A18A0085EF50F00D0AD8B49FEF50F0CDEF50F0A4
:10A19A00896B8451D96EDA6A6F007BFFF6FF6F0014
:10A1AA0077FFF7FF000EF86E0800F550730AD8A47F
:10A1BA00E1EF50F0E3EF50F0EDEF50F08451D96E3B
:10A1CA00DA6ADE2A000EDD22010E896F49EF51F0AC
:10A1DA008451D96EDA6A6F007BFFF6FF6F0077FF52
:10A1EA00F7FF000EF86E0800F5506C0AD8A400EFCD
:10A1FA0051F002EF51F049EF51F08451D96EDA6A09
:10A20A006F0078FF87F06F0074FF88F0010E8727D0
:10A21A00000E882360001FF2F6FF600023F2F7FFAA
:10A22A00000EF86E0800F5506C0AD8A41FEF51F022
:10A23A0021EF51F049EF51F08451D96EDA6A6F007B
:10A24A0078FF87F06F0074FF88F0020E8727000EF0
:10A25A00882360001FF2F6FF600023F2F7FF000E6A
:10A26A00F86E0800F550730AD8A43EEF51F040EF9B
:10A27A0051F049EF51F08451D96EDA6A030EDE26A5
:10A28A00000EDD22E9EF50F08951D8B44FEF51F0BA
:10A29A0051EF51F06CEF51F083C01DF0600017F2DE
:10A2AA00D9FF60001BF2DAFF020EDF26DF5CD96EEF
:10A2BA00DA6A6F0078FF1EF06F0078FF1FF079EC02
:10A2CA0085F01DC083F01EC084F096EF51F08451D2
:10A2DA00D96EDA6ADE2A000EDD22000E846F000EC5
:10A2EA00836F96EF51F08451D96EDA6A6F007BFF63
:10A2FA00F6FF6F0077FFF7FF000EF86E0800F550C3
:10A30A00156E166A83C017F0DCEC92F000018451D6
:10A31A00D96EDA6ADE2A000EDD22000E846F010E83
:10A32A00836F120020EE3AF03950D9263A50DA22D9
:10A33A00DF6A20EE3BF03950D9263A50DA22000E75
:10A34A00DE6E000EDE6E000EDE6E000EDD6E20EE9C
:10A35A003FF03950D9263A50DA22000EDE6E000E4E
:10A36A00DE6E000EDE6E000EDD6E20EE2AF0395033
:10A37A00D9263A50DA2210EE43F03950E1263A5003
:10A38A00E2226F007BFFE6FF6F007BFFE6FF6F00B4
:10A39A007BFFE6FF6F007BFFE6FF000E0001866F82
:10A3AA00000E876F000E886F440E896F000E9F6F34
:10A3BA00000EA06F610EA16F450EA26F20EE02F093
:10A3CA003950D9263A50DA226F0078FF9BF06F0095
:10A3DA0078FF9CF06F0078FF9DF06F0078FF9EF089
:10A3EA008EEC71F09BC082F09CC083F09DC084F01B
:10A3FA009EC085F0A0EC61F082C0B6F083C0B7F0D1
:10A40A0084C0B8F085C0B9F020EE22F03950D926C0
:10A41A003A50DA226F0078FF6EF06F0078FF6FF023
:10A42A006F0078FF70F06F0078FF71F0000E000186
:10A43A009F6F000EA06F610EA16F450EA26F20EEF6
:10A44A0002F03950D9263A50DA226F0078FF9BF091
:10A45A006F0078FF9CF06F0078FF9DF06F0078FF27
:10A46A009EF08EEC71F09BC06AF09CC06BF09DC0B0
:10A47A006CF09EC06DF044EC5FF06AC0BAF06BC03D
:10A48A00BBF06CC0BCF06DC0BDF0B6C09BF0B7C0ED
:10A49A009CF0B8C09DF0B9C09EF0BAC09FF0BBC096
:10A4AA00A0F0BCC0A1F0BDC0A2F08EEC71F020EE0D
:10A4BA0047F03950D9263A50DA22000160006FF28B
:10A4CA00DEFF600073F2DEFF600077F2DEFF6000FD
:10A4DA007BF2DEFF000E866F000E876F800E886F9C
:10A4EA00420E896F000E9F6F000EA06F610EA16F62
:10A4FA00450EA26F20EE02F03950D9263A50DA22E0
:10A50A006F0078FF9BF06F0078FF9CF06F0078FF78
:10A51A009DF06F0078FF9EF08EEC71F09BC082F088
:10A52A009CC083F09DC084F09EC085F0A0EC61F0D1
:10A53A0082C0B6F083C0B7F084C0B8F085C0B9F065
:10A54A0020EE26F03950D9263A50DA226F0078FFE9
:10A55A006EF06F0078FF6FF06F0078FF70F06F0099
:10A56A0078FF71F0000E00019F6F000EA06F610E60
:10A57A00A16F450EA26F20EE02F03950D9263A504B
:10A58A00DA226F0078FF9BF06F0078FF9CF06F0073
:10A59A0078FF9DF06F0078FF9EF08EEC71F09BC003
:10A5AA006AF09CC06BF09DC06CF09EC06DF044ECEC
:10A5BA005FF06AC0BAF06BC0BBF06CC0BCF06DC093
:10A5CA00BDF0B6C09BF0B7C09CF0B8C09DF0B9C052
:10A5DA009EF0BAC09FF0BBC0A0F0BCC0A1F0BDC045
:10A5EA00A2F08EEC71F020EE4BF03950D9263A5099
:10A5FA00DA22000160006FF2DEFF600073F2DEFF14
:10A60A00600077F2DEFF60007BF2DEFF6000E7F0B9
:10A61A00D9FF6000EBF0DAFFDE04DE10D8A418EFF1
:10A62A0053F01AEF53F07AEF53F0000E866F000ED4
:10A63A00876F000E886F440E896F20EE02F0395042
:10A64A00D9263A50DA226F0078FF82F06F0078FF3D
:10A65A0083F06F0078FF84F06F0078FF85F0A0EC3C
:10A66A0061F082C09BF083C09CF084C09DF085C0DD
:10A67A009EF0000E00016E6F000E6F6F960E706FE7
:10A68A00440E716F20EE02F03950D9263A50DA2280
:10A69A006F0078FF6AF06F0078FF6BF06F0078FF49
:10A6AA006CF06F0078FF6DF044EC5FF06AC09FF0C9
:10A6BA006BC0A0F06CC0A1F06DC0A2F08EEC71F07E
:10A6CA0020EE4FF03950D9263A50DA2200016000C4
:10A6DA006FF2DEFF600073F2DEFF600077F2DEFFEA
:10A6EA0060007BF2DEFFD8EF53F0000E866F000E9B
:10A6FA00876F000E886F440E896F20EE02F0395082
:10A70A00D9263A50DA226F0078FF82F06F0078FF7C
:10A71A0083F06F0078FF84F06F0078FF85F0A0EC7B
:10A72A0061F082C09BF083C09CF084C09DF085C01C
:10A73A009EF0000E00016E6F000E6F6FA00E706F1C
:10A74A00410E716F20EE02F03950D9263A50DA22C2
:10A75A006F0078FF6AF06F0078FF6BF06F0078FF88
:10A76A006CF06F0078FF6DF044EC5FF06AC09FF008
:10A77A006BC0A0F06CC0A1F06DC0A2F08EEC71F0BD
:10A78A0020EE4FF03950D9263A50DA220001600003
:10A79A006FF2DEFF600073F2DEFF600077F2DEFF29
:10A7AA0060007BF2DEFF000E866F000E876F800E60
:10A7BA00886F420E896F20EE02F03950D9263A503E
:10A7CA00DA226F0078FF82F06F0078FF83F06F0063
:10A7DA0078FF84F06F0078FF85F0A0EC61F082C00A
:10A7EA009BF083C09CF084C09DF085C09EF0000E53
:10A7FA0000016E6F400E6F6F1C0E706F450E716F09
:10A80A0020EE02F03950D9263A50DA226F0078FF4A
:10A81A006AF06F0078FF6BF06F0078FF6CF06F00E2
:10A82A0078FF6DF044EC5FF06AC09FF06BC0A0F057
:10A83A006CC0A1F06DC0A2F08EEC71F020EE53F066
:10A84A003950D9263A50DA22000160006FF2DEFF51
:10A85A00600073F2DEFF600077F2DEFF60007BF2D9
:10A86A00DEFF20EE57F03950D9263A50DA22000E90
:10A87A00DE6E000EDE6E000EDE6E000EDD6E20EE67
:10A88A005BF03950D9263A50DA22000EDE6E000EFD
:10A89A00DE6E000EDE6E000EDD6E20EE5FF03950C9
:10A8AA00D9263A50DA22000EDE6E000EDE6E000E57
:10A8BA00DE6E000EDD6E20EE63F03950D9263A5076
:10A8CA00DA22000EDE6E000EDE6E000EDE6E000E66
:10A8DA00DD6E20EE67F03950D9263A50DA22000EA2
:10A8EA00DE6E000EDE6E000EDE6E000EDD6E1200F3
:10A8FA00000E136E000E146E340E156E420E166E96
:10A90A00010120EE2EF0EB51D926EC51DA226F002C
:10A91A0078FF17F06F0078FF18F06F0078FF19F0D2
:10A92A006F0078FF1AF011EC8EF0D8A09FEF54F068
:10A93A00A1EF54F0DEEF54F0010120EE2EF0EB51BE
:10A94A00D926EC51DA226F0078FF6AF06F0078FF9F
:10A95A006BF06F0078FF6CF06F0078FF6DF020EEFF
:10A96A0002F0EB51D926EC51DA226F0078FF6EF033
:10A97A006F0078FF6FF06F0078FF70F06F0078FF5C
:10A98A0071F044EC5FF0010120EE2EF0EB51D92674
:10A99A00EC51DA2200016000ABF1DEFF6000AFF19A
:10A9AA00DEFF6000B3F1DEFF6000B7F1DEFF0CEFFF
:10A9BA0057F00101F0BFECEF54F0F051EF11EE1136
:10A9CA0008E1ED05D8A0ECEF54F0EEEF54F0BBEF40
:10A9DA0055F0F0BFFFEF54F0F051EF1109E1E80E26
:10A9EA00ED5DFD0EEE59D8B0FDEF54F0FFEF54F0D7
:10A9FA00BBEF55F020EE0AF0EB51D926EC51DA22E2
:10AA0A006F0078FFF3F16F0078FFF4F16F0078FFC1
:10AA1A00F5F16F0078FFF6F1010EF325F76F000EDE
:10AA2A00F421F86F000EF521F96F000EF621FA6F86
:10AA3A00F751ED5DF851EE59F951EF59F051800A8D
:10AA4A00FB6FFA51800AFB59D8B02EEF55F030EF60
:10AA5A0055F050EF55F020EE0AF0EB51D926EC51A3
:10AA6A00DA226F0078FFF3F16F0078FFF4F16F00DC
:10AA7A0078FFF5F16F0078FFF6F1010EF325ED6F1F
:10AA8A00000EF421EE6F000EF521EF6F000EF62195
:10AA9A00F06F87EF55F020EE0AF0EB51D926EC5112
:10AAAA00DA22FF0EDE24F36F7F0EDE20F46F000E33
:10AABA00DE20F56F000EDE20F66FED51F35DEE51EC
:10AACA00F459EF51F559F651800AF76FF051800A9F
:10AADA00F759D8B073EF55F075EF55F087EF55F089
:10AAEA0020EE0AF0EB51D926EC51DA22FF0EDE24D1
:10AAFA00ED6F7F0EDE20EE6F000EDE20EF6F000E90
:10AB0A00DE20F06F20EE0AF0EB51D926EC51DA2262
:10AB1A006F0078FFF3F16F0078FFF4F16F0078FFB0
:10AB2A00F5F16F0078FFF6F1F351ED5D356EF451F2
:10AB3A00EE59366EF551EF59376EF651F059386EB7
:10AB4A00010ED9EC7FF0010120EE32F0EB51D9264B
:10AB5A00EC51DA226000D7F0DEFF6000DBF0DEFFA6
:10AB6A006000DFF0DEFF6000E3F0DEFF6000AFF7B9
:10AB7A00D9FF6000B3F7DAFFDE50DE10D8B4C8EFB1
:10AB8A0055F0CAEF55F0D8EF55F0EBC113F0ECC110
:10AB9A0014F040ECA7F00009D8B4D6EF55F0D8EF7E
:10ABAA0055F034EF56F0EBC1B4F0ECC1B5F0010149
:10ABBA0020EE32F0EB51D926EC51DA226F0078FF01
:10ABCA00B6F06F0078FFB7F06F0078FFB8F06F004B
:10ABDA0078FFB9F010EC7DF0010120EE36F0EB5170
:10ABEA00D926EC51DA2200016000D3F2DEFF6000C0
:10ABFA00D7F2DEFF6000DBF2DEFF6000DFF2DEFF8D
:10AC0A00EBC1DDF0ECC1DEF0010120EE36F0EB51D4
:10AC1A00D926EC51DA226F0078FFDFF06F0078FF57
:10AC2A00E0F06F0078FFE1F06F0078FFE2F0C6EC29
:10AC3A0063F0010120EE36F0EB51D926EC51DA220D
:10AC4A000001600077F3DEFF60007BF3DEFF600047
:10AC5A007FF3DEFF600083F3DEFF4DEF56F0010164
:10AC6A0020EE06F0EB51D926EC51DA2210EE36F03E
:10AC7A00EB51E126EC51E2226F007BFFE6FF6F0009
:10AC8A007BFFE6FF6F007BFFE6FF6F007BFFE6FFBF
:10AC9A00EBC1DDF0ECC1DEF0010120EE36F0EB5144
:10ACAA00D926EC51DA226F0078FFDFF06F0078FFC7
:10ACBA00E0F06F0078FFE1F06F0078FFE2F011EC4E
:10ACCA005AF0010120EE36F0EB51D926EC51DA2286
:10ACDA000001600077F3DEFF60007BF3DEFF6000B7
:10ACEA007FF3DEFF600083F3DEFF010120EE36F022
:10ACFA00EB51D926EC51DA226F0078FF13F06F007E
:10AD0A0078FF14F06F0078FF15F06F0078FF16F0E7
:10AD1A00000E176E000E186E000E196E3F0E1A6E98
:10AD2A0011EC8EF0D8B09CEF56F09EEF56F0ADEFD6
:10AD3A0056F0010120EE36F0EB51D926EC51DA2219
:10AD4A00000EDE6E000EDE6E000EDE6E3F0EDD6E53
:10AD5A00000E136E000E146E000E156E000E166EA7
:10AD6A00010120EE32F0EB51D926EC51DA226F00C4
:10AD7A0078FF17F06F0078FF18F06F0078FF19F06E
:10AD8A006F0078FF1AF011EC8EF0D8B0CFEF56F0C2
:10AD9A00D1EF56F00CEF57F0EBC1E5F1ECC1E6F15B
:10ADAA00010120EE32F0EB51D926EC51DA226F0084
:10ADBA0078FFE7F16F0078FFE8F16F0078FFE9F1BB
:10ADCA006F0078FFEAF13EEC45F0EBC17EF0ECC192
:10ADDA007FF0EBC113F0ECC114F0DEECA5F013C068
:10ADEA0080F014C081F015C082F016C083F0EBC168
:10ADFA007AF0ECC17BF0CCEC9FF07AC084F07BC097
:10AE0A0085F07CC086F07DC087F085ECA1F0000E4D
:10AE1A0000016E6F000E6F6F000E706F3F0E716F44
:10AE2A00010120EE36F0EB51D926EC51DA226F00FF
:10AE3A0078FF6AF06F0078FF6BF06F0078FF6CF0B4
:10AE4A006F0078FF6DF044EC5FF06AC0CDF06BC024
:10AE5A00CEF06CC0CFF06DC0D0F08DEC8DF06000FC
:10AE6A00C7F7D9FF6000CBF7DAFF0001600037F3BC
:10AE7A00DEFF60003BF3DEFF60003FF3DEFF6000B1
:10AE8A0043F3DEFF12000001746B20EE75F0070E2B
:10AE9A00DE6AE806FDE22BC07DF02CC07EF02FBEF4
:10AEAA0062EF57F02F5007E1250E2E5CD8B060EF05
:10AEBA0057F062EF57F06BEF57F02E042F10D8A41B
:10AECA0069EF57F06BEF57F072EF57F0000E010180
:10AEDA00556F160E546FE3EF59F07D517E11D8B4B9
:10AEEA0079EF57F07BEF57F0E3EF59F06000F7F195
:10AEFA00D9FF6000FBF1DAFFDF50D8A487EF57F0E3
:10AF0A0089EF57F08BEF57F0E3EF59F06000F7F154
:10AF1A00D9FF6000FBF1DAFFDF507F6F9FEF57F038
:10AF2A007D4B7E2B6000F7F1D9FF6000FBF1DAFF61
:10AF3A00DF507F6F200E7F19D8B4A6EF57F0A8EF25
:10AF4A0057F095EF57F07FC033F0F70E3326040E13
:10AF5A003364B2EF57F0B4EF57F095EF57F02D0E78
:10AF6A007F19D8A4BBEF57F0BDEF57F0CAEF57F0DF
:10AF7A0074817D4B7E2B6000F7F1D9FF6000FBF1F5
:10AF8A00DAFFDF507F6FD5EF57F02B0E7F19D8A469
:10AF9A00D1EF57F0D3EF57F0D5EF57F0BEEF57F098
:10AFAA00300E7F19D8A4DCEF57F0DEEF57F07BEFB5
:10AFBA0058F07D4B7E2B6000F7F1D9FF6000FBF162
:10AFCA00DAFFDF507F6F2E502F10D8B4EFEF57F013
:10AFDA00F1EF57F0FBEF57F0100E2E182F10D8A4F0
:10AFEA00F9EF57F0FBEF57F06DEF58F0780E7F1935
:10AFFA00D8B402EF58F004EF58F00DEF58F0580E9D
:10B00A007F19D8A40BEF58F00DEF58F06DEF58F0F8
:10B01A00000E2F6E100E2E6E7D4B7E2B6000F7F108
:10B02A00D9FF6000FBF1DAFFDF507F6F7FC033F09A
:10B03A00200E33129F0E33261A0E336027EF58F074
:10B04A0029EF58F04DEF58F07FC033F09F0E3326AA
:10B05A00190E336433EF58F035EF58F03AEF58F0E1
:10B06A007FC068F0696B41EF58F07FC033F05F0E24
:10B07A0033163350686F696B68C033F0C90E3326D4
:10B08A00100E33604BEF58F04DEF58F067EF58F061
:10B09A007FC033F0200E33129F0E3326190E33640D
:10B0AA0059EF58F05BEF58F07BEF58F07FC033F060
:10B0BA00D00E3326090E336465EF58F067EF58F067
:10B0CA007BEF58F074857D07D8A07E07E3EF59F02F
:10B0DA0074852E502F10D8A475EF58F077EF58F0DA
:10B0EA007BEF58F0000E2F6E080E2E6E2E502F108A
:10B0FA00D8A482EF58F084EF58F088EF58F0000E89
:10B10A002F6E0A0E2E6E3050D8B48EEF58F090EF94
:10B11A0058F0BBEF58F074B195EF58F097EF58F02C
:10B12A00A9EF58F0FF0E6C6FFF0E6D6FFF0E6E6F7A
:10B13A00FF0E6F6FFF0E706FFF0E716FFF0E726F53
:10B14A007F0E736FC3EF58F0000E6C6F000E6D6FB9
:10B15A00000E6E6F000E6F6F000E706F000E716F33
:10B16A00000E726F800E736FC3EF58F06C696D69D1
:10B17A006E696F69706971697269736975C060F027
:10B18A0076C061F077C062F078C063F079C064F08D
:10B19A007AC065F07BC066F07CC067F07FC033F090
:10B1AA00200E33129F0E33261A0E3360DFEF58F04B
:10B1BA00E1EF58F0FEEF58F07FC033F09F0E3326D0
:10B1CA00190E3364EBEF58F0EDEF58F0F2EF58F048
:10B1DA007FC06AF06B6BF9EF58F07FC033F05F0EF7
:10B1EA00331633506A6F6B6B6A51C90F7F6F0CEF5E
:10B1FA0059F07FC033F0D00E33260A0E336008EFC1
:10B20A0059F00AEF59F0C9EF59F0300E7F5F7F51BC
:10B21A00336E346A2E50335C3450800A356E2F50A8
:10B22A00800A3558D8A01CEF59F01EEF59F020EFCC
:10B23A0059F0C9EF59F074B325EF59F027EF59F0D7
:10B24A00BCEF59F02EC013F02FC014F0000E14BE3C
:10B25A00FF0E156E166E176E186E196E1A6E75C081
:10B26A001BF076C01CF077C01DF078C01EF079C0C4
:10B27A001FF07AC020F07BC021F07CC022F057EC8E
:10B28A0098F013C033F014C034F015C035F016C06E
:10B29A0036F017C037F018C038F019C039F01AC0A4
:10B2AA003AF000017F513324756F000E3420766F17
:10B2BA00000E3520776F000E3620786F000E37208B
:10B2CA00796F000E38207A6F000E39207B6F000EDE
:10B2DA003A207C6F6051755D615176596251775998
:10B2EA00635178596451795965517A5966517B5934
:10B2FA0067517C59D8A084EF59F086EF59F0A5EF31
:10B30A0059F03050D8B48CEF59F08EEF59F0BCEFA9
:10B31A0059F075516C5D76516D5977516E59785166
:10B32A006F59795170597A5171597B5172597C51BF
:10B33A007359D8B0A3EF59F0A5EF59F0BCEF59F003
:10B34A006CC075F06DC076F06EC077F06FC078F0A3
:10B35A0070C079F071C07AF072C07BF073C07CF073
:10B36A00000E0101556F220E546F000174837D4B4C
:10B37A007E2B6000F7F1D9FF6000FBF1DAFFDF50A6
:10B38A007F6F7485C3EF58F07451030BE806D8A495
:10B39A00D1EF59F0D3EF59F0E3EF59F07C1F7B1F3F
:10B3AA007A1F791F781F771F761F756D000E762317
:10B3BA007723782379237A237B237C232D50D8B4CF
:10B3CA00E9EF59F0EBEF59F000EF5AF0000174B5CC
:10B3DA00F1EF59F0F3EF59F0F7EF59F02BC07DF088
:10B3EA002CC07EF02D50D96EDA6A6000F7F1DEFFCC
:10B3FA006000FBF1DDFF75C02BF076C02CF077C042
:10B40A002DF078C02EF079C02FF07AC030F07BC0D2
:10B41A0031F07CC032F01200000120EE8FF0DD51D5
:10B42A00D926DE51DA22DF50D8A41EEF5AF020EFD7
:10B43A005AF05EEF5AF020EE90F0DD51D926DE5137
:10B44A00DA2260007FF3DEFF600083F3DEFF600034
:10B45A0087F3DEFF60008BF3DEFF20EE94F0DD5110
:10B46A00D926DE51DA2260007FF3DEFF600083F323
:10B47A00DEFF600087F3DEFF60008BF3DEFF20EE65
:10B48A0098F0DD51D926DE51DA2260007FF3DEFF23
:10B49A00600083F3DEFF600087F3DEFF60008BF35A
:10B4AA00DEFF20EE8FF0DD51D926DE51DA22010EC1
:10B4BA00DF6E20EE90F0DD51D926DE51DA226F00E0
:10B4CA0078FF86F06F0078FF87F06F0078FF88F0CA
:10B4DA006F0078FF89F020EE87F0DD51D926DE5122
:10B4EA00DA226F0078FF7EF06F0078FF7FF06F003E
:10B4FA0078FF80F06F0078FF81F0000E7A6F000EFF
:10B50A007B6F800E7C6F3F0E7D6FFDECA2F07AC0E0
:10B51A0082F07BC083F07CC084F07DC085F0A0EC13
:10B52A0061F082C0F7F083C0F8F084C0F9F085C0FA
:10B53A00FAF0F7C06AF0F8C06BF0F9C06CF0FAC024
:10B54A006DF0DFC086F0E0C087F0E1C088F0E2C0AD
:10B55A0089F0000120EE87F0DD51D926DE51DA228A
:10B56A006F0078FF82F06F0078FF83F06F0078FF3A
:10B57A0084F06F0078FF85F0A0EC61F082C06EF075
:10B58A0083C06FF084C070F085C071F044EC5FF046
:10B59A00000120EE90F0DD51D926DE51DA2260005A
:10B5AA00ABF1DEFF6000AFF1DEFF6000B3F1DEFF5A
:10B5BA006000B7F1DEFF20EE94F0DD51D926DE51AE
:10B5CA00DA226F0078FF86F06F0078FF87F06F004D
:10B5DA0078FF88F06F0078FF89F020EE8BF0DD515C
:10B5EA00D926DE51DA226F0078FF7EF06F0078FFED
:10B5FA007FF06F0078FF80F06F0078FF81F0000E17
:10B60A007A6F000E7B6F800E7C6F3F0E7D6FFDECB4
:10B61A00A2F07AC082F07BC083F07CC084F07DC047
:10B62A0085F0A0EC61F082C0F7F083C0F8F084C026
:10B63A00F9F085C0FAF0F7C06AF0F8C06BF0F9C00B
:10B64A006CF0FAC06DF0DFC086F0E0C087F0E1C0B0
:10B65A0088F0E2C089F0000120EE8BF0DD51D92696
:10B66A00DE51DA226F0078FF82F06F0078FF83F0F4
:10B67A006F0078FF84F06F0078FF85F0A0EC61F02E
:10B68A0082C06EF083C06FF084C070F085C071F024
:10B69A0044EC5FF0000120EE94F0DD51D926DE5132
:10B6AA00DA226000ABF1DEFF6000AFF1DEFF60007E
:10B6BA00B3F1DEFF6000B7F1DEFF20EE90F0DD515E
:10B6CA00D926DE51DA226F0078FF7AF06F0078FF10
:10B6DA007BF06F0078FF7CF06F0078FF7DF020EE42
:10B6EA0094F0DD51D926DE51DA226F0078FF7EF020
:10B6FA006F0078FF7FF06F0078FF80F06F0078FFAF
:10B70A0081F0FDECA2F07AC0F3F07BC0F4F07CC0CB
:10B71A00F5F07DC0F6F00001F6BF98EF5BF096EF0A
:10B72A005BF0B2EF5BF0F3C082F0F4C083F0F5C0D7
:10B73A0084F0F6C085F0000E866F000E876F800ECB
:10B74A00886FBF0E896FA0EC61F082C0F3F083C0EE
:10B75A00F4F084C0F5F085C0F6F0F3C082F0F4C0CE
:10B76A0083F0F5C084F0F6C085F0CD0E0001866F37
:10B77A00CC0E876F4C0E886FBE0E896FA0EC61F0FD
:10B78A0082C0EBF083C0ECF084C0EDF085C0EEF02F
:10B79A00EBC0D5F0ECC0D6F0EDC0D7F0EEC0D8F0D3
:10B7AA00ACEC48F0D5C0E3F0D6C0E4F0D7C0E5F081
:10B7BA00D8C0E6F0000E0001866F000E876FF00E0B
:10B7CA00886F430E896FE3C082F0E4C083F0E5C05E
:10B7DA0084F0E6C085F0A0EC61F082C06AF083C014
:10B7EA006BF084C06CF085C06DF0000E00016E6FC6
:10B7FA00000E6F6FA00E706F410E716F44EC5FF018
:10B80A006AC0E7F06BC0E8F06CC0E9F06DC0EAF01E
:10B81A00000120EE02F0DD51D926DE51DA226F0056
:10B82A0078FF9BF06F0078FF9CF06F0078FF9DF027
:10B83A006F0078FF9EF0E7C06EF0E8C06FF0E9C0D5
:10B84A0070F0EAC071F020EE02F0DD51D926DE5127
:10B85A00DA226F0078FF6AF06F0078FF6BF06F00F2
:10B86A0078FF6CF06F0078FF6DF044EC5FF06AC00F
:10B87A009FF06BC0A0F06CC0A1F06DC0A2F08EEC7E
:10B88A0071F09BC0EFF09CC0F0F09DC0F1F09EC03B
:10B89A00F2F0000120EE98F0DD51D926DE51DA22CD
:10B8AA006F0078FF86F06F0078FF87F06F0078FFEF
:10B8BA0088F06F0078FF89F0EFC07EF0F0C07FF06B
:10B8CA00F1C080F0F2C081F0000E7A6F000E7B6F3B
:10B8DA00800E7C6F3F0E7D6FFDECA2F07AC082F085
:10B8EA007BC083F07CC084F07DC085F0A0EC61F061
:10B8FA0082C0F7F083C0F8F084C0F9F085C0FAF08E
:10B90A00F7C06AF0F8C06BF0F9C06CF0FAC06DF0DD
:10B91A00DFC086F0E0C087F0E1C088F0E2C089F0BD
:10B92A00EFC082F0F0C083F0F1C084F0F2C085F07D
:10B93A00A0EC61F082C06EF083C06FF084C070F03A
:10B94A0085C071F044EC5FF0000120EE98F0DD5103
:10B95A00D926DE51DA226000ABF1DEFF6000AFF1DA
:10B96A00DEFF6000B3F1DEFF6000B7F1DEFF20EE1C
:10B97A0098F0DD51D926DE51DA226F0078FFDDF02A
:10B98A006F0078FFDEF06F0078FFDFF06F0078FF5E
:10B99A00E0F01200030100A1D5EF5CF0D7EF5CF0F4
:10B9AA00DAEF5CF0BD86DBEF5CF0BD9600A3E0EF5A
:10B9BA005CF0E2EF5CF0E5EF5CF0BC88E6EF5CF08F
:10B9CA00BC9800A5EBEF5CF0EDEF5CF0F0EF5CF0FB
:10B9DA00BC8AF1EF5CF0BC9A00A7F6EF5CF0F8EFD6
:10B9EA005CF0FBEF5CF0BC8CFCEF5CF0BC9C00A94B
:10B9FA0001EF5DF003EF5DF006EF5DF0BC8E07EF3F
:10BA0A005DF0BC9E00AB0CEF5DF00EEF5DF011EF48
:10BA1A005DF0BD8812EF5DF0BD9800AD17EF5DF0E7
:10BA2A0019EF5DF01CEF5DF0BD8A1DEF5DF0BD9A68
:10BA3A0000AF22EF5DF024EF5DF027EF5DF0BD8CE3
:10BA4A0028EF5DF0BD9C1D6ACFA42EEF5DF031EFAB
:10BA5A005DF0010E32EF5DF0000E010B1D12CFA258
:10BA6A0039EF5DF03DEF5DF0176A172A3EEF5DF0A2
:10BA7A00176A010E1716D89017341D12CFA048EF77
:10BA8A005DF04CEF5DF0176A172A4DEF5DF0176A0B
:10BA9A00010E1716D8901736D89017341D12CCA25B
:10BAAA0059EF5DF05DEF5DF0176A172A5EEF5DF002
:10BABA00176A010E1716D8901736D8901736D890ED
:10BACA0017341D12CEA46CEF5DF070EF5DF0176AAB
