:0460000057EF30F036
:106008008939893989398939893989398939893978
:10601800893989398939E236893989398939893912
:106028008939893989398939893989398939893958
:106038008939893989396737543789397A37F6364A
:1060480076368939893989392B18893989398939CD
:106058008939893989398939893989398939893928
:106068008939893989398939893989398939893918
:10607800893989392B188939893989392B182B1885
:106088002B182B182B182B182B182B1889398939F2
:1060980089398939893989392B182B182B182B18E4
:1060A80089398939FF0058EF64F000EAD496A812BC
:1060B8002C6E507F41033D87B9FBC5A59BD9E75D91
:1060C80063211F300E4C72C8F6B48A744A08368CA5
:1060D800B2F0CEE1DF9DA31927655B3B054779C385
:1060E800FDBF81AE90D2EC56682A14B38DCFF14B28
:1060F80075370926185A64DEE0A29CFCC280BE04EB
:106108003A78466957152B91AFEDD32D13516FD5BA
:10611800EBA997B886C4FA407E3C02625C1E209ABE
:10612800A4E6D8F7C98BB50F31734D5866241AA069
:106138009EDCE2CDF3B18F350B497717296B55EF0C
:10614800D193AD82BCFEC07A440638C6F8BA843E04
:1061580000427C536D2F11AB95D7E989B7F5CB7108
:106168004F0D331C22605EE4DA98A6013F7D43F9A7
:10617800C785BB94AAE8D66C52102E4E70320CB666
:1061880088CAF4DBE5A799231D5F619FA1E3DD675A
:10619800591B250A347648F2CC8EB0D0EEAC922842
:1061A80016546A457B3907BD83C1FF0240000800C9
:1061B800080E2C636E74303A256C6C752C636E7403
:1061C800313A256C6C752C636E74323A256C6C759B
:1061D8002C636E74333A256C6C752C636E74343A88
:1061E800256C6C752C636E74353A256C6C752C6354
:1061F8006E74363A256C6C752C636E74373A256C60
:106208006C750069643A25732C747970653A257346
:106218002C76657273696F6E3A2573282573290089
:106228002C7077723A25642E253032642C70777280
:106238004F75743A25642E25303264002C616463EE
:10624800303A25642E253032642C616463313A2556
:10625800642E253032640069643A25732C64693AE7
:1062680025642C62746E3A25640069643A25732C9F
:106278006D73673A626164437263002C6372633AB8
:10628800253032780D0A00446563202036203230EC
:106298003235006E65774964353035303A006D73B4
:1062A800673A636F6E666967006D73673A73746106
:1062B800747573002C74303A25642E2564002C7490
:1062C800313A25642E256400636D643A72657365FE
:1062D8007400494E46494E49545900696E66696EC4
:1062E80069747900736574436E74303A0073657429
:1062F800436E74313A00736574436E74323A0073B6
:106308006574436E74333A00736574436E74343A3B
:1063180000736574436E74353A00736574436E7424
:10632800363A00736574436E74373A006D73673A92
:10633800646174610069643A616C6C2C002C74307F
:106348003A4E614E002C74313A4E614E00286E75FB
:106358006C6C290069643A25732C006E6577496472
:106368003A00526F6F6D494F002C200D0A090064E6
:106378006163303A00646163313A0069643A2573B5
:10638800004E414E00696E66006E616E00302E331D
:106398000069643A00646F3A00616C6C0000000E9A
:1063A8000001696F000E686F3A503B10D8B4DFEFF8
:1063B80031F0E1EF31F0F1EF31F06000EBF0D9FFAF
:1063C8006000EFF0DAFF6000E3F0DEFF6000E7F066
:1063D800DDFFF1EF31F0384A392A6000E3F0D9FFE8
:1063E8006000E7F0DAFF200EDE18D8B4FEEF31F0D7
:1063F80001EF32F0010E02EF32F0000E6E6F6F6B9C
:106408006E516F11D8A40BEF32F00DEF32F0EFEFB1
:1064180031F06000E3F0D9FF6000E7F0DAFFDF5009
:10642800606F60516E6F6F6B6EC061F0F70E612721
:10643800040E616522EF32F024EF32F0EFEF31F015
:106448006B6B2D0E6E196F11D8A42DEF32F02FEF54
:1064580032F035EF32F0010E6B6F384A392A41EFCE
:1064680032F02B0E6E196F11D8A43DEF32F03FEFCA
:1064780032F041EF32F031EF32F0746B45EF32F029
:10648800742B74513824D96E000E3920DA6EDF501F
:10649800D8B451EF32F053EF32F089EF32F0745143
:1064A8003824D96E000E3920DA6EDF50606FE30EA3
:1064B8007425F66EF76A620EF722F86A000EF82263
:1064C8000800F5506019D8B46CEF32F06EEF32F076
:1064D80044EF32F074513824D96E000E3920DA6E48
:1064E800DF50606FDA0E7425F66EF76A620EF722D7
:1064F800F86A000EF8220800F5506019D8B487EF42
:1065080032F089EF32F044EF32F0020E74658FEF0B
:1065180032F091EF32F0C1EF32F0000E706F000EE2
:10652800716F800E726F7F0E736F3A503B10D8B444
:10653800A0EF32F0A2EF32F015EF3AF0080E74191E
:10654800D8B4A9EF32F0ABEF32F0ADEF32F0030E72
:10655800746F74513824606F000E3920616F6000C9
:10656800EBF0D9FF6000EFF0DAFF600083F1DEFFA7
:10657800600087F1DDFF15EF3AF0746BC5EF32F07C
:10658800742B74513824D96E000E3920DA6EDF501E
:10659800D8B4D1EF32F0D3EF32F009EF33F07451C1
:1065A8003824D96E000E3920DA6EDF50606F910EF4
:1065B8007425F66EF76A630EF722F86A000EF82261
:1065C8000800F5506019D8B4ECEF32F0EEEF32F075
:1065D800C4EF32F074513824D96E000E3920DA6EC7
:1065E800DF50606F890E7425F66EF76A630EF72226
:1065F800F86A000EF8220800F5506019D8B407EFC1
:1066080033F009EF33F0C4EF32F0030E7419D8A455
:1066180010EF33F012EF33F086EF33F0760E116E91
:10662800630E126E8DEC71F011C070F012C071F033
:1066380013C072F014C073F03A503B10D8B427EF6F
:1066480033F029EF33F015EF3AF000017451382692
:10665800000E39226000E3F0D9FF6000E7F0DAFFAE
:10666800280EDE18D8A43BEF33F03DEF33F078EF77
:1066780033F0746B41EF33F0742B74513824D96EB6
:10668800000E3920DA6EDF50D8B44DEF33F04FEFFB
:1066980033F05EEF33F074513824D96E000E392090
:1066A800DA6E290EDE18D8A45CEF33F05EEF33F013
:1066B80040EF33F074513824D96E000E3920DA6E69
:1066C800290EDE18D8A46BEF33F06DEF33F078EFB6
:1066D80033F07451606F616B010E6027000E612307
:1066E80060513826615139226000EBF0D9FF600013
:1066F800EFF0DAFF6000E3F0DEFF6000E7F0DDFFB7
:1067080015EF3AF0000E6F6F000E6E6F000E706F8F
:10671800000E716F000E726F000E736F666B676B01
:10672800000E6D6F000E6C6F746B9CEF33F0742B62
:1067380074513824D96E000E3920DA6E300EDE1806
:10674800D8B4A9EF33F0ABEF33F09BEF33F07451CB
:10675800D8B4B1EF33F0B3EF33F069EF37F07451D9
:106768003824D96E000E3920DA6E780EDE18D8B4C7
:10677800C0EF33F0C2EF33F0D1EF33F07451382467
:10678800D96E000E3920DA6E580EDE18D8A4CFEF75
:1067980033F0D1EF33F069EF37F074513824606F7C
:1067A800000E3920616F010E6025D96E000E61213F
:1067B800DA6EDF50626F6251116E126A70EC6DF022
:1067C80011501210D8A4EBEF33F0EDEF33F005EFD2
:1067D80034F0000174513824606F000E3920616F65
:1067E800010E6025D96E000E6121DA6E2E0EDE18BC
:1067F800D8B401EF34F003EF34F005EF34F087EF4D
:1068080036F074C066F00001742B74513824D96EC8
:10681800000E3920DA6E300EDE18D8B416EF34F0D8
:1068280018EF34F007EF34F074513824D96E000EA5
:106838003920DA6E700EDE18D8B425EF34F027EF61
:1068480034F09CEF35F074513824D96E000E39209D
:10685800DA6E500EDE18D8A434EF34F036EF34F088
:1068680038EF34F09CEF35F074513824D96E000EAF
:106878003920DA6E2E0EDE18D8A445EF34F047EF33
:1068880034F04DEF34F06B8974C067F0742B9CEFD3
:1068980035F074513824D96E000E3920DA6EDF5085
:1068A800606F6051116E126A70EC6DF01150121029
:1068B800D8B461EF34F063EF34F087EF36F00001BD
:1068C8006A6B74513824D96E000E3920DA6EDF50A5
:1068D800606F6051116E126A24EC71F01150121041
:1068E800D8B479EF34F07BEF34F087EF34F000015F
:1068F80074513824D96E000E3920DA6EDF50D00F6B
:106908006A6F99EF34F0000174513824D96E000E83
:106918003920DA6EDF50606F6051116E126A0DEC2B
:1069280071F01150C90F00016A6F6FBFA7EF34F003
:106938006F5107E1080E6E5DD8B0A5EF34F0A7EFF0
:1069480034F0C6EF34F06E510708606FD8906037A6
:10695800D89060376AC061F0626B636B646B602BC0
:10696800BBEF34F0D8906137623763376437602FF4
:10697800B6EF34F0615170136251711363517213A1
:10698800645173136E4B6F2B040E6C27000E6D232E
:10699800742B18EF34F074513824D96E000E392056
:1069A800DA6E300EDE18D8A4DCEF34F0DEEF34F007
:1069B800EDEF34F06E516F11D8A4E5EF34F0E7EF46
:1069C80034F0EDEF34F0FC0E6C27FF0E6D239BEFD7
:1069D80035F074513824D96E000E3920DA6EDF5044
:1069E800606F6051116E126A70EC6DF011501210E8
:1069F800D8B401EF35F003EF35F06AEF35F0000158
:106A08006A6B74513824D96E000E3920DA6EDF5063
:106A1800606F6051116E126A24EC71F011501210FF
:106A2800D8B419EF35F01BEF35F027EF35F000013A
:106A380074513824D96E000E3920DA6EDF50D00F29
:106A48006A6F39EF35F0000174513824D96E000EA1
:106A58003920DA6EDF50606F6051116E126A0DECEA
:106A680071F01150C90F00016A6F6FBF47EF35F021
:106A78006F5107E1080E6E5DD8B045EF35F047EF6E
:106A880035F066EF35F06E510708606FD8906037C3
:106A9800D89060376AC061F0626B636B646B602B7F
:106AA8005BEF35F0D8906137623763376437602F12
:106AB80056EF35F0615170136251711363517213BF
:106AC800645173136E4B6F2B9BEF35F000017451BB
:106AD800606F616B6751626F636B010E6227000E16
:106AE80063236051621907E161516319D8A47FEFEC
:106AF80035F081EF35F0A3EF35F06751606F616BCA
:106B08006651626F636B010E6227000E632360514A
:106B1800621907E161516319D8A495EF35F097EF31
:106B280035F0A3EF35F066C074F087EF36F0742BBC
:106B38006BB9A1EF35F0A3EF35F0CFEF34F0745116
:106B48003826000E3922746B6000E3F0D9FF60002C
:106B5800E7F0DAFF700EDE18D8B4B5EF35F0B7EF0E
:106B680035F0C8EF35F06000E3F0D9FF6000E7F0DA
:106B7800DAFF500EDE18D8B4C4EF35F0C6EF35F0A2
:106B8800C8EF35F087EF36F0742B20EE01F038505F
:106B9800D9263950DA222B0EDE18D8A4D6EF35F0D4
:106BA800D8EF35F0DBEF35F0742BECEF35F020EE55
:106BB80001F03850D9263950DA222D0EDE18D8A423
:106BC800E8EF35F0EAEF35F0ECEF35F06B87742B32
:106BD80074513824D96E000E3920DA6EDF50606F98
:106BE8006051116E126A24EC71F011501210D8A481
:106BF80000EF36F002EF36F006EF36F00001746B66
:106C080087EF36F0000174513826000E3922746B74
:106C18000FEF36F0742B74513824D96E000E3920DA
:106C2800DA6E300EDE18D8B41CEF36F01EEF36F0F0
:106C38000EEF36F0000E6F6F000E6E6F4FEF36F0EE
:106C480000017451D8B42BEF36F02DEF36F03BEF3E
:106C580036F06EC011F06FC012F0000E146E0A0EFE
:106C6800136E50EC71F011C06EF012C06FF000019D
:106C780074513824D96E000E3920DA6EDF50606FF7
:106C8800D00E6025616F626BFF0E622361516E2723
:106C980062516F23742B74513824D96E000E392039
:106CA800DA6EDF50606F6051116E126A24EC71F079
:106CB80011501210D8A463EF36F065EF36F024EFC8
:106CC80036F000017451D8A46CEF36F06EEF36F050
:106CD80078EF36F0000E386E000E396E000E3A6E00
:106CE800000E3B6E4CEF3AF06BA77DEF36F07FEF6E
:106CF80036F083EF36F06E6D6F1FD8B06F2B6E5184
:106D08006C276F516D233A503B10D8B48EEF36F094
:106D180090EF36F0A3EF36F0000174513824606F1D
:106D2800000E3920616F6000EBF0D9FF6000EFF0D2
:106D3800DAFF600083F1DEFF600087F1DDFF00010C
:106D48007051711172117311D8A4ADEF36F0AFEF15
:106D580036F0B9EF36F0000E386E000E396E000EC0
:106D68003A6E000E3B6E4CEF3AF0FF0E7015606FF6
:106D7800000E7115616F000E7215626F000E7315AB
:106D8800636F63516211611109E1810E605DD8A0E2
:106D9800D0EF36F0D2EF36F0E4EF36F0000E702781
:106DA800010E7123000E7223000E7323E4EF36F0F8
:106DB800D89070377137723773376C07D8A06D0762
:106DC80073AFE9EF36F0EBEF36F0DCEF36F06DAF8E
:106DD800F7EF36F0830E6C5DFF0E6D59D8B0F7EF04
:106DE80036F0F9EF36F005EF37F0FF0E6D6F810ED4
:106DF8006C6F000E706F000E716F000E726F000ED8
:106E0800736F810E6C1908E16D29D8B40EEF37F055
:106E180010EF37F018EF37F0D890703771377237B6
:106E280073376C07D8A06D076DBF24EF37F06D512D
:106E380009E1800E6C5DD8A024EF37F026EF37F01B
:106E480038EF37F0000E706F000E716F000E726F22
:106E5800000E736F000E6D6F800E6C6F000E696F01
:106E6800220E686F15EF3AF0090E606FD8907333F1
:106E7800723371337033602F3AEF37F0FF0E7017AB
:106E8800FF0E71177F0E7217000E73177F0E6C2599
:106E9800606F000E6D21616FFF0E6015626F636B8E
:106EA800646B656B170ED890623763376437653744
:106EB800E82E57EF37F06251701363517113645124
:106EC80072136551731315EF3AF06BB96EEF37F023
:106ED80070EF37F084EF37F06000E3F0D9FF60001F
:106EE800E7F0DAFF2E0EDE18D8A47DEF37F07FEF3B
:106EF80037F084EF37F06B89384A392A69EF37F071
:106F08006000E3F0D9FF6000E7F0DAFFDF50606F60
:106F18006051116E126A24EC71F011501210D8A44D
:106F280098EF37F09AEF37F09CEF37F0EEEF37F045
:106F380000016B83090E6E196F11D8B4A6EF37F0F4
:106F4800A8EF37F0E1EF37F06BA9ADEF37F0AFEF0F
:106F580037F0B2EF37F06C07D8A06D076E4B6F2B88
:106F680070C011F071C012F072C013F073C014F049
:106F78000A0E156E000E166E000E176E000E186EB5
:106F88008CEC6BF011C070F012C071F013C072F08D
:106F980014C073F06000E3F0D9FF6000E7F0DAFF97
:106FA800DF500001606FD00E602760517027000E1F
:106FB800712372237323EAEF37F06BB9E6EF37F0EA
:106FC800E8EF37F0EAEF37F06C4B6D2B384A392A87
:106FD80069EF37F0000E00016F6F000E6E6F6000F2
:106FE800E3F0D9FF6000E7F0DAFF650EDE18D8B4E9
:106FF80000EF38F002EF38F011EF38F06000E3F0FE
:10700800D9FF6000E7F0DAFF450EDE18D8A40FEFCD
:1070180038F011EF38F0A6EF38F0384A392A600016
:10702800E3F0D9FF6000E7F0DAFF2D0EDE18D8A4F0
:1070380020EF38F022EF38F027EF38F06B87384A26
:10704800392A38EF38F06000E3F0D9FF6000E7F044
:10705800DAFF2B0EDE18D8A434EF38F036EF38F00C
:1070680038EF38F0384A392A6000E3F0D9FF600079
:10707800E7F0DAFF300EDE18D8B445EF38F047EF06
:1070880038F036EF38F000016A6B6AEF38F06000CC
:10709800E3F0D9FF6000E7F0DAFFDF500001606F2E
:1070A800D00E60270A0E6E036F00CCFF61F06F00F0
:1070B800D0FF62F06F03F3506227605161256E6F55
:1070C800000E62216F6F384A392A6A2B6000E3F09C
:1070D800D9FF6000E7F0DAFFDF50606F6051116E92
:1070E800126A24EC71F011501210D8A47EEF38F017
:1070F80080EF38F04BEF38F000016A51D8A487EFE1
:1071080038F089EF38F09BEF38F02FEEFFF3385066
:10711800D9263950DA22300EDE18D8B496EF38F076
:1071280098EF38F09BEF38F03806D8A039066BA7EF
:10713800A0EF38F0A2EF38F0A6EF38F06E6D6F1FB1
:10714800D8B06F2B6E516C276F516D233A503B109E
:10715800D8B4B1EF38F0B3EF38F0C6EF38F06BA31E
:10716800B8EF38F0BAEF38F0C6EF38F06000EBF05F
:10717800D9FF6000EFF0DAFF6000E3F0DEFF6000A7
:10718800E7F0DDFF70C011F071C012F072C013F0AB
:1071980073C014F0000ECBEC56F011C070F012C0A2
:1071A80071F013C072F014C073F070C011F071C0A8
:1071B80012F072C013F073C014F0000E156E000EBA
:1071C800166E000E176E000E186ECDEC65F0D8A086
:1071D800F0EF38F0F2EF38F0FCEF38F0000E386ED0
:1071E800000E396E000E3A6E000E3B6E4CEF3AF010
:1071F80000016DBF04EF39F002EF39F095EF39F077
:107208006C6D6D1FD8B06D2B29EF39F070C01FF071
:1072180071C020F072C021F073C022F0F90E236E05
:10722800020E246E150E256E500E266E8FEC4DF054
:107238001FC070F020C071F021C072F022C073F03E
:107248000001F60E6C27FF0E6D236DBF37EF39F086
:107258006D5107E10A0E6C5DD8B035EF39F037EFA4
:1072680039F00AEF39F057EF39F070C01FF071C0EC
:1072780020F072C021F073C022F0000E236E000EC1
:10728800246E200E256E410E266E8FEC4DF01FC029
:1072980070F020C071F021C072F022C073F00001BC
:1072A8006C07D8A06D076C516D11D8A45EEF39F04A
:1072B80060EF39F039EF39F070C011F071C012F099
:1072C80072C013F073C014F0000E156E000E166E27
:1072D800800E176E000E186E8FEC60F0D8B077EF46
:1072E80039F079EF39F015EF3AF000016BA17FEF33
:1072F80039F081EF39F08BEF39F0000E386E000E5F
:10730800396E800E3A6E800E3B6E4CEF3AF0000EEE
:10731800386E000E396E800E3A6E000E3B6E4CEFE2
:107328003AF06DBFA0EF39F06D5108E16C05D8A0B7
:10733800A0EF39F0A2EF39F015EF3AF0C3EF39F0CA
:1073480070C011F071C012F072C013F073C014F065
:10735800F90E156E020E166E150E176E500E186E7B
:1073680087EC45F011C070F012C071F013C072F0D4
:1073780014C073F00001F60E6C27FF0E6D236D51DB
:1073880007E10A0E6C5DD8B0CCEF39F0CEEF39F0DA
:10739800A4EF39F0EEEF39F070C011F071C012F0BF
:1073A80072C013F073C014F0000E156E000E166E46
:1073B800200E176E410E186E87EC45F011C070F064
:1073C80012C071F013C072F014C073F000016C07A2
:1073D800D8A06D076C516D11D8A4F5EF39F0F7EF0F
:1073E80039F0D0EF39F0FF0E116EFF0E126E7F0EDE
:1073F800136E7F0E146E70C015F071C016F072C057
:1074080017F073C018F08FEC60F0D8B00EEF3AF0B8
:1074180010EF3AF015EF3AF0000E0001696F220EF6
:10742800686F000168516911D8B41DEF3AF01FEF79
:107438003AF02BEF3AF068C0F6F069C0F7F0000EAA
:10744800706F000E716F800E726F7F0E736F6BA17D
:1074580030EF3AF032EF3AF044EF3AF070C011F002
:1074680071C012F072C013F073C014F0A1EC70F088
:1074780011C070F012C071F013C072F014C073F034
:1074880070C038F071C039F072C03AF073C03BF088
:1074980012000001F95107E1090EF85DD8B057EF65
:1074A8003AF059EF3AF05BEF3AF0D9EF3FF00201CA
:1074B800916B000E156E050E166E000E176E020EFD
:1074C800186E000E116E020E126E84EC70F011C070
:1074D80019F012C01AF040EC59F015501610D8A443
:1074E80078EF3AF07AEF3AF080EF3AF0010E0201C5
:1074F800926FBB9ACFEF3AF0000E156E050E166E1E
:107508003D0E176E630E186E000E1A6E070E196E7A
:1075180040EC59F015501610D8A495EF3AF097EFB3
:107528003AF0D9EF3FF0010E0201926FBB9A83C186
:10753800D9F0070E0001D91782EC72F01150070B31
:107548000001D9250201856F000E896F000E886F32
:10755800BAEF3AF0150E0001D96FC60EE82EFED725
:10756800D92FFCD700000201884B892B85510001D7
:10757800D96FDA6BD9510201885D8951800A0001FF
:10758800DB6FDA51800ADB59D8A0CDEF3AF0CFEFA4
:107598003AF0AEEF3AF0000E116E050E126EF70ECD
:1075A8000001F825136EFF0EF921146E000E82EC0F
:1075B80069F00201866F906BF70E0001F825AC6F39
:1075C800040EF921AD6F830EAE6F620EAF6F900E91
:1075D800B06F020EB16F60EC6FF0ACC07FF2ADC05F
:1075E80080F202017F518011D8B4FDEF3AF0FFEF2D
:1075F8003AF008EF3BF090518619D8B406EF3BF00B
:1076080008EF3BF00CEF3BF0FFEC68F0D9EF3FF0F0
:10761800000E1C6E050E1D6E710E1E6E630E1F6E23
:1076280089EC61F01CC093F21DC094F2A5EF3FF005
:10763800990E156E630E166E93C217F094C218F069
:10764800000E1A6E030E196E40EC59F01550161004
:10765800D8A431EF3BF033EF3BF0A1EF3BF0030E42
:1076680002019325116E000E9421126ED20E136E34
:10767800010E146E18EC65F011501210D8A447EFE3
:107688003BF049EF3BF051EF3BF0010E0201926FE6
:10769800BB9A97EF3FF097EF3FF0030E0201932557
:1076A800116E000E9421126EA10E136E630E146EED
:1076B80018EC65F011501210D8A465EF3BF067EF95
:1076C8003BF0BDEF3FF0010E0201926F83C1D9F08C
:1076D800070E0001D91782EC72F01150070B000158
:1076E800D9250201876F000E8B6F000E8A6F89EF14
:1076F8003BF0150E0001D96FC60EE82EFED7D92F24
:10770800FCD7000002018A4B8B2B87510001D96FEF
:10771800DA6BD95102018A5D8B51800A0001DB6F57
:10772800DA51800ADB59D8A09CEF3BF09EEF3BF082
:107738007DEF3BF0BB9A97EF3FF002019251D8B42E
:10774800A8EF3BF0AAEF3BF0C6EF3BF0340E156E06
:10775800630E166E93C217F094C218F0000E1A6EDC
:10776800080E196E40EC59F015501610D8A4BFEF4A
:107778003BF0C1EF3BF0C6EF3BF0010E0201916F09
:1077880097EF3FF002019251D8B4CDEF3BF0CFEF25
:107798003BF0EBEF3BF0A60E156E620E166E93C231
:1077A80017F094C218F0000E1A6E0A0E196E40EC0B
:1077B80059F015501610D8A4E4EF3BF0E6EF3BF073
:1077C800EBEF3BF0020E0201916F97EF3FF00201E1
:1077D8009251D8B4F2EF3BF0F4EF3BF010EF3CF0ED
:1077E800B10E156E620E166E93C217F094C218F0A1
:1077F800000E1A6E0A0E196E40EC59F0155016104C
:10780800D8A409EF3CF00BEF3CF010EF3CF0030E6E
:107818000201916F97EF3FF002019251D8B417EF30
:107828003CF019EF3CF03EEF3CF09D0E156E630EF8
:10783800166E93C217F094C218F0000E1A6E030E5B
:10784800196E40EC59F015501610D8A42EEF3CF0E4
:1078580030EF3CF03EEF3CF0030E02019325116E31
:10786800000E9421126EDBEC55F01150F0EC72F022
:1078780097EF3FF002019251D8B445EF3CF047EF43
:107888003CF09BEF3CF0770E156E630E166E93C2BC
:1078980017F094C218F0000E1A6E050E196E40EC1F
:1078A80059F015501610D8A45CEF3CF05EEF3CF090
:1078B8009BEF3CF0000E3A6E000E3B6E050E020187
:1078C8009325386E000E9421396ED3EC31F038C010
:1078D8008CF239C08DF23AC08EF23BC08FF2000EA6
:1078E800156E000E166E7A0E176E440E186E8CC248
:1078F80011F08DC212F08EC213F08FC214F087EC13
:1079080045F011C03CF012C03DF013C03EF014C069
:107918003FF00BEC60F03CC081F23DC082F281C2C6
:107928007FF082C280F038EC6AF097EF3FF00201F6
:107938009251D8B4A2EF3CF0A4EF3CF0F8EF3CF041
:107948007D0E156E630E166E93C217F094C218F072
:10795800000E1A6E050E196E40EC59F015501610EF
:10796800D8A4B9EF3CF0BBEF3CF0F8EF3CF0000EC8
:107978003A6E000E3B6E050E02019325386E000E1E
:107988009421396ED3EC31F038C08CF239C08DF2C5
:107998003AC08EF23BC08FF2000E156E000E166EC6
:1079A8007A0E176E440E186E8CC211F08DC212F04A
:1079B8008EC213F08FC214F087EC45F011C03CF072
:1079C80012C03DF013C03EF014C03FF00BEC60F065
:1079D8003CC083F23DC084F283C27FF084C280F051
:1079E800FCEC69F097EF3FF002019251D8B4FFEF39
:1079F8003CF001EF3DF036EF3DF0EC0E156E620EF7
:107A0800166E93C217F094C218F0000E1A6E080E84
:107A1800196E40EC59F015501610D8A416EF3DF029
:107A280018EF3DF036EF3DF0080E02019325296E60
:107A3800000E94212A6EB0EC52F029C071F02AC0D1
:107A480072F02BC073F02CC074F02DC075F02EC0EE
:107A580076F02FC077F030C078F0000E82EC6FF02F
:107A680097EF3FF002019251D8B43DEF3DF03FEF60
:107A78003DF074EF3DF0F50E156E620E166E93C272
:107A880017F094C218F0000E1A6E080E196E40EC2A
:107A980059F015501610D8A454EF3DF056EF3DF0AC
:107AA80074EF3DF0080E02019325296E000E942113
:107AB8002A6EB0EC52F029C071F02AC072F02BC0C7
:107AC80073F02CC074F02DC075F02EC076F02FC066
:107AD80077F030C078F0010E82EC6FF097EF3FF04E
:107AE80002019251D8B47BEF3DF07DEF3DF0B2EF4B
:107AF8003DF0FE0E156E620E166E93C217F094C21C
:107B080018F0000E1A6E080E196E40EC59F0155058
:107B18001610D8A492EF3DF094EF3DF0B2EF3DF08F
:107B2800080E02019325296E000E94212A6EB0ECEE
:107B380052F029C071F02AC072F02BC073F02CC02B
:107B480074F02DC075F02EC076F02FC077F030C0DD
:107B580078F0020E82EC6FF097EF3FF0020192513D
:107B6800D8B4B9EF3DF0BBEF3DF0F0EF3DF0070EB4
:107B7800156E630E166E93C217F094C218F0000EBD
:107B88001A6E080E196E40EC59F015501610D8A44C
:107B9800D0EF3DF0D2EF3DF0F0EF3DF0080E0201DE
:107BA8009325296E000E94212A6EB0EC52F029C05C
:107BB80071F02AC072F02BC073F02CC074F02DC085
:107BC80075F02EC076F02FC077F030C078F0030E35
:107BD80082EC6FF097EF3FF002019251D8B4F7EFC3
:107BE8003DF0F9EF3DF02EEF3EF0100E156E630EEE
:107BF800166E93C217F094C218F0000E1A6E080E93
:107C0800196E40EC59F015501610D8A40EEF3EF03E
:107C180010EF3EF02EEF3EF0080E02019325296E7C
:107C2800000E94212A6EB0EC52F029C071F02AC0DF
:107C380072F02BC073F02CC074F02DC075F02EC0FC
:107C480076F02FC077F030C078F0040E82EC6FF039
:107C580097EF3FF002019251D8B435EF3EF037EF7D
:107C68003EF06CEF3EF0190E156E630E166E93C261
:107C780017F094C218F0000E1A6E080E196E40EC38
:107C880059F015501610D8A44CEF3EF04EEF3EF0C8
:107C98006CEF3EF0080E02019325296E000E942128
:107CA8002A6EB0EC52F029C071F02AC072F02BC0D5
:107CB80073F02CC074F02DC075F02EC076F02FC074
:107CC80077F030C078F0050E82EC6FF097EF3FF058
:107CD80002019251D8B473EF3EF075EF3EF0AAEF6F
:107CE8003EF0220E156E630E166E93C217F094C204
:107CF80018F0000E1A6E080E196E40EC59F0155067
:107D08001610D8A48AEF3EF08CEF3EF0AAEF3EF0B2
:107D1800080E02019325296E000E94212A6EB0ECFC
:107D280052F029C071F02AC072F02BC073F02CC039
:107D380074F02DC075F02EC076F02FC077F030C0EB
:107D480078F0060E82EC6FF097EF3FF00201925147
:107D5800D8B4B1EF3EF0B3EF3EF0E8EF3EF02B0EB3
:107D6800156E630E166E93C217F094C218F0000ECB
:107D78001A6E080E196E40EC59F015501610D8A45A
:107D8800C8EF3EF0CAEF3EF0E8EF3EF0080E020101
:107D98009325296E000E94212A6EB0EC52F029C06A
:107DA80071F02AC072F02BC073F02CC074F02DC093
:107DB80075F02EC076F02FC077F030C078F0070E3F
:107DC80082EC6FF097EF3FF002019251D8B4EFEFD9
:107DD8003EF0F1EF3EF014EF3FF0020E9119D8A4F7
:107DE800F8EF3EF0FAEF3EF014EF3FF0D00E156ECC
:107DF800620E166E93C217F094C218F0000E1A6E37
:107E0800090E196E40EC59F015501610D8A40FEF52
:107E18003FF011EF3FF014EF3FF0FF0097EF3FF016
:107E280002019251D8B41BEF3FF01DEF3FF052EF23
:107E38003FF0020E9119D8A424EF3FF026EF3FF04F
:107E480052EF3FF0630E156E630E166E93C217F075
:107E580094C218F0000E1A6E060E196E40EC59F016
:107E680015501610D8A43BEF3FF03DEF3FF052EF0E
:107E78003FF0D20E116E010E126E060E020193250E
:107E8800136E000E9421146E000E166E200E156EE1
:107E9800B7EC68F019EC6FF097EF3FF002019251E0
:107EA800D8B459EF3FF05BEF3FF04FEF3BF0020ED5
:107EB8009119D8A462EF3FF064EF3FF04FEF3BF029
:107EC8009B0E156E620E166E93C217F094C218F0D0
:107ED800000E1A6E0A0E196E40EC59F01550161065
:107EE800D8A479EF3FF07BEF3FF04FEF3BF082EC07
:107EF80072F011A082EF3FF084EF3FF04FEF3BF0BC
:107F0800D20E116E010E126E0A0E02019325136E27
:107F1800000E9421146E000E166E200E156EB7EC2E
:107F280068F04EEF3FF0000E1C6E000E1D6E710ED5
:107F38001E6E630E1F6E89EC61F01CC093F21DC0AB
:107F480094F2020193519411D8A4ADEF3FF0AFEF32
:107F58003FF01CEF3BF0BDEF3FF0ACEC47F0D8EF43
:107F68003FF032EC5CF0D8EF3FF021EC67F0D8EF4F
:107F78003FF0020191510001D96FDA6BDA51000A22
:107F8800D8B4C9EF3FF0D8EF3FF0D951010AD8B4BF
:107F9800B1EF3FF0030AD8B4B9EF3FF0010AD8B403
:107FA800B5EF3FF0D8EF3FF0BB8A120000016951EE
:107FB800D96EDA6A6F007BFFF6FF6F0077FFF7FF75
:107FC800000EF86E0800F550250AD8A4EEEF3FF031
:107FD800F0EF3FF0A3EF42F06951D96EDA6ADE2A7A
:107FE800000EDD22000E416E000E406E40C047F0CC
:107FF8000101C869C96900016E6B23EF40F047822F
:108008006951D96EDA6ADE2A000EDD2223EF40F0CC
:10801800010E6E6F23EF40F06951D96EDA6A6F0076
:108028007BFFF6FF6F0077FFF7FF000EF86E080082
:10803800F550300AD8B403EF40F00CEF40F06E5121
:10804800D8B429EF40F02BEF40F010EF40F069C0B2
:1080580011F06AC012F033EC63F011C040F012C0A6
:1080680041F041BE3CEF40F03AEF40F041EF40F0C4
:108078004780406C411ED8B0412A00016951D96E31
:10808800DA6A6F0078FF78F06F0074FF79F06000AB
:10809800E3F1F6FF6000E7F1F7FF000EF86E080065
:1080A8006F00D4FF77F07AEF40F0784B792B6000BF
:1080B800E3F1F6FF6000E7F1F7FF000EF86E080045
:1080C800F5506C0AD8A46BEF40F06DEF40F091EFDB
:1080D80040F04C0E776F784B792B91EF40F0690E9A
:1080E800776F91EF40F0776B91EF40F07751640A2A
:1080F800D8B473EF40F00D0AD8B473EF40F0050A16
:10810800D8B459EF40F0190AD8B473EF40F00D0A0B
:10811800D8B473EF40F077EF40F06000E3F1F6FF7A
:108128006000E7F1F7FF000EF86E0800F550640AEA
:10813800D8B4A1EF40F0A3EF40F0F8EF40F06000B2
:10814800E3F1F6FF6000E7F1F7FF000EF86E0800B4
:10815800F550690AD8A4B3EF40F0B5EF40F02CEF22
:1081680041F0F8EF40F06000ABF1D9FF6000AFF1EB
:10817800DAFFDF50DF2ADF2AD96EDA6A6F0078FF6C
:108188006FF06F0074FF70F0000E70BFFF0E716F1C
:10819800726F736F746F756F766F03EF41F06000E5
:1081A800ABF1D9FF6000AFF1DAFF080EDF26DF5C24
:1081B800D96EDA6A6F0078FF6FF06F0078FF70F0A1
:1081C8006F0078FF71F06F0078FF72F06F0078FF32
:1081D80073F06F0078FF74F06F0078FF75F06F0030
:1081E80078FF76F003EF41F077514C0AD8B4D3EF1B
:1081F80040F0250AD8B4B7EF40F003EF41F0010E84
:1082080078256C6F000E79216D6F6951D96EDA6A25
:108218006000B3F1DEFF6000B7F1DDFF68C02BF04E
:108228006FC02CF070C02DF071C02EF072C02FF00E
:1082380073C030F074C031F075C032F076C033F0DE
:10824800C9EC53F02BC068F02CC069F0C1EF42F0C4
:108258006000E3F1F6FF6000E7F1F7FF000EF86E4B
:108268000800F550780AD8B43CEF41F03EEF41F0F1
:1082780094EF41F06000E3F1F6FF6000E7F1F7FFEB
:10828800000EF86E0800F550750AD8A44EEF41F0BC
:1082980050EF41F0F8EF41F094EF41F06000ABF19E
:1082A800D9FF6000AFF1DAFFDF50DF2ADF2AD96E8D
:1082B800DA6A6F0078FF6CF06F0074FF6DF06CC0C5
:1082C8006FF06DC070F0716B726B736B746B756B64
:1082D800766B9FEF41F06000ABF1D9FF6000AFF122
:1082E800DAFF080EDF26DF5CD96EDA6A6F0078FFE6
:1082F8006FF06F0078FF70F06F0078FF71F06F001B
:1083080078FF72F06F0078FF73F06F0078FF74F0F9
:108318006F0078FF75F06F0078FF76F09FEF41F0FF
:1083280077514C0AD8B46FEF41F0250AD8B452EF10
:1083380041F09FEF41F0010E78256C6F000E792116
:108348006D6F6951D96EDA6A6000B3F1DEFF6000C3
:10835800B7F1DDFFE4EF41F068C02AF06FC02BF001
:1083680070C02CF071C02DF072C02EF073C02FF0C9
:1083780074C030F075C031F076C032F077EC58F048
:108388002AC068F02BC069F0C1EF42F068C029F03C
:108398006FC02AF070C02BF071C02CF072C02DF0A5
:1083A80073C02EF074C02FF075C030F076C031F075
:1083B80089EC5DF029C068F02AC069F0C1EF42F08D
:1083C8006000E3F1F6FF6000E7F1F7FF000EF86EDA
:1083D8000800F550750AD8B4B0EF41F00D0AD8B4CA
:1083E800CAEF41F0F8EF41F06E6B6951D96EDA6A65
:1083F8006F007BFFF6FF6F0077FFF7FF000EF86E48
:108408000800F550730AD8A40CEF42F00EEF42F0C2
:1084180018EF42F06951D96EDA6ADE2A000EDD22C1
:10842800010E6E6F74EF42F06951D96EDA6A6F000F
:108438007BFFF6FF6F0077FFF7FF000EF86E08006E
:10844800F5506C0AD8A42BEF42F02DEF42F074EFF0
:1084580042F06951D96EDA6A6F0078FF6CF06F00EC
:1084680074FF6DF0010E6C27000E6D236000B3F1F0
:10847800F6FF6000B7F1F7FF000EF86E0800F55040
:108488006C0AD8A44AEF42F04CEF42F074EF42F085
:108498006951D96EDA6A6F0078FF6CF06F0074FF6B
:1084A8006DF0020E6C27000E6D236000B3F1F6FF2D
:1084B8006000B7F1F7FF000EF86E0800F550730A78
:1084C800D8A469EF42F06BEF42F074EF42F06951C3
:1084D800D96EDA6A030EDE26000EDD2214EF42F0B2
:1084E8006E51D8B47AEF42F07CEF42F097EF42F049
:1084F80068C01BF06000ABF1D9FF6000AFF1DAFF94
:10850800020EDF26DF5CD96EDA6A6F0078FF1CF096
:108518006F0078FF1DF0C6EC5AF01BC068F01CC055
:1085280069F0C1EF42F06951D96EDA6ADE2A000EAD
:10853800DD22000E696F000E686FC1EF42F06951CD
:10854800D96EDA6A6F007BFFF6FF6F0077FFF7FFDF
:10855800000EF86E0800F550136E146A68C015F026
:1085680095EC63F000016951D96EDA6ADE2A000ED3
:10857800DD22000E696F010E686F12000001746B36
:1085880020EE75F0070EDE6AE806FDE229C07DF0F0
:108598002AC07EF02DBEDCEF42F02D5007E1250EFB
:1085A8002C5CD8B0DAEF42F0DCEF42F0E5EF42F0B5
:1085B8002C042D10D8A4E3EF42F0E5EF42F0EBEFE6
:1085C80042F0000EF76F160EF66F5AEF45F07D5128
:1085D8007E11D8B4F2EF42F0F4EF42F05AEF45F0D2
:1085E8006000F7F1D9FF6000FBF1DAFFDF50D8A493
:1085F80000EF43F002EF43F004EF43F05AEF45F089
:108608006000F7F1D9FF6000FBF1DAFFDF507F6F00
:1086180018EF43F07D4B7E2B6000F7F1D9FF600027
:10862800FBF1DAFFDF507F6F200E7F19D8B41FEF00
:1086380043F021EF43F00EEF43F07FC031F0F70E27
:108648003126040E31642BEF43F02DEF43F00EEF8B
:1086580043F02D0E7F19D8A434EF43F036EF43F0E2
:1086680043EF43F074817D4B7E2B6000F7F1D9FF17
:108678006000FBF1DAFFDF507F6F4EEF43F02B0E07
:108688007F19D8A44AEF43F04CEF43F04EEF43F084
:1086980037EF43F0300E7F19D8A455EF43F057EF6A
:1086A80043F0F4EF43F07D4B7E2B6000F7F1D9FFE8
:1086B8006000FBF1DAFFDF507F6F2C502D10D8B42B
:1086C80068EF43F06AEF43F074EF43F0100E2C1894
:1086D8002D10D8A472EF43F074EF43F0E6EF43F0A7
:1086E800780E7F19D8B47BEF43F07DEF43F086EF27
:1086F80043F0580E7F19D8A484EF43F086EF43F077
:10870800E6EF43F0000E2D6E100E2C6E7D4B7E2B87
:108718006000F7F1D9FF6000FBF1DAFFDF507F6FEF
:108728007FC031F0200E31129F0E31261A0E3160B3
:10873800A0EF43F0A2EF43F0C6EF43F07FC031F063
:108748009F0E3126190E3164ACEF43F0AEEF43F0C3
:10875800B3EF43F07FC068F0696BBAEF43F07FC0B6
:1087680031F05F0E31163150686F696B68C031F0B7
:10877800C90E3126100E3160C4EF43F0C6EF43F046
:10878800E0EF43F07FC031F0200E31129F0E31260A
:10879800190E3164D2EF43F0D4EF43F0F4EF43F015
:1087A8007FC031F0D00E3126090E3164DEEF43F080
:1087B800E0EF43F0F4EF43F074857D07D8A07E071F
:1087C8005AEF45F074852C502D10D8A4EEEF43F0E5
:1087D800F0EF43F0F4EF43F0000E2D6E080E2C6E10
:1087E8002C502D10D8A4FBEF43F0FDEF43F001EF20
:1087F80044F0000E2D6E0A0E2C6E2E50D8B407EFE2
:1088080044F009EF44F034EF44F074B10EEF44F053
:1088180010EF44F022EF44F0FF0E6C6FFF0E6D6F07
:10882800FF0E6E6FFF0E6F6FFF0E706FFF0E716F92
:10883800FF0E726F7F0E736F3CEF44F0000E6C6F8B
:10884800000E6D6F000E6E6F000E6F6F000E706F72
:10885800000E716F000E726F800E736F3CEF44F064
:108868006C696D696E696F6970697169726973693C
:1088780075C060F076C061F077C062F078C063F0D0
:1088880079C064F07AC065F07BC066F07CC067F0A0
:108898007FC031F0200E31129F0E31261A0E316042
:1088A80058EF44F05AEF44F077EF44F07FC031F0CE
:1088B8009F0E3126190E316464EF44F066EF44F0E0
:1088C8006BEF44F07FC06AF06B6B72EF44F07FC0CF
:1088D80031F05F0E311631506A6F6B6B6A51C90FF8
:1088E8007F6F85EF44F07FC031F0D00E31260A0E3D
:1088F800316081EF44F083EF44F040EF45F0300EF3
:108908007F5F7F51316E326A2C50315C3250800A61
:10891800336E2D50800A3358D8A095EF44F097EF66
:1089280044F099EF44F040EF45F074B39EEF44F003
:10893800A0EF44F033EF45F02CC011F02DC012F039
:10894800000E12BEFF0E136E146E156E166E176EA5
:10895800186E75C019F076C01AF077C01BF078C091
:108968001CF079C01DF07AC01EF07BC01FF07CC0DF
:1089780020F068EC68F011C031F012C032F013C07A
:1089880033F014C034F015C035F016C036F017C0F7
:1089980037F018C038F000017F513124756F000E90
:1089A8003220766F000E3320776F000E3420786FF8
:1089B800000E3520796F000E36207A6F000E3720B2
:1089C8007B6F000E38207C6F6051755D6151765960
:1089D80062517759635178596451795965517A5977
:1089E80066517B5967517C59D8A0FDEF44F0FFEFE1
:1089F80044F01EEF45F02E50D8B405EF45F007EFD0
:108A080045F033EF45F075516C5D76516D597751EE
:108A18006E5978516F59795170597A5171597B5102
:108A280072597C517359D8B01CEF45F01EEF45F0D0
:108A380033EF45F06CC075F06DC076F06EC077F01E
:108A48006FC078F070C079F071C07AF072C07BF0B6
:108A580073C07CF0000EF76F220EF66F74837D4BA7
:108A68007E2B6000F7F1D9FF6000FBF1DAFFDF50E1
:108A78007F6F74853CEF44F07451030BE806D8A46B
:108A880048EF45F04AEF45F05AEF45F07C1F7B1F51
:108A98007A1F791F781F771F761F756D000E762352
:108AA8007723782379237A237B237C232B50D8B40C
:108AB80060EF45F062EF45F076EF45F074B567EF8B
:108AC80045F069EF45F06DEF45F029C07DF02AC00B
:108AD8007EF02B50D96EDA6A6000F7F1DEFF600095
:108AE800FBF1DDFF75C029F076C02AF077C02BF0C6
:108AF80078C02CF079C02DF07AC02EF07BC02FF012
:108B08007CC030F012001450800B1D6E14501424D9
:108B1800236E13AE92EF45F094EF45F095EF45F0D4
:108B280023802350D8B49BEF45F09DEF45F0B0EF7C
:108B380045F02328D8A4A3EF45F0A5EF45F0ADEF05
:108B480045F0000E116E000E126E000E136E000E30
:108B5800146E138EB8EF45F0000E116E000E126EF3
:108B6800000E136E000E146E1850800B1D1A18504C
:108B780018241E6E17AEC3EF45F0C5EF45F0C6EFDB
:108B880045F01E801E50D8B4CCEF45F0CEEF45F02E
:108B9800E1EF45F01E28D8A4D4EF45F0D6EF45F014
:108BA800DEEF45F0000E156E000E166E000E176E05
:108BB800000E186E178EE9EF45F0000E156E000EC8
:108BC800166E000E176E000E186E1E50D8B4EFEF1A
:108BD80045F0F1EF45F0F9EF45F02350D8A4F7EF51
:108BE80045F0F9EF45F003EF46F0000E116E000E68
:108BF800126E000E136E000E146EABEF47F0175096
:108C080011026F00CCFF28F06F00D0FF29F0285028
:108C18001F6E206A216A226A2950246E256A266AF4
:108C2800276A165012026F00CCFF28F06F00D0FFA1
:108C380029F028501F26000E202221222222295006
:108C48002426000E252226222722155013026F0003
:108C5800CCFF28F06F00D0FF29F028501F26000E07
:108C680020222122222229502426000E25222622D3
:108C7800272221C022F020C021F01FC020F01F6A47
:108C8800155012026F00CCFF28F06F00D0FF29F0BA
:108C980028501F2629502022000E2122000E2222B1
:108CA800165011026F00CCFF28F06F00D0FF29F09A
:108CB80028501F2629502022000E2122000E222291
:108CC80021C022F020C021F01FC020F01F6A1550DB
:108CD80011026F00CCFF28F06F00D0FF29F0285058
:108CE8001F2629502022000E2122000E2222175072
:108CF80012026F00CCFF28F06F00D0FF29F0285037
:108D0800242629502522000E2622000E272216503E
:108D180013026F00CCFF28F06F00D0FF29F0285015
:108D2800242629502522000E2622000E272217501D
:108D380013026F00CCFF28F06F00D0FF29F02850F5
:108D4800196E29501A6E1B6A1C6A1BC01CF01AC0C7
:108D58001BF019C01AF0196A195024261A50252236
:108D68001B5026221C5027221FC019F020C01AF0C1
:108D780021C01BF022C01CF0190EC8EF46F0D89095
:108D88001C321B321A321932E82EC3EF46F0195042
:108D980024261A5025221B5026221C50272221C087
:108DA80022F020C021F01FC020F01F6A1E5023C0EF
:108DB80019F01A6A1926000E1A22820E1924286E32
:108DC800FF0E1A20296EFEEF46F0D890243625367D
:108DD8002636273622AEF3EF46F0F5EF46F0F6EFEB
:108DE80046F02480D8901F362036213622362806B1
:108DF800D8A0290626AE03EF47F005EF47F0E9EFC4
:108E080046F01E6A22AE0BEF47F00DEF47F031EF48
:108E180047F0FF0E1F14196EFF0E20141A6EFF0E76
:108E280021141B6E7F0E22141C6E19501A101B1071
:108E38001C10D8B422EF47F024EF47F028EF47F092
:108E4800010E1E6E31EF47F024A02DEF47F02FEFF3
:108E580047F031EF47F024EF47F01E50D8B437EF12
:108E680047F039EF47F05DEF47F0010E2426000E7A
:108E780025222622272227A044EF47F046EF47F075
:108E88005DEF47F024C019F025C01AF026C01BF08A
:108E980027C01CF01C341C321B321A32193219C07C
:108EA80024F01AC025F01BC026F01CC027F0284A61
:108EB800292A29BE68EF47F0295008E12828D8A0B8
:108EC80068EF47F06AEF47F074EF47F0000E246E42
:108ED800000E256E800E266E7F0E276EA1EF47F0DE
:108EE80029BE81EF47F0295006E12804D8B07FEF6A
:108EF80047F081EF47F08CEF47F0000E246E000E2C
:108F0800256E000E266E000E276E1D6AA1EF47F033
:108F180028C023F0FF0E2416FF0E25167F0E2616F6
:108F2800000E271623A09BEF47F09DEF47F09EEF1A
:108F380047F0268ED8902330276E1D50271224C064
:108F480011F025C012F026C013F027C014F012004B
:108F5800000E0001D86F000ED76F000ED725806F66
:108F6800030ED821816F5F0E826F620E836FD20E5F
:108F7800846F010E856FF7EC72F00001D26FD25149
:108F8800866F876BFAEC72F00001D36FD351886F4C
:108F9800896B9AEC6DF000018051D7278151D82355
:108FA800800E01018C198B11D8B4DDEF47F0DFEF8B
:108FB80047F019EF48F08BC123F08CC124F0F3EC93
:108FC80070F023C027F024C028F0000E2A6E0A0E85
:108FD800296E76EC65F027C0D5F028C0D6F0000ED3
:108FE8000001D725806F030ED821816FBC0E826FD8
:108FF800620E836F8BC111F08CC112F0000E146EDB
:109008000A0E136EF7EC63F011C084F012C085F0FD
:10901800D5C086F0D6C087F09AEC6DF0000180517B
:10902800D7278151D8232BEF48F0000E0001D72510
:10903800806F030ED821816F450E826F630E836F98
:109048009AEC6DF000018051D7278151D823800E0A
:1090580001018E198D11D8B434EF48F036EF48F07D
:1090680070EF48F08DC123F08EC124F0F3EC70F05E
:1090780023C027F024C028F0000E2A6E0A0E296E9D
:1090880076EC65F027C0D5F028C0D6F0000E0001B8
:10909800D725806F030ED821816FC60E826F620EAE
:1090A800836F8DC111F08EC112F0000E146E0A0E7E
:1090B800136EF7EC63F011C084F012C085F0D5C0D0
:1090C80086F0D6C087F09AEC6DF000018051D72762
:1090D8008151D82382EF48F0000E0001D725806F18
:1090E800030ED821816F4D0E826F630E836F9AEC49
:1090F8006DF000018051D7278151D823000ED72564
:10910800806F030ED821816F440E826F620E836FC9
:1091180087C111F088C112F0030E146EE80E136EA9
:10912800AFEC6AF011C084F012C085F0000E146E26
:109138000A0E136E87C111F088C112F0AFEC6AF005
:1091480011C018F012C019F0000E1B6E640E1A6ED2
:1091580027EC6CF018C086F019C087F089C111F0AF
:109168008AC112F0030E146EE80E136EAFEC6AF0AB
:1091780011C088F012C089F0000E146E0A0E136E2A
:1091880089C111F08AC112F0AFEC6AF011C018F071
:1091980012C019F0000E1B6E640E1A6E27EC6CF0EC
:1091A80018C08AF019C08BF09AEC6DF0000180515C
:1091B800D7278151D823000ED725806F030ED821D9
:1091C800816FBA0E826F610E836F000EF5EC6BF043
:1091D80011C084F012C085F013C086F014C087F067
:1091E80015C088F016C089F017C08AF018C08BF037
:1091F800010EF5EC6BF011C08CF012C08DF013C0AD
:109208008EF014C08FF015C090F016C091F017C002
:1092180092F018C093F0020EF5EC6BF011C094F0C8
:1092280012C095F013C096F014C097F015C098F0CE
:1092380016C099F017C09AF018C09BF0030EF5EC11
:109248006BF011C09CF012C09DF013C09EF014C0CA
:109258009FF015C0A0F016C0A1F017C0A2F018C06A
:10926800A3F0040EF5EC6BF011C0A4F012C0A5F049
:1092780013C0A6F014C0A7F015C0A8F016C0A9F036
:1092880017C0AAF018C0ABF0050EF5EC6BF011C0D2
:10929800ACF012C0ADF013C0AEF014C0AFF015C002
:1092A800B0F016C0B1F017C0B2F018C0B3F0060E97
:1092B800F5EC6BF011C0B4F012C0B5F013C0B6F005
:1092C80014C0B7F015C0B8F016C0B9F017C0BAF09E
:1092D80018C0BBF0070EF5EC6BF011C0BCF012C063
:1092E800BDF013C0BEF014C0BFF015C0C0F016C06A
:1092F800C1F017C0C2F018C0C3F09AEC6DF00001BD
:109308008051D7278151D823000E116E030E126E9B
:10931800D7C013F0D8C014F0000E82EC69F0000139
:10932800D46F000ED725806F030ED821816F830E6E
:10933800826F620E836FD4C084F0856B9AEC6DF0F7
:1093480000018051D7278151D823860E806F630E84
:10935800816F000E826F030E836FEEEC71F0FDECEF
:1093680072F012003C50D96EDA6A6F007BFFF6FF8C
:109378006F0077FFF7FF000EF86E0800F550250A1A
:10938800D8A4C9EF49F0CBEF49F0D9EF4AF03C50E7
:10939800D96EDA6ADE2A000EDD22000E0001F56FB2
:1093A800000EF46FF451F511D8A4DDEF49F0E0EFA9
:1093B80049F0010EE1EF49F0000EFA6F3C50D96E0A
:1093C800DA6A6F0078FF11F06F0074FF12F0DBECBF
:1093D80055F011C0F4F012C0F5F0F9EF49F03C5027
:1093E800D96EDA6ADE2A000EDD223C50D96EDA6ABE
:1093F8006F007BFFF6FF6F0077FFF7FF000EF86E38
:1094080008006F00D4FF92F0D00E00019227090ED9
:10941800926511EF4AF013EF4AF0F3EF49F03C5030
:10942800D96EDA6A6F007BFFF6FF6F0077FFF7FFF0
:10943800000EF86E0800F550780AD8B426EF4AF006
:1094480028EF4AF03DEF4AF03C50D96EDA6A6F00D7
:109458007BFFF6FF6F0077FFF7FF000EF86E08003E
:10946800F550580AD8A43BEF4AF03DEF4AF07EEF9A
:109478004AF03C50D96EDA6ADE2A000EDD223BC083
:1094880039F0980E3A6E57EC4FF039C096F03AC062
:1094980097F0000197BF59EF4AF0975108E19605F8
:1094A800D8A059EF4AF05BEF4AF078EF4AF0600035
:1094B800F7F0D9FF6000FBF0DAFF020EDF26DF5C71
:1094C800D96EDA6A6F0078FF94F06F0078FF95F034
:1094D800600053F2D9FF600057F2DAFF600063F2D0
:1094E800DEFF600067F2DFFF96C03BF097C03CF0FC
:1094F800A6EF4BF03C50D96EDA6A6F007BFFF6FF9F
:109508006F0077FFF7FF000EF86E0800F550250A88
:10951800D8A491EF4AF093EF4AF0D1EF4AF03BC05C
:109528001CF057EC6BF03BC013F083EC5FF013C0FA
:10953800A0F014C0A1F0250E0001A019A111D8A413
:10954800A8EF4AF0AAEF4AF0B9EF4AF03C50D96EBA
:10955800DA6ADE2A000EDD220101C44BC52B000E9B
:109568003C6E000E3B6EA6EF4BF0A02908E1A12946
:10957800D8B4C1EF4AF0C3EF4AF0CBEF4AF0A0C02D
:1095880011F0A1C012F03BC013F0C6EC67F0FF0E5B
:109598003C6EFE0E3B6EA6EF4BF03C50D96EDA6A7D
:1095A800DE2A000EDD22B3EF4AF03BC013F083EC55
:1095B8005FF013C0A0F014C0A1F03C50D96EDA6A75
:1095C8006F007BFFF6FF6F0077FFF7FF000EF86E66
:1095D8000800F550200AD8B4F4EF4AF0F6EF4AF044
:1095E80010EF4BF03C50D96EDA6A6F007BFFF6FF44
:1095F8006F0077FFF7FF000EF86E08006F00D4FFCA
:1096080092F0F70E00019227050E92610EEF4BF0D3
:1096180010EF4BF07DEF4BF03C50D96EDA6ADE2A42
:10962800000EDD223C50D96EDA6A6F007BFFF6FF30
:109638006F0077FFF7FF000EF86E0800F550200A5C
:10964800D8B429EF4BF02BEF4BF010EF4BF03C5018
:10965800D96EDA6A6F007BFFF6FF6F0077FFF7FFBE
:10966800000EF86E08006F00D4FF92F0F70E0001AC
:109678009227040E926543EF4BF045EF4BF010EF45
:109688004BF052EF4BF00101C44BC52B3BC013F01C
:1096980083EC5FF013C0A0F014C0A1F0200E00010D
:1096A800A019A111D8B45BEF4BF05DEF4BF047EF79
:1096B8004BF0A0C092F0F70E9227040E926567EF68
:1096C8004BF069EF4BF047EF4BF0A02908E1A129D7
:1096D800D8B471EF4BF073EF4BF0B3EF4AF0A0C082
:1096E80011F0A1C012F03BC013F0C6EC67F0B3EF65
:1096F8004AF03C50D96EDA6A6F007BFFF6FF6F00C4
:1097080077FFF7FF000EF86E0800F550926F936B25
:10971800A051921907E1A1519319D8A496EF4BF0E3
:1097280098EF4BF09AEF4BF0AAEF4AF0A02906E128
:10973800A129D8A4A2EF4BF0A4EF4BF0C3EF4AF055
:109748003B683C6812000E6ACFA4ADEF4BF0B0EF57
:109758004BF0010EB1EF4BF0000E010B0E12CFA231
:10976800B8EF4BF0BCEF4BF00B6A0B2ABDEF4BF098
:109778000B6A010E0B16D8900B340E12CFA0C7EF50
:109788004BF0CBEF4BF00B6A0B2ACCEF4BF00B6A8C
:10979800010E0B16D8900B36D8900B340E12CCA2B3
:1097A800D8EF4BF0DCEF4BF00B6A0B2ADDEF4BF0F8
:1097B8000B6A010E0B16D8900B36D8900B36D89042
:1097C8000B340E12CEA4EBEF4BF0EFEF4BF00B6A1D
:1097D8000B2AF0EF4BF00B6A010E0B160B38F00B4F
:1097E8000E12CEA2FAEF4BF0FEEF4BF00B6A0B2AEB
:1097F800FFEF4BF00B6A010E0B16050E0C6ED8909E
:109808000B360C2E03EF4CF00B500E12CEA00FEFC0
:109818004CF013EF4CF00B6A0B2A14EF4CF00B6A68
:10982800010E0B16060E0C6ED8900B360C2E18EF88
:109838004CF00B500E12CAAA24EF4CF028EF4CF053
:109848000B6A0B2A29EF4CF00B6A010E0B16000E5F
:109858000BB0800E0B6E0B500E120EA036EF4CF0B4
:1098680038EF4CF04AEF4CF001016BB13EEF4CF091
:1098780040EF4CF04AEF4CF0010E2B27000E2C2342
:109888002D232E232F233023312332230EC00BF018
:10989800D8900B320BA053EF4CF055EF4CF06CEF17
:1098A8004CF0D89001016C310C6E6B310B6E0BB023
:1098B80060EF4CF062EF4CF06CEF4CF0010E332788
:1098C800000E3423352336233723382339233A230C
:1098D8000EC00BF0D8900B32D8900B320BA077EF5C
:1098E8004CF079EF4CF099EF4CF020EE6BF16F00F3
:1098F80078FF0BF06F0074FF0CF0D8900C320B322D
:10990800D8900C320B320BB08CEF4CF08EEF4CF041
:1099180099EF4CF0010E01013B27000E3C233D233B
:109928003E233F234023412342230EC00BF0D8900F
:109938000B32D8900B32D8900B320BA0A6EF4CF01C
:10994800A8EF4CF0CBEF4CF020EE6BF16F0078FFF6
:109958000BF06F0074FF0CF0D8900C320B32D890DB
:109968000C320B32D8900C320B320BB0BEEF4CF0ED
:10997800C0EF4CF0CBEF4CF0010E01014327000E75
:109988004423452346234723482349234A230EC01B
:109998000BF00B3A0F0E0B160BA0D5EF4CF0D7EFD0
:1099A8004CF0F9EF4CF020EE6BF16F0078FF0BF004
:1099B8006F0074FF0CF0040E0D6ED8900C320B3251
:1099C8000D2EE1EF4CF00BB0ECEF4CF0EEEF4CF05D
:1099D800F9EF4CF0010E01014B27000E4C234D23EB
:1099E8004E234F235023512352230EC00BF0050E54
:1099F8000C6ED8900B320C2EFDEF4CF00BA007EF3D
:109A08004DF009EF4DF02BEF4DF020EE6BF16F00AC
:109A180078FF0BF06F0074FF0CF0050E0D6ED890F8
:109A28000C320B320D2E13EF4DF00BB01EEF4DF034
:109A380020EF4DF02BEF4DF0010E01015327000EE2
:109A48005423552356235723582359235A230EC0EA
:109A58000BF0060E0C6ED8900B320C2E2FEF4DF03B
:109A68000BA039EF4DF03BEF4DF05DEF4DF020EEE0
:109A78006BF16F0078FF0BF06F0074FF0CF0060EAF
:109A88000D6ED8900C320B320D2E45EF4DF00BB009
:109A980050EF4DF052EF4DF05DEF4DF0010E01012A
:109AA8005B27000E5C235D235E235F236023612315
:109AB80062230B6A0EAE01D00B2A0BA066EF4DF0A5
:109AC80068EF4DF08AEF4DF020EE6BF16F0078FFF4
:109AD8000BF06F0074FF0CF0070E0D6ED8900C326F
:109AE8000B320D2E72EF4DF00BB07DEF4DF07FEF86
:109AF8004DF08AEF4DF0010E01016327000E64233B
:109B0800652366236723682369236A230EC06BF1E4
:109B180001016C6B12002250800B2F6E2250222400
:109B2800366E21AE9AEF4DF09CEF4DF09DEF4DF063
:109B380036803650D8B4A3EF4DF0A5EF4DF0B9EF0D
:109B48004DF03628D8A4ABEF4DF0ADEF4DF0B5EFA2
:109B58004DF0000E1F6E000E206E000E216E000EDE
:109B6800226E218E226AC1EF4DF0000E1F6E000E8C
:109B7800206E000E216E000E226E2650800B2F1ACA
:109B880026502624376E25AECCEF4DF0CEEF4DF0A3
:109B9800CFEF4DF037803750D8B4D5EF4DF0D7EF31
:109BA8004DF0EBEF4DF03728D8A4DDEF4DF0DFEFA7
:109BB8004DF0E7EF4DF0000E236E000E246E000E00
:109BC800256E000E266E258E266AF3EF4DF0000EE8
:109BD800236E000E246E000E256E000E266E235096
:109BE800241025102610D8A4FCEF4DF0FEEF4DF000
:109BF80016EF4EF0000E1F6E000E206E000E216E46
:109C0800000E226E800E21127F0E22122F50221279
:109C18001FC01FF020C020F021C021F022C022F078
:109C280056EF4FF03650D8A41CEF4EF01EEF4EF012
:109C380028EF4EF0000E1F6E000E206E000E216EF3
:109C4800000E226E56EF4FF0375036C027F0286AC4
:109C5800275E000E285A7F0E2724306E000E28201B
:109C6800316E1FC02BF020C02CF021C02DF022C077
:109C78002EF0000E1F6E000E206E000E216E000EDC
:109C8800226E000E326E000E336E000E346E000E21
:109C9800356E376A88EF4EF03750D8B456EF4EF02D
:109CA80058EF4EF06FEF4EF0D8902B362C362D36FD
:109CB8002E36D8901F3620362136223635AE67EF3D
:109CC8004EF069EF4EF06AEF4EF01F80D8903236B2
:109CD80033363436353623502B5C24502C582550D7
:109CE8002D5826502E58D8A07CEF4EF07EEF4EF01F
:109CF80087EF4EF0358C23502B5E24502C5A25507C
:109D08002D5A26502E5A372A190E37648EEF4EF0E8
:109D180090EF4EF050EF4EF02B502C102D102E10CF
:109D2800D8B499EF4EF09BEF4EF0B3EF4EF032807F
:109D3800B3EF4EF0D8901F3620362136223635AE96
:109D4800A8EF4EF0AAEF4EF0ABEF4EF01F80D89080
:109D580032363336343635363006D8A0310621AEA1
:109D6800B8EF4EF0BAEF4EF09EEF4EF0376A35AED0
:109D7800C0EF4EF0C2EF4EF0E6EF4EF0FF0E321499
:109D8800276EFF0E3314286EFF0E3414296E7F0ED3
:109D980035142A6E2750281029102A10D8B4D7EF66
:109DA8004EF0D9EF4EF0DDEF4EF0010E376EE6EFD4
:109DB8004EF01FA0E2EF4EF0E4EF4EF0E6EF4EF06B
:109DC800D9EF4EF03750D8B4ECEF4EF0EEEF4EF03E
:109DD80012EF4FF0010E1F26000E20222122222210
:109DE80022A0F9EF4EF0FBEF4EF012EF4FF01FC03C
:109DF80027F020C028F021C029F022C02AF02A34F8
:109E08002A3229322832273227C01FF028C020F0F2
:109E180029C021F02AC022F0304A312A31BE1DEF74
:109E28004FF0315008E13028D8A01DEF4FF01FEF58
:109E38004FF02AEF4FF0000E316E3068000E1F6EA3
:109E4800000E206E000E216E000E226E31BE37EF1E
:109E58004FF0315006E13004D8B035EF4FF037EF0E
:109E68004FF044EF4FF0000E316E000E306E000ED2
:109E78001F6E000E206E000E216E000E226E2F6ADD
:109E880030C036F036A04BEF4FF04DEF4FF050EFAB
:109E98004FF0218E51EF4FF0219ED8903630226E30
:109EA8000AEF4EF01200000E00018D6F000E8C6F4D
:109EB80039C01CF057EC6BF00001F451F511D8A42F
:109EC80068EF4FF06AEF4FF070EF4FF0000E896FB8
:109ED8001F0E886F74EF4FF0F4C088F0F5C089F05A
:109EE800000E8F6F000E8E6F89EF50F039C013F09F
:109EF80083EC5FF013C090F014C091F0000190293A
:109F080006E19129D8A48BEF4FF08DEF4FF0A5EF24
:109F18004FF0F451F511D8A494EF4FF096EF4FF0AD
:109F28009FEF4FF08E518F11D8A49DEF4FF09FEF08
:109F38004FF0A5EF4FF090C039F091C03AF016EF0E
:109F480051F02D0E90199111D8B4ADEF4FF0AFEF3D
:109F58004FF0B9EF4FF02B0E90199111D8A4B7EF2D
:109F68004FF0B9EF4FF0D0EF4FF08FBFC4EF4FF085
:109F78008F5108E18E05D8A0C4EF4FF0C6EF4FF01F
:109F88007BEF50F090C011F091C012F039C013F07F
:109F9800C6EC67F0A4EF50F0300E90199111D8A4D8
:109FA800D8EF4FF0DAEF4FF02AEF50F0240E8E255D
:109FB800D96E020E8F21DA6E600043F2DFFF8E4BFE
:109FC8008F2B0101C44BC52B39C013F083EC5FF014
:109FD80013C090F014C091F0580E0001901991111F
:109FE800D8B4F9EF4FF0FBEF4FF005EF50F0780ED3
:109FF80090199111D8A403EF50F005EF50F016EF27
:10A0080050F08C518D11D8B40CEF50F00EEF50F089
:10A0180010EF50F0C6EF4FF08EC08CF08FC08DF06F
:10A028007BEF50F0902908E19129D8B41EEF50F049
:10A0380020EF50F089EF50F090C011F091C012F06D
:10A0480039C013F0C6EC67F089EF50F090C080F08B
:10A05800D00E8027090E806534EF50F036EF50F0AF
:10A068007BEF50F090C080F0200E80139F0E802769
:10A07800050E806542EF50F044EF50F07BEF50F052
:10A08800902908E19129D8B44CEF50F04EEF50F0E8
:10A0980056EF50F090C011F091C012F039C013F093
:10A0A800C6EC67F000018C518D11D8B45EEF50F00A
:10A0B80060EF50F0A4EF50F0FF0E8E25806FFF0E7A
:10A0C8008F21816F8C51801907E18D518119D8A496
:10A0D80070EF50F072EF50F0A4EF50F08E07D8A058
:10A0E8008F070101C407D8A0C507A4EF50F0240EBC
:10A0F8008E25D96E020E8F21DA6E600043F2DFFFE3
:10A108008E4B8F2B0101C44BC52B000188518E5DEE
:10A118008F51800A806F8951800A8059D8B097EF93
:10A1280050F099EF50F0A4EF50F08F5109E11F0E55
:10A138008E5DD8A0A2EF50F0A4EF50F07AEF4FF068
:10A14800240E00018E25D96E020E8F21DA6EDF6A89
:10A15800240E296E020E2A6E8A0E2B6E000E2D6EAC
:10A16800100E2C6E000E2E6EC2EC42F029C080F04C
:10A178002AC081F02BC082F02CC083F02DC084F05F
:10A188002EC085F02FC086F030C087F03A50D96EC7
:10A19800DA6A600003F2DEFF600007F2DEFF6000AB
:10A1A8000BF2DEFF60000FF2DEFF600013F2DEFF4D
:10A1B800600017F2DEFF60001BF2DEFF60001FF296
:10A1C800DEFF0001F651F711D8A4EDEF50F0EFEFE4
:10A1D80050F012EF51F08E518F11D8B4F6EF50F0C5
:10A1E800F8EF50F012EF51F0240E8A1909E1020E2F
:10A1F8008B19D8B402EF51F004EF51F012EF51F07F
:10A20800FA51D8B40AEF51F00DEF51F0010E0EEFEC
:10A2180051F0000E396E3A6A16EF51F0FF0E3A6EA1
:10A22800FE0E396E1200010100A11DEF51F01FEF63
:10A2380051F022EF51F0BD8623EF51F0BD9600A3F7
:10A2480028EF51F02AEF51F02DEF51F0BC882EEF96
:10A2580051F0BC9800A533EF51F035EF51F038EFCD
:10A2680051F0BC8A39EF51F0BC9A00A73EEF51F08B
:10A2780040EF51F043EF51F0BC8C44EF51F0BC9CDF
:10A2880000A949EF51F04BEF51F04EEF51F0BC8E61
:10A298004FEF51F0BC9E00AB54EF51F056EF51F028
:10A2A80059EF51F0BD885AEF51F0BD9800AD5FEFFE
:10A2B80051F061EF51F064EF51F0BD8A65EF51F054
:10A2C800BD9A00AF6AEF51F06CEF51F06FEF51F0AB
:10A2D800BD8C70EF51F0BD9C186ACFA476EF51F099
:10A2E80079EF51F0010E7AEF51F0000E010B1812C0
:10A2F800CFA281EF51F085EF51F0156A152A86EF4C
:10A3080051F0156A010E1516D89015341812CFA001
:10A3180090EF51F094EF51F0156A152A95EF51F02E
:10A32800156A010E1516D8901536D89015341812DE
:10A33800CCA2A1EF51F0A5EF51F0156A152AA6EFAE
:10A3480051F0156A010E1516D8901536D8901536A5
:10A35800D89015341812CEA4B4EF51F0B8EF51F0DC
:10A36800156A152AB9EF51F0156A010E1516153838
:10A37800F00B1812CEA2C3EF51F0C7EF51F0156AD7
:10A38800152AC8EF51F0156A010E1516050E166E3E
:10A39800D8901536162ECCEF51F015501812CEA0C5
:10A3A800D8EF51F0DCEF51F0156A152ADDEF51F0C6
:10A3B800156A010E1516060E166ED8901536162E4D
:10A3C800E1EF51F015501812CAAAEDEF51F0F1EF74
:10A3D80051F0156A152AF2EF51F0156A010E15169B
:10A3E800000E15B0800E156E1550181218C001F128
:10A3F800000E1A6E000E196E19C015F001C116F084
:10A40800152A09EF52F0D8901632152E07EF52F0A0
:10A418001650010B176E230E1924D96E010E1A203F
:10A42800DA6EDF50D8A41BEF52F01DEF52F060EF48
:10A4380052F01704D8A423EF52F025EF52F060EF42
:10A4480052F0230E1924D96E010E1A20DA6E010E6D
:10A45800DF6E82EC72F0000E156E010E166E030EA2
:10A468001526000E1622D8901934D96E1A34DA6ED1
:10A47800D890D936DA361550D9261650DA22600027
:10A4880047F0DEFF60004BF0DEFF60004FF0DEFFBC
:10A49800600053F0DEFF19C015F0010E166E152A84
:10A4A80058EF52F0D8901636152E56EF52F0165037
:10A4B800010102139FEF52F0230E1924D96E010EE9
:10A4C8001A20DA6EDE04D8A46CEF52F06EEF52F068
:10A4D8009FEF52F01750D8A474EF52F076EF52F075
:10A4E8009FEF52F0230E1924D96E010E1A20DA6E4E
:10A4F800DF6A82EC72F0000E156E010E166E030E06
:10A508001526000E1622D8901934D96E1A34DA6E30
:10A51800D890D936DA361550D9261650DA22600086
:10A5280047F0DEFF60004BF0DEFF60004FF0DEFF1B
:10A53800600053F0DEFF194A1A2A1ABEADEF52F036
:10A548001A5009E1080E195CD8A0ADEF52F0AFEF30
:10A5580052F000EF52F0120020EE32F0070EDE6AE1
:10A56800E806FDE2316ABBEF52F0294A2A2A600068
:10A57800A7F0D9FF6000ABF0DAFF200EDE18D8B4E0
:10A58800C8EF52F0CAEF52F0B9EF52F06000A7F0EE
:10A59800D9FF6000ABF0DAFFDF500001606FF70E03
:10A5A8006027040E6065DBEF52F0DDEF52F0B9EF83
:10A5B80052F06000A7F0D9FF6000ABF0DAFF2D0E73
:10A5C800DE18D8A4EAEF52F0ECEF52F0F2EF52F0B6
:10A5D800010E316E294A2A2A6BEF53F06000A7F06A
:10A5E800D9FF6000ABF0DAFF2B0EDE18D8A4FFEF1E
:10A5F80052F001EF53F06BEF53F0EEEF52F06000C2
:10A60800A7F0D9FF6000ABF0DAFFDF50606FD00E23
:10A618006025616F626BFF0E6223636B62BF630725
:10A628006351646F6351656F6351666F6351676F00
:10A638006351686F32C011F033C012F034C013F0A8
:10A6480035C014F036C015F037C016F038C017F012
:10A6580039C018F00A0E196E000E1A6E000E1B6E25
:10A66800000E1C6E000E1D6E000E1E6E000E1F6E7C
:10A67800000E206E68EC68F011C069F012C06AF034
:10A6880013C06BF014C06CF015C06DF016C06EF0FE
:10A6980017C06FF018C070F000016151695D326E2B
:10A6A80062516A59336E63516B59346E64516C59F7
:10A6B800356E65516D59366E66516E59376E6751F4
:10A6C8006F59386E68517059396EEEEF52F060006C
:10A6D800A7F0D9FF6000ABF0DAFFDF50606FD00E53
:10A6E8006027090E60657BEF53F07DEF53F003EFB1
:10A6F80053F03150D8A483EF53F085EF53F0B8EFFF
:10A7080053F032C060F033C061F034C062F035C03D
:10A7180063F036C064F037C065F038C066F039C001
:10A7280067F0601F611F621F631F641F651F661F3C
:10A73800671F602B000E6123622363236423652354
:10A748006623672360C029F061C02AF062C02BF03D
:10A7580063C02CF064C02DF065C02EF066C02FF0E9
:10A7680067C030F0C8EF53F032C029F033C02AF088
:10A7780034C02BF035C02CF036C02DF037C02EF089
:10A7880038C02FF039C030F01200010E0001626F9E
:10A7980033BED1EF53F0D4EF53F0010ED5EF53F0A1
:10A7A800000E656F40C063F041C064F06551D8B4D5
:10A7B800E0EF53F0E2EF53F0F9EF53F06307D8A05E
:10A7C80064076551D8A4EBEF53F0EDEF53F0F3EFC6
:10A7D80053F0000E616F2B0E606FF7EF53F0000E11
:10A7E800616F2D0E606F60C065F0000E676F1F0E01
:10A7F800666F0201636B7CEF54F06607D8A06707A9
:10A80800440E6625D96E020E6721DA6E2CC011F04F
:10A818002DC012F02EC013F02FC014F030C015F068
:10A8280031C016F032C017F033C018F00A0E196E96
:10A83800000E1A6E000E1B6E000E1C6E000E1D6EB2
:10A84800000E1E6E000E1F6E000E206E81EC5BF077
:10A8580011C034F012C035F013C036F014C037F010
:10A8680015C038F016C039F017C03AF018C03BF0E0
:10A8780034C023F035C024F0F3EC70F02350300FCF
:10A88800DF6E0001626B6307D8A064072CC011F06B
:10A898002DC012F02EC013F02FC014F030C015F0E8
:10A8A80031C016F032C017F033C018F00A0E196E16
:10A8B800000E1A6E000E1B6E000E1C6E000E1D6E32
:10A8C800000E1E6E000E1F6E000E206E03EC5AF076
:10A8D80011C02CF012C02DF013C02EF014C02FF0B0
:10A8E80015C030F016C031F017C032F018C033F080
:10A8F800000167BF88EF54F0675108E16605D8A0EA
:10A9080088EF54F08AEF54F0B5EF54F02C502D1026
:10A918002E102F103010311032103310D8A497EFAA
:10A9280054F099EF54F001EF54F06251D8A49FEF1E
:10A9380054F0A1EF54F001EF54F064BFACEF54F0C1
:10A94800645108E16305D8A0ACEF54F0AEEF54F0C1
:10A95800B5EF54F047B2B3EF54F0B5EF54F001EF50
:10A9680054F06551D8B4BBEF54F0BDEF54F0C9EFC3
:10A9780054F06607D8A06707440E6625D96E020E04
:10A988006721DA6E600097F1DFFF2BC021F0440EDB
:10A998006625226E020E6721236E63C024F064C010
:10A9A80025F022EC66F021C02BF022C02CF012001A
:10A9B8003901D851F80B0509D86FD88DF80ED8177A
:10A9C800D89DDFEC5CF03901D851F80B0509D86F38
:10A9D800D88D82EC72F001019B51115C0001E06F8F
:10A9E80001019C5112580001E16F01019D5113585A
:10A9F8000001E26F01019E5114580001E36FE35119
:10AA0800E211E11109E10A0EE05DD8A00EEF55F060
:10AA180010EF55F026EF55F082EC72F011C09BF163
:10AA280012C09CF113C09DF114C09EF1F80E3901BB
:10AA3800D817D89D17EC51F03901D851F80B0509F2
:10AA4800D86FD88D82EC72F001019F51115C000122
:10AA5800E06F0101A05112580001E16F0101A151FD
:10AA680013580001E26F0101A25114580001E36F6D
:10AA7800E351E2110BE1E80EE05D030EE159D8A0C5
:10AA880048EF55F04AEF55F0ACEF55F082EC72F014
:10AA980011C09FF112C0A0F113C0A1F114C0A2F11E
:10AAA800F80E3901D817D89D180E74EC6AF00B0E01
:10AAB80000011D036F00CCFFE0F06F00D0FFE1F054
:10AAC8001E03F350E127E0C083F1E1C084F1190EC1
:10AAD80074EC6AF00B0E00011D036F00CCFFE0F070
:10AAE8006F00D0FFE1F01E03F350E127E0C085F1CD
:10AAF800E1C086F1030E74EC6AF00B0E00011D0331
:10AB08006F00CCFFE0F06F00D0FFE1F01E03F350C0
:10AB1800E127E0C087F1E1C088F1020E74EC6AF029
:10AB28000B0E00011D036F00CCFFE0F06F00D0FF9B
:10AB3800E1F01E03F350E127E0C089F1E1C08AF19A
:10AB480017EC68F03901D851F80B0509D86FD88D82
:10AB580082EC72F00101A351115C0001E06F010168
:10AB6800A45112580001E16F0101A55113580001C9
:10AB7800E26F0101A65114580001E36FE351E2119D
:10AB8800E11109E1C80EE05DD8A0CDEF55F0CFEF97
:10AB980055F0DAEF55F082EC72F011C0A3F112C053
:10ABA800A4F113C0A5F114C0A6F104001200000E10
:10ABB800186E000E176E166AE4EF55F0114A122A45
:10ABC800600047F0F6FF60004BF0F7FF000EF86EEC
:10ABD8001F0EF76403D00800F55007D06F00DBFFA5
:10ABE800E9FF6F00DFFFEAFFEF50200AD8B4FFEF5C
:10ABF80055F001EF56F0E2EF55F0600047F0F6FF30
:10AC080060004BF0F7FF000EF86E1F0EF76403D0DC
:10AC18000800F55007D06F00DBFFE9FF6F00DFFF8A
:10AC2800EAFFEF50136EF70E1326040E13641FEF9E
:10AC380056F021EF56F0E2EF55F0600047F0F6FFCE
:10AC480060004BF0F7FF000EF86E1F0EF76403D09C
:10AC58000800F55007D06F00DBFFE9FF6F00DFFF4A
:10AC6800EAFFEF502D0AD8A43CEF56F03EEF56F01D
:10AC780044EF56F0010E166E114A122A90EF56F064
:10AC8800600047F0F6FF60004BF0F7FF000EF86E2B
:10AC98001F0EF76403D00800F55007D06F00DBFFE4
:10ACA800E9FF6F00DFFFEAFFEF502B0AD8A45FEF40
:10ACB80056F061EF56F090EF56F040EF56F00A0E5E
:10ACC80017026F00CCFF13F06F00D0FF14F01802CA
:10ACD800F3501426600047F0F6FF60004BF0F7FFD2
:10ACE800000EF86E1F0EF76403D00800F55007D069
:10ACF8006F00DBFFE9FF6F00DFFFEAFFEF50156E23
:10AD08001550135E000E145A300E1324176E000EE1
:10AD18001420186E40EF56F0600047F0F6FF600010
:10AD28004BF0F7FF000EF86E1F0EF76403D0080013
:10AD3800F55007D06F00DBFFE9FF6F00DFFFEAFF88
:10AD4800EF50136ED00E1326090E1364AEEF56F0B3
:10AD5800B0EF56F063EF56F01650D8A4B6EF56F0A1
:10AD6800B8EF56F0C6EF56F017C013F018C014F03D
:10AD7800131E141E134A142A13C011F014C012F023
:10AD8800CAEF56F017C011F018C012F01200196E71
:10AD98001950D8B4D2EF56F0D4EF56F0F6EF56F07B
:10ADA80014BEDBEF56F0D9EF56F0F6EF56F011C0AF
:10ADB80015F012C016F013C017F014C018F0151EC5
:10ADC800161E171E181E152A000E162217221822E4
:10ADD80015C01BF016C01CF017C01DF018C01EF0DF
:10ADE800FEEF56F011C01BF012C01CF013C01DF08E
:10ADF80014C01EF01150121013101410D8A407EF2D
:10AE080057F009EF57F013EF57F0000E116E000ED0
:10AE1800126E000E136E000E146EA4EF57F0960E0D
:10AE28001A6E1DEF57F01A2AD8901E321D321C32A6
:10AE38001B32000E1B14156E000E1C14166E000E2D
:10AE48001D14176EFE0E1E14186E155016101710CE
:10AE58001810D8A432EF57F034EF57F017EF57F027
:10AE680042EF57F01A2A010E1B26000E1C221D2243
:10AE78001E22D8901E321D321C321B32000E1B14AB
:10AE8800156E000E1C14166E000E1D14176EFF0EA4
:10AE98001E14186E1550161017101810D8A457EF56
:10AEA80057F059EF57F036EF57F061EF57F01A06A1
:10AEB800D8901B361C361D361E361DBE66EF57F061
:10AEC80068EF57F070EF57F0020E1A606EEF57F008
:10AED80070EF57F05BEF57F01AB075EF57F077EF58
:10AEE80057F078EF57F01D9ED8901A321AC015F017
:10AEF800166A176A186A15C018F0176A166A156A6A
:10AF080015501B1216501C1217501D1218501E12E5
:10AF18001950D8B492EF57F094EF57F09CEF57F0D0
:10AF280014BE9BEF57F099EF57F09CEF57F01E8E29
:10AF38001BC011F01CC012F01DC013F01EC014F08D
:10AF48001200000E316E000E326E3F0E336E000E90
:10AF5800346E000E366E000E356ED89035341D6E88
:10AF680036341E6E1F6A1EBE1F061F50206E3150DB
:10AF78001D24156E32501E20166E33501F20176E7A
:10AF880034502020186E48EC70F03550020DF35004
:10AF9800250FD96EDA6A600057F0DEFF60005BF0BB
:10AFA800DDFF354A362A36BEE3EF57F0365009E161
:10AFB800060E355CD8A0E3EF57F0E5EF57F0B1EF98
:10AFC80057F027501D6E28501E6E1F6A206A1EC03B
:10AFD80020F01DC01FF01E6A1D6A1DC097F11EC01B
:10AFE80098F11FC099F120C09AF125C01DF026C024
:10AFF8001EF0000E1EBEFF0E1F6E206E97C121F0C0
:10B0080098C122F099C123F09AC124F022C024F0FB
:10B0180021C023F0226A216A1D5021100101976F77
:10B028001E502210986F1F502310996F2050241023
:10B038009A6F2B501D6E2C501E6E1F6A206A1EC000
:10B0480020F01DC01FF01E6A1D6A1DC093F11EC0AE
:10B0580094F11FC095F120C096F129C01DF02AC0B7
:10B068001EF0000E1EBEFF0E1F6E206E93C121F053
:10B0780094C122F095C123F096C124F022C024F097
:10B0880021C023F0226A216A1D502110936F1E509F
:10B098002210946F1F502310956F20502410966F24
:10B0A8008AEC6CF0640E0101CE19CF11D011D111C8
:10B0B800D8B461EF58F063EF58F076EF58F0640EAB
:10B0C800CE6F000ECF6F000ED06F000ED16F740ED2
:10B0D800D26F650ED36F730ED46F740ED56FD66BA7
:10B0E80019EC6FF01200010E3B6E40C03CF041C0FD
:10B0F8003DF0000E3F6E1F0E3E6E0201636BF9EFCE
:10B1080058F03E06D8A03F06440E3E24D96E020EE3
:10B118003F20DA6E2BC011F02CC012F02DC013F0B6
:10B128002EC014F02FC015F030C016F031C017F043
:10B1380032C018F00A0E196E000E1A6E000E1B6E41
:10B14800000E1C6E000E1D6E000E1E6E000E1F6E91
:10B15800000E206E67EC62F011C033F012C034F0BC
:10B1680013C035F014C036F015C037F016C038F0EB
:10B1780017C039F018C03AF03350300FDF6E3B6A11
:10B188003C06D8A03D062BC011F02CC012F02DC0F3
:10B1980013F02EC014F02FC015F030C016F031C0D7
:10B1A80017F032C018F00A0E196E000E1A6E000E53
:10B1B8001B6E000E1C6E000E1D6E000E1E6E000E25
:10B1C8001F6E000E206E11EC61F011C02BF012C042
:10B1D8002CF013C02DF014C02EF015C02FF016C09F
:10B1E80030F017C031F018C032F03E503F10D8B4DC
:10B1F80000EF59F002EF59F02DEF59F02B502C10B9
:10B208002D102E102F10301031103210D8A40FEF3F
:10B2180059F011EF59F085EF58F03B50D8A417EFCB
:10B2280059F019EF59F085EF58F03DBE24EF59F069
:10B238003D5008E13C04D8A024EF59F026EF59F01E
:10B248002DEF59F047B22BEF59F02DEF59F085EF5C
:10B2580058F02AC021F0440E3E24226E020E3F20F0
:10B26800236E3CC024F03DC025F022EC66F021C0DE
:10B278002AF022C02BF012001906D8A01A061928A5
:10B2880006E11A28D8A44BEF59F04DEF59F05AEFC0
:10B2980059F0000E166E000E156E02EF5AF0154AA0
:10B2A800162A174A182A1906D8A01A06600057F055
:10B2B800F6FF60005BF0F7FF000EF86E1F0EF764F4
:10B2C80003D00800F55007D06F00DBFFE9FF6F00DF
:10B2D800DFFFEAFFEF500009D8B475EF59F077EFB8
:10B2E80059F0D0EF59F060005FF0F6FF600063F0AE
:10B2F800F7FF000EF86E1F0EF76403D00800F55034
:10B3080007D06F00DBFFE9FF6F00DFFFEAFFEF50B8
:10B318000009D8B492EF59F094EF59F0D0EF59F0F2
:10B3280019501A10D8B49BEF59F09DEF59F0D0EF8F
:10B3380059F060005FF0F6FF600063F0F7FF000E61
:10B34800F86E1F0EF76403D00800F55007D06F00A1
:10B35800DBFFE9FF6F00DFFFEAFFEF501B6E6000C5
:10B3680057F0F6FF60005BF0F7FF000EF86E1F0E57
:10B37800F76403D00800F55007D06F00DBFFE9FF42
:10B388006F00DFFFEAFFEF501B18D8B4CEEF59F07B
:10B39800D0EF59F053EF59F0600057F0F6FF600016
:10B3A8005BF0F7FF000EF86E1F0EF76403D008007D
:10B3B800F55007D06F00DBFFE9FF6F00DFFFEAFF02
:10B3C800EF501B6E60005FF0F6FF600063F0F7FF60
:10B3D800000EF86E1F0EF76403D00800F55007D072
:10B3E8006F00DBFFE9FF6F00DFFFEAFFEF501C6E25
:10B3F8001C501B5C156E166AD8A016061200226A2D
:10B4080020BE0BEF5AF009EF5AF01DEF5AF0201E3C
:10B418001F1E1E1E1D1E1C1E1B1E1A1E196C000E32
:10B428001A221B221C221D221E221F222022010E4C
:10B43800226E18BE24EF5AF022EF5AF036EF5AF077
:10B44800181E171E161E151E141E131E121E116C12
:10B45800000E122213221422152216221722182255
:10B46800010E221A20EE23F0070EDE6AE806FDE23E
:10B4780019501A101B101C101D101E101F10201020
:10B48800D8B449EF5AF04BEF5AF09DEF5AF0010E3D
:10B49800216E59EF5AF0D89019361A361B361C36D9
:10B4A8001D361E361F362036212A20AE5EEF5AF092
:10B4B80060EF5AF04FEF5AF0D890233624362536ED
:10B4C80026362736283629362A361950115C1A505E
:10B4D80012581B5013581C5014581D5015581E5004
:10B4E80016581F50175820501858D8A07EEF5AF0F9
:10B4F80080EF5AF091EF5AF01950115E1A50125A13
:10B508001B50135A1C50145A1D50155A1E50165AC7
:10B518001F50175A2050185A2380D89020321F32B3
:10B528001E321D321C321B321A321932212E60EFA4
:10B538005AF02250D8B4A3EF5AF0A5EF5AF0B5EF5D
:10B548005AF02A1E291E281E271E261E251E241EC6
:10B55800236C000E24222522262227222822292293
:10B568002A2223C011F024C012F025C013F026C0EF
:10B5780014F027C015F028C016F029C017F02AC00B
:10B5880018F012001CC024F01DC025F0245025100E
:10B59800D8A4D1EF5AF0D3EF5AF0D7EF5AF0550E9E
:10B5A800246E630E256E000E276E000E266EDFEFEA
:10B5B8005AF0264A272A265024241E6E2750252072
:10B5C8001F6E60007BF0F6FF60007FF0F7FF000E53
:10B5D800F86E1F0EF76403D00800F55007D06F000F
:10B5E800DBFFE9FF6F00DFFFEAFFEF500009D8A497
:10B5F80000EF5BF002EF5BF0DDEF5AF026C020F0C1
:10B6080027C021F040C022F041C023F047B00FEF1F
:10B618005BF011EF5BF04DEF5BF01DEF5BF0000EA0
:10B62800146E200E136E1BC015F095EC63F0264ABD
:10B63800272A2250265C2750800A1E6E2350800A33
:10B648001E58D8A02AEF5BF02CEF5BF013EF5BF0ED
:10B658004DEF5BF0600093F0F6FF600097F0F7FFA6
:10B66800000EF86E1F0EF76403D00800F55007D0DF
:10B678006F00DBFFE9FF6F00DFFFEAFFEF501E6E90
:10B688001E50136E146A1BC015F095EC63F0244A23
:10B69800252A2006D8A02106202806E12128D8A49A
:10B6A80058EF5BF05AEF5BF02EEF5BF047A05FEFCF
:10B6B8005BF061EF5BF07CEF5BF06DEF5BF0000E31
:10B6C800146E200E136E1BC015F095EC63F0264A1D
:10B6D800272A2250265C2750800A1E6E2350800A93
:10B6E8001E58D8A07AEF5BF07CEF5BF063EF5BF05D
:10B6F80026C01BF027C01CF01200226A18BE89EF72
:10B708005BF087EF5BF09BEF5BF0181E171E161EB1
:10B71800151E141E131E121E116C000E1222132267
:10B7280014221522162217221822010E226E20BE7C
:10B73800A2EF5BF0A0EF5BF0B2EF5BF0201E1F1EE4
:10B748001E1E1D1E1C1E1B1E1A1E196C000E1A2200
:10B758001B221C221D221E221F22202219501A10D1
:10B768001B101C101D101E101F102010D8B4BFEF86
:10B778005BF0C1EF5BF009EF5CF0010E216ECFEFDB
:10B788005BF0D89019361A361B361C361D361E3615
:10B798001F362036212A20AED4EF5BF0D6EF5BF0BF
:10B7A800C5EF5BF01950115C1A5012581B50135812
:10B7B8001C5014581D5015581E5016581F50175815
:10B7C80020501858D8A0EBEF5BF0EDEF5BF0FDEFE1
:10B7D8005BF01950115E1A50125A1B50135A1C5024
:10B7E800145A1D50155A1E50165A1F50175A2050D9
:10B7F800185AD89020321F321E321D321C321B328A
:10B808001A321932212ED6EF5BF02250D8B40FEF3E
:10B818005CF011EF5CF021EF5CF0181E171E161E8D
:10B82800151E141E131E121E116C000E1222132256
:10B838001422152216221722182211C011F012C044
:10B8480012F013C013F014C014F015C015F016C090
:10B8580016F017C017F018C018F01200000E0001FB
:10B86800D46F000ED36F000E806F030E816F0B0E26
:10B87800826F620E836FD20E846F010E856F6A0E1F
:10B88800866F630E876F950E886F630E896F8F0EB4
:10B898008A6F620E8B6F9AEC6DF000018051D3278E
:10B8A8008151D423000ED325806F030ED421816FDC
:10B8B800280E826F620E836F83C111F084C112F06B
:10B8C800030E146EE80E136EAFEC6AF011C084F02C
:10B8D80012C085F0000E146E0A0E136E83C111F0AB
:10B8E80084C112F0AFEC6AF011C018F012C019F060
:10B8F800000E1B6E640E1A6E27EC6CF018C086F0F2
:10B9080019C087F085C111F086C112F0030E146EBC
:10B91800E80E136EAFEC6AF011C088F012C089F01F
:10B92800000E146E0A0E136E85C111F086C112F056
:10B93800AFEC6AF011C018F012C019F0000E1B6EBF
:10B94800640E1A6E27EC6CF018C08AF019C08BF0E0
:10B958009AEC6DF000018051D3278151D423000E59
:10B96800116E030E126ED3C013F0D4C014F0000E83
:10B9780082EC69F00001D26F000ED325806F030EB0
:10B98800D421816F830E826F620E836FD2C084F0E0
:10B99800856B9AEC6DF000018051D3278151D42337
:10B9A800860E806F630E816F000E826F030E836FA9
:10B9B800EEEC71F0120042EF5DF045EC6DF0000125
:10B9C800DC6F000EF825D96E050EF921DA6E6000DD
:10B9D80073F3DFFFF84BF92B82EC72F011C08FF193
:10B9E80012C090F113C091F114C092F10001F90551
:10B9F800D8A001EF5DF003EF5DF009EF5DF0000EF8
:10BA0800F96F000EF86F42EF5DF0F95109E10C0E85
:10BA1800F85DD8A012EF5DF014EF5DF042EF5DF035
:10BA2800FF0EF825D96E040EF921DA6E0A0EDE181B
:10BA3800D8A421EF5DF023EF5DF042EF5DF0FE0E3C
:10BA4800F825D96E040EF921DA6E0D0EDE18D8A489
:10BA580030EF5DF032EF5DF042EF5DF0000EF8255B
:10BA6800D96E050EF921DA6EDF6A4DEC3AF0000E58
:10BA78000001F96F000EF86F0501006B44EC72F0DD
:10BA88000009D8B44AEF5DF04CEF5DF055EF5DF07A
:10BA98000001F905D8A053EF5DF055EF5DF0E1EF37
:10BAA8005CF082EC72F001018F51115C0001DC6FD7
:10BAB8000101905112580001DD6F01019151135895
:10BAC8000001DE6F0101925114580001DF6FDF5150
:10BAD800DE11DD1109E1050EDC5DD8A076EF5DF021
