:0460000057EF30F036
:10600800704D704D704D704D704D704D704D704DA0
:10601800704D704D704D624A704D704D704D704DA1
:10602800704D704D704D704D704D704D704D704D80
:10603800704D704D704D204B0D4B704D334B764A63
:106048000B4A704D704D704D2B18704D704D704D42
:10605800704D704D704D704D704D704D704D704D50
:10606800704D704D704D704D704D704D704D704D40
:10607800704D704D2B18704D704D704D2B182B189E
:106088002B182B182B182B182B182B18704D704DFC
:10609800704D704D704D704D2B182B182B182B18F8
:1060A800704D704DFF009AEF85F000EAD496A81263
:1060B8002C6E507F41033D87B9FBC5A59BD9E75D91
:1060C80063211F300E4C72C8F6B48A744A08368CA5
:1060D800B2F0CEE1DF9DA31927655B3B054779C385
:1060E800FDBF81AE90D2EC56682A14B38DCFF14B28
:1060F80075370926185A64DEE0A29CFCC280BE04EB
:106108003A78466957152B91AFEDD32D13516FD5BA
:10611800EBA997B886C4FA407E3C02625C1E209ABE
:10612800A4E6D8F7C98BB50F31734D5866241AA069
:106138009EDCE2CDF3B18F350B497717296B55EF0C
:10614800D193AD82BCFEC07A440638C6F8BA843E04
:1061580000427C536D2F11AB95D7E989B7F5CB7108
:106168004F0D331C22605EE4DA98A6013F7D43F9A7
:10617800C785BB94AAE8D66C52102E4E70320CB666
:1061880088CAF4DBE5A799231D5F619FA1E3DD675A
:10619800591B250A347648F2CC8EB0D0EEAC922842
:1061A80016546A457B3907BD83C1FF0000003F00D4
:1061B8000000BF0240000800155235BB8FAA2A3ED6
:1061C8008EBEBF350072313F080E3BAAB83F2C6324
:1061D8006E74303A256C6C752C636E74313A256C8C
:1061E8006C752C636E74323A256C6C752C636E7406
:1061F800333A256C6C752C636E74343A256C6C7567
:106208002C636E74353A256C6C752C636E74363A53
:10621800256C6C752C636E74373A256C6C75006947
:10622800643A25732C747970653A25732C766572F7
:1062380073696F6E3A257328257329002C7077725D
:106248003A25642E253032642C7077724F75743A73
:1062580025642E25303264002C616463303A25644D
:106268002E253032642C616463313A25642E253042
:1062780032640069643A25732C64693A25642C6297
:10628800746E3A25640069643A25732C6D73673A15
:10629800626164437263002C6372633A253032781A
:1062A8000D0A004A616E2020332032303236006EEB
:1062B80065774964353035303A006D73673A636FF6
:1062C8006E666967006D73673A73746174757300FD
:1062D8002C74303A25642E2564002C74313A2564D8
:1062E8002E2564002C74323A25642E2564002C7205
:1062F800683A25642E256400636D643A7265736597
:106308007400494E46494E49545900696E66696E93
:1063180069747900736574436E74303A00736574F8
:10632800436E74313A00736574436E74323A007385
:106338006574436E74333A00736574436E74343A0B
:1063480000736574436E74353A00736574436E74F4
:10635800363A00736574436E74373A006D73673A62
:10636800646174610069643A616C6C2C002C636F21
:10637800323A2564002C766F633A256400286E75DE
:106388006C6C290069643A25732C006E6577496442
:106398003A00526F6F6D494F002C200D0A090064B6
:1063A8006163303A00646163313A0069643A257385
:1063B800004E414E00696E66006E616E00302E34EC
:1063C8000069643A00646F3A00616C6C0000000E6A
:1063D8000001B96F000EB86FAE51AF11D8B4F7EF26
:1063E80031F0F9EF31F009EF32F06000BBF2D9FF7C
:1063F8006000BFF2DAFF6000B3F2DEFF6000B7F2C0
:10640800DDFF09EF32F0AC4BAD2B6000B3F2D9FFE2
:106418006000B7F2DAFF200EDE18D8B416EF32F0BB
:1064280019EF32F0010E1AEF32F0000EBE6FBF6B9B
:10643800BE51BF11D8A423EF32F025EF32F007EF99
:1064480032F06000B3F2D9FF6000B7F2DAFFDF5034
:10645800B06FB051BE6FBF6BBEC0B1F0F70EB127C1
:10646800040EB1653AEF32F03CEF32F007EF32F04C
:10647800BB6B2D0EBE19BF11D8A445EF32F047EF04
:1064880032F04DEF32F0010EBB6FAC4BAD2B59EF34
:1064980032F02B0EBE19BF11D8A455EF32F057EFCA
:1064A80032F059EF32F049EF32F0C46B5DEF32F061
:1064B800C42BC451AC25D96E000EAD21DA6EDF5065
:1064C800D8B469EF32F06BEF32F0A1EF32F0C4517B
:1064D800AC25D96E000EAD21DA6EDF50B06F130E09
:1064E800C425F66EF76A630EF722F86A000EF822E2
:1064F8000800F550B019D8B484EF32F086EF32F0C6
:106508005CEF32F0C451AC25D96E000EAD21DA6EC5
:10651800DF50B06F0A0EC425F66EF76A630EF722D5
:10652800F86A000EF8220800F550B019D8B49FEFA9
:1065380032F0A1EF32F05CEF32F0020EC465A7EF43
:1065480032F0A9EF32F0D9EF32F0000EC06F000E32
:10655800C16F800EC26F7F0EC36FAE51AF11D8B43A
:10656800B8EF32F0BAEF32F02CEF3AF0080EC41957
:10657800D8B4C1EF32F0C3EF32F0C5EF32F0030EFA
:10658800C46FC451AC25B06F000EAD21B16F60006F
:10659800BBF2D9FF6000BFF2DAFF6000C3F2DEFF92
:1065A8006000C7F2DDFF2CEF3AF0C46BDDEF32F08C
:1065B800C42BC451AC25D96E000EAD21DA6EDF5064
:1065C800D8B4E9EF32F0EBEF32F021EF33F0C451F9
:1065D800AC25D96E000EAD21DA6EDF50B06FC10E5A
:1065E800C425F66EF76A630EF722F86A000EF822E1
:1065F8000800F550B019D8B404EF33F006EF33F0C3
:10660800DCEF32F0C451AC25D96E000EAD21DA6E44
:10661800DF50B06FB90EC425F66EF76A630EF72225
:10662800F86A000EF8220800F550B019D8B41FEF28
:1066380033F021EF33F0DCEF32F0030EC419D8A4A5
:1066480028EF33F02AEF33F09EEF33F0A60E116EE9
:10665800630E126E48EC99F011C0C0F012C0C1F080
:1066680013C0C2F014C0C3F00001AE51AF11D8B4CA
:1066780040EF33F042EF33F02CEF3AF0C451AC273F
:10668800000EAD236000B3F2D9FF6000B7F2DAFF65
:10669800280EDE18D8A453EF33F055EF33F090EFFF
:1066A80033F0C46B59EF33F0C42BC451AC25D96E09
:1066B800000EAD21DA6EDF50D8B465EF33F067EF26
:1066C80033F076EF33F0C451AC25D96E000EAD210E
:1066D800DA6E290EDE18D8A474EF33F076EF33F0B3
:1066E80058EF33F0C451AC25D96E000EAD21DA6EE7
:1066F800290EDE18D8A483EF33F085EF33F090EF3E
:1067080033F0C451B06FB16B010EB027000EB12346
:10671800B051AC27B151AD236000BBF2D9FF600086
:10672800BFF2DAFF6000B3F2DEFF6000B7F2DDFF10
:106738002CEF3AF0000EBF6F000EBE6F000EC06F58
:10674800000EC16F000EC26F000EC36FB66BB76B41
:10675800000EBD6F000EBC6FC46BB4EF33F0C42BDA
:10676800C451AC25D96E000EAD21DA6E300EDE189C
:10677800D8B4C1EF33F0C3EF33F0B3EF33F0C45103
:10678800D8B4C9EF33F0CBEF33F080EF37F0C45112
:10679800AC25D96E000EAD21DA6E780EDE18D8B4AD
:1067A800D8EF33F0DAEF33F0E9EF33F0C451AC252A
:1067B800D96E000EAD21DA6E580EDE18D8A4E7EFB8
:1067C80033F0E9EF33F080EF37F0C451AC25B06F08
:1067D800000EAD21B16F010EB025D96E000EB121AA
:1067E800DA6EDF50B26FB251116E126A6FEC94F02C
:1067F80011501210D8A403EF34F005EF34F01DEF58
:1068080034F00001C451AC25B06F000EAD21B16F5A
:10681800010EB025D96E000EB121DA6E2E0EDE18EB
:10682800D8B419EF34F01BEF34F01DEF34F09FEFBC
:1068380036F0C4C0B6F00001C42BC451AC25D96EE3
:10684800000EAD21DA6E300EDE18D8B42EEF34F01B
:1068580030EF34F01FEF34F0C451AC25D96E000E80
:10686800AD21DA6E700EDE18D8B43DEF34F03FEF8C
:1068780034F0B4EF35F0C451AC25D96E000EAD211B
:10688800DA6E500EDE18D8A44CEF34F04EEF34F028
:1068980050EF34F0B4EF35F0C451AC25D96E000E8A
:1068A800AD21DA6E2E0EDE18D8A45DEF34F05FEF5E
:1068B80034F065EF34F0BB89C4C0B7F0C42BB4EF33
:1068C80035F0C451AC25D96E000EAD21DA6EDF501B
:1068D800B06FB051116E126A6FEC94F01150121033
:1068E800D8B479EF34F07BEF34F09FEF36F0000145
:1068F800BA6BC451AC25D96E000EAD21DA6EDF50EB
:10690800B06FB051116E126ABAEC98F011501210B3
:10691800D8B491EF34F093EF34F09FEF34F00001E6
:10692800C451AC25D96E000EAD21DA6EDF50D00F00
:10693800BA6FB1EF34F00001C451AC25D96E000E26
:10694800AD21DA6EDF50B06FB051116E126AA3EC50
:1069580098F01150C90F0001BA6FBFBFBFEF34F0F4
:10696800BF5107E1080EBE5DD8B0BDEF34F0BFEFF0
:1069780034F0DEEF34F0BE510708B06FD890B0376E
:10698800D890B037BAC0B1F0B26BB36BB46BB02B60
:10699800D3EF34F0D890B137B237B337B437B02F1C
:1069A800CEEF34F0B151C013B251C113B351C21379
:1069B800B451C313BE4BBF2B040EBC27000EBD231E
:1069C800C42B30EF34F0C451AC25D96E000EAD2184
:1069D800DA6E300EDE18D8A4F4EF34F0F6EF34F0A7
:1069E80005EF35F0BE51BF11D8A4FDEF34F0FFEF2D
:1069F80034F005EF35F0FC0EBC27FF0EBD23B3EFD6
:106A080035F0C451AC25D96E000EAD21DA6EDF50D9
:106A1800B06FB051116E126A6FEC94F011501210F1
:106A2800D8B419EF35F01BEF35F082EF35F00001DF
:106A3800BA6BC451AC25D96E000EAD21DA6EDF50A9
:106A4800B06FB051116E126ABAEC98F01150121072
:106A5800D8B431EF35F033EF35F03FEF35F00001C2
:106A6800C451AC25D96E000EAD21DA6EDF50D00FBF
:106A7800BA6F51EF35F00001C451AC25D96E000E44
:106A8800AD21DA6EDF50B06FB051116E126AA3EC0F
:106A980098F01150C90F0001BA6FBFBF5FEF35F012
:106AA800BF5107E1080EBE5DD8B05DEF35F05FEF6E
:106AB80035F07EEF35F0BE510708B06FD890B0378B
:106AC800D890B037BAC0B1F0B26BB36BB46BB02B1F
:106AD80073EF35F0D890B137B237B337B437B02F3A
:106AE8006EEF35F0B151C013B251C113B351C21397
:106AF800B451C313BE4BBF2BB3EF35F00001C451E3
:106B0800B06FB16BB751B26FB36B010EB227000E05
:106B1800B323B051B21907E1B151B319D8A497EF13
:106B280035F099EF35F0BBEF35F0B751B06FB16B79
:106B3800B651B26FB36B010EB227000EB323B0513A
:106B4800B21907E1B151B319D8A4ADEF35F0AFEFE1
:106B580035F0BBEF35F0B6C0C4F09FEF36F0C42B6C
:106B6800BBB9B9EF35F0BBEF35F0E7EF34F0C451FE
:106B7800AC27000EAD23C46B6000B3F2D9FF6000F0
:106B8800B7F2DAFF700EDE18D8B4CDEF35F0CFEFDC
:106B980035F0E0EF35F06000B3F2D9FF6000B7F2EE
:106BA800DAFF500EDE18D8B4DCEF35F0DEEF35F042
:106BB800E0EF35F09FEF36F0C42B20EE01F0AC513A
:106BC800D926AD51DA222B0EDE18D8A4EEEF35F017
:106BD800F0EF35F0F3EF35F0C42B04EF36F020EE8C
:106BE80001F0AC51D926AD51DA222D0EDE18D8A409
:106BF80000EF36F002EF36F004EF36F0BB87C42B17
:106C0800C451AC25D96E000EAD21DA6EDF50B06FDD
:106C1800B051116E126ABAEC98F011501210D8A443
:106C280018EF36F01AEF36F01EEF36F00001C46B9D
:106C38009FEF36F00001C451AC27000EAD23C46BA2
:106C480027EF36F0C42BC451AC25D96E000EAD2108
:106C5800DA6E300EDE18D8B434EF36F036EF36F090
:106C680026EF36F0000EBF6F000EBE6F67EF36F0EE
:106C78000001C451D8B443EF36F045EF36F053EF76
:106C880036F0BEC011F0BFC012F0000E146E0A0E2E
:106C9800136EE6EC98F011C0BEF012C0BFF0000110
:106CA800C451AC25D96E000EAD21DA6EDF50B06F3D
:106CB800D00EB025B16FB26BFF0EB223B151BE2713
:106CC800B251BF23C42BC451AC25D96E000EAD21DF
:106CD800DA6EDF50B06FB051116E126ABAEC98F0EC
:106CE80011501210D8A47BEF36F07DEF36F03CEF50
:106CF80036F00001C451D8A484EF36F086EF36F0A0
:106D080090EF36F0000EAC6F000EAD6F000EAE6F58
:106D1800000EAF6F63EF3AF0BBA795EF36F097EF31
:106D280036F09BEF36F0BE6DBF1FD8B0BF2BBE51FB
:106D3800BC27BF51BD230001AE51AF11D8B4A7EF96
:106D480036F0A9EF36F0BBEF36F0C451AC25B06F82
:106D5800000EAD21B16F6000BBF2D9FF6000BFF239
:106D6800DAFF6000C3F2DEFF6000C7F2DDFFC0514A
:106D7800C111C211C311D8A4C4EF36F0C6EF36F062
:106D8800D0EF36F0000EAC6F000EAD6F000EAE6F98
:106D9800000EAF6F63EF3AF0FF0EC015B06F000E34
:106DA800C115B16F000EC215B26F000EC315B36FD7
:106DB800B351B211B11109E1810EB05DD8A0E7EF6E
:106DC80036F0E9EF36F0FBEF36F0000EC027010E83
:106DD800C123000EC223000EC323FBEF36F0D89068
:106DE800C037C137C237C337BC07D8A0BD07C3AF48
:106DF80000EF37F002EF37F0F3EF36F0BDAF0EEFEC
:106E080037F0830EBC5DFF0EBD59D8B00EEF37F0DA
:106E180010EF37F01CEF37F0FF0EBD6F810EBC6F1F
:106E2800000EC06F000EC16F000EC26F000EC36F60
:106E3800810EBC1908E1BD29D8B425EF37F027EF3A
:106E480037F02FEF37F0D890C037C137C237C33784
:106E5800BC07D8A0BD07BDBF3BEF37F0BD5109E166
:106E6800800EBC5DD8A03BEF37F03DEF37F04FEF19
:106E780037F0000EC06F000EC16F000EC26F000E1B
:106E8800C36F000EBD6F800EBC6F000EB96F220E6F
:106E9800B86F2CEF3AF0090EB06FD890C333C233F5
:106EA800C133C033B02F51EF37F0FF0EC017FF0EBC
:106EB800C1177F0EC217000EC3177F0EBC25B06F17
:106EC800000EBD21B16FFF0EB015B26FB36BB46B7E
:106ED800B56B170ED890B237B337B437B537E82E3D
:106EE8006EEF37F0B251C013B351C113B451C2138E
:106EF800B551C3132CEF3AF0BBB985EF37F087EFE4
:106F080037F09BEF37F06000B3F2D9FF6000B7F2BB
:106F1800DAFF2E0EDE18D8A494EF37F096EF37F08C
:106F28009BEF37F0BB89AC4BAD2B80EF37F060009F
:106F3800B3F2D9FF6000B7F2DAFFDF50B06FB0519B
:106F4800116E126ABAEC98F011501210D8A4AFEF73
:106F580037F0B1EF37F0B3EF37F005EF38F0000155
:106F6800BB83090EBE19BF11D8B4BDEF37F0BFEF10
:106F780037F0F8EF37F0BBA9C4EF37F0C6EF37F0BA
:106F8800C9EF37F0BC07D8A0BD07BE4BBF2BC0C0A8
:106F980019F0C1C01AF0C2C01BF0C3C01CF00A0E21
:106FA8001D6E000E1E6E000E1F6E000E206EF5EC9C
:106FB80091F019C0C0F01AC0C1F01BC0C2F01CC0CB
:106FC800C3F06000B3F2D9FF6000B7F2DAFFDF5018
:106FD8000001B06FD00EB027B051C027000EC123FA
:106FE800C223C32301EF38F0BBB9FDEF37F0FFEF41
:106FF80037F001EF38F0BC4BBD2BAC4BAD2B80EF1D
:1070080037F0000E0001BF6F000EBE6F6000B3F2D4
:10701800D9FF6000B7F2DAFF650EDE18D8B417EFB3
:1070280038F019EF38F028EF38F06000B3F2D9FFE4
:107038006000B7F2DAFF450EDE18D8A426EF38F064
:1070480028EF38F0BCEF38F0AC4BAD2B6000B3F252
:10705800D9FF6000B7F2DAFF2D0EDE18D8A437EF9B
:1070680038F039EF38F03EEF38F0BB87AC4BAD2B3A
:107078004FEF38F06000B3F2D9FF6000B7F2DAFFE3
:107088002B0EDE18D8A44BEF38F04DEF38F04FEF49
:1070980038F0AC4BAD2B6000B3F2D9FF6000B7F20B
:1070A800DAFF300EDE18D8B45CEF38F05EEF38F057
:1070B8004DEF38F0BA6B80EF38F06000B3F2D9FFCB
:1070C8006000B7F2DAFFDF500001B06FD00EB027D2
:1070D8000A0EBE036F00CCFFB1F06F00D0FFB2F014
:1070E800BF03F350B227B051B125BE6F000EB221D5
:1070F800BF6FAC4BAD2BBA2B6000B3F2D9FF600069
:10710800B7F2DAFFDF50B06FB051116E126ABAEC05
:1071180098F011501210D8A494EF38F096EF38F088
:1071280061EF38F00001BA51D8A49DEF38F09FEF15
:1071380038F0B1EF38F02FEEFFF3AC51D926AD514E
:10714800DA22300EDE18D8B4ACEF38F0AEEF38F0F3
:10715800B1EF38F0AC07D8A0AD07BBA7B6EF38F051
:10716800B8EF38F0BCEF38F0BE6DBF1FD8B0BF2BFA
:10717800BE51BC27BF51BD23AE51AF11D8B4C7EF24
:1071880038F0C9EF38F0DCEF38F0BBA3CEEF38F0B9
:10719800D0EF38F0DCEF38F06000BBF2D9FF6000C8
:1071A800BFF2DAFF6000B3F2DEFF6000B7F2DDFF86
:1071B800C0C033F0C1C034F0C2C035F0C3C036F02F
:1071C800000E49EC78F033C0C0F034C0C1F035C0CF
:1071D800C2F036C0C3F0C0C011F0C1C012F0C2C0C6
:1071E80013F0C3C014F0000E156E000E166E000EDC
:1071F800176E000E186E40EC8BF0D8A006EF39F031
:1072080008EF39F013EF39F0000E0001AC6F000EF3
:10721800AD6F000EAE6F000EAF6F63EF3AF0000176
:10722800BDBF1BEF39F019EF39F0ACEF39F0BC6D89
:10723800BD1FD8B0BD2B40EF39F0C0C093F0C1C01E
:1072480094F0C2C095F0C3C096F0F90E976F020E85
:10725800986F150E996F500E9A6FE4EC6AF093C010
:10726800C0F094C0C1F095C0C2F096C0C3F0000150
:10727800F60EBC27FF0EBD23BDBF4EEF39F0BD5142
:1072880007E10A0EBC5DD8B04CEF39F04EEF39F08B
:1072980021EF39F06EEF39F0C0C093F0C1C094F01F
:1072A800C2C095F0C3C096F0000E976F000E986F9D
:1072B800200E996F410E9A6FE4EC6AF093C0C0F00B
:1072C80094C0C1F095C0C2F096C0C3F00001BC07DD
:1072D800D8A0BD07BC51BD11D8A475EF39F077EF20
:1072E80039F050EF39F0C0C011F0C1C012F0C2C07F
:1072F80013F0C3C014F0000E156E000E166E800E4B
:10730800176E000E186E9CEC84F0D8B08EEF39F032
:1073180090EF39F02CEF3AF00001BBA196EF39F06D
:1073280098EF39F0A2EF39F0000EAC6F000EAD6F98
:10733800800EAE6F800EAF6F63EF3AF0000EAC6F49
:10734800000EAD6F800EAE6F000EAF6F63EF3AF0B8
:10735800BDBFB7EF39F0BD5108E1BC05D8A0B7EF04
:1073680039F0B9EF39F02CEF3AF0DAEF39F0C0C064
:107378007AF0C1C07BF0C2C07CF0C3C07DF0F90ECA
:107388007E6F020E7F6F150E806F500E816FB4EC0A
:107398005EF07AC0C0F07BC0C1F07CC0C2F07DC096
:1073A800C3F00001F60EBC27FF0EBD23BD5107E157
:1073B8000A0EBC5DD8B0E3EF39F0E5EF39F0BBEF6A
:1073C80039F005EF3AF0C0C07AF0C1C07BF0C2C016
:1073D8007CF0C3C07DF0000E7E6F000E7F6F200E24
:1073E800806F410E816FB4EC5EF07AC0C0F07BC054
:1073F800C1F07CC0C2F07DC0C3F00001BC07D8A0BA
:10740800BD07BC51BD11D8A40CEF3AF00EEF3AF00D
:10741800E7EF39F0FF0E116EFF0E126E7F0E136E3E
:107428007F0E146EC0C015F0C1C016F0C2C017F0B0
:10743800C3C018F09CEC84F0D8B025EF3AF027EFE1
:107448003AF02CEF3AF0000E0001B96F220EB86F37
:107458000001B851B911D8B434EF3AF036EF3AF028
:1074680042EF3AF0B8C064F1B9C065F1000EC06FE0
:10747800000EC16F800EC26F7F0EC36FBBA147EFB6
:107488003AF049EF3AF05BEF3AF0C0C011F0C1C0F2
:1074980012F0C2C013F0C3C014F037EC98F011C05A
:1074A800C0F012C0C1F013C0C2F014C0C3F0C0C015
:1074B800ACF0C1C0ADF0C2C0AEF0C3C0AFF01200B6
:1074C8000001FF5107E1090EFE5DD8B06EEF3AF0FA
:1074D80070EF3AF072EF3AF0FAEF3FF00101996B72
:1074E800000E156E080E166E000E176E030E186E3F
:1074F800000E116E030E126E1AEC98F011C019F0FE
:1075080012C01AF04EEC7CF015501610D8A48FEF6C
:107518003AF091EF3AF097EF3AF0010E01019A6FC5
:10752800BB9AE6EF3AF0000E156E080E166E6D0E59
:10753800176E630E186E000E1A6E070E196E4EEC5B
:107548007CF015501610D8A4ACEF3AF0AEEF3AF034
:10755800FAEF3FF0010E01019A6FBB9A6AC1F4F08D
:10756800070E0001F4173DEC9AF01150070B0001CB
:10757800F42501018D6F000E916F000E906FD1EF11
:107588003AF0150E0001F46FC60EE82EFED7F42F60
:10759800FCD700000101904B912B8D510001F46F35
:1075A800F56BF4510101905D9151800A0001F66F6D
:1075B800F551800AF659D8A0E4EF3AF0E6EF3AF030
:1075C800C5EF3AF0000E116E080E126EF70E0001AC
:1075D800FE25136EFF0EFF21146E000EB4EC8FF023
:1075E80001018E6F986BF70E0001FE25AC6F070E38
:1075F800FF21AD6F9F0EAE6F620EAF6F980EB06F2A
:10760800010EB16FF6EC96F0ACC087F1ADC088F111
:10761800010187518811D8B414EF3BF016EF3BF005
:107628001FEF3BF098518E19D8B41DEF3BF01FEFB8
:107638003BF023EF3BF0B1EC8EF0FAEF3FF0000E99
:107648001C6E080E1D6EA10E1E6E630E1F6E03ECDF
:1076580087F01CC09BF11DC09CF1C6EF3FF0C90E1E
:10766800156E630E166E9BC117F09CC118F0000EC4
:107678001A6E030E196E4EEC7CF015501610D8A435
:1076880048EF3BF04AEF3BF0B8EF3BF0030E010147
:107698009B25116E000E9C21126E800E136E020E39
:1076A800146E35EC8AF011501210D8A45EEF3BF03E
:1076B80060EF3BF068EF3BF0010E01019A6FBB9A57
:1076C800B8EF3FF0B8EF3FF0030E01019B25116EB4
:1076D800000E9C21126ED10E136E630E146E35ECE3
:1076E8008AF011501210D8A47CEF3BF07EEF3BF0EB
:1076F800DEEF3FF0010E01019A6F6AC1F4F0070E48
:107708000001F4173DEC9AF01150070B0001F42525
:1077180001018F6F000E936F000E926FA0EF3BF088
:10772800150E0001F46FC60EE82EFED7F42FFCD715
:1077380000000101924B932B8F510001F46FF56B00
:10774800F4510101925D9351800A0001F66FF551E1
:10775800800AF659D8A0B3EF3BF0B5EF3BF094EFB1
:107768003BF0BB9AB8EF3FF001019A51D8B4BFEF94
:107778003BF0C1EF3BF0DDEF3BF0640E156E630E9E
:10778800166E9BC117F09CC118F0000E1A6E080EF9
:10779800196E4EEC7CF015501610D8A4D6EF3BF0BD
:1077A800D8EF3BF0DDEF3BF0010E0101996FB8EF28
:1077B8003FF001019A51D8B4E4EF3BF0E6EF3BF01B
:1077C80002EF3CF0C20E156E620E166E9BC117F0EA
:1077D8009CC118F0000E1A6E0A0E196E4EEC7CF061
:1077E80015501610D8A4FBEF3BF0FDEF3BF002EF6D
:1077F8003CF0020E0101996FB8EF3FF001019A5178
:10780800D8B409EF3CF00BEF3CF027EF3CF0CD0E7D
:10781800156E620E166E9BC117F09CC118F0000E13
:107828001A6E0A0E196E4EEC7CF015501610D8A47C
:1078380020EF3CF022EF3CF027EF3CF0030E010173
:10784800996FB8EF3FF001019A51D8B42EEF3CF090
:1078580030EF3CF055EF3CF0CD0E156E630E166E12
:107868009BC117F09CC118F0000E1A6E030E196E1A
:107878004EEC7CF015501610D8A445EF3CF047EFBD
:107888003CF055EF3CF0030E01019B25116E000EF4
:107898009C21126E78EC76F01150BFEC9AF0B8EF9C
:1078A8003FF001019A51D8B45CEF3CF05EEF3CF038
:1078B800B7EF3CF0A70E156E630E166E9BC117F05E
:1078C8009CC118F0000E1A6E050E196E4EEC7CF075
:1078D80015501610D8A473EF3CF075EF3CF0B7EFD5
:1078E8003CF0000E0001AE6F000EAF6F050E0101F7
:1078F8009B250001AC6F000E01019C210001AD6FBA
:10790800EBEC31F0ACC094F1ADC095F1AEC096F19E
:10791800AFC097F1000E00017E6F000E7F6F7A0EE8
:10792800806F440E816F94C17AF095C17BF096C147
:107938007CF097C17DF0B4EC5EF07AC0C5F07BC0F6
:10794800C6F07CC0C7F07DC0C8F018EC84F0C5C094
:1079580089F1C6C08AF189C1D3F08AC1D4F06AEC32
:1079680090F0B8EF3FF001019A51D8B4BEEF3CF067
:10797800C0EF3CF019EF3DF0AD0E156E630E166EBC
:107988009BC117F09CC118F0000E1A6E050E196EF7
:107998004EEC7CF015501610D8A4D5EF3CF0D7EF7C
:1079A8003CF019EF3DF0000E0001AE6F000EAF6F16
:1079B800050E01019B250001AC6F000E01019C2101
:1079C8000001AD6FEBEC31F0ACC094F1ADC095F1B6
:1079D800AEC096F1AFC097F1000E00017E6F000EA9
:1079E8007F6F7A0E806F440E816F94C17AF095C1D3
:1079F8007BF096C17CF097C17DF0B4EC5EF07AC064
:107A0800C5F07BC0C6F07CC0C7F07DC0C8F018ECDC
:107A180084F0C5C08BF1C6C08CF18BC1D3F08CC18A
:107A2800D4F02EEC90F0B8EF3FF001019A51D8B4A1
:107A380020EF3DF022EF3DF057EF3DF01C0E156EA4
:107A4800630E166E9BC117F09CC118F0000E1A6EDB
:107A5800080E196E4EEC7CF015501610D8A437EFAE
:107A68003DF039EF3DF057EF3DF0080E01019B2541
:107A7800296E000E9C212A6E48EC72F029C071F024
:107A88002AC072F02BC073F02CC074F02DC075F0B2
:107A98002EC076F02FC077F030C078F0000E18ECCA
:107AA80097F0B8EF3FF001019A51D8B45EEF3DF07E
:107AB80060EF3DF095EF3DF0250E156E630E166EE6
:107AC8009BC117F09CC118F0000E1A6E080E196EB3
:107AD8004EEC7CF015501610D8A475EF3DF077EFFA
:107AE8003DF095EF3DF0080E01019B25296E000E33
:107AF8009C212A6E48EC72F029C071F02AC072F0FD
:107B08002BC073F02CC074F02DC075F02EC076F029
:107B18002FC077F030C078F0010E18EC97F0B8EF6E
:107B28003FF001019A51D8B49CEF3DF09EEF3DF033
:107B3800D3EF3DF02E0E156E630E166E9BC117F037
:107B48009CC118F0000E1A6E080E196E4EEC7CF0EF
:107B580015501610D8A4B3EF3DF0B5EF3DF0D3EFB4
:107B68003DF0080E01019B25296E000E9C212A6E0E
:107B780048EC72F029C071F02AC072F02BC073F083
:107B88002CC074F02DC075F02EC076F02FC077F0A1
:107B980030C078F0020E18EC97F0B8EF3FF0010112
:107BA8009A51D8B4DAEF3DF0DCEF3DF011EF3EF03A
:107BB800370E156E630E166E9BC117F09CC118F038
:107BC800000E1A6E080E196E4EEC7CF01550161049
:107BD800D8A4F1EF3DF0F3EF3DF011EF3EF0080EC1
:107BE80001019B25296E000E9C212A6E48EC72F03B
:107BF80029C071F02AC072F02BC073F02CC074F049
:107C08002DC075F02EC076F02FC077F030C078F018
:107C1800030E18EC97F0B8EF3FF001019A51D8B471
:107C280018EF3EF01AEF3EF04FEF3EF0400E156EA3
:107C3800630E166E9BC117F09CC118F0000E1A6EE9
:107C4800080E196E4EEC7CF015501610D8A42FEFC4
:107C58003EF031EF3EF04FEF3EF0080E01019B255C
:107C6800296E000E9C212A6E48EC72F029C071F032
:107C78002AC072F02BC073F02CC074F02DC075F0C0
:107C88002EC076F02FC077F030C078F0040E18ECD4
:107C980097F0B8EF3FF001019A51D8B456EF3EF093
:107CA80058EF3EF08DEF3EF0490E156E630E166EDE
:107CB8009BC117F09CC118F0000E1A6E080E196EC1
:107CC8004EEC7CF015501610D8A46DEF3EF06FEF17
:107CD8003EF08DEF3EF0080E01019B25296E000E47
:107CE8009C212A6E48EC72F029C071F02AC072F00B
:107CF8002BC073F02CC074F02DC075F02EC076F038
:107D08002FC077F030C078F0050E18EC97F0B8EF78
:107D18003FF001019A51D8B494EF3EF096EF3EF04F
:107D2800CBEF3EF0520E156E630E166E9BC117F028
:107D38009CC118F0000E1A6E080E196E4EEC7CF0FD
:107D480015501610D8A4ABEF3EF0ADEF3EF0CBEFD8
:107D58003EF0080E01019B25296E000E9C212A6E1B
:107D680048EC72F029C071F02AC072F02BC073F091
:107D78002CC074F02DC075F02EC076F02FC077F0AF
:107D880030C078F0060E18EC97F0B8EF3FF001011C
:107D98009A51D8B4D2EF3EF0D4EF3EF009EF3FF05D
:107DA8005B0E156E630E166E9BC117F09CC118F022
:107DB800000E1A6E080E196E4EEC7CF01550161057
:107DC800D8A4E9EF3EF0EBEF3EF009EF3FF0080EE4
:107DD80001019B25296E000E9C212A6E48EC72F049
:107DE80029C071F02AC072F02BC073F02CC074F057
:107DF8002DC075F02EC076F02FC077F030C078F027
:107E0800070E18EC97F0B8EF3FF001019A51D8B47B
:107E180010EF3FF012EF3FF035EF3FF0020E9919E7
:107E2800D8A419EF3FF01BEF3FF035EF3FF0000EFD
:107E3800156E630E166E9BC117F09CC118F0000EEC
:107E48001A6E090E196E4EEC7CF015501610D8A457
:107E580030EF3FF032EF3FF035EF3FF0FF00B8EF83
:107E68003FF001019A51D8B43CEF3FF03EEF3FF0AC
:107E780073EF3FF0020E9919D8A445EF3FF047EF92
:107E88003FF073EF3FF0930E156E630E166E9BC1B5
:107E980017F09CC118F0000E1A6E060E196E4EEC03
:107EA8007CF015501610D8A45CEF3FF05EEF3FF061
:107EB80073EF3FF0800E116E020E126E060E010176
:107EC8009B25136E000E9C21146E000E166E200E5C
:107ED800156E24EC8EF0AFEC96F0B8EF3FF0010190
:107EE8009A51D8B47AEF3FF07CEF3FF066EF3BF061
:107EF800020E9919D8A483EF3FF085EF3FF066EFA3
:107F08003BF0B70E156E620E166E9BC117F09CC142
:107F180018F0000E1A6E0A0E196E4EEC7CF0155011
:107F28001610D8A49AEF3FF09CEF3FF066EF3BF0B5
:107F38003DEC9AF011A0A3EF3FF0A5EF3FF066EFFC
:107F48003BF0800E116E020E126E0A0E01019B2587
:107F5800136E000E9C21146E000E166E200E156E08
:107F680024EC8EF06FEF3FF0000E1C6E000E1D6EBD
:107F7800A10E1E6E630E1F6E03EC87F01CC09BF1F2
:107F88001DC09CF101019B519C11D8A4CEEF3FF07C
:107F9800D0EF3FF033EF3BF0DEEF3FF0ADEC59F0C0
:107FA800F9EF3FF07DEC7EF0F9EF3FF03FEC8CF01D
:107FB800F9EF3FF0010199510001F46FF56BF551AC
:107FC800000AD8B4EAEF3FF0F9EF3FF0F451010AA4
:107FD800D8B4D2EF3FF0030AD8B4DAEF3FF0010A81
:107FE800D8B4D6EF3FF0F9EF3FF0BB8A1200000E8D
:107FF8000001726FFE0E736FFF0E746F460E756F81
:1080080020EE02F0E551D926E651DA226F0078FF1A
:1080180076F06F0078FF77F06F0078FF78F06F00E8
:1080280078FF79F08BEC96F072C0D0F173C0D1F183
:1080380074C0D2F175C0D3F1000120EE5FF0E551B4
:10804800D926E651DA226F0078FF11F06F0078FF29
:1080580012F06F0078FF13F06F0078FF14F0D0C1B2
:1080680015F0D1C116F0D2C117F0D3C118F09CECAD
:1080780084F0D8B042EF40F044EF40F07EEF40F09B
:10808800000120EE5FF0E551D926E651DA226F00B3
:1080980078FF66F06F0078FF67F06F0078FF68F090
:1080A8006F0078FF69F020EE02F0E551D926E6511D
:1080B800DA226F0078FF6AF06F0078FF6BF06F00CC
:1080C80078FF6CF06F0078FF6DF058EC5CF0000101
:1080D80020EE5FF0E551D926E651DA2260009BF1E7
:1080E800DEFF60009FF1DEFF6000A3F1DEFF6000AD
:1080F800A7F1DEFF000120EE63F0E551D926E65135
:10810800DA226F0078FF11F06F0078FF12F06F002D
:1081180078FF13F06F0078FF14F0D0C115F0D1C1CB
:1081280016F0D2C117F0D3C118F09CEC84F0D8B087
:10813800A0EF40F0A2EF40F0DCEF40F0000120EEAD
:1081480063F0E551D926E651DA226F0078FF66F030
:108158006F0078FF67F06F0078FF68F06F0078FFB6
:1081680069F020EE02F0E551D926E651DA226F00D7
:1081780078FF6AF06F0078FF6BF06F0078FF6CF0A3
:108188006F0078FF6DF058EC5CF0000120EE63F0B2
:10819800E551D926E651DA2260009BF1DEFF600046
:1081A8009FF1DEFF6000A3F1DEFF6000A7F1DEFFB4
:1081B800E5C011F0E6C012F0000120EE12F0E55122
:1081C800D926E651DA226F0078FF13F06F0078FFA6
:1081D80014F06F0078FF15F06F0078FF16F00A0EA4
:1081E800176ED70E186E230E196E3C0E1A6E85EC9C
:1081F80095F0E5C0D7F0E6C0D8F0000120EE5FF0BA
:10820800E551D926E651DA226F0078FFD9F06F00E0
:1082180078FFDAF06F0078FFDBF06F0078FFDCF0B2
:10822800F7EC79F0D7C0D4F1D8C0D5F1D9C0D6F1E0
:10823800DAC0D7F1D4C17EF0D5C17FF0D6C180F0C5
:10824800D7C181F0000120EE47F0E551D926E6516B
:10825800DA226F0078FF76F06F0078FF77F06F0012
:1082680078FF78F06F0078FF79F020EE4FF0E55155
:10827800D926E651DA226F0078FF72F06F0078FF96
:1082880073F06F0078FF74F06F0078FF75F08BEC77
:1082980096F072C07AF073C07BF074C07CF075C041
:1082A8007DF0B4EC5EF07AC0E4F17BC0E5F17CC00F
:1082B800E6F17DC0E7F1E4C166F0E5C167F0E6C12B
:1082C80068F0E7C169F0000120EE47F0E551D926D2
:1082D800E651DA226F0078FF6AF06F0078FF6BF0E2
:1082E8006F0078FF6CF06F0078FF6DF058EC5CF071
:1082F80066C0B4F167C0B5F168C0B6F169C0B7F13E
:10830800000120EE63F0E551D926E651DA226F002C
:1083180078FFD9F06F0078FFDAF06F0078FFDBF0B4
:108328006F0078FFDCF0E5C0D7F0E6C0D8F0F7ECD6
:1083380079F0D7C0DCF1D8C0DDF1D9C0DEF1DAC000
:10834800DFF1DCC17EF0DDC17FF0DEC180F0DFC18E
:1083580081F0000120EE1AF0E551D926E651DA2223
:108368006F0078FF76F06F0078FF77F06F0078FF86
:1083780078F06F0078FF79F0000E726F000E736F5F
:10838800FF0E746F430E756F8BEC96F072C07AF027
:1083980073C07BF074C07CF075C07DF0B4EC5EF007
:1083A8007AC0E0F17BC0E1F17CC0E2F17DC0E3F18D
:1083B800E0C166F0E1C167F0E2C168F0E3C169F0CD
:1083C800000120EE1AF0E551D926E651DA226F00B5
:1083D80078FF6AF06F0078FF6BF06F0078FF6CF041
:1083E8006F0078FF6DF058EC5CF066C0B8F167C0BC
:1083F800B9F168C0BAF169C0BBF1E5C011F0E6C0D7
:1084080012F0B8C113F0B9C114F0BAC115F0BBC16C
:1084180016F0EC0E176E510E186EB80E196E3D0E52
:108428001A6E85EC95F0E5C0D7F0E6C0D8F00001EB
:1084380020EE36F0E551D926E651DA226F0078FFB2
:10844800D9F06F0078FFDAF06F0078FFDBF06F008B
:1084580078FFDCF0F7EC79F0D7C0D8F1D8C0D9F1C3
:10846800D9C0DAF1DAC0DBF1D8C17AF0D9C17BF032
:10847800DAC17CF0DBC17DF0B4C17EF0B5C17FF01C
:10848800B6C180F0B7C181F0B4EC5EF0000120EE17
:1084980057F0E551D926E651DA226000EBF1DEFF0C
:1084A8006000EFF1DEFF6000F3F1DEFF6000F7F13E
:1084B800DEFFE5C011F0E6C012F020EE16F0E5513F
:1084C800D926E651DA226F0078FF13F06F0078FFA3
:1084D80014F06F0078FF15F06F0078FF16F00A0EA1
:1084E800176ED70E186E230E196E3C0E1A6E85EC99
:1084F80095F0E5C0D7F0E6C0D8F0000120EE5FF0B7
:10850800E551D926E651DA226F0078FFD9F06F00DD
:1085180078FFDAF06F0078FFDBF06F0078FFDCF0AF
:10852800F7EC79F0D7C0BCF1D8C0BDF1D9C0BEF125
:10853800DAC0BFF1D4C176F0D5C177F0D6C178F0F2
:10854800D7C179F0BCC172F0BDC173F0BEC174F07F
:10855800BFC175F08BEC96F072C07EF073C07FF0EF
:1085680074C080F075C081F0000120EE4BF0E55139
:10857800D926E651DA226F0078FF76F06F0078FF8F
:1085880077F06F0078FF78F06F0078FF79F020EED1
:1085980053F0E551D926E651DA226F0078FF72F0E0
:1085A8006F0078FF73F06F0078FF74F06F0078FF4A
:1085B80075F08BEC96F072C07AF073C07BF074C0E3
:1085C8007CF075C07DF0B4EC5EF07AC0E4F17BC05D
:1085D800E5F17CC0E6F17DC0E7F1E4C166F0E5C1F4
:1085E80067F0E6C168F0E7C169F0000120EE4BF0E2
:1085F800E551D926E651DA226F0078FF6AF06F005C
:1086080078FF6BF06F0078FF6CF06F0078FF6DF00B
:1086180058EC5CF066C0C0F167C0C1F168C0C2F137
:1086280069C0C3F1000120EE63F0E551D926E65197
:10863800DA226F0078FFD9F06F0078FFDAF06F0068
:1086480078FFDBF06F0078FFDCF0E5C0D7F0E6C01C
:10865800D8F0F7EC79F0D7C0DCF1D8C0DDF1D9C09B
:10866800DEF1DAC0DFF1DCC17EF0DDC17FF0DEC112
:1086780080F0DFC181F0000120EE1AF0E551D92623
:10868800E651DA226F0078FF76F06F0078FF77F016
:108698006F0078FF78F06F0078FF79F0000E726F46
:1086A800000E736FFF0E746F430E756F8BEC96F0B0
:1086B80072C07AF073C07BF074C07CF075C07DF036
:1086C800B4EC5EF07AC0E0F17BC0E1F17CC0E2F18D
:1086D8007DC0E3F1E0C166F0E1C167F0E2C168F096
:1086E800E3C169F0000120EE1AF0E551D926E65100
:1086F800DA226F0078FF6AF06F0078FF6BF06F0086
:1087080078FF6CF06F0078FF6DF058EC5CF066C095
:10871800C4F167C0C5F168C0C6F169C0C7F1E5C05A
:1087280011F0E6C012F0C4C113F0C5C114F0C6C1FF
:1087380015F0C7C116F0EC0E176E510E186EB80E74
:10874800196E3D0E1A6E85EC95F0E5C0D7F0E6C0BF
:10875800D8F0000120EE36F0E551D926E651DA22AC
:108768006F0078FFD9F06F0078FFDAF06F0078FFBC
:10877800DBF06F0078FFDCF0F7EC79F0D7C0C8F1D8
:10878800D8C0C9F1D9C0CAF1DAC0CBF1C8C17AF0F2
:10879800C9C17BF0CAC17CF0CBC17DF0C0C17EF0FD
:1087A800C1C17FF0C2C180F0C3C181F0B4EC5EF0FA
:1087B800000120EE5BF0E551D926E651DA2260008F
:1087C800EBF1DEFF6000EFF1DEFF6000F3F1DEFFAA
:1087D8006000F7F1DEFF660E7E6F660E7F6FA60EF5
:1087E800806F3F0E816FD8C176F0D9C177F0DAC1BA
:1087F80078F0DBC179F0000E726F000E736F800E97
:10880800746F3F0E756F8BEC96F072C07AF073C080
:108818007BF074C07CF075C07DF0B4EC5EF07AC07B
:10882800E4F17BC0E5F17CC0E6F17DC0E7F1000E24
:108838000001976F000E986F700E996F420E9A6F35
:1088480020EE02F0E551D926E651DA226F0078FFD2
:1088580093F06F0078FF94F06F0078FF95F06F0049
:1088680078FF96F0E4EC6AF093C07EF094C07FF055
:1088780095C080F096C081F09A0E00016A6F990E3B
:108888006B6F990E6C6FBE0E6D6FE4C166F0E5C13B
:1088980067F0E6C168F0E7C169F058EC5CF066C0C3
:1088A8007AF067C07BF068C07CF069C07DF0B4ECFA
:1088B8005EF07AC0CCF17BC0CDF17CC0CEF17DC03A
:1088C800CFF1CCC166F0CDC167F0CEC168F0CFC1A1
:1088D80069F0000120EE67F0E551D926E651DA2269
:1088E8006F0078FF6AF06F0078FF6BF06F0078FF19
:1088F8006CF06F0078FF6DF058EC5CF0000120EE32
:1089080067F0E551D926E651DA2260009BF1DEFFD7
:1089180060009FF1DEFF6000A3F1DEFF6000A7F1B9
:10892800DEFF20EE67F0E551D926E651DA22030E84
:10893800DBBEA3EF44F0A1EF44F0B1EF44F020EE2A
:1089480067F0E551D926E651DA22000EDE6E000EF8
:10895800DE6E000EDE6E000EDD6E20EE0EF0E551CE
:10896800D926E651DA226F0078FF11F06F0078FF00
:1089780012F06F0078FF13F06F0078FF14F020EE0C
:1089880067F0E551D926E651DA226F0078FF15F035
:108998006F0078FF16F06F0078FF17F06F0078FF10
:1089A80018F09CEC84F0D8B0DCEF44F0DEEF44F033
:1089B800EDEF44F0000120EE63F0E551D926E651D1
:1089C800DA22000EDE6E000EDE6E000EDE6E000E87
:1089D800DD6E1200010120EE3AF0E851D926E95186
:1089E800DA22DF50D8A4FBEF44F0FDEF44F027EF84
:1089F80045F020EE3AF0E851D926E951DA22010E85
:108A0800DF6E20EE3FF0E851D926E951DA22600006
:108A1800ABF7DEFF6000AFF7DEFF6000B3F7DEFF05
:108A28006000B7F7DEFF20EE3BF0E851D926E951A8
:108A3800DA22000EDE6E000EDE6E000EDE6E000E16
:108A4800DD6E5BEF48F020EE3BF0E851D926E951A6
:108A5800DA226F0078FF11F06F0078FF12F06F00D4
:108A680078FF13F06F0078FF14F0000E156E000EFB
:108A7800166EC80E176E420E186E9CEC84F0D8B0B5
:108A880048EF45F04AEF45F06EEF45F0000E116EE5
:108A9800000E126EC80E136EC20E146E010120EE87
:108AA8003BF0E851D926E951DA226F0078FF15F03A
:108AB8006F0078FF16F06F0078FF17F06F0078FFEF
:108AC80018F09CEC84F0D8A06CEF45F06EEF45F000
:108AD800B8EF45F0010120EE3FF0E851D926E95101
:108AE800DA226F0078FF66F06F0078FF67F06F009A
:108AF80078FF68F06F0078FF69F020EE3BF0E851EE
:108B0800D926E951DA226F0078FF6AF06F0078FF02
:108B18006BF06F0078FF6CF06F0078FF6DF058EC29
:108B28005CF0010120EE3FF0E851D926E951DA2244
:108B3800000160009BF1DEFF60009FF1DEFF600036
:108B4800A3F1DEFF6000A7F1DEFF010120EE3BF09C
:108B5800E851D926E951DA22000EDE6E000EDE6EEB
:108B6800000EDE6E000EDD6EEAC172F0EBC173F02E
:108B7800ECC174F0EDC175F0010120EE3FF0E85151
:108B8800D926E951DA226F0078FF76F06F0078FF76
:108B980077F06F0078FF78F06F0078FF79F08BEC52
:108BA80096F072C0EAF173C0EBF174C0ECF175C0D5
:108BB800EDF1E8C1E5F0E9C1E6F0FBEC3FF00101B9
:108BC80020EE3BF0E851D926E951DA226F0078FF10
:108BD80076F06F0078FF77F06F0078FF78F06F001D
:108BE80078FF79F0EAC172F0EBC173F0ECC174F070
:108BF800EDC175F08BEC96F072C093F073C094F0F1
:108C080074C095F075C096F0000E0001976F000EC5
:108C1800986F800E996F420E9A6FE4EC6AF093C0D9
:108C28009AF394C09BF395C09CF396C09DF30301FF
:108C38009DBF23EF46F021EF46F04AEF46F00101D1
:108C480020EE43F0E851D926E951DA226F0078FF87
:108C580072F06F0078FF73F06F0078FF74F06F00A8
:108C680078FF75F09AC376F09BC377F09CC378F0D1
:108C78009DC379F08BEC96F072C092F373C093F3B6
:108C880074C094F375C095F36FEF46F0010120EEC0
:108C980043F0E851D926E951DA226F0078FF66F0EF
:108CA8006F0078FF67F06F0078FF68F06F0078FF5B
:108CB80069F09AC36AF09BC36BF09CC36CF09DC3C8
:108CC8006DF058EC5CF066C092F367C093F368C02F
:108CD80094F369C095F3000E0301966F000E976F29
:108CE800800E986F3F0E996F000E116E000E126E77
:108CF800B40E136E440E146E92C315F093C316F09F
:108D080094C317F095C318F09CEC84F0D8B08FEF9B
:108D180046F091EF46F0D1EF46F0000E0001976F54
:108D2800000E986FB40E996F440E9A6F92C393F029
:108D380093C394F094C395F095C396F0E4EC6AF06D
:108D480093C07AF094C07BF095C07CF096C07DF01B
:108D5800000E0001976F000E986FB40E996F440EC5
:108D68009A6F92C393F093C394F094C395F095C30C
:108D780096F0E4EC6AF093C07EF094C07FF095C062
:108D880080F096C081F0B4EC5EF07AC096F37BC0B8
:108D980097F37CC098F37DC099F396C397F097C377
:108DA80098F098C399F099C39AF09AC37EF09BC340
:108DB8007FF09CC380F09DC381F0010120EE5BF041
:108DC800E851D926E951DA226F0078FF7AF06F006E
:108DD80078FF7BF06F0078FF7CF06F0078FF7DF004
:108DE800B4EC5EF07AC093F07BC094F07CC095F050
:108DF8007DC096F0E4EC6AF093C082F394C083F3EC
:108E080095C084F396C085F3000E00017E6F000EB6
:108E18007F6F800E806F420E816F96C37AF097C382
:108E28007BF098C37CF099C37DF0B4EC5EF07AC017
:108E380097F07BC098F07CC099F07DC09AF0010152
:108E480020EE43F0E851D926E951DA226F0078FF85
:108E580093F06F0078FF94F06F0078FF95F06F0043
:108E680078FF96F0E4EC6AF093C086F394C087F339
:108E780095C088F396C089F396C37EF097C37FF0B8
:108E880098C380F099C381F0010120EE5BF0E851AE
:108E9800D926E951DA226F0078FF76F06F0078FF63
:108EA80077F06F0078FF78F06F0078FF79F0000EA8
:108EB8000001726F000E736F800E746F420E756F33
:108EC8008BEC96F072C07AF073C07BF074C07CF0C3
:108ED80075C07DF0B4EC5EF07AC0ACF07BC0ADF04C
:108EE8007CC0AEF07DC0AFF019EC65F0ACC08AF381
:108EF800ADC08BF3AEC08CF3AFC08DF39AC37EF0D8
:108F08009BC37FF09CC380F09DC381F082C37AF03D
:108F180083C37BF084C37CF085C37DF0B4EC5EF042
:108F28007AC06AF07BC06BF07CC06CF07DC06DF0DD
:108F3800010120EE43F0E851D926E951DA226F0009
:108F480078FF7EF06F0078FF7FF06F0078FF80F089
:108F58006F0078FF81F086C37AF087C37BF088C3FF
:108F68007CF089C37DF0B4EC5EF07AC066F07BC01B
:108F780067F07CC068F07DC069F058EC5CF066C0B2
:108F8800ACF067C0ADF068C0AEF069C0AFF019ECE6
:108F980065F0ACC08EF3ADC08FF3AEC090F3AFC038
:108FA80091F38AC37AF08BC37BF08CC37CF08DC3BA
:108FB8007DF08EC37EF08FC37FF090C380F091C3A5
:108FC80081F0B4EC5EF0010120EE43F0E851D926BF
:108FD800E951DA2200016000EBF1DEFF6000EFF1F9
:108FE800DEFF6000F3F1DEFF6000F7F1DEFF000E48
:108FF800976F000E986F000E996F410E9A6F9AC383
:109008007EF09BC37FF09CC380F09DC381F001017B
:1090180020EE57F0E851D926E951DA226F0078FF9F
:109028007AF06F0078FF7BF06F0078FF7CF06F00BC
:1090380078FF7DF0B4EC5EF07AC093F07BC094F0DA
:109048007CC095F07DC096F0E4EC6AF093C066F0C1
:1090580094C067F095C068F096C069F0010120EEF1
:109068003BF0E851D926E951DA226F0078FF6AF01F
:109078006F0078FF6BF06F0078FF6CF06F0078FF7F
:109088006DF058EC5CF0010120EE3BF0E851D92678
:10909800E951DA22000160009BF1DEFF60009FF1D8
:1090A800DEFF6000A3F1DEFF6000A7F1DEFF120023
:1090B800CFC0B0F1D0C0B1F1D1C0B2F1D2C0B3F1DC
:1090C8000101B3BF6AEF48F06DEF48F0010E6EEF93
:1090D80048F0000EAB6FB39F500EB05DAC0EB159A7
:1090E800AE0EB259420EB359D8A07DEF48F07FEFCB
:1090F80048F0F1EF48F0000E656F220E646FB0057E
:10910800000EB159800EB2597F0EB359D8A08FEF17
:1091180048F091EF48F09BEF48F0CFC0CFF0D0C0B7
:10912800D0F0D1C0D1F0D2C0D2F068EF4BF0180E19
:10913800B05D720EB159B10EB259420EB359D8A0F2
:10914800A8EF48F0AAEF48F0CFEF48F0AB51D8A409
:10915800B0EF48F0B2EF48F0CFEF48F0CFC07AF068
:10916800D0C07BF0D1C07CF0D2C07DF0000E0001F1
:109178007E6F000E7F6F000E806F7F0E816FB4ECE4
:109188005EF07AC0CFF07BC0D0F07CC0D1F07DC05B
:10919800D2F068EF4BF0AB51D8B4D5EF48F0D7EF29
:1091A80048F0F1EF48F0B50EB05DF10EB159CF0EB1
:1091B800B259420EB359D8A0E4EF48F0E6EF48F0B0
:1091C800F1EF48F0000E0001CF6F000ED06F000ED7
:1091D800D16F000ED26F68EF4BF0190EB05D720EB2
:1091E800B159B10EB2593E0EB359D8A0FEEF48F0AE
:1091F80000EF49F0F6EF49F0930EB05D150EB15946
:10920800850EB2593F0EB359D8A00DEF49F00FEFB4
:1092180049F05BEF49F0AB51040DB30EF324F66E41
:10922800610EF420F76EF86A000EF82209006F004C
:10923800D4FF6AF009006F00D4FF6BF009006F00DB
:10924800D4FF6CF00A006F00D4FF6DF03B0E0001F4
:109258007E6FAA0E7F6FB80E806F3F0E816FCFC0F2
:109268007AF0D0C07BF0D1C07CF0D2C07DF0B4ECF5
:109278005EF07AC066F07BC067F07CC068F07DC0A5
:1092880069F058EC5CF066C0C5F067C0C6F068C00D
:10929800C7F069C0C8F018EC84F0C5C0ACF1C6C00E
:1092A800ADF1C7C0AEF1C8C0AFF17CEF49F0AB512A
:1092B8000001D36FD46BFE0ED3036F00CCFFD5F043
:1092C8006F00D0FFD6F0D403F350D627FF0ED30398
:1092D800F350D627010ED527000ED623D5C0ACF102
:1092E800D6C0ADF10101000EADBFFF0EAE6FAF6F7E
:1092F800CFC072F0D0C073F0D1C074F0D2C075F096
:10930800000E00017E6F720E7F6F310E806F3F0E70
:10931800816FACC133F0ADC134F0AEC135F0AFC12F
:1093280036F0010E49EC78F033C07AF034C07BF0A7
:1093380035C07CF036C07DF0B4EC5EF07AC076F0D3
:109348007BC077F07CC078F07DC079F08BEC96F02C
:1093580072C0A3F173C0A4F174C0A5F175C0A6F1E1
:10936800ACC133F0ADC134F0AEC135F0AFC136F0A9
:10937800010E49EC78F033C07AF034C07BF035C088
:109388007CF036C07DF08E0E00017E6FBE0E7F6FC2
:10939800BF0E806F350E816FB4EC5EF07AC0A7F116
:1093A8007BC0A8F17CC0A9F17DC0AAF1A3C172F06D
:1093B800A4C173F0A5C174F0A6C175F0A7C176F079
:1093C800A8C177F0A9C178F0AAC179F08BEC96F022
:1093D80072C0CFF073C0D0F074C0D1F075C0D2F0B5
:1093E8003BEF4AF0B005000EB159000EB259390EE4
:1093F800B359D8A002EF4AF004EF4AF01EEF4AF042
:10940800000EAC6F000EAD6F000EAE6F000EAF6FAA
:10941800CFC0A3F1D0C0A4F1D1C0A5F1D2C0A6F1AC
:10942800000EA76F000EA86F000EA96F000EAA6F9E
:109438003BEF4AF0CFC066F0D0C067F0D1C068F00B
:10944800D2C069F0000E00016A6F000E6B6F800ECB
:109458006C6F3F0E6D6F58EC5CF066C0CFF067C064
:10946800D0F068C0D1F069C0D2F068EF4BF0CFC03F
:109478007AF0D0C07BF0D1C07CF0D2C07DF0CFC0F4
:109488007EF0D0C07FF0D1C080F0D2C081F0B4ECC3
:109498005EF07AC09BF17BC09CF17CC09DF17DC0E1
:1094A8009EF18F0E00016A6FAA0E6B6F2A0E6C6F09
:1094B8003E0E6D6F150E7E6F520E7F6F350E806FEC
:1094C800BB0E816F9BC17AF09CC17BF09DC17CF083
:1094D8009EC17DF0B4EC5EF07AC066F07BC067F0A8
:1094E8007CC068F07DC069F058EC5CF066C087F11C
:1094F80067C088F168C089F169C08AF1CFC072F08D
:10950800D0C073F0D1C074F0D2C075F09BC17EF0AA
:109518009CC17FF09DC180F09EC181F087C17AF027
:1095280088C17BF089C17CF08AC17DF0B4EC5EF023
:109538007AC076F07BC077F07CC078F07DC079F097
:109548008BEC96F072C097F173C098F174C099F1E2
:1095580075C09AF197C176F098C177F099C178F003
:109568009AC179F0000E0001726F000E736F000E41
:10957800746F400E756F8BEC96F072C097F073C0E5
:1095880098F074C099F075C09AF097C17EF098C1B0
:109598007FF099C180F09AC181F0CFC07AF0D0C035
:1095A8007BF0D1C07CF0D2C07DF0B4EC5EF07AC024
:1095B80093F07BC094F07CC095F07DC096F0E4EC0D
:1095C8006AF093C08BF194C08CF195C08DF196C070
:1095D8008EF1A7C176F0A8C177F0A9C178F0AAC129
:1095E80079F08BC172F08CC173F08DC174F08EC1AB
:1095F80075F08BEC96F072C08FF173C090F174C067
:1096080091F175C092F1A3C16AF0A4C16BF0A5C134
:109618006CF0A6C16DF08FC166F090C167F091C182
:1096280068F092C169F058EC5CF066C093F167C0CD
:1096380094F168C095F169C096F193C166F094C140
:1096480067F095C168F096C169F0000E00016A6F75
:10965800000E6B6F800E6C6F3F0E6D6F58EC5CF0F8
:1096680066C09FF167C0A0F168C0A1F169C0A2F10E
:109678000101AC51AD11AE11AF11D8A446EF4BF0BA
:1096880048EF4BF052EF4BF09FC1CFF0A0C1D0F0A4
:10969800A1C1D1F0A2C1D2F068EF4BF09FC193F005
:1096A800A0C194F0A1C195F0A2C196F0ACC197F009
:1096B800ADC198F00BEC70F093C0CFF094C0D0F02F
:1096C80095C0D1F096C0D2F01200000E116E000EB7
:1096D800126E340E136E420E146E010120EE2EF03F
:1096E800EE51D926EF51DA226F0078FF15F06F009E
:1096F80078FF16F06F0078FF17F06F0078FF18F00A
:109708009CEC84F0D8A08BEF4BF08DEF4BF0CAEFB8
:109718004BF0010120EE2EF0EE51D926EF51DA225E
:109728006F0078FF66F06F0078FF67F06F0078FFD2
:1097380068F06F0078FF69F020EE02F0EE51D9264C
:10974800EF51DA226F0078FF6AF06F0078FF6BF054
:109758006F0078FF6CF06F0078FF6DF058EC5CF0EC
:10976800010120EE2EF0EE51D926EF51DA22000148
:1097780060009BF1DEFF60009FF1DEFF6000A3F157
:10978800DEFF6000A7F1DEFF1CEF4EF00101F3BF22
:10979800D8EF4BF0F351F211F11108E1F005D8A020
:1097A800D8EF4BF0DAEF4BF0CBEF4CF0F3BFEBEF29
:1097B8004BF0F351F21109E1E80EF05DFD0EF1599D
:1097C800D8B0E9EF4BF0EBEF4BF0CBEF4CF020EEDD
:1097D8000AF0EE51D926EF51DA226F0078FFF5F042
:1097E8006F0078FFF6F06F0078FFF7F06F0078FFF2
:1097F800F8F0010E0001F525F96F000EF621FA6F59
:10980800000EF721FB6F000EF821FC6FF9510101E2
:10981800F05D0001FA510101F1590001FB5101010C
:10982800F259F351800A0001FD6FFC51800AFD597D
:10983800D8B021EF4CF023EF4CF04CEF4CF0010185
:1098480020EE0AF0EE51D926EF51DA226F0078FFA8
:10985800F5F06F0078FFF6F06F0078FFF7F06F0013
:1098680078FFF8F0010E0001F5250101F06F000EF8
:109878000001F6210101F16F000E0001F72101013D
:10988800F26F000E0001F8210101F36F8EEF4CF02A
:10989800010120EE0AF0EE51D926EF51DA22FF0E2F
:1098A800DE240001F56F7F0EDE20F66F000EDE204D
:1098B800F76F000EDE20F86F0101F0510001F55D31
:1098C8000101F1510001F6590101F2510001F75966
:1098D800F851800AF96F0101F351800A0001F95922
:1098E800D8B079EF4CF07BEF4CF08EEF4CF00101E3
:1098F80020EE0AF0EE51D926EF51DA22FF0EDE24CF
:10990800F06F7F0EDE20F16F000EDE20F26F000E8A
:10991800DE20F36F010120EE0AF0EE51D926EF5157
:10992800DA226F0078FFF5F06F0078FFF6F06F002D
:1099380078FFF7F06F0078FFF8F00001F5510101AA
:10994800F05D336E0001F6510101F159346E0001EA
:10995800F7510101F259356E0001F8510101F3592F
:10996800366E010E49EC78F0010120EE32F0EE512E
:10997800D926EF51DA226000CFF0DEFF6000D3F085
:10998800DEFF6000D7F0DEFF6000DBF0DEFF600086
:10999800BBF7D9FF6000BFF7DAFFDE50DE10D8B49E
:1099A800D8EF4CF0DAEF4CF0E8EF4CF0EEC111F0E4
:1099B800EFC112F04FEC9AF00009D8B4E6EF4CF082
:1099C800E8EF4CF044EF4DF0EEC1ACF0EFC1ADF074
:1099D800010120EE32F0EE51D926EF51DA226F0064
:1099E80078FFAEF06F0078FFAFF06F0078FFB0F04F
:1099F8006F0078FFB1F087EC75F0010120EE36F0CA
:109A0800EE51D926EF51DA2200016000B3F2DEFFF1
:109A18006000B7F2DEFF6000BBF2DEFF6000BFF25D
:109A2800DEFFEEC1D7F0EFC1D8F0010120EE36F02D
:109A3800EE51D926EF51DA226F0078FFD9F06F0086
:109A480078FFDAF06F0078FFDBF06F0078FFDCF06A
:109A5800DAEC60F0010120EE36F0EE51D926EF5134
:109A6800DA22000160005FF3DEFF600063F3DEFFCF
:109A7800600067F3DEFF60006BF3DEFF5DEF4DF023
:109A8800010120EE06F0EE51D926EF51DA2210EE50
:109A980036F0EE51E126EF51E2226F007BFFE6FF40
:109AA8006F007BFFE6FF6F007BFFE6FF6F007BFF29
:109AB800E6FFEEC1D7F0EFC1D8F0010120EE36F095
:109AC800EE51D926EF51DA226F0078FFD9F06F00F6
:109AD80078FFDAF06F0078FFDBF06F0078FFDCF0DA
:109AE800EFEC56F0010120EE36F0EE51D926EF5199
:109AF800DA22000160005FF3DEFF600063F3DEFF3F
:109B0800600067F3DEFF60006BF3DEFF010120EE0B
:109B180036F0EE51D926EF51DA226F0078FF11F0B6
:109B28006F0078FF12F06F0078FF13F06F0078FF76
:109B380014F0000E156E000E166E000E176E3F0E16
:109B4800186E9CEC84F0D8B0ACEF4DF0AEEF4DF051
:109B5800BDEF4DF0010120EE36F0EE51D926EF5160
:109B6800DA22000EDE6E000EDE6E000EDE6E3F0E96
:109B7800DD6E000E116E000E126E000E136E000EDA
:109B8800146E010120EE32F0EE51D926EF51DA229F
:109B98006F0078FF15F06F0078FF16F06F0078FF00
:109BA80017F06F0078FF18F09CEC84F0D8B0DFEF66
:109BB8004DF0E1EF4DF01CEF4EF0EEC1E8F1EFC1D2
:109BC800E9F1010120EE32F0EE51D926EF51DA2207
:109BD8006F0078FFEAF16F0078FFEBF16F0078FF14
:109BE800ECF16F0078FFEDF1EEEC44F0EEC176F0A9
:109BF800EFC177F0EEC111F0EFC112F010EC99F05F
:109C080011C078F012C079F013C07AF014C07BF05C
:109C1800EEC172F0EFC173F087EC93F072C07CF084
:109C280073C07DF074C07EF075C07FF013EC95F0C2
:109C3800000E00016A6F000E6B6F000E6C6F3F0E16
:109C48006D6F010120EE36F0EE51D926EF51DA2280
:109C58006F0078FF66F06F0078FF67F06F0078FF9D
:109C680068F06F0078FF69F058EC5CF066C0C5F0EA
:109C780067C0C6F068C0C7F069C0C8F018EC84F0C7
:109C88006000D3F7D9FF6000D7F7DAFF0001600062
:109C980017F3DEFF60001BF3DEFF60001FF3DEFF3B
:109CA800600023F3DEFF120000018451D96EDA6AE6
:109CB8006F007BFFF6FF6F0077FFF7FF000EF86E6F
:109CC8000800F550250AD8A46CEF4EF06EEF4EF060
:109CD80021EF51F08451D96EDA6ADE2A000EDD22B6
:109CE800000E416E000E406E40C048F001016269EE
:109CF80063690001896BA1EF4EF048828451D96EE7
:109D0800DA6ADE2A000EDD22A1EF4EF0010E896F1D
:109D1800A1EF4EF08451D96EDA6A6F007BFFF6FF2F
:109D28006F0077FFF7FF000EF86E0800F550300A55
:109D3800D8B481EF4EF08AEF4EF08951D8B4A7EF2E
:109D48004EF0A9EF4EF08EEF4EF084C011F085C0B2
:109D580012F0B0EC88F011C040F012C041F041BEE2
:109D6800BAEF4EF0B8EF4EF0BFEF4EF04880406CBF
:109D7800411ED8B0412A00018451D96EDA6A6F00B9
:109D880078FF93F06F0074FF94F060004FF2F6FFD5
:109D9800600053F2F7FF000EF86E08006F00D4FF62
:109DA80092F0F8EF4EF0934B942B60004FF2F6FFD1
:109DB800600053F2F7FF000EF86E0800F5506C0AC9
:109DC800D8A4E9EF4EF0EBEF4EF00FEF4FF04C0E4A
:109DD800926F934B942B0FEF4FF0690E926F0FEF2A
:109DE8004FF0926B0FEF4FF09251640AD8B4F1EF35
:109DF8004EF00D0AD8B4F1EF4EF0050AD8B4D7EFFB
:109E08004EF0190AD8B4F1EF4EF00D0AD8B4F1EFBC
:109E18004EF0F5EF4EF060004FF2F6FF600053F29F
:109E2800F7FF000EF86E0800F550640AD8B41FEF6B
:109E38004FF021EF4FF076EF4FF060004FF2F6FF52
:109E4800600053F2F7FF000EF86E0800F550690A3B
:109E5800D8A431EF4FF033EF4FF0AAEF4FF076EF81
:109E68004FF0600017F2D9FF60001BF2DAFFDF50F5
:109E7800DF2ADF2AD96EDA6A6F0078FF8AF06F006E
:109E880074FF8BF0000E8BBFFF0E8C6F8D6F8E6F83
:109E98008F6F906F916F81EF4FF0600017F2D9FFCD
:109EA80060001BF2DAFF080EDF26DF5CD96EDA6A83
:109EB8006F0078FF8AF06F0078FF8BF06F0078FFF3
:109EC8008CF06F0078FF8DF06F0078FF8EF06F00D8
:109ED80078FF8FF06F0078FF90F06F0078FF91F0B7
:109EE80081EF4FF092514C0AD8B451EF4FF0250A48
:109EF800D8B435EF4FF081EF4FF0010E9325876FFF
:109F0800000E9421886F8451D96EDA6A60001FF2BE
:109F1800DEFF600023F2DDFF83C06AF08AC06BF0C9
:109F28008BC06CF08CC06DF08DC06EF08EC06FF081
:109F38008FC070F090C071F091C072F074EC74F042
:109F48006AC083F06BC084F03FEF51F060004FF2BD
:109F5800F6FF600053F2F7FF000EF86E0800F550A8
:109F6800780AD8B4BAEF4FF0BCEF4FF012EF50F0C8
:109F780060004FF2F6FF600053F2F7FF000EF86E34
:109F88000800F550750AD8A4CCEF4FF0CEEF4FF08B
:109F980076EF50F012EF50F0600017F2D9FF600032
:109FA8001BF2DAFFDF50DF2ADF2AD96EDA6A6F0088
:109FB80078FF87F06F0074FF88F087C08AF088C048
:109FC8008BF08C6B8D6B8E6B8F6B906B916B1DEF29
:109FD80050F0600017F2D9FF60001BF2DAFF080E9C
:109FE800DF26DF5CD96EDA6A6F0078FF8AF06F00CF
:109FF80078FF8BF06F0078FF8CF06F0078FF8DF0A2
:10A008006F0078FF8EF06F0078FF8FF06F0078FF99
:10A0180090F06F0078FF91F01DEF50F092514C0ACC
:10A02800D8B4EDEF4FF0250AD8B4D0EF4FF01DEFBC
:10A0380050F0010E9325876F000E9421886F84518C
:10A04800D96EDA6A60001FF2DEFF600023F2DDFFDE
:10A0580062EF50F083C02AF08AC02BF08BC02CF03E
:10A068008CC02DF08DC02EF08EC02FF08FC030F038
:10A0780090C031F091C032F0C1EC7AF02AC083F080
:10A088002BC084F03FEF51F083C029F08AC02AF03A
:10A098008BC02BF08CC02CF08DC02DF08EC02EF014
:10A0A8008FC02FF090C030F091C031F0D4EC7FF029
:10A0B80029C083F02AC084F03FEF51F060004FF2CE
:10A0C800F6FF600053F2F7FF000EF86E0800F55037
:10A0D800750AD8B42EEF50F00D0AD8B448EF50F0F6
:10A0E80076EF50F0896B8451D96EDA6A6F007BFF86
:10A0F800F6FF6F0077FFF7FF000EF86E0800F550C7
:10A10800730AD8A48AEF50F08CEF50F096EF50F015
:10A118008451D96EDA6ADE2A000EDD22010E896FBB
:10A12800F2EF50F08451D96EDA6A6F007BFFF6FFC8
:10A138006F0077FFF7FF000EF86E0800F5506C0A05
:10A14800D8A4A9EF50F0ABEF50F0F2EF50F08451E3
:10A15800D96EDA6A6F0078FF87F06F0074FF88F0B5
:10A16800010E8727000E882360001FF2F6FF6000AB
:10A1780023F2F7FF000EF86E0800F5506C0AD8A419
:10A18800C8EF50F0CAEF50F0F2EF50F08451D96E9A
:10A19800DA6A6F0078FF87F06F0074FF88F0020EAC
:10A1A8008727000E882360001FF2F6FF600023F265
:10A1B800F7FF000EF86E0800F550730AD8A4E7EF11
:10A1C80050F0E9EF50F0F2EF50F08451D96EDA6AAE
:10A1D800030EDE26000EDD2292EF50F08951D8B42E
:10A1E800F8EF50F0FAEF50F015EF51F083C01BF084
:10A1F800600017F2D9FF60001BF2DAFF020EDF26BB
:10A20800DF5CD96EDA6A6F0078FF1CF06F0078FFA8
:10A218001DF011EC7DF01BC083F01CC084F03FEFF3
:10A2280051F08451D96EDA6ADE2A000EDD22000E62
:10A23800846F000E836F3FEF51F08451D96EDA6A54
:10A248006F007BFFF6FF6F0077FFF7FF000EF86ED9
:10A258000800F550136E146A83C015F012EC89F0EB
:10A2680000018451D96EDA6ADE2A000EDD22000E62
:10A27800846F010E836F1200000120EE3AF0AC519A
:10A28800D926AD51DA22DF6A20EE3BF0AC51D9264F
:10A29800AD51DA22000EDE6E000EDE6E000EDE6EAE
:10A2A800000EDD6E20EE3FF0AC51D926AD51DA221A
:10A2B800000EDE6E000EDE6E000EDE6E000EDD6E2F
:10A2C80020EE2AF0AC51D926AD51DA2210EE43F037
:10A2D800AC51E126AD51E2226F007BFFE6FF6F0033
:10A2E8007BFFE6FF6F007BFFE6FF6F007BFFE6FF6B
:10A2F800000E7E6F000E7F6F000E806F440E816F20
:10A30800000E976F000E986F610E996F450E9A6F49
:10A3180020EE02F0AC51D926AD51DA226F0078FF59
:10A3280093F06F0078FF94F06F0078FF95F06F005E
:10A3380078FF96F0E4EC6AF093C07AF094C07BF072
:10A3480095C07CF096C07DF0B4EC5EF07AC0B0F0B9
:10A358007BC0B1F07CC0B2F07DC0B3F0000120EE4C
:10A3680022F0AC51D926AD51DA226F0078FF6AF09D
:10A378006F0078FF6BF06F0078FF6CF06F0078FF6C
:10A388006DF0000E976F000E986F610E996F450E75
:10A398009A6F20EE02F0AC51D926AD51DA226F0047
:10A3A80078FF93F06F0078FF94F06F0078FF95F0D6
:10A3B8006F0078FF96F0E4EC6AF093C066F094C002
:10A3C80067F095C068F096C069F058EC5CF066C01C
:10A3D800B4F067C0B5F068C0B6F069C0B7F0B0C0F7
:10A3E80093F0B1C094F0B2C095F0B3C096F0B4C089
:10A3F80097F0B5C098F0B6C099F0B7C09AF0E4EC01
:10A408006AF0000120EE47F0AC51D926AD51DA22AE
:10A4180060004FF2DEFF600053F2DEFF600057F28B
:10A42800DEFF60005BF2DEFF000E7E6F000E7F6FC6
:10A43800800E806F420E816F000E976F000E986F2E
:10A44800610E996F450E9A6F20EE02F0AC51D92635
:10A45800AD51DA226F0078FF93F06F0078FF94F027
:10A468006F0078FF95F06F0078FF96F0E4EC6AF0E3
:10A4780093C07AF094C07BF095C07CF096C07DF0D4
:10A48800B4EC5EF07AC0B0F07BC0B1F07CC0B2F042
:10A498007DC0B3F0000120EE26F0AC51D926AD51B5
:10A4A800DA226F0078FF6AF06F0078FF6BF06F00B8
:10A4B80078FF6CF06F0078FF6DF0000E976F000E5C
:10A4C800986F610E996F450E9A6F20EE02F0AC51AD
:10A4D800D926AD51DA226F0078FF93F06F0078FF2C
:10A4E80094F06F0078FF95F06F0078FF96F0E4EC39
:10A4F8006AF093C066F094C067F095C068F096C0A3
:10A5080069F058EC5CF066C0B4F067C0B5F068C09C
:10A51800B6F069C0B7F0B0C093F0B1C094F0B2C063
:10A5280095F0B3C096F0B4C097F0B5C098F0B6C037
:10A5380099F0B7C09AF0E4EC6AF0000120EE4BF015
:10A54800AC51D926AD51DA2260004FF2DEFF60002F
:10A5580053F2DEFF600057F2DEFF60005BF2DEFFC1
:10A568006000B3F2D9FF6000B7F2DAFFDE04DE1054
:10A57800D8A4C1EF52F0C3EF52F023EF53F0000E0E
:10A588007E6F000E7F6F000E806F440E816F20EE8D
:10A5980002F0AC51D926AD51DA226F0078FF7AF07B
:10A5A8006F0078FF7BF06F0078FF7CF06F0078FF1A
:10A5B8007DF0B4EC5EF07AC093F07BC094F07CC080
:10A5C80095F07DC096F0000E00016A6F000E6B6F6B
:10A5D800960E6C6F440E6D6F20EE02F0AC51D926CA
:10A5E800AD51DA226F0078FF66F06F0078FF67F0F0
:10A5F8006F0078FF68F06F0078FF69F058EC5CF046
:10A6080066C097F067C098F068C099F069C09AF082
:10A61800E4EC6AF0000120EE4FF0AC51D926AD51C0
:10A62800DA2260004FF2DEFF600053F2DEFF6000C6
:10A6380057F2DEFF60005BF2DEFF81EF53F0000EA1
:10A648007E6F000E7F6F000E806F440E816F20EECC
:10A6580002F0AC51D926AD51DA226F0078FF7AF0BA
:10A668006F0078FF7BF06F0078FF7CF06F0078FF59
:10A678007DF0B4EC5EF07AC093F07BC094F07CC0BF
:10A6880095F07DC096F0000E00016A6F000E6B6FAA
:10A69800A00E6C6F410E6D6F20EE02F0AC51D92602
:10A6A800AD51DA226F0078FF66F06F0078FF67F02F
:10A6B8006F0078FF68F06F0078FF69F058EC5CF085
:10A6C80066C097F067C098F068C099F069C09AF0C2
:10A6D800E4EC6AF0000120EE4FF0AC51D926AD5100
:10A6E800DA2260004FF2DEFF600053F2DEFF600006
:10A6F80057F2DEFF60005BF2DEFF000E7E6F000E99
:10A708007F6F800E806F420E816F20EE02F0AC5199
:10A71800D926AD51DA226F0078FF7AF06F0078FF02
:10A728007BF06F0078FF7CF06F0078FF7DF0B4EC71
:10A738005EF07AC093F07BC094F07CC095F07DC049
:10A7480096F0000E00016A6F400E6B6F1C0E6C6F66
:10A75800450E6D6F20EE02F0AC51D926AD51DA22CC
:10A768006F0078FF66F06F0078FF67F06F0078FF82
:10A7780068F06F0078FF69F058EC5CF066C097F0FD
:10A7880067C098F068C099F069C09AF0E4EC6AF084
:10A79800000120EE53F0AC51D926AD51DA22600009
:10A7A8004FF2DEFF600053F2DEFF600057F2DEFF7B
:10A7B80060005BF2DEFF20EE57F0AC51D926AD51B8
:10A7C800DA22000EDE6E000EDE6E000EDE6E000E69
:10A7D800DD6E20EE5BF0AC51D926AD51DA22000EC9
:10A7E800DE6E000EDE6E000EDE6E000EDD6E20EEFA
:10A7F8005FF0AC51D926AD51DA22000EDE6E000EA4
:10A80800DE6E000EDE6E000EDD6E20EE63F0AC51E3
:10A81800D926AD51DA22000EDE6E000EDE6E000E75
:10A82800DE6E000EDD6E20EE67F0AC51D926AD511C
:10A83800DA22000EDE6E000EDE6E000EDE6E000EF8
:10A84800DD6E12000001746B20EE75F0070EDE6AF3
:10A85800E806FDE229C07DF02AC07EF02DBE40EF5B
:10A8680054F02D5007E1250E2C5CD8B03EEF54F083
:10A8780040EF54F049EF54F02C042D10D8A447EFC2
:10A8880054F049EF54F050EF54F0000E0101656F99
:10A89800160E646FC1EF56F07D517E11D8B457EF94
:10A8A80054F059EF54F0C1EF56F06000F7F1D9FFBA
:10A8B8006000FBF1DAFFDF50D8A465EF54F067EFD2
:10A8C80054F069EF54F0C1EF56F06000F7F1D9FF8A
:10A8D8006000FBF1DAFFDF507F6F7DEF54F07D4BB6
:10A8E8007E2B6000F7F1D9FF6000FBF1DAFFDF5043
:10A8F8007F6F200E7F19D8B484EF54F086EF54F0A0
:10A9080073EF54F07FC031F0F70E3126040E316436
:10A9180090EF54F092EF54F073EF54F02D0E7F192E
:10A92800D8A499EF54F09BEF54F0A8EF54F0748139
:10A938007D4B7E2B6000F7F1D9FF6000FBF1DAFF59
:10A94800DF507F6FB3EF54F02B0E7F19D8A4AFEF11
:10A9580054F0B1EF54F0B3EF54F09CEF54F0300ED4
:10A968007F19D8A4BAEF54F0BCEF54F059EF55F062
:10A978007D4B7E2B6000F7F1D9FF6000FBF1DAFF19
:10A98800DF507F6F2C502D10D8B4CDEF54F0CFEF9F
:10A9980054F0D9EF54F0100E2C182D10D8A4D7EF7E
:10A9A80054F0D9EF54F04BEF55F0780E7F19D8B426
:10A9B800E0EF54F0E2EF54F0EBEF54F0580E7F194B
:10A9C800D8A4E9EF54F0EBEF54F04BEF55F0000E3C
:10A9D8002D6E100E2C6E7D4B7E2B6000F7F1D9FF8B
:10A9E8006000FBF1DAFFDF507F6F7FC031F0200E8F
:10A9F80031129F0E31261A0E316005EF55F007EF20
:10AA080055F02BEF55F07FC031F09F0E3126190E0F
:10AA1800316411EF55F013EF55F018EF55F07FC082
:10AA280068F0696B1FEF55F07FC031F05F0E31168B
:10AA38003150686F696B68C031F0C90E3126100E4D
:10AA4800316029EF55F02BEF55F045EF55F07FC0F9
:10AA580031F0200E31129F0E3126190E316437EF76
:10AA680055F039EF55F059EF55F07FC031F0D00E61
:10AA78003126090E316443EF55F045EF55F059EF93
:10AA880055F074857D07D8A07E07C1EF56F0748510
:10AA98002C502D10D8A453EF55F055EF55F059EF21
:10AAA80055F0000E2D6E080E2C6E2C502D10D8A4CB
:10AAB80060EF55F062EF55F066EF55F0000E2D6E21
:10AAC8000A0E2C6E2E50D8B46CEF55F06EEF55F080
:10AAD80099EF55F074B173EF55F075EF55F087EFB6
:10AAE80055F0FF0E6C6FFF0E6D6FFF0E6E6FFF0E51
:10AAF8006F6FFF0E706FFF0E716FFF0E726F7F0E1C
:10AB0800736FA1EF55F0000E6C6F000E6D6F000EA5
:10AB18006E6F000E6F6F000E706F000E716F000E7B
:10AB2800726F800E736FA1EF55F06C696D696E6975
:10AB38006F69706971697269736975C060F076C010
:10AB480061F077C062F078C063F079C064F07AC0D1
:10AB580065F07BC066F07CC067F07FC031F0200EE6
:10AB680031129F0E31261A0E3160BDEF55F0BFEF3E
:10AB780055F0DCEF55F07FC031F09F0E3126190EED
:10AB88003164C9EF55F0CBEF55F0D0EF55F07FC0E9
:10AB98006AF06B6BD7EF55F07FC031F05F0E31165E
:10ABA80031506A6F6B6B6A51C90F7F6FEAEF55F0CE
:10ABB8007FC031F0D00E31260A0E3160E6EF55F035
:10ABC800E8EF55F0A7EF56F0300E7F5F7F51316EFA
:10ABD800326A2C50315C3250800A336E2D50800A14
:10ABE8003358D8A0FAEF55F0FCEF55F0FEEF55F0CA
:10ABF800A7EF56F074B303EF56F005EF56F09AEF4F
:10AC080056F02CC011F02DC012F0000E12BEFF0E2F
:10AC1800136E146E156E166E176E186E75C019F0D9
:10AC280076C01AF077C01BF078C01CF079C01DF010
:10AC38007AC01EF07BC01FF07CC020F0D5EC8DF0F0
:10AC480011C031F012C032F013C033F014C034F028
:10AC580015C035F016C036F017C037F018C038F0F8
:10AC680000017F513124756F000E3220766F000E7F
:10AC78003320776F000E3420786F000E3520796FFF
:10AC8800000E36207A6F000E37207B6F000E3820BA
:10AC98007C6F6051755D6151765962517759635186
:10ACA80078596451795965517A5966517B59675178
:10ACB8007C59D8A062EF56F064EF56F083EF56F057
:10ACC8002E50D8B46AEF56F06CEF56F09AEF56F063
:10ACD80075516C5D76516D5977516E5978516F5930
:10ACE800795170597A5171597B5172597C51735904
:10ACF800D8B081EF56F083EF56F09AEF56F06CC05B
:10AD080075F06DC076F06EC077F06FC078F070C0E7
:10AD180079F071C07AF072C07BF073C07CF0000EDD
:10AD28000101656F220E646F000174837D4B7E2BD9
:10AD38006000F7F1D9FF6000FBF1DAFFDF507F6FA9
:10AD48007485A1EF55F07451030BE806D8A4AFEF52
:10AD580056F0B1EF56F0C1EF56F07C1F7B1F7A1FFB
:10AD6800791F781F771F761F756D000E762377235E
:10AD7800782379237A237B237C232B50D8B4C7EFFD
:10AD880056F0C9EF56F0DEEF56F0000174B5CFEF7C
:10AD980056F0D1EF56F0D5EF56F029C07DF02AC015
:10ADA8007EF02B50D96EDA6A6000F7F1DEFF6000A2
:10ADB800FBF1DDFF75C029F076C02AF077C02BF0D3
:10ADC80078C02CF079C02DF07AC02EF07BC02FF01F
:10ADD8007CC030F01200000120EE8FF0D751D92648
:10ADE800D851DA22DF50D8A4FCEF56F0FEEF56F027
:10ADF8003CEF57F020EE90F0D751D926D851DA22FF
:10AE0800600067F3DEFF60006BF3DEFF60006FF346
:10AE1800DEFF600073F3DEFF20EE94F0D751D926F1
:10AE2800D851DA22600067F3DEFF60006BF3DEFFC3
:10AE380060006FF3DEFF600073F3DEFF20EE98F032
:10AE4800D751D926D851DA22600067F3DEFF6000B7
:10AE58006BF3DEFF60006FF3DEFF600073F3DEFF6D
:10AE680020EE8FF0D751D926D851DA22010EDF6EA5
:10AE780020EE90F0D751D926D851DA226F0078FF0A
:10AE88007EF06F0078FF7FF06F0078FF80F06F0032
:10AE980078FF81F020EE87F0D751D926D851DA22F1
:10AEA8006F0078FF76F06F0078FF77F06F0078FF1B
:10AEB80078F06F0078FF79F0000E726F000E736FF4
:10AEC800800E746F3F0E756F8BEC96F072C07AF03F
:10AED80073C07BF074C07CF075C07DF0B4EC5EF09C
:10AEE8007AC0F1F07BC0F2F07CC0F3F07DC0F4F0E2
:10AEF800F1C066F0F2C067F0F3C068F0F4C069F022
:10AF0800D9C07EF0DAC07FF0DBC080F0DCC081F011
:10AF1800000120EE87F0D751D926D851DA226F00E8
:10AF280078FF7AF06F0078FF7BF06F0078FF7CF095
:10AF38006F0078FF7DF0B4EC5EF07AC06AF07BC0F9
:10AF48006BF07CC06CF07DC06DF058EC5CF00001DB
:10AF580020EE90F0D751D926D851DA2260009BF123
:10AF6800DEFF60009FF1DEFF6000A3F1DEFF6000FE
:10AF7800A7F1DEFF20EE94F0D751D926D851DA2276
:10AF88006F0078FF7EF06F0078FF7FF06F0078FF2A
:10AF980080F06F0078FF81F020EE8BF0D751D92632
:10AFA800D851DA226F0078FF76F06F0078FF77F0DB
:10AFB8006F0078FF78F06F0078FF79F0000E726FFD
:10AFC800000E736F800E746F3F0E756F8BEC96F0EA
:10AFD80072C07AF073C07BF074C07CF075C07DF0ED
:10AFE800B4EC5EF07AC0F1F07BC0F2F07CC0F3F014
:10AFF8007DC0F4F0F1C066F0F2C067F0F3C068F00D
:10B00800F4C069F0D9C07EF0DAC07FF0DBC080F010
:10B01800DCC081F0000120EE8BF0D751D926D85141
:10B02800DA226F0078FF7AF06F0078FF7BF06F000C
:10B0380078FF7CF06F0078FF7DF0B4EC5EF07AC0AA
:10B048006AF07BC06BF07CC06CF07DC06DF058EC92
:10B058005CF0000120EE94F0D751D926D851DA22BD
:10B0680060009BF1DEFF60009FF1DEFF6000A3F14E
:10B07800DEFF6000A7F1DEFF20EE90F0D751D92661
:10B08800D851DA226F0078FF72F06F0078FF73F002
:10B098006F0078FF74F06F0078FF75F020EE94F081
:10B0A800D751D926D851DA226F0078FF76F06F0091
:10B0B80078FF77F06F0078FF78F06F0078FF79F00D
:10B0C8008BEC96F072C0EDF073C0EEF074C0EFF048
:10B0D80075C0F0F00001F0BF76EF58F074EF58F04B
:10B0E80090EF58F0EDC07AF0EEC07BF0EFC07CF046
:10B0F800F0C07DF0000E7E6F000E7F6F800E806FB7
:10B10800BF0E816FB4EC5EF07AC0EDF07BC0EEF05C
:10B118007CC0EFF07DC0F0F0EDC07AF0EEC07BF0BF
:10B12800EFC07CF0F0C07DF0CD0E00017E6FCC0E3C
:10B138007F6F4C0E806FBE0E816FB4EC5EF07AC0EC
:10B14800E5F07BC0E6F07CC0E7F07DC0E8F0E5C044
:10B15800CFF0E6C0D0F0E7C0D1F0E8C0D2F05CECA8
:10B1680048F0CFC0DDF0D0C0DEF0D1C0DFF0D2C0F3
:10B17800E0F0000E00017E6F000E7F6FF00E806F12
:10B18800430E816FDDC07AF0DEC07BF0DFC07CF05B
:10B19800E0C07DF0B4EC5EF07AC066F07BC067F08A
:10B1A8007CC068F07DC069F0000E00016A6F000E77
:10B1B8006B6FA00E6C6F410E6D6F58EC5CF066C043
:10B1C800E1F067C0E2F068C0E3F069C0E4F00001B4
:10B1D80020EE02F0D751D926D851DA226F0078FF35
:10B1E80093F06F0078FF94F06F0078FF95F06F0090
:10B1F80078FF96F0E1C06AF0E2C06BF0E3C06CF053
:10B20800E4C06DF020EE02F0D751D926D851DA22E9
:10B218006F0078FF66F06F0078FF67F06F0078FFC7
:10B2280068F06F0078FF69F058EC5CF066C097F042
:10B2380067C098F068C099F069C09AF0E4EC6AF0C9
:10B2480093C0E9F094C0EAF095C0EBF096C0ECF03A
:10B25800000120EE98F0D751D926D851DA226F0094
:10B2680078FF7EF06F0078FF7FF06F0078FF80F046
:10B278006F0078FF81F0E9C076F0EAC077F0EBC0A4
:10B2880078F0ECC079F0000E726F000E736F800ECC
:10B29800746F3F0E756F8BEC96F072C07AF073C0C6
:10B2A8007BF074C07CF075C07DF0B4EC5EF07AC0C1
:10B2B800F1F07BC0F2F07CC0F3F07DC0F4F0F1C097
:10B2C80066F0F2C067F0F3C068F0F4C069F0D9C066
:10B2D8007EF0DAC07FF0DBC080F0DCC081F0E9C02E
:10B2E8007AF0EAC07BF0EBC07CF0ECC07DF0B4EC07
:10B2F8005EF07AC06AF07BC06BF07CC06CF07DC0F9
:10B308006DF058EC5CF0000120EE98F0D751D9268A
:10B31800D851DA2260009BF1DEFF60009FF1DEFF6A
:10B328006000A3F1DEFF6000A7F1DEFF20EE98F0D9
:10B33800D751D926D851DA226F0078FFD7F06F009D
:10B3480078FFD8F06F0078FFD9F06F0078FFDAF057
:10B358001200000E0001F36F000EF26F000EF225CE
:10B368009B6F040EF3219C6F7B0E9D6F620E9E6F88
:10B37800800E9F6F020EA06FC6EC9AF00001ED6F71
:10B38800ED51A16FA26BC9EC9AF00001EE6FEE517E
:10B39800A36FA46B99EC94F000019B51F2279C5188
:10B3A800F323800E010173197211D8B4DEEF59F03E
:10B3B800E0EF59F018EF5AF072C123F073C124F08E
:10B3C80089EC98F023C027F024C028F0000E2A6EDC
:10B3D8000A0E296E93EC8AF027C0F0F028C0F1F02D
:10B3E800000E0001F2259B6F040EF3219C6FD80E0E
:10B3F8009D6F620E9E6F72C111F073C112F0000E44
:10B40800146E0A0E136E74EC89F011C09FF012C00E
:10B41800A0F0F0C0A1F0F1C0A2F099EC94F0000106
:10B428009B51F2279C51F323800E01017519741169
:10B43800D8B421EF5AF023EF5AF05BEF5AF074C1F9
:10B4480023F075C124F089EC98F023C027F024C0BC
:10B4580028F0000E2A6E0A0E296E93EC8AF027C097
:10B46800F0F028C0F1F0000E0001F2259B6F040EE9
:10B47800F3219C6FE20E9D6F620E9E6F74C111F0F6
:10B4880075C112F0000E146E0A0E136E74EC89F07A
:10B4980011C09FF012C0A0F0F0C0A1F0F1C0A2F05E
:10B4A80099EC94F000019B51F2279C51F323800EF4
:10B4B800010177197611D8B464EF5AF066EF5AF0A3
:10B4C8009EEF5AF076C123F077C124F089EC98F00A
:10B4D80023C027F024C028F0000E2A6E0A0E296E19
:10B4E80093EC8AF027C0F0F028C0F1F0000E0001BC
:10B4F800F2259B6F040EF3219C6FEC0E9D6F620E7C
:10B508009E6F76C111F077C112F0000E146E0A0E0C
:10B51800136E74EC89F011C09FF012C0A0F0F0C057
:10B52800A1F0F1C0A2F099EC94F000019B51F22730
:10B538009C51F323800E010179197811D8B4A7EF33
:10B548005AF0A9EF5AF0E1EF5AF078C123F079C127
:10B5580024F089EC98F023C027F024C028F0000ECE
:10B568002A6E0A0E296E93EC8AF027C0F0F028C0E4
:10B57800F1F0000E0001F2259B6F040EF3219C6F81
:10B58800F60E9D6F620E9E6F78C111F079C112F0B0
:10B59800000E146E0A0E136E74EC89F011C09FF041
:10B5A80012C0A0F0F0C0A1F0F1C0A2F099EC94F0A4
:10B5B80000019B51F2279C51F323800E01017B1956
:10B5C8007A11D8B4EAEF5AF0ECEF5AF002EF5BF0D8
:10B5D800000E0001F2259B6F040EF3219C6F750E7F
:10B5E8009D6F630E9E6F7AC19FF07BC1A0F099ECAE
:10B5F80094F000019B51F2279C51F323800E010126
:10B608007D197C11D8B40BEF5BF00DEF5BF023EFE5
:10B618005BF0000E0001F2259B6F040EF3219C6F76
:10B628007D0E9D6F630E9E6F7CC19FF07DC1A0F063
:10B6380099EC94F000019B51F2279C51F323000EE2
:10B648000001F2259B6F040EF3219C6F600E9D6F25
:10B65800620E9E6F6EC111F06FC112F0030E146E70
:10B66800E80E136EE1EC90F011C09FF012C0A0F04C
:10B67800000E146E0A0E136E6EC111F06FC112F037
:10B68800E1EC90F011C018F012C019F0000E1B6E1A
:10B69800640E1A6E90EC92F018C0A1F019C0A2F0D6
:10B6A80070C111F071C112F0030E146EE80E136E22
:10B6B800E1EC90F011C0A3F012C0A4F0000E146EDB
:10B6C8000A0E136E70C111F071C112F0E1EC90F026
:10B6D80011C018F012C019F0000E1B6E640E1A6E1D
:10B6E80090EC92F018C0A5F019C0A6F099EC94F06F
:10B6F80000019B51F2279C51F323000EF2259B6F0A
:10B70800040EF3219C6FD60E9D6F610E9E6F000E86
:10B718005EEC92F011C09FF012C0A0F013C0A1F02F
:10B7280014C0A2F015C0A3F016C0A4F017C0A5F06D
:10B7380018C0A6F0010E5EEC92F011C0A7F012C07E
:10B74800A8F013C0A9F014C0AAF015C0ABF016C039
:10B75800ACF017C0ADF018C0AEF0020E5EEC92F07F
:10B7680011C0AFF012C0B0F013C0B1F014C0B2F005
:10B7780015C0B3F016C0B4F017C0B5F018C0B6F0D5
:10B78800030E5EEC92F011C0B7F012C0B8F013C00F
:10B79800B9F014C0BAF015C0BBF016C0BCF017C0A1
:10B7A800BDF018C0BEF0040E5EEC92F011C0BFF000
:10B7B80012C0C0F013C0C1F014C0C2F015C0C3F06D
:10B7C80016C0C4F017C0C5F018C0C6F0050E5EEC70
:10B7D80092F011C0C7F012C0C8F013C0C9F014C06D
:10B7E800CAF015C0CBF016C0CCF017C0CDF018C009
:10B7F800CEF0060E5EEC92F011C0CFF012C0D0F081
:10B8080013C0D1F014C0D2F015C0D3F016C0D4F0D4
:10B8180017C0D5F018C0D6F0070E5EEC92F011C034
:10B82800D7F012C0D8F013C0D9F014C0DAF015C0A0
:10B83800DBF016C0DCF017C0DDF018C0DEF099ECC4
:10B8480094F000019B51F2279C51F323000E116ED6
:10B85800040E126EF2C013F0F3C014F0000EB4EC34
:10B868008FF00001EF6F000EF2259B6F040EF3219D
:10B878009C6F9F0E9D6F620E9E6FEFC09FF0A06B36
:10B8880099EC94F000019B51F2279C51F323B60EDA
:10B898009B6F630E9C6F000E9D6F040E9E6FA9EC4C
:10B8A80099F0CCEC9AF0120000016951800B6E6F90
:10B8B80069516925706F68AF64EF5CF066EF5CF002
:10B8C80067EF5CF070817051D8B46DEF5CF06FEF8A
:10B8D8005CF083EF5CF07029D8A475EF5CF077EF2B
:10B8E8005CF07FEF5CF0000E666F000E676F000E75
:10B8F800686F000E696F688F696B8BEF5CF0000EE4
:10B90800666F000E676F000E686F000E696F6D51ED
:10B91800800B6F6F6E516F19D8B495EF5CF097EF8D
:10B928005CF098EF5CF06E8D6D516D256F6F6CAFAC
:10B93800A0EF5CF0A2EF5CF0A3EF5CF06F816F51B9
:10B94800D8B4A9EF5CF0ABEF5CF0BFEF5CF06F2907
:10B95800D8A4B1EF5CF0B3EF5CF0BBEF5CF0000E85
:10B968006A6F000E6B6F000E6C6F000E6D6F6C8F40
:10B978006D6BC7EF5CF0000E6A6F000E6B6F000E08
:10B988006C6F000E6D6F70516F5DD8B0CEEF5CF0CC
:10B99800D0EF5CF0F7EF5CF06EADD5EF5CF0D7EF71
:10B9A8005CF0D9EF5CF0800E6E1B70C071F06FC058
:10B9B80070F071C06FF066C071F06AC066F071C057
:10B9C8006AF067C071F06BC067F071C06BF068C057
:10B9D80071F06CC068F071C06CF069C071F06DC036
:10B9E80069F071C06DF0716B70516FC03BF03C6ACB
:10B9F8003B5E000E3C5A3CBE0BEF5DF03C5009E14B
:10BA08001A0E3B5CD8A00BEF5DF00DEF5DF044EF34
:10BA18005DF06651671168116911D8A416EF5DF0E1
:10BA280019EF5DF0010E1AEF5DF0000E716F000E58
:10BA3800666F000E676F000E686F000E696F6FC04B
:10BA480070F04DEF5DF071A12CEF5DF02EEF5DF021
:10BA580034EF5DF0D89071310109716F36EF5DF008
:10BA6800D890713366A13BEF5DF03DEF5DF03EEF9E
:10BA78005DF0718F69356933683367336633702BCE
:10BA88006F51705DD8A04BEF5DF04DEF5DF027EF83
:10BA98005DF06EBD52EF5DF054EF5DF094EF5DF038
:10BAA8007051D8A45AEF5DF05CEF5DF066EF5DF081
:10BAB800000E666F000E676F000E686F000E696FEC
:10BAC800B3EF5EF06A5166276B5167236C516823A8
:10BAD8006D51692369A173EF5DF075EF5DF021EF9A
