:0460000057EF30F036
:1060080080378037803780378037803780378037D0
:10601800803780378037D43480378037803780376F
:1060280080378037803780378037803780378037B0
:106038008037803780374735343580375A35E834EC
:1060480080378037803780372B1880378037803704
:106058008037803780378037803780378037803780
:106068008037803780378037803780378037803770
:10607800803780372B188037803780372B182B18BC
:106088002B182B182B182B182B182B188037803708
:1060980080378037803780372B182B182B182B1810
:1060A80080378037FF0086EF64F000EAD496A812A4
:1060B8002C6E507F41033D87B9FBC5A59BD9E75D91
:1060C80063211F300E4C72C8F6B48A744A08368CA5
:1060D800B2F0CEE1DF9DA31927655B3B054779C385
:1060E800FDBF81AE90D2EC56682A14B38DCFF14B28
:1060F80075370926185A64DEE0A29CFCC280BE04EB
:106108003A78466957152B91AFEDD32D13516FD5BA
:10611800EBA997B886C4FA407E3C02625C1E209ABE
:10612800A4E6D8F7C98BB50F31734D5866241AA069
:106138009EDCE2CDF3B18F350B497717296B55EF0C
:10614800D193AD82BCFEC07A440638C6F8BA843E04
:1061580000427C536D2F11AB95D7E989B7F5CB7108
:106168004F0D331C22605EE4DA98A6013F7D43F9A7
:10617800C785BB94AAE8D66C52102E4E70320CB666
:1061880088CAF4DBE5A799231D5F619FA1E3DD675A
:10619800591B250A347648F2CC8EB0D0EEAC922842
:1061A80016546A457B3907BD83C1FF69643A257374
:1061B8002C747970653A25732C76657273696F6EE5
:1061C8003A257328257329002C7077723A25642E96
:1061D800253032642C7077724F75743A25642E25F9
:1061E800303264002C616463303A25642E253032E5
:1061F800642C616463313A25642E2530326400745E
:10620800656D7020726177202578202578202564B7
:106218002025640D0A0069643A25732C64693A25BF
:10622800642C62746E3A25640069643A25732C6D97
:1062380073673A626164437263002C6372633A2540
:106248003032780D0A0053657020323320323032F4
:1062580034006E65774964353035303A006D7367C0
:106268003A636F6E666967006D73673A7374617439
:106278007573002C74303A25642E2564002C743113
:106288003A25642E256400636D643A7265736574FB
:1062980000494E46494E49545900696E66696E690F
:1062A8007479006D73673A646174610069643A6176
:1062B8006C6C2C002C74303A4E614E002C74313AC0
:1062C8004E614E0069643A25732C006E6577496407
:1062D8003A00526F6F6D494F002C200D0A09006477
:1062E8006163303A00646163313A0069643A257346
:1062F800004E414E00696E66006E616E006C6C73F4
:1063080000302E320069643A00646F3A00616C6CA8
:10631800000034503510D8B494EF31F096EF31F0D6
:10632800A6EF31F06000D3F0D9FF6000D7F0DAFFB4
:106338006000CBF0DEFF6000CFF0DDFFA6EF31F0AC
:10634800324A332A6000CBF0D9FF6000CFF0DAFF81
:10635800200EDE18D8B4B3EF31F0B6EF31F0010EED
:10636800B7EF31F0000E406E416A40504110D8A49A
:10637800C0EF31F0C2EF31F0A4EF31F0F70E366E16
:10638800FF0E376E6000CBF0D9FF6000CFF0DAFF68
:10639800DF50386E3850406E416A40C039F041C015
:1063A8003AF03650392637503A223A5009E1050E6C
:1063B800395CD8A0E2EF31F0E4EF31F0A4EF31F02E
:1063C800000E3D6E2D0E40184110D8A4EEEF31F0AE
:1063D800F0EF31F0F6EF31F0010E3D6E324A332A1C
:1063E80002EF32F02B0E40184110D8A4FEEF31F026
:1063F80000EF32F002EF32F0F2EF31F0000E466EAD
:1064080007EF32F0462A46503224D96E000E332068
:10641800DA6EDF50D8B413EF32F015EF32F04BEFED
:1064280032F046503224D96E000E3320DA6EDF5037
:10643800366EA20E4624F66EF76A620EF722F86AE6
:10644800000EF8220800F5503618D8B42EEF32F0B6
:1064580030EF32F006EF32F046503224D96E000E9B
:106468003320DA6EDF50366E990E4624F66EF76AE0
:10647800620EF722F86A000EF8220800F550361866
:10648800D8B449EF32F04BEF32F006EF32F0020E9B
:10649800466451EF32F053EF32F083EF32F0000EE2
:1064A800426E000E436E800E446E7F0E456E345071
:1064B8003510D8B462EF32F064EF32F0EDEF39F016
:1064C800080E4618D8B46BEF32F06DEF32F06FEF6C
:1064D80032F0030E466E46503224366E000E3320DC
:1064E800376E6000D3F0D9FF6000D7F0DAFF6000A4
:1064F800DBF0DEFF6000DFF0DDFFEDEF39F0000ECE
:10650800466E88EF32F0462A46503224D96E000E85
:106518003320DA6EDF50D8B494EF32F096EF32F0D1
:10652800CCEF32F046503224D96E000E3320DA6EAA
:10653800DF50366E010E4624F66EF76A630EF722B8
:10654800F86A000EF8220800F5503618D8B4AFEFF4
:1065580032F0B1EF32F087EF32F046503224D96E84
:10656800000E3320DA6EDF50366EF90E4624F66ED2
:10657800F76A620EF722F86A000EF8220800F55052
:106588003618D8B4CAEF32F0CCEF32F087EF32F0D9
:10659800030E4618D8A4D3EF32F0D5EF32F049EF06
:1065A80033F0E60E0B6E620E0C6EE5EC6DF00BC070
:1065B80042F00CC043F00DC044F00EC045F034501A
:1065C8003510D8B4EAEF32F0ECEF32F0EDEF39F0F5
:1065D80046503226000E33226000CBF0D9FF60000F
:1065E800CFF0DAFF280EDE18D8A4FDEF32F0FFEF67
:1065F80032F03BEF33F0000E466E04EF33F0462ADC
:1066080046503224D96E000E3320DA6EDF50D8B4EB
:1066180010EF33F012EF33F021EF33F0465032240D
:10662800D96E000E3320DA6E290EDE18D8A41FEFBB
:1066380033F021EF33F003EF33F046503224D96EB4
:10664800000E3320DA6E290EDE18D8A42EEF33F0B0
:1066580030EF33F03BEF33F04650366E376A010EB9
:106668003626000E37223650322637503322600045
:10667800D3F0D9FF6000D7F0DAFF6000CBF0DEFF7F
:106688006000CFF0DDFFEDEF39F0000E416E000E37
:10669800406E000E426E000E436E000E446E000EF9
:1066A800456E000E3F6E000E3E6E000E466E5EEFAB
:1066B80033F0462A46503224D96E000E3320DA6E63
:1066C800300EDE18D8B46BEF33F06DEF33F05DEFBA
:1066D80033F04650D8B473EF33F075EF33F0E9EF89
:1066E80036F046503224D96E000E3320DA6E780E1A
:1066F800DE18D8B482EF33F084EF33F093EF33F041
:1067080046503224D96E000E3320DA6E580EDE1849
:10671800D8A491EF33F093EF33F0E9EF36F0465019
:10672800366E376A010E3626000E3722365032266C
:1067380037503322000E466EA3EF33F0462A4650F8
:106748003224D96E000E3320DA6E300EDE18D8B43B
:10675800B0EF33F0B2EF33F0A2EF33F0000E466E35
:1067680046503224D96E000E3320DA6E700EDE18D1
:10677800D8B4C1EF33F0C3EF33F035EF35F04650FE
:106788003224D96E000E3320DA6E500EDE18D8A4EB
:10679800D0EF33F0D2EF33F0D4EF33F035EF35F0FC
:1067A80046503224D96E000E3320DA6E2E0EDE18D3
:1067B800D8A4E1EF33F0E3EF33F0E7EF33F03D88AF
:1067C800462A35EF35F046503224D96E000E332074
:1067D800DA6EDF50366E3650116E126AD5EC66F0FE
:1067E80011501210D8B4FBEF33F0FDEF33F06BEF1C
:1067F80034F0000E3C6ED00E366EFF0E376E4650EB
:106808003224D96E000E3320DA6EDF50386E396AC2
:106818003650382637503922395007E10A0E385C8D
:10682800D8B019EF34F01BEF34F026EF34F04650AF
:106838003224D96E000E3320DA6EDF50D00F3C6E52
:1068480036EF34F046503224D96E000E3320DA6E1B
:10685800DF50366E3650116E126A44EC6BF01150F0
:10686800C90F3C6E41BE44EF34F0415007E1080EB9
:10687800405CD8B042EF34F044EF34F063EF34F0CA
:1068880040500708366ED8903636D89036363CC019
:1068980037F0386A396A3A6A362A58EF34F0D890AD
:1068A8003736383639363A36362E53EF34F03750D5
:1068B800421238504312395044123A504512404A55
:1068C800412A040E3E26000E3F2275EF34F0000EDA
:1068D800326E000E336E000E346E000E356E0EEF03
:1068E8003AF0462AB4EF33F046503224D96E000EFF
:1068F8003320DA6E700EDE18D8B485EF34F087EFE7
:1069080034F03CEF35F046503224D96E000E332077
:10691800DA6E500EDE18D8A494EF34F096EF34F007
:1069280098EF34F03CEF35F046503224D96E000E23
:106938003320DA6E300EDE18D8A4A5EF34F0A7EFB6
:1069480034F0B6EF34F040504110D8A4AEEF34F034
:10695800B0EF34F0B6EF34F0FC0E3E26FF0E3F22C7
:1069680034EF35F046503224D96E000E3320DA6EFB
:10697800DF50366E3650116E126AD5EC66F0115043
:106988001210D8B4CAEF34F0CCEF34F034EF35F04D
:10699800000E3C6ED00E366EFF0E376E4650322417
:1069A800D96E000E3320DA6EDF50386E396A3650F1
:1069B800382637503922395007E10A0E385CD8B0EA
:1069C800E8EF34F0EAEF34F0F5EF34F046503224D3
:1069D800D96E000E3320DA6EDF50D00F3C6E05EF13
:1069E80035F046503224D96E000E3320DA6EDF506F
:1069F800366E3650116E126A44EC6BF01150C90FA6
:106A08003C6E41BE13EF35F0415007E1080E405C83
:106A1800D8B011EF35F013EF35F032EF35F04050C4
:106A28000708366ED8903636D89036363CC037F0E0
:106A3800386A396A3A6A362A27EF35F0D8903736F5
:106A4800383639363A36362E22EF35F0375042127C
:106A580038504312395044123A504512404A412A9C
:106A6800462A3DB83AEF35F03CEF35F078EF34F090
:106A780046503224D96E000E3320DA6E700EDE18BE
:106A8800D8B449EF35F04BEF35F064EF35F04650A8
:106A98003224D96E000E3320DA6E500EDE18D8B4C8
:106AA80058EF35F05AEF35F064EF35F0000E326EDE
:106AB800000E336E000E346E000E356E0EEF3AF097
:106AC800462A46503224D96E000E3320DA6E2B0E39
:106AD800DE18D8A472EF35F074EF35F077EF35F0A3
:106AE800462A88EF35F046503224D96E000E3320FE
:106AF800DA6E2D0EDE18D8A484EF35F086EF35F067
:106B080088EF35F03D86462A46503226000E33225D
:106B1800000E466E91EF35F0462A46503224D96E63
:106B2800000E3320DA6E300EDE18D8B49EEF35F042
:106B3800A0EF35F090EF35F0000E416E000E406E7C
:106B4800D2EF35F04650D8B4ACEF35F0AEEF35F0B3
:106B5800BCEF35F040C01FF041C020F0000E226E9F
:106B68000A0E216E70EC6DF01FC040F020C041F09D
:106B7800D00E366EFF0E376E46503224D96E000E98
:106B88003320DA6EDF50386E396A3650382637507F
:106B980039223850402639504122462AD00E366EC6
:106BA800FF0E376E46503224D96E000E3320DA6E4F
:106BB800DF50386E396A3650382637503922395006
:106BC80009E10A0E385CD8A0ECEF35F0EEEF35F0AD
:106BD800A6EF35F04650D8A4F4EF35F0F6EF35F0CF
:106BE80000EF36F0000E326E000E336E000E346E7B
:106BF800000E356E0EEF3AF03DA605EF36F007EFC2
:106C080036F00BEF36F0406C411ED8B0412A4050A8
:106C18003E2641503F2234503510D8B416EF36F096
:106C280018EF36F02AEF36F046503224366E000E52
:106C38003320376E6000D3F0D9FF6000D7F0DAFF59
:106C48006000DBF0DEFF6000DFF0DDFF4250431044
:106C580044104510D8A433EF36F035EF36F03FEF47
:106C680036F0000E326E000E336E000E346E000EDB
:106C7800356E0EEF3AF0FF0E4214366E000E4314D6
:106C8800376E000E4414386E000E4514396E3950B4
:106C98003810371009E1810E365CD8A056EF36F06F
:106CA80058EF36F06AEF36F0000E4226010E432206
:106CB800000E4422000E45226AEF36F0D890423684
:106CC8004336443645363E06D8A03F0645AE6FEFFC
:106CD80036F071EF36F062EF36F03FAE7DEF36F00A
:106CE800830E3E5CFF0E3F58D8B07DEF36F07FEF45
:106CF80036F08BEF36F0FF0E3F6E810E3E6E000EC3
:106D0800426E000E436E000E446E000E456E810EFC
:106D18003E1808E13F28D8B494EF36F096EF36F0E5
:106D28009EEF36F0D89042364336443645363E0616
:106D3800D8A03F063FBEAAEF36F03F5009E1800ECB
:106D48003E5CD8A0AAEF36F0ACEF36F0B8EF36F0DC
:106D5800000E426E000E436E000E446E000E456E2D
:106D6800000E3F6E800E3E6E090E366ED89045328C
:106D7800443243324232362EBAEF36F0FF0E421614
:106D8800FF0E43167F0E4416000E45167F0E3E2456
:106D9800366E000E3F20376EFF0E3614386E396A95
:106DA8003A6A3B6A170ED890383639363A363B3647
:106DB800E82ED7EF36F038504212395043123A5085
:106DC80044123B504512EDEF39F03DB8EEEF36F086
:106DD800F0EF36F004EF37F06000CBF0D9FF600039
:106DE800CFF0DAFF2E0EDE18D8A4FDEF36F0FFEF55
:106DF80036F004EF37F03D88324A332AE9EF36F0AF
:106E0800D00E366EFF0E376E6000CBF0D9FF6000F3
:106E1800CFF0DAFFDF50386E396A365038263750EF
:106E28003922395009E10A0E385CD8A01EEF37F034
:106E380020EF37F022EF37F072EF37F03D82090E7E
:106E480040184110D8B42BEF37F02DEF37F065EF2D
:106E580037F03DA832EF37F034EF37F037EF37F03F
:106E68003E06D8A03F06404A412A42C00BF043C024
:106E78000CF044C00DF045C00EF00A0E0F6E000E67
:106E8800106E000E116E000E126E7BEC67F00BC0D8
:106E980042F00CC043F00DC044F00EC045F0600055
:106EA800CBF0D9FF6000CFF0DAFFDF50366ED00E9E
:106EB800362636504226000E4322442245226EEFE3
:106EC80037F03DB86AEF37F06CEF37F06EEF37F018
:106ED8003E4A3F2A324A332AE9EF36F0000E416E25
:106EE800000E406E6000CBF0D9FF6000CFF0DAFFF3
:106EF800650EDE18D8B483EF37F085EF37F094EFDE
:106F080037F06000CBF0D9FF6000CFF0DAFF450E14
:106F1800DE18D8A492EF37F094EF37F06EEF38F020
:106F2800324A332A6000CBF0D9FF6000CFF0DAFF95
:106F38002D0EDE18D8A4A3EF37F0A5EF37F0AAEF8F
:106F480037F03D86324A332ABBEF37F06000CBF08A
:106F5800D9FF6000CFF0DAFF2B0EDE18D8A4B7EF08
:106F680037F0B9EF37F0BBEF37F0324A332A600019
:106F7800CBF0D9FF6000CFF0DAFF300EDE18D8B4BE
:106F8800C8EF37F0CAEF37F0B9EF37F0D00E366EEA
:106F9800FF0E376E6000CBF0D9FF6000CFF0DAFF4C
:106FA800DF50386E396A3650382637503922395012
:106FB80007E10A0E385CD8B0E4EF37F0E6EF37F0B7
:106FC80063EF38F06000CBF0D9FF6000CFF0DAFF54
:106FD800DF50366ED00E36263650406E416A324A41
:106FE800332AD00E366EFF0E376E6000CBF0D9FF15
:106FF8006000CFF0DAFFDF50386E396A3650382635
:1070080037503922395007E10A0E385CD8B00FEFF3
:1070180038F011EF38F063EF38F06000CBF0D9FFAB
:107028006000CFF0DAFFDF50366ED00E362640C053
:107038001FF041C020F0000E226E0A0E216E70EC87
:107048006DF036501F24406E000E2020416E324AEB
:10705800332AD00E366EFF0E376E6000CBF0D9FFA4
:107068006000CFF0DAFFDF50386E396A36503826C4
:1070780037503922395007E10A0E385CD8B047EF4B
:1070880038F049EF38F063EF38F06000CBF0D9FF03
:107098006000CFF0DAFFDF50366ED00E362640C0E3
:1070A8001FF041C020F0000E226E0A0E216E70EC17
:1070B8006DF036501F24406E000E2020416E3DA614
:1070C80068EF38F06AEF38F06EEF38F0406C411E28
:1070D800D8B0412A40503E2641503F223450351006
:1070E800D8B479EF38F07BEF38F08EEF38F03DA266
:1070F80080EF38F082EF38F08EEF38F06000D3F090
:10710800D9FF6000D7F0DAFF6000CBF0DEFF600047
:10711800CFF0DDFF42C00BF043C00CF044C00DF0CF
:1071280045C00EF0000EA7EC54F00BC042F00CC0A6
:1071380043F00DC044F00EC045F042C00BF043C010
:107148000CF044C00DF045C00EF0000E0F6E000E9E
:10715800106E000E116E000E126EBEEC62F0D8A01A
:10716800B8EF38F0BAEF38F0C4EF38F0000E326EEE
:10717800000E336E000E346E000E356E0EEF3AF0D0
:107188003FBECBEF38F0C9EF38F059EF39F03E6C1D
:107198003F1ED8B03F2AEFEF38F042C019F043C085
:1071A8001AF044C01BF045C01CF0F90E1D6E020E0B
:1071B8001E6E150E1F6E500E206E53EC48F019C04F
:1071C80042F01AC043F01BC044F01CC045F0F60E54
:1071D8003E26FF0E3F223FBEFDEF38F03F5007E14D
:1071E8000A0E3E5CD8B0FBEF38F0FDEF38F0D1EF77
:1071F80038F01CEF39F042C019F043C01AF044C00F
:107208001BF045C01CF0000E1D6E000E1E6E200EF9
:107218001F6E410E206E53EC48F019C042F01AC0A0
:1072280043F01BC044F01CC045F03E06D8A03F0602
:107238003E503F10D8A423EF39F025EF39F0FFEF87
:1072480038F042C00BF043C00CF044C00DF045C00C
:107258000EF0000E0F6E000E106E800E116E000EF6
:10726800126E9DEC5CF0D8B03CEF39F03EEF39F08F
:10727800EDEF39F03DA043EF39F045EF39F04FEF2E
:1072880039F0000E326E000E336E800E346E800EB2
:10729800356E0EEF3AF0000E326E000E336E800E31
:1072A800346E000E356E0EEF3AF03FBE64EF39F0E3
:1072B8003F5008E13E04D8A064EF39F066EF39F09A
:1072C800EDEF39F086EF39F042C00BF043C00CF017
:1072D80044C00DF045C00EF0F90E0F6E020E106E90
:1072E800150E116E500E126E2CEC46F00BC042F0CB
:1072F8000CC043F00DC044F00EC045F0F60E3E261B
:10730800FF0E3F223F5007E10A0E3E5CD8B08FEFD8
:1073180039F091EF39F068EF39F0B0EF39F042C049
:107328000BF043C00CF044C00DF045C00EF0000E49
:107338000F6E000E106E200E116E410E126E2CECA8
:1073480046F00BC042F00CC043F00DC044F00EC034
:1073580045F03E06D8A03F063E503F10D8A4B7EFF0
:1073680039F0B9EF39F093EF39F0FF0E0B6EFF0EDD
:107378000C6E7F0E0D6E7F0E0E6E42C00FF043C076
:1073880010F044C011F045C012F09DEC5CF0D8B08C
:10739800D0EF39F0D2EF39F0EDEF39F03DA0D7EF6B
:1073A80039F0D9EF39F0E3EF39F0000E326E000E04
:1073B800336E800E346E800E356E0EEF3AF0000E8E
:1073C800326E000E336E800E346E000E356E0EEF88
:1073D8003AF03DA0F2EF39F0F4EF39F006EF3AF069
:1073E80042C00BF043C00CF044C00DF045C00EF095
:1073F80084EC6CF00BC042F00CC043F00DC044F0BC
:107408000EC045F042C032F043C033F044C034F0FF
:1074180045C035F012000001F75107E1090EF65D8D
:10742800D8B019EF3AF01BEF3AF01DEF3AF097EFAA
:107438003DF0000ED46F000E0F6E040E106ED60EC7
:10744800116E020E126ED60E0B6E020E0C6ED8EC7A
:1074580068F00BC013F00CC014F029EC57F00F5073
:107468001010D8A43AEF3AF03CEF3AF042EF3AF075
:10747800010E0001D56FBB9A8CEF3AF0000E0F6E2B
:10748800040E106EB40E116E620E126E000E146EA3
:10749800070E136E29EC57F00F501010D8A457EFB1
:1074A8003AF059EF3AF097EF3DF0010E0001D56F31
:1074B800BB9ADAC0BFF0070EBF1778EC6EF00B501E
:1074C800070B0001BF25C86F000ECC6F000ECB6FF5
:1074D8007AEF3AF0150E0001BF6FC60EE82EFED700
:1074E800BF2FFCD700F00001CB4BCC2BC851BF6F8E
:1074F800C06BBF51CB5DCC51800AC16FC051800AAF
:10750800C159D8A08AEF3AF08CEF3AF06EEF3AF012
:10751800000E0B6E040E0C6EF70EF6250D6EFF0EA8
:10752800F7210E6E000EC8EC64F00001C96F000E62
:10753800D36FF70EF625AA6F030EF721AB6F420E35
:10754800AC6F620EAD6FD30EAE6F000EAF6F58EC1E
:1075580069F0AAC0C2F0ABC0C3F00001C251C311A8
:10756800D8B4B9EF3AF0BBEF3AF0C4EF3AF0D351E0
:10757800C919D8B4C2EF3AF0C4EF3AF0C8EF3AF0FC
:1075880042EC64F097EF3DF0000E166E040E176E95
:10759800E10E186E620E196E1FEC5DF016C0D6F083
:1075A80017C0D7F064EF3DF00D0E0F6E630E106E2E
:1075B800D6C011F0D7C012F0000E146E030E136E71
:1075C80029EC57F00F501010D8A4EDEF3AF0EFEF78
:1075D8003AF058EF3BF0030E0001D6250B6E000E73
:1075E800D7210C6E7F0E0D6E010E0E6E08EC62F048
:1075F8000B500C10D8A403EF3BF005EF3BF00DEF58
:107608003BF0010E0001D56FBB9A56EF3DF056EFE7
:107618003DF0030E0001D6250B6E000ED7210C6E2F
:10762800150E0D6E630E0E6E08EC62F00B500C100A
:10763800D8A421EF3BF023EF3BF07CEF3DF0010EA7
:107648000001D56FDAC0BFF0070EBF1778EC6EF0F7
:107658000B50070B0001BF25CA6F000ECE6F000E3E
:10766800CD6F43EF3BF0150E0001BF6FC60EE82E3D
:10767800FED7BF2FFCD700F00001CD4BCE2BCA514F
:10768800BF6FC06BBF51CD5DCE51800AC16FC05175
:10769800800AC159D8A053EF3BF055EF3BF037EFC4
:1076A8003BF0BB9A56EF3DF00001D551D8B45FEFDF
:1076B8003BF061EF3BF07DEF3BF0AB0E0F6E620EDF
:1076C800106ED6C011F0D7C012F0000E146E080E5E
:1076D800136E29EC57F00F501010D8A476EF3BF03A
:1076E80078EF3BF07DEF3BF0010E0001D46F56EFD1
:1076F8003DF00001D551D8B484EF3BF086EF3BF064
:10770800A2EF3BF0650E0F6E620E106ED6C011F040
:10771800D7C012F0000E146E0A0E136E29EC57F043
:107728000F501010D8A49BEF3BF09DEF3BF0A2EF59
:107738003BF0020E0001D46F56EF3DF00001D55129
:10774800D8B4A9EF3BF0ABEF3BF0C7EF3BF0700EBE
:107758000F6E620E106ED6C011F0D7C012F0000E78
:10776800146E0A0E136E29EC57F00F501010D8A49F
:10777800C0EF3BF0C2EF3BF0C7EF3BF0030E000158
:10778800D46F56EF3DF00001D551D8B4CEEF3BF0A1
:10779800D0EF3BF0F5EF3BF0110E0F6E630E106E5D
:1077A800D6C011F0D7C012F0000E146E030E136E7F
:1077B80029EC57F00F501010D8A4E5EF3BF0E7EF95
:1077C8003BF0F5EF3BF0030E0001D625256E000EC9
:1077D800D721266EAFEC53F02550DEEC6EF056EF55
:1077E8003DF00001D551D8B4FCEF3BF0FEEF3BF083
:1077F8004EEF3CF0E70E0F6E620E106ED6C011F021
:10780800D7C012F0000E146E050E136E29EC57F057
:107818000F501010D8A413EF3CF015EF3CF04EEFCA
:107828003CF0050E0001D625476E000ED721486EA4
:10783800ADEC6DF047C0CFF048C0D0F049C0D1F0F2
:107848004AC0D2F0000E0F6E000E106E7A0E116E46
:10785800440E126ECFC00BF0D0C00CF0D1C00DF0AA
:10786800D2C00EF02CEC46F00BC060F00CC061F0FA
:107878000DC062F00EC063F019EC5CF060C0C4F09B
:1078880061C0C5F0C4C06EF0C5C06FF07DEC65F096
:1078980056EF3DF00001D551D8B455EF3CF057EF05
:1078A8003CF0A7EF3CF0ED0E0F6E620E106ED6C0E6
:1078B80011F0D7C012F0000E146E050E136E29ECED
:1078C80057F00F501010D8A46CEF3CF06EEF3CF05E
:1078D800A7EF3CF0050E0001D625476E000ED72114
:1078E800486EADEC6DF047C0CFF048C0D0F049C04D
:1078F800D1F04AC0D2F0000E0F6E000E106E7A0E54
:10790800116E440E126ECFC00BF0D0C00CF0D1C077
:107918000DF0D2C00EF02CEC46F00BC060F00CC09D
:1079280061F00DC062F00EC063F019EC5CF060C04D
:10793800C6F061C0C7F0C6C06EF0C7C06FF041ECBA
:1079480065F056EF3DF00001D551D8B4AEEF3CF0EC
:10795800B0EF3CF0D3EF3CF0020ED419D8A4B7EF47
:107968003CF0B9EF3CF0D3EF3CF08F0E0F6E620E97
:10797800106ED6C011F0D7C012F0000E146E090EAA
:10798800136E29EC57F00F501010D8A4CEEF3CF02E
:10799800D0EF3CF0D3EF3CF0FF0056EF3DF0000194
:1079A800D551D8B4DAEF3CF0DCEF3CF011EF3DF004
:1079B800020ED419D8A4E3EF3CF0E5EF3CF011EF48
:1079C8003DF0D30E0F6E620E106ED6C011F0D7C008
:1079D80012F0000E146E060E136E29EC57F00F50BD
:1079E8001010D8A4FAEF3CF0FCEF3CF011EF3DF09A
:1079F8007F0E0B6E010E0C6E060E0001D6250D6E65
:107A0800000ED7210E6E000E106E200E0F6EB5EC14
:107A180063F0D9EC6AF056EF3DF00001D551D8B4C7
:107A280018EF3DF01AEF3DF00BEF3BF0020ED419C2
:107A3800D8A421EF3DF023EF3DF00BEF3BF05A0EB9
:107A48000F6E620E106ED6C011F0D7C012F0000E85
:107A5800146E0A0E136E29EC57F00F501010D8A4AC
:107A680038EF3DF03AEF3DF00BEF3BF078EC6EF07D
:107A78000BA041EF3DF043EF3DF00BEF3BF07F0EE5
:107A88000B6E010E0C6E0A0E0001D6250D6E000E4F
:107A9800D7210E6E000E106E200E0F6EB5EC63F03F
:107AA8000DEF3DF0000E166E000E176EE10E186E0B
:107AB800620E196E1FEC5DF016C0D6F017C0D7F035
:107AC8000001D651D711D8A46CEF3DF06EEF3DF010
:107AD800D8EF3AF07CEF3DF0EAEC4EF096EF3DF04F
:107AE80032EC5AF096EF3DF013EC63F096EF3DF070
:107AF8000001D451BF6FC06BC051000AD8B487EFE2
:107B08003DF096EF3DF0BF51010AD8B470EF3DF05B
:107B1800030AD8B478EF3DF0010AD8B474EF3DF009
:107B280096EF3DF0BB8A120060008BF1D9FF600030
:107B38008FF1DAFF6F007BFFF6FF6F0077FFF7FF2B
:107B4800000EF86E0800F550250AD8A4AEEF3DF0F7
:107B5800B0EF3DF094EF40F060008BF1D9FF60008A
:107B68008FF1DAFFDE2A000EDD22000E0001F56F2C
:107B7800000EF46FF4C04EF0F5C04FF04C684D683D
:107B8800000E7E6F000E7D6F18EF3EF04E80600095
:107B98008BF1D9FF60008FF1DAFFDE2A000EDD22BB
:107BA80018EF3EF04E82CBEF3DF04E84CBEF3DF028
:107BB8004E86CBEF3DF04E88CBEF3DF0000E7E6F4A
:107BC800010E7D6F18EF3EF060008BF1D9FF600069
:107BD8008FF1DAFF6F007BFFF6FF6F0077FFF7FF8B
:107BE800000EF86E0800F550666F676B6751000A63
:107BF800D8B401EF3EF0E2EF3DF06651200AD8B468
:107C0800DCEF3DF0030AD8B4DFEF3DF0080AD8B442
:107C1800D9EF3DF0060AD8B4CAEF3DF01D0AD8B432
:107C2800D6EF3DF0E2EF3DF07D517E11D8B41FEF65
:107C38003EF021EF3EF0E8EF3DF04EA026EF3EF09B
:107C480028EF3EF029EF3EF04E9260008BF1D9FF0D
:107C580060008FF1DAFF6F007BFFF6FF6F0077FFA0
:107C6800F7FF000EF86E0800F5502A0AD8A43FEF77
:107C78003EF041EF3EF074EF3EF060008BF1D9FF2B
:107C880060008FF1DAFFDE2A000EDD22600093F13A
:107C9800D9FF600097F1DAFF6F007CFF66F0020EF3
:107CA800DE266F007CFF67F0000EDD2260009BF18E
:107CB800D9FF60009FF1DAFF6F0078FFF4F06F00E2
:107CC80074FFF5F0F5BF6DEF3EF06BEF3EF0B7EFE8
:107CD8003EF04E80F46DF51FD8B0F52BB7EF3EF0AF
:107CE80060008BF1D9FF60008FF1DAFF6F0078FF39
:107CF80025F06F0074FF26F0AFEC53F025C0F4F0C8
:107D080026C0F5F091EF3EF060008BF1D9FF6000DE
:107D18008FF1DAFFDE2A000EDD22D00E0001666F39
:107D2800FF0E676F60008BF1D9FF60008FF1DAFFFB
:107D38006F007BFFF6FF6F0077FFF7FF000EF86E0E
:107D48000800F550686F696B6651682767516923A9
:107D5800695109E10A0E685DD8A0B5EF3EF0B7EFAA
:107D68003EF088EF3EF060008BF1D9FF60008FF1A4
:107D7800DAFF6F007BFFF6FF6F0077FFF7FF000E5B
:107D8800F86E0800F550640AD8B4CDEF3EF0CFEF96
:107D98003EF0E7EF3EF060008BF1D9FF60008FF115
:107DA800DAFF6F007BFFF6FF6F0077FFF7FF000E2B
:107DB800F86E0800F550690AD8A4E5EF3EF0E7EF41
:107DC8003EF031EF3FF060008BF1D9FF60008FF19A
:107DD800DAFFDE2A000EDD22600093F1D9FF600091
:107DE80097F1DAFF6F007CFF66F0020EDE266F0067
:107DF8007CFF67F0000EDD2260009BF1D9FF600078
:107E08009FF1DAFF6F0078FF6AF06F0074FF6BF084
:107E1800000E6BBFFF0E6C6F6D6F6E6F6F6F706FC4
:107E2800716F60C028F061C029F06AC02AF06BC089
:107E38002BF06CC02CF06DC02DF06EC02EF06FC012
:107E48002FF070C030F071C031F07AEC4DF028C0DE
:107E580060F029C061F0B7EF40F060008BF1D9FF06
:107E680060008FF1DAFF6F007BFFF6FF6F0077FF8E
:107E7800F7FF000EF86E0800F550730AD8B447EF04
:107E88003FF049EF3FF068EF3FF060008BF1D9FF1A
:107E980060008FF1DAFF6F0078FF0FF06F0074FF5A
:107EA80010F0050E116E630E126E000E146E030EA6
:107EB800136E29EC57F00F501010D8A466EF3FF05E
:107EC80068EF3FF0C2EF3FF060008BF1D9FF600030
:107ED8008FF1DAFF6F007BFFF6FF6F0077FFF7FF88
:107EE800000EF86E0800F550730AD8B47EEF3FF024
:107EF80080EF3FF087EF3FF0000E0001806F030E28
:107F08007F6F8CEF3FF0000E0001806F010E7F6FD6
:107F180060008BF1D9FF60008FF1DAFF7F51DE2618
:107F28008051DD22600093F1D9FF600097F1DAFFFC
:107F38006F007CFF66F0020EDE266F007CFF67F0A4
:107F4800000EDD2260009BF1D9FF60009FF1DAFF8F
:107F58006F0078FF7AF06F0074FF7BF060C016F056
:107F680061C017F07AC018F07BC019F057EC56F0D2
:107F780016C060F017C061F0B7EF40F060008BF1F9
:107F8800D9FF60008FF1DAFF6F007BFFF6FF6F000B
:107F980077FFF7FF000EF86E0800F550780AD8B49E
:107FA800D8EF3FF0DAEF3FF0F2EF3FF060008BF1EF
:107FB800D9FF60008FF1DAFF6F007BFFF6FF6F00DB
:107FC80077FFF7FF000EF86E0800F550580AD8A49E
:107FD800F0EF3FF0F2EF3FF052EF40F060008BF12E
:107FE800D9FF60008FF1DAFF6F007BFFF6FF6F00AB
:107FF80077FFF7FF000EF86E08006F00D4FF7CF0E3
:1080080060008BF1D9FF60008FF1DAFFDE2A000EE5
:10801800DD22600093F1D9FF600097F1DAFF6F006D
:108028007CFF66F0020EDE266F007CFF67F0000E14
:10803800DD2260009BF1D9FF60009FF1DAFF6F003D
:1080480078FF68F06F0074FF69F068C072F069C06B
:1080580073F00001746B756B766B776B786B796B6B
:1080680060C028F061C029F072C02AF073C02BF0FC
:1080780074C02CF075C02DF076C02EF077C02FF0AC
:1080880078C030F079C031F07CC032F047EC50F065
:1080980028C060F029C061F0B7EF40F060008BF1B4
:1080A800D9FF60008FF1DAFF6F007BFFF6FF6F00EA
:1080B80077FFF7FF000EF86E0800F550250AD8A4E0
:1080C80068EF40F06AEF40F084EF40F060008BF119
:1080D800D9FF60008FF1DAFFDE2A000EDD22000EE4
:1080E8000E6E250E0D6E60C00FF061C010F076ECBC
:1080F8005EF0000E0001616F010E606FB7EF40F097
:1081080060008BF1D9FF60008FF1DAFFDE2A000EE4
:10811800DD22000E0001616F000E606FB7EF40F0C6
:1081280060008BF1D9FF60008FF1DAFF6F007BFFF1
:10813800F6FF6F0077FFF7FF000EF86E0800F550A6
:108148000D6E0E6A60C00FF061C010F076EC5EF044
:1081580060008BF1D9FF60008FF1DAFFDE2A000E94
:10816800DD227DEF40F01200000E0001686F20EE66
:1081780073F0070EDE6AE806FDE223C07BF024C038
:108188007CF028BED3EF40F0285007E1250E275C8D
:10819800D8B0D1EF40F0D3EF40F0DCEF40F0270447
:1081A8002810D8A4DAEF40F0DCEF40F0E2EF40F01E
:1081B800000EF36F160EF26F5EEF43F07B517C11E9
:1081C800D8B4E9EF40F0EBEF40F05EEF43F0600029
:1081D800EFF1D9FF6000F3F1DAFFDF50D8A4F7EF31
:1081E80040F0F9EF40F0FBEF40F05EEF43F0600045
:1081F800EFF1D9FF6000F3F1DAFFDF507D6F0FEF89
:1082080041F07B4B7C2B6000EFF1D9FF6000F3F16C
:10821800DAFFDF507D6F200E7D19D8B416EF41F0DC
:1082280018EF41F005EF41F0F70E2B6EFF0E2C6EA4
:108238007D512D6E2E6A2B502D262C502E222E501D
:1082480009E1050E2D5CD8A02CEF41F02EEF41F08E
:1082580005EF41F0000E716F000E726F2D0E7D1943
:10826800D8A439EF41F03BEF41F049EF41F0010E5E
:10827800716F7B4B7C2B6000EFF1D9FF6000F3F14D
:10828800DAFFDF507D6F54EF41F02B0E7D19D8A433
:1082980050EF41F052EF41F054EF41F03DEF41F023
:1082A800300E7D19D8A45BEF41F05DEF41F0E8EFA7
:1082B80041F07B4B7C2B6000EFF1D9FF6000F3F1BC
:1082C800DAFFDF507D6F27502810D8B46EEF41F0E9
:1082D80070EF41F07AEF41F0100E27182810D8A45B
:1082E80078EF41F07AEF41F0D9EF41F0780E7D193F
:1082F800D8B481EF41F083EF41F08CEF41F0580E94
:108308007D19D8A48AEF41F08CEF41F0D9EF41F004
:10831800000E286E100E276E7B4B7C2B6000EFF151
:10832800D9FF6000F3F1DAFFDF507D6F9F0E2B6EEF
:10833800FF0E2C6E7D512D6E2E6A200E2D12000E12
:108348002E122B502D262C502E222E5007E11A0EBD
:108358002D5CD8B0B2EF41F0B4EF41F0C3EF41F07B
:108368007DC011F0126A44EC6BF0C90E1126100E94
:108378001160C1EF41F0C3EF41F0D1EF41F07DC092
:1083880011F0126A9DEC66F011501210D8A4CFEFCC
:1083980041F0D1EF41F0E8EF41F0010E0001686FC4
:1083A8007B07D8A07C075EEF43F0010E686F27506B
:1083B8002810D8A4E2EF41F0E4EF41F0E8EF41F0F3
:1083C800000E286E080E276E27502810D8A4EFEF4D
:1083D80041F0F1EF41F0F5EF41F0000E286E0A0E82
:1083E800276E2950D8B4FBEF41F0FDEF41F02AEF9A
:1083F80042F000017151D8A404EF42F006EF42F0B8
:1084080018EF42F0FF0E696FFF0E6A6FFF0E6B6F79
:10841800FF0E6C6FFF0E6D6FFF0E6E6FFF0E6F6FAE
:108428007F0E706F33EF42F0000E696F000E6A6FB7
:10843800000E6B6F000E6C6F000E6D6F000E6E6F8E
:10844800000E6F6F800E706F33EF42F000016969A4
:108458006A696B696C696D696E696F69706973C007
:1084680060F074C061F075C062F076C063F077C0E8
:1084780064F078C065F079C066F07AC067F09F0E46
:108488002B6EFF0E2C6E7D512D6E2E6A200E2D1236
:10849800000E2E122B502D262C502E222E5007E186
:1084A8001A0E2D5CD8B05BEF42F05DEF42F068EF3A
:1084B80042F07DC011F0126A44EC6BF01150C90F04
:1084C80000017D6F80EF42F0D00E2B6EFF0E2C6EF8
:1084D8007D512D6E2E6A2B502D262C502E222E507B
:1084E80007E10A0E2D5CD8B07CEF42F07EEF42F037
:1084F8003EEF43F0300E7D5F7D512B6E2C6A275086
:108508002B5C2C50800A2D6E2850800A2D58D8A03C
:1085180090EF42F092EF42F094EF42F03EEF43F0DA
:108528007251D8A49AEF42F09CEF42F030EF43F03A
:1085380027C00BF028C00CF0000E0CBEFF0E0D6E0D
:108548000E6E0F6E106E116E126E73C013F074C043
:1085580014F075C015F076C016F077C017F078C023
:1085680018F079C019F07AC01AF066EC63F00BC005
:108578002BF00CC02CF00DC02DF00EC02EF00FC04B
:108588002FF010C030F011C031F012C032F00001ED
:108598007D512B24736F000E2C20746F000E2D203C
:1085A800756F000E2E20766F000E2F20776F000E4D
:1085B8003020786F000E3120796F000E32207A6FEC
:1085C8006051735D6151745962517559635176599F
:1085D80064517759655178596651795967517A5973
:1085E800D8A0F9EF42F0FBEF42F01AEF43F0295020
:1085F800D8B401EF43F003EF43F030EF43F0735189
:10860800695D74516A5975516B5976516C59775136
:108618006D5978516E5979516F597A517059D8B04E
:1086280018EF43F01AEF43F030EF43F069C073F0EE
:108638006AC074F06BC075F06CC076F06DC077F0EE
:108648006EC078F06FC079F070C07AF0000EF36FEA
:10865800220EF26F010E726F7B4B7C2B6000EFF1E4
:10866800D9FF6000F3F1DAFFDF507D6F010E686F0C
:1086780033EF42F07251D8A444EF43F046EF43F091
:108688005EEF43F07151D8B44CEF43F04EEF43F036
:108698005EEF43F07A1F791F781F771F761F751FCB
:1086A800741F736D000E7423752376237723782344
:1086B80079237A2325502610D8B465EF43F067EF65
:1086C80043F07FEF43F06851D8A46DEF43F06FEFAC
:1086D80043F073EF43F023C07BF024C07CF06000CC
:1086E80097F0D9FF60009BF0DAFF6000EFF1DEFF42
:1086F8006000F3F1DDFF73C023F074C024F075C08F
:1087080025F076C026F077C027F078C028F079C029
:1087180029F07AC02AF01200600023F2D9FF600025
:1087280027F2DAFF6F007BFFF6FF6F0077FFF7FF96
:10873800000EF86E0800F550250AD8A4A6EF43F0FD
:10874800A8EF43F00AEF45F0600023F2D9FF60007C
:1087580027F2DAFFDE2A000EDD22000E0001F16F9B
:10876800000EF06FF0C073F1F1C074F1600023F2F5
:10877800D9FF600027F2DAFF6F0078FF25F06F005D
:1087880074FF26F0AFEC53F025C0F0F026C0F1F0EE
:10879800D7EF43F0600023F2D9FF600027F2DAFF39
:1087A800DE2A000EDD22D00E00018C6FFF0E8D6FC9
:1087B800600023F2D9FF600027F2DAFF6F007BFF29
:1087C800F6FF6F0077FFF7FF000EF86E0800F55010
:1087D8008E6F8F6B8C518E278D518F238F5109E1AE
:1087E8000A0E8E5DD8A0FBEF43F0FDEF43F0CEEF0D
:1087F80043F0600023F2D9FF600027F2DAFF6F0030
:108808007BFFF6FF6F0077FFF7FF000EF86E08009A
:10881800F550780AD8B413EF44F015EF44F02DEF73
:1088280044F0600023F2D9FF600027F2DAFF6F00FE
:108838007BFFF6FF6F0077FFF7FF000EF86E08006A
:10884800F550580AD8A42BEF44F02DEF44F09EEFD2
:1088580044F0600023F2D9FF600027F2DAFFDE2A35
:10886800000EDD2286C033F087C034F0940E356EDA
:10887800000E366E20EC4AF033C092F034C093F00C
:10888800010173517411D8A44CEF44F04EEF44F039
:1088980098EF44F0000193BF5AEF44F0935108E178
:1088A8009205D8A05AEF44F05CEF44F098EF44F0FA
:1088B80060002BF2D9FF60002FF2DAFF6F007CFF17
:1088C8008CF0020EDE266F007CFF8DF0000EDD229C
:1088D800600033F2D9FF600037F2DAFF6F0078FFEB
:1088E80090F06F0074FF91F0600043F2F6FF6000B3
:1088F80047F2F7FF000EF86E1F0EF76409D060000C
:1089080053F2F5FF0D00600057F2F5FF0C000CD094
:108918006F00DBFFE9FF6F00DFFFEAFF600053F243
:10892800EEFF600057F2EFFF92C086F093C087F029
:108938002BEF46F0600023F2D9FF600027F2DAFF40
:108948006F007BFFF6FF6F0077FFF7FF000EF86EF2
:108958000800F550250AD8A4B4EF44F0B6EF44F067
:10896800FFEF44F086C016F087C017F0FEEC63F006
:1089780086C00DF087C00EF080EC5BF00DC09CF057
:108988000EC09DF0250E00019C199D11D8A4CFEFB3
:1089980044F0D1EF44F0E4EF44F0600023F2D9FF53
:1089A800600027F2DAFFDE2A000EDD220101714B9A
:1089B800722B000E0001876F000E866F2BEF46F0BA
:1089C8009C2908E19D29D8B4ECEF44F0EEEF44F07F
:1089D800F8EF44F09CC00BF09DC00CF086C00DF081
:1089E80087C00EF0E3EC60F0FF0E0001876FFE0E0B
:1089F800866F2BEF46F0600023F2D9FF600027F264
:108A0800DAFFDE2A000EDD22DDEF44F086C00DF02D
:108A180087C00EF080EC5BF00DC09CF00EC09DF09E
:108A2800200E00019C199D11D8B41DEF45F01FEFD1
:108A380045F036EF45F0F70E8C6FFF0E8D6F9CC03A
:108A48008EF09DC08FF08C518E278D518F238F51C2
:108A580007E1050E8E5DD8B034EF45F036EF45F0EE
:108A6800FFEF45F0600023F2D9FF600027F2DAFF3C
:108A78006F007BFFF6FF6F0077FFF7FF000EF86EC1
:108A88000800F550200AD8B44CEF45F04EEF45F0F9
:108A980073EF45F0F70E8C6FFF0E8D6F600023F2B9
:108AA800D9FF600027F2DAFF6F007BFFF6FF6F0047
:108AB80077FFF7FF000EF86E0800F5508E6F8F6B8A
:108AC8008C518E278D518F238F5107E1050E8E5DB6
:108AD800D8B071EF45F073EF45F0FFEF45F0600057
:108AE80023F2D9FF600027F2DAFFDE2A000EDD222A
:108AF800600023F2D9FF600027F2DAFF6F007BFFE6
:108B0800F6FF6F0077FFF7FF000EF86E0800F550CC
:108B1800200AD8B492EF45F094EF45F073EF45F092
:108B2800F70E00018C6FFF0E8D6F600023F2D9FFE6
:108B3800600027F2DAFF6F007BFFF6FF6F0077FF18
:108B4800F7FF000EF86E0800F5508E6F8F6B8C5192
:108B58008E278D518F238F5109E1050E8E5DD8A088
:108B6800B8EF45F0BAEF45F073EF45F00101714BEE
:108B7800722B86C00DF087C00EF080EC5BF00DC044
:108B88009CF00EC09DF0200E00019C199D11D8B4D8
:108B9800D0EF45F0D2EF45F0BAEF45F0F70E8C6F05
:108BA800FF0E8D6F9CC08EF09DC08FF08C518E276C
:108BB8008D518F238F5109E1050E8E5DD8A0E7EF07
:108BC80045F0E9EF45F0BAEF45F09C2908E19D2909
:108BD800D8B4F1EF45F0F3EF45F0DDEF44F09CC079
:108BE8000BF09DC00CF086C00DF087C00EF0E3ECD2
:108BF80060F0DDEF44F0600023F2D9FF600027F257
:108C0800DAFF6F007BFFF6FF6F0077FFF7FF000EBC
:108C1800F86E0800F5508C6F8D6B9C518C1907E12C
:108C28009D518D19D8A41BEF46F01DEF46F01FEF9C
:108C380046F0D1EF44F09C2906E19D29D8A427EFFE
:108C480046F029EF46F0EEEF44F086698769120096
:108C58000E50800B176E0E500E241D6E0DAE37EFA2
:108C680046F039EF46F03AEF46F01D801D50D8B473
:108C780040EF46F042EF46F055EF46F01D28D8A4E5
:108C880048EF46F04AEF46F052EF46F0000E0B6E02
:108C9800000E0C6E000E0D6E000E0E6E0D8E5DEF4A
:108CA80046F0000E0B6E000E0C6E000E0D6E000EE0
:108CB8000E6E1250800B171A12501224186E11AE35
:108CC80068EF46F06AEF46F06BEF46F018801850F0
:108CD800D8B471EF46F073EF46F086EF46F01828E7
:108CE800D8A479EF46F07BEF46F083EF46F0000E0C
:108CF8000F6E000E106E000E116E000E126E118EA9
:108D08008EEF46F0000E0F6E000E106E000E116E04
:108D1800000E126E1850D8B494EF46F096EF46F055
:108D28009EEF46F01D50D8A49CEF46F09EEF46F00B
:108D3800A8EF46F0000E0B6E000E0C6E000E0D6EC6
:108D4800000E0E6E52EF48F011500B026F00CCFF70
:108D580022F06F00D0FF23F02250196E1A6A1B6AA6
:108D68001C6A23501E6E1F6A206A216A10500C026A
:108D78006F00CCFF22F06F00D0FF23F0225019269D
:108D8800000E1A221B221C2223501E26000E1F2210
:108D9800202221220F500D026F00CCFF22F06F001D
:108DA800D0FF23F022501926000E1A221B221C2263
:108DB80023501E26000E1F22202221221BC01CF039
:108DC8001AC01BF019C01AF0196A0F500C026F0074
:108DD800CCFF22F06F00D0FF23F022501926235039
:108DE8001A22000E1B22000E1C2210500B026F00CC
:108DF800CCFF22F06F00D0FF23F022501926235019
:108E08001A22000E1B22000E1C221BC01CF01AC0C6
:108E18001BF019C01AF0196A0F500B026F00CCFF33
:108E280022F06F00D0FF23F02250192623501A2277
:108E3800000E1B22000E1C2211500C026F00CCFFEA
:108E480022F06F00D0FF23F022501E2623501F224D
:108E5800000E2022000E212210500D026F00CCFFC0
:108E680022F06F00D0FF23F022501E2623501F222D
:108E7800000E2022000E212211500D026F00CCFF9F
:108E880022F06F00D0FF23F02250136E2350146E8F
:108E9800156A166A15C016F014C015F013C014F040
:108EA800136A13501E2614501F22155020221650E4
:108EB800212219C013F01AC014F01BC015F01CC0F1
:108EC80016F0190E6DEF47F0D8901632153214329D
:108ED8001332E82E68EF47F013501E2614501F2255
:108EE80015502022165021221BC01CF01AC01BF05E
:108EF80019C01AF0196A18501DC013F0146A132605
:108F0800000E1422820E1324226EFF0E1420236EEC
:108F1800A3EF47F0D8901E361F36203621361CAEF8
:108F280098EF47F09AEF47F09BEF47F01E80D890F4
:108F380019361A361B361C362206D8A0230620AE50
:108F4800A8EF47F0AAEF47F08EEF47F0000E186E33
:108F58001CAEB1EF47F0B3EF47F0D7EF47F0FF0E85
:108F68001914136EFF0E1A14146EFF0E1B14156ECF
:108F78007F0E1C14166E1350141015101610D8B44A
:108F8800C8EF47F0CAEF47F0CEEF47F0010E186E72
:108F9800D7EF47F01EA0D3EF47F0D5EF47F0D7EF54
:108FA80047F0CAEF47F01850D8B4DDEF47F0DFEFCD
:108FB80047F003EF48F0010E1E26000E1F22202264
:108FC800212221A0EAEF47F0ECEF47F003EF48F049
:108FD8001EC013F01FC014F020C015F021C016F0F9
:108FE8001634163215321432133213C01EF014C060
:108FF8001FF015C020F016C021F0224A232A23BEF4
:109008000EEF48F0235008E12228D8A00EEF48F0D0
:1090180010EF48F01AEF48F0000E1E6E000E1F6E9B
:10902800800E206E7F0E216E48EF48F023BE27EF9A
:1090380048F0235006E12204D8B025EF48F027EF86
:1090480048F033EF48F0000E1E6E000E1F6E000E43
:10905800206E000E216E000E176E48EF48F022C0F9
:109068001DF0FF0E1E16FF0E1F167F0E2016000E97
:1090780021161DA042EF48F044EF48F045EF48F0B4
:10908800208ED8901D30216E175021121EC00BF073
:109098001FC00CF020C00DF021C00EF012001C50B3
:1090A800800B296E1C501C24306E1BAE5EEF48F0FE
:1090B80060EF48F061EF48F030803050D8B467EF87
:1090C80048F069EF48F07EEF48F03028D8A46FEFF9
:1090D80048F071EF48F079EF48F0000E196E000E75
:1090E8001A6E000E1B6E000E1C6E1B8E000E1C6E80
:1090F80086EF48F0000E196E000E1A6E000E1B6EF9
:10910800000E1C6E2050800B291A20502024316E2E
:109118001FAE91EF48F093EF48F094EF48F031809C
:109128003150D8B49AEF48F09CEF48F0B1EF48F0CE
:109138003128D8A4A2EF48F0A4EF48F0ACEF48F0EB
:10914800000E1D6E000E1E6E000E1F6E000E206EAD
:109158001F8E000E206EB9EF48F0000E1D6E000E37
:109168001E6E000E1F6E000E206E1D501E101F106A
:109178002010D8A4C2EF48F0C4EF48F0DCEF48F064
:10918800000E196E000E1A6E000E1B6E000E1C6E7D
:10919800800E1B127F0E1C1229501C1219C019F0C8
:1091A8001AC01AF01BC01BF01CC01CF01FEF4AF0BD
:1091B8003050D8A4E2EF48F0E4EF48F0EEEF48F082
:1091C800000E196E000E1A6E000E1B6E000E1C6E3D
:1091D8001FEF4AF0315030C021F0226A215E000EA4
:1091E800225A7F0E21242A6E000E22202B6E19C0CF
:1091F80025F01AC026F01BC027F01CC028F0000E6E
:10920800196E000E1A6E000E1B6E000E1C6E000EFC
:109218002C6E000E2D6E000E2E6E000E2F6E000EA0
:10922800316E4FEF49F03150D8B41DEF49F01FEFC0
:1092380049F036EF49F0D8902536263627362836B5
:10924800D89019361A361B361C362FAE2EEF49F039
:1092580030EF49F031EF49F01980D8902C362D368F
:109268002E362F361D50255C1E5026581F50275865
:1092780020502858D8A043EF49F045EF49F04EEF69
:1092880049F02F8C1D50255E1E50265A1F50275A14
:109298002050285A312A190E316455EF49F057EFFA
:1092A80049F017EF49F02550261027102810D8B498
:1092B80060EF49F062EF49F07AEF49F02C807AEFDD
:1092C80049F0D89019361A361B361C362FAE6FEF78
:1092D80049F071EF49F072EF49F01980D8902C36B7
:1092E8002D362E362F362A06D8A02B061BAE7FEF3A
:1092F80049F081EF49F065EF49F0000E316E2FAE6D
:1093080088EF49F08AEF49F0AEEF49F0FF0E2C14D0
:10931800216EFF0E2D14226EFF0E2E14236E7F0E6B
:109328002F14246E2150221023102410D8B49FEF3C
:1093380049F0A1EF49F0A5EF49F0010E316EAEEF0B
:1093480049F019A0AAEF49F0ACEF49F0AEEF49F0A7
:10935800A1EF49F03150D8B4B4EF49F0B6EF49F075
:10936800DAEF49F0010E1926000E1A221B221C22E0
:109378001CA0C1EF49F0C3EF49F0DAEF49F019C07A
:1093880021F01AC022F01BC023F01CC024F02434A2
:10939800243223322232213221C019F022C01AF09D
:1093A80023C01BF024C01CF02A4A2B2A2BBEE5EF51
:1093B80049F02B5008E12A28D8A0E5EF49F0E7EF5B
:1093C80049F0F2EF49F0000E2B6E2A68000E196E74
:1093D800000E1A6E000E1B6E000E1C6E2BBEFFEFE9
:1093E80049F02B5006E12A04D8B0FDEF49F0FFEF11
:1093F80049F00DEF4AF0000E2B6E000E2A6E000E9B
:10940800196E000E1A6E000E1B6E000E1C6E000EFA
:10941800296E2AC030F030A014EF4AF016EF4AF057
:1094280019EF4AF01B8E1AEF4AF01B9ED890303085
:109438001C6ED0EF48F01200000E446E000E436E12
:1094480033C016F034C017F0FEEC63F00001F051A1
:10945800F111D8A432EF4AF034EF4AF03AEF4AF06B
:10946800000E406E1F0E3F6E3EEF4AF0F0C03FF018
:10947800F1C040F0000E466E000E456E56EF4BF000
:1094880033C00DF034C00EF080EC5BF00DC047F037
:109498000EC048F0472806E14828D8A456EF4AF0FD
:1094A80058EF4AF071EF4AF00001F051F111D8A4D9
:1094B80060EF4AF062EF4AF06BEF4AF04550461011
:1094C800D8A469EF4AF06BEF4AF071EF4AF047C051
:1094D80033F048C034F0DEEF4BF02D0E471848103B
:1094E800D8B479EF4AF07BEF4AF085EF4AF02B0EBB
:1094F80047184810D8A483EF4AF085EF4AF09EEF4A
:109508004AF046BE90EF4AF0465008E14504D8A01C
:1095180090EF4AF092EF4AF048EF4BF047C00BF05B
:1095280048C00CF033C00DF034C00EF0E3EC60F02E
:1095380070EF4BF0300E47184810D8A4A6EF4AF049
:10954800A8EF4AF0FBEF4AF09F0E4524D96E010EB2
:109558004620DA6E60001FF1DFFF454A462A010106
:10956800714B722B33C00DF034C00EF080EC5BF001
:109578000DC047F00EC048F0580E47184810D8B430
:10958800C8EF4AF0CAEF4AF0D4EF4AF0780E47180D
:109598004810D8A4D2EF4AF0D4EF4AF0E5EF4AF0E9
:1095A80043504410D8B4DBEF4AF0DDEF4AF0DFEF68
:1095B8004AF092EF4AF045C043F046C044F048EF05
:1095C8004BF0472808E14828D8B4EDEF4AF0EFEF10
:1095D8004AF056EF4BF047C00BF048C00CF033C0D0
:1095E8000DF034C00EF0E3EC60F056EF4BF047C0DE
:1095F80011F048C012F0D5EC66F011501210D8A442
:1096080008EF4BF00AEF4BF048EF4BF0472808E122
:109618004828D8B412EF4BF014EF4BF01EEF4BF084
:1096280047C00BF048C00CF033C00DF034C00EF04A
:10963800E3EC60F043504410D8B425EF4BF027EF2B
:109648004BF070EF4BF0FF0E376EFF0E386E45C0D3
:1096580039F046C03AF03750392638503A2243504C
:10966800391807E144503A18D8A43DEF4BF03FEFC2
:109678004BF070EF4BF04506D8A046060101710784
:10968800D8A0720770EF4BF09F0E4524D96E010EDB
:109698004620DA6E60001FF1DFFF454A462A0101C5
:1096A800714B722B3F50455C4650800A376E4050D4
:1096B800800A3758D8B063EF4BF065EF4BF070EF86
:1096C8004BF0465009E11F0E455CD8A06EEF4BF0F9
:1096D80070EF4BF044EF4AF09F0E4524D96E010E0F
:1096E8004620DA6E000EDF6E9F0E00017E6F010EBF
:1096F8007F6F410E806F000E816F000E836F100E1A
:10970800826FCBEC6BF07EC037F07FC038F080C042
:1097180039F081C03AF082C03BF083C03CF084C08D
:109728003DF085C03EF06000D7F0D9FF6000DBF067
:10973800DAFF6000DFF0DEFF6000E3F0DEFF6000CC
:10974800E7F0DEFF6000EBF0DEFF6000EFF0DEFF29
:109758006000F3F0DEFF6000F7F0DEFF6000FBF072
:10976800DEFF0001F251F311D8A4BDEF4BF0BFEFBB
:109778004BF0DAEF4BF045504610D8B4C6EF4BF03B
:10978800C8EF4BF0DAEF4BF09F0E411809E1010EDC
:109798004218D8B4D2EF4BF0D4EF4BF0DAEF4BF0DD
:1097A800000E346E010E336EDEEF4BF0FF0E346E9A
:1097B800FE0E336E1200010100A1E5EF4BF0E7EF5A
:1097C8004BF0EAEF4BF0BD86EBEF4BF0BD9600A3F4
:1097D800F0EF4BF0F2EF4BF0F5EF4BF0BC88F6EF03
:1097E8004BF0BC9800A5FBEF4BF0FDEF4BF000EF02
:1097F8004CF0BC8A01EF4CF0BC9A00A706EF4CF085
:1098080008EF4CF00BEF4CF0BC8C0CEF4CF0BC9C10
:1098180000A911EF4CF013EF4CF016EF4CF0BC8E92
:1098280017EF4CF0BC9E00AB1CEF4CF01EEF4CF059
:1098380021EF4CF0BD8822EF4CF0BD9800AD27EF2A
:109848004CF029EF4CF02CEF4CF0BD8A2DEF4CF08A
:10985800BD9A00AF32EF4CF034EF4CF037EF4CF0DC
:10986800BD8C38EF4CF0BD9C000E126ECFA43FEFBC
:109878004CF042EF4CF0010E43EF4CF0000E010BA0
:109888001212CFA24AEF4CF04EEF4CF00F6A0F2A9B
:109898004FEF4CF00F6A010E0F16D8900F341212CA
:1098A800CFA059EF4CF05DEF4CF00F6A0F2A5EEF36
:1098B8004CF00F6A010E0F16D8900F36D8900F345F
:1098C8001212CCA26AEF4CF06EEF4CF00F6A0F2A1E
:1098D8006FEF4CF00F6A010E0F16D8900F36D89024
:1098E8000F36D8900F341212CEA47DEF4CF081EFD2
:1098F8004CF00F6A0F2A82EF4CF00F6A010E0F1618
:109908000F38F00B1212CEA28CEF4CF090EF4CF007
:109918000F6A0F2A91EF4CF00F6A010E0F16050E11
:10992800106ED8900F36102E95EF4CF00F50121283
:10993800CEA0A1EF4CF0A5EF4CF00F6A0F2AA6EFCE
:109948004CF00F6A010E0F16060E106ED8900F36E7
:10995800102EAAEF4CF00F501212CAAAB6EF4CF014
:10996800BAEF4CF00F6A0F2ABBEF4CF00F6A010EEA
:109978000F16000E0FB0800E0F6E0F50121212C08D
:1099880001F1000E146E000E136E13C00FF001C12A
:1099980010F00F2AD2EF4CF0D89010320F2ED0EFE3
:1099A8004CF01050010B116E230E1324D96E010ECA
:1099B8001420DA6EDF50D8A4E4EF4CF0E6EF4CF058
:1099C80029EF4DF01104D8A4ECEF4CF0EEEF4CF079
:1099D80029EF4DF0230E1324D96E010E1420DA6EF0
:1099E800010EDF6E78EC6EF0000E0F6E010E106E39
:1099F800030E0F26000E1022D8901334D96E14349B
:109A0800DA6ED890D936DA360F50D9261050DA22C5
:109A180060002FF0DEFF600033F0DEFF600037F0FB
:109A2800DEFF60003BF0DEFF13C00FF0010E106E8A
:109A38000F2A21EF4DF0D89010360F2E1FEF4DF062
:109A480010500101021369EF4DF0230E1324D96E53
:109A5800010E1420DA6EDE04D8A435EF4DF037EF8E
:109A68004DF069EF4DF01150D8A43DEF4DF03FEFA8
:109A78004DF069EF4DF0230E1324D96E010E14201A
:109A8800DA6E000EDF6E78EC6EF0000E0F6E010ECF
:109A9800106E030E0F26000E1022D8901334D96EC4
:109AA8001434DA6ED890D936DA360F50D9261050D9
:109AB800DA2260002FF0DEFF600033F0DEFF600086
:109AC80037F0DEFF60003BF0DEFF134A142A14BEB5
:109AD80077EF4DF0145009E1080E135CD8A077EF2A
:109AE8004DF079EF4DF0C9EF4CF012002AC042F06A
:109AF8002BC043F02CC044F02DC045F02EC046F0DA
:109B08002FC047F030C048F031C049F049BE8FEF50
:109B18004DF092EF4DF0010E93EF4DF0000E406EB8
:109B2800416A40504110D8B49CEF4DF09EEF4DF083
:109B3800AEEF4DF0491E481E471E461E451E441EE8
:109B4800431E426C000E43224422452246224722ED
:109B5800482249224DBEB3EF4DF0B5EF4DF0B6EFB8
:109B68004DF04E924DBEC3EF4DF04D5006E14C0402
:109B7800D8B0C1EF4DF0C3EF4DF0C9EF4DF0000E76
:109B88003D6E010E3C6ECDEF4DF04CC03CF04DC02B
:109B98003DF0F4C03EF0F5C03FF040504110D8A46D
:109BA800D8EF4DF0DAEF4DF0E1EF4DF04EA4DFEFD6
:109BB8004DF0E1EF4DF0E4EF4DF03E06D8A03F0642
:109BC800000E4B6E1F0E4A6E000E0101DE6F69EF2C
:109BD8004EF04A06D8A04B06BF0E4A24D96E010E95
:109BE8004B20DA6E42C00BF043C00CF044C00DF0BD
:109BF80045C00EF046C00FF047C010F048C011F045
:109C080049C012F00A0E136E000E146E000E156E87
:109C1800000E166E000E176E000E186E000E196EEE
:109C2800000E1A6E80EC59F00BC032F00CC033F005
:109C38000DC034F00EC035F00FC036F010C037F04C
:109C480011C038F012C039F032C01DF034C01EF017
:109C5800ECEC6BF01D50300FDF6E3C06D8A03D06D3
:109C68003E06D8A03F0642C00BF043C00CF044C0EB
:109C78000DF045C00EF046C00FF047C010F048C0C8
:109C880011F049C012F00A0E136E000E146E000E89
:109C9800156E000E166E000E176E000E186E000E72
:109CA800196E000E1A6EBCEC58F00BC042F00CC0D6
:109CB80043F00DC044F00EC045F00FC046F010C090
:109CC80047F011C048F012C049F04BBE74EF4EF097
:109CD8004B5008E14A04D8A074EF4EF076EF4EF0EE
:109CE800A6EF4EF04250431044104510461047105E
:109CF80048104910D8A483EF4EF085EF4EF0EDEFF1
:109D08004DF03DBE92EF4EF03D5006E13C04D8B018
:109D180090EF4EF092EF4EF0EDEF4DF03FBE9DEF1D
:109D28004EF03F5008E13E04D8A09DEF4EF09FEF63
:109D38004EF0A6EF4EF04EB2A4EF4EF0A6EF4EF066
:109D4800EDEF4DF040504110D8A4ADEF4EF0AFEF1D
:109D58004EF0B6EF4EF04EA4B4EF4EF0B6EF4EF024
:109D6800D5EF4EF04A06D8A04B0640504110D8A473
:109D7800C0EF4EF0C2EF4EF0C8EF4EF0000E3B6E53
:109D88002B0E3A6ECCEF4EF0000E3B6E2D0E3A6E57
:109D9800BF0E4A24D96E010E4B20DA6E6000EBF03C
:109DA800DFFF28C01DF029C01EF0BF0E4A241F6E19
:109DB800010E4B20206E3EC021F03FC022F0A7ECE0
:109DC80061F01DC028F01EC029F01200000E00012D
:109DD800AA6F000EA96F400EA925896F020EAA214D
:109DE8008A6F1E0E8B6F620E8C6F7F0E8D6F010E49
:109DF8008E6FEBEC6EF00001A46FA4518F6F906B27
:109E0800EEEC6EF00001A56FA551916F926B47ECD7
:109E180068F000018951A9278A51AA23800EE31905
:109E2800E211D8B41AEF4FF01CEF4FF056EF4FF095
:109E3800E2C01DF0E3C01EF0ECEC6BF01DC021F099
:109E48001EC022F0000E246E0A0E236E66EC62F02D
:109E580021C0A7F022C0A8F0400E0001A925896FF3
:109E6800020EAA218A6F7B0E8B6F620E8C6FE2C086
:109E780025F0E3C026F0000E286E0A0E276E45EC8A
:109E880061F025C08DF026C08EF0A7C08FF0A8C065
:109E980090F047EC68F000018951A9278A51AA235C
:109EA80067EF4FF0400EA925896F020EAA218A6F2D
:109EB800BC0E8B6F620E8C6F47EC68F00001895105
:109EC800A9278A51AA23800EE519E411D8B46FEFA7
:109ED8004FF071EF4FF0ABEF4FF0E4C01DF0E5C06D
:109EE8001EF0ECEC6BF01DC021F01EC022F0000E3D
:109EF800246E0A0E236E66EC62F021C0A7F022C021
:109F0800A8F0400E0001A925896F020EAA218A6FC8
:109F1800850E8B6F620E8C6FE4C025F0E5C026F0CD
:109F2800000E286E0A0E276E45EC61F025C08DF0F4
:109F380026C08EF0A7C08FF0A8C090F047EC68F05C
:109F480000018951A9278A51AA23BCEF4FF0400E7E
:109F5800A925896F020EAA218A6FC40E8B6F620E23
:109F68008C6F47EC68F000018951A9278A51AA2310
:109F7800400EA925896F020EAA218A6FEC0E8B6FFD
:109F8800610E8C6FDEC00BF0DFC00CF0030E0E6E9E
:109F9800E80E0D6EB9EC65F00BC08DF00CC08EF0BC
:109FA800000E0E6E0A0E0D6EDEC00BF0DFC00CF058
:109FB800B9EC65F00BC012F00CC013F0000E156E72
:109FC800640E146EE4EC67F012C08FF013C090F0CA
:109FD800E0C00BF0E1C00CF0030E0E6EE80E0D6E43
:109FE800B9EC65F00BC091F00CC092F0000E0E6E4B
:109FF8000A0E0D6EE0C00BF0E1C00CF0B9EC65F094
:10A008000BC012F00CC013F0000E156E640E146E27
:10A01800E4EC67F012C093F013C094F047EC68F0DA
:10A0280000018951A9278A51AA23400E0B6E020EFE
:10A038000C6EA9C00DF0AAC00EF0000EC8EC64F0BA
:10A048000001A66F400EA925896F020EAA218A6F0A
:10A05800420E8B6F620E8C6FA6C08DF08E6B47EC34
:10A0680068F000018951A9278A51AA23F60E896F41
:10A07800620E8A6F400E8B6F020E8C6F85EC6DF04E
:10A08800DAEC6EF012004DBE4CEF50F04EEF50F08F
:10A098004FEF50F04E924DBE5CEF50F04D5006E140
:10A0A8004C04D8B05AEF50F05CEF50F062EF50F02B
:10A0B800000E3C6E010E3B6E66EF50F04CC03BF05C
:10A0C8004DC03CF0F4C03DF0F5C03EF04EA86FEF37
:10A0D80050F071EF50F075EF50F0FE0E3D26FF0E78
:10A0E8003E222AC03FF02BC040F02CC041F02DC0CA
:10A0F80042F02EC043F02FC044F030C045F031C0CC
:10A1080046F0000E486E1F0E476E000E0101DE6F0E
:10A1180028EF51F04706D8A048060F0E3F14496EA5
:10A128004A6A4ABEA1EF50F04A5009E10A0E495C5A
:10A13800D8A0A1EF50F0A3EF50F0ABEF50F0570EBE
:10A148004924496E000E4A204A6EB1EF50F0300E95
:10A158004924496E000E4A204A6EBF0E336EFF0E28
:10A16800346E3250356E366A3350352634503622C6
:10A17800365007E11A0E355CD8B0C5EF50F0C7EF7E
:10A1880050F0EAEF50F09F0E336EFF0E346E200E43
:10A198004910356E000E4A10366E3350352634504D
:10A1A8003622365007E11A0E355CD8B0DEEF50F093
:10A1B800E0EF50F0EAEF50F049C011F04AC012F059
:10A1C80044EC6BF011C049F012C04AF0BF0E4724AE
:10A1D800D96E010E4820DA6E600027F1DFFF3B06DA
:10A1E800D8A03C063D06D8A03E063FC033F040C08C
:10A1F80034F041C035F042C036F043C037F044C0B7
:10A2080038F045C039F046C03AF0050E15EF51F068
:10A21800D8903A32393238323732363235323432EF
:10A228003332E82E0CEF51F033C03FF034C040F029
:10A2380035C041F036C042F037C043F038C044F072
:10A2480039C045F03AC046F048BE34EF51F04850A6
:10A2580009E1020E475CD8A034EF51F036EF51F017
:10A2680066EF51F03F504010411042104310441027
:10A2780045104610D8A443EF51F045EF51F08EEF4A
:10A2880050F03CBE52EF51F03C5006E13B04D8B0D0
:10A2980050EF51F052EF51F08EEF50F03EBE5DEFAF
:10A2A80051F03E5008E13D04D8A05DEF51F05FEF5A
:10A2B80051F066EF51F04EB264EF51F066EF51F095
:10A2C8008EEF50F04EA86BEF51F06DEF51F084EF28
:10A2D80051F04706D8A04806BF0E4724D96E010E94
:10A2E8004820DA6E6000CBF0DFFF4706D8A04806AA
:10A2F800BF0E4724D96E010E4820DA6E300EDF6E8D
:10A3080028C01DF029C01EF0BF0E47241F6E010E85
:10A318004820206E3DC021F03EC022F0A7EC61F03D
:10A328001DC028F01EC029F0120099EF52F050C04D
:10A3380025F051C026F0E2EC5EF050C028F051C084
:10A3480029F0CC0E2A6EAAEC6BF050C028F051C050
:10A3580029F0440E2A6EAAEC6BF078EC6EF00BC074
:10A3680059F10CC05AF10DC05BF10EC05CF1010E41
:10A378000001FC6FB3EF52F078EC6EF00101595117
:10A388000B5C2E6E5A510C582F6E5B510D58306E67
:10A398005C510E58316E315030102F1009E10B0E00
:10A3A8002E5CD8A0DAEF51F0DCEF51F0B3EF52F0A9
:10A3B800020E0001FC6FB3EF52F050C025F051C0FF
:10A3C80026F0E2EC5EF050C028F051C029F0CC0E27
:10A3D8002A6EAAEC6BF050C028F051C029F0BE0ECE
:10A3E8002A6EAAEC6BF0000E366E000E356E50C069
:10A3F80028F051C029F004EC69F02E6EDF0E3524E8
:10A40800D96E010E3620DA6E6000BBF0DFFF354AE8
:10A41800362A36BE19EF52F0365009E1090E355C7E
:10A42800D8A019EF52F01BEF52F0FBEF51F0DF0EFE
:10A438000B6E010E0C6E080E0D6E65EC66F0326E3A
:10A4480032500101E719D8A42CEF52F02EEF52F048
:10A4580062EF52F0E0C133F0346A3350346E336A3D
:10A46800DF51331250C01FF051C020F0000E226E91
:10A478000B0E216E70EC6DF0340E1F24D96E010E98
:10A488002020DA6E33C01FF034C020F0000E226E98
:10A498000A0E216E70EC6DF01FC025F020C026F06A
:10A4A800000E286E100E276E45EC61F0600097F0E4
:10A4B800DEFF60009BF0DDFF76EF52F050C01FF02A
:10A4C80051C020F0000E226E0B0E216E70EC6DF064
:10A4D800340E1F24D96E010E2020DA6E000EDE6EB7
:10A4E800800EDD6E504A512A51BE84EF52F0515011
:10A4F80009E1020E505CD8A084EF52F086EF52F0CA
:10A508008AEF52F0000E516E000E506E78EC6EF02D
:10A518000BC059F10CC05AF10DC05BF10EC05CF1D3
:10A52800000E0001FC6FB3EF52F00001FC512E6EDB
:10A538002F6A2F50000AD8B4A4EF52F0B3EF52F0AC
:10A548002E50000AD8B49BEF51F0010AD8B4C0EFDE
:10A5580051F0030AD8B4E1EF51F0B3EF52F0120012
:10A568003901D851F80B0509D86FD88D800E0B6EBC
:10A57800030E0C6E840E0D6E030E0E6E1DEC6AF04B
:10A58800F80E3901D817D89DDFEC5AF03901D851A7
:10A59800F80B0509D86FD88D78EC6EF00101495198
:10A5A8000B5CF66F4A510C58F76F4B510D58F86F0A
:10A5B8004C510E58F96FF951F811F71109E10A0ECB
:10A5C800F65DD8A0EAEF52F0ECEF52F004EF53F04A
:10A5D80078EC6EF00BC049F10CC04AF10DC04BF19C
:10A5E8000EC04CF1F80E3901D817D89DDFEC4BF0AE
:10A5F80099EC51F03901D851F80B0509D86FD88D6D
:10A6080078EC6EF001014D510B5CF66F4E510C5811
:10A61800F76F4F510D58F86F50510E58F96FF951A7
:10A62800F8110BE1E80EF65D030EF759D8A01FEFFD
:10A6380053F021EF53F087EF53F078EC6EF00BC036
:10A648004DF10CC04EF10DC04FF10EC050F1F80E97
:10A658003901D817D89D180E05EC65F017C01FF002
:10A6680018C020F0000E226E0B0E216E70EC6DF0FB
:10A678001FC0DAF020C0DBF0190E05EC65F017C03A
:10A688001FF018C020F0000E226E0B0E216E70EC29
:10A698006DF01FC0DCF020C0DDF0030E05EC65F0A6
:10A6A80017C01FF018C020F0000E226E0B0E216E8E
:10A6B80070EC6DF01FC0DEF020C0DFF0020E05EC7C
:10A6C80065F017C01FF018C020F0000E226E0B0EA8
:10A6D800216E70EC6DF01FC0E0F020C0E1F0000EBC
:10A6E8002BEC6CF00BC0E2F00CC0E3F0010E2BEC8D
:10A6F8006CF00BC0E4F00CC0E5F03901D851F80B50
:10A708000509D86FD88D78EC6EF0010151510B5CBA
:10A71800F66F52510C58F76F53510D58F86F54514A
:10A728000E58F96FF951F811F71109E1C80EF65DE5
:10A73800D8A0A1EF53F0A3EF53F0AEEF53F078ECAD
:10A748006EF00BC051F10CC052F10DC053F10EC0A8
:10A7580054F104001200000E2E6E000E2D6E000E35
:10A768002C6E000E2B6EBBEF53F0254A262A600094
:10A7780097F0F6FF60009BF0F7FF000EF86E1F0ED3
:10A78800F76403D00800F55007D06F00DBFFE9FF3E
:10A798006F00DFFFEAFFEF50200AD8B4D6EF53F07E
:10A7A800D8EF53F0B9EF53F0F70E276EFF0E286E6F
:10A7B800600097F0F6FF60009BF0F7FF000EF86E60
:10A7C8001F0EF76403D00800F55007D06F00DBFFB9
:10A7D800E9FF6F00DFFFEAFFEF50296E2A6A275072
:10A7E800292628502A222A5009E1050E295CD8A0DA
:10A7F80000EF54F002EF54F0B9EF53F00CEF54F0BF
:10A80800000E2C6E010E2B6E254A262A61EF54F09D
:10A81800600097F0F6FF60009BF0F7FF000EF86EFF
:10A828001F0EF76403D00800F55007D06F00DBFF58
:10A83800E9FF6F00DFFFEAFFEF50276E286A285014
:10A84800000AD8B42AEF54F061EF54F027502B0ACD
:10A85800D8B408EF54F0060AD8B404EF54F061EF06
:10A8680054F02DC01FF02EC020F0000E226E0A0EEC
:10A87800216E70EC6DF0600097F0F6FF60009BF0C1
:10A88800F7FF000EF86E1F0EF76403D00800F550AE
:10A8980007D06F00DBFFE9FF6F00DFFFEAFFEF5033
:10A8A800276E27501F5E000E205A300E1F242D6E73
:10A8B800000E20202E6E08EF54F0D00E276EFF0EEB
:10A8C800286E600097F0F6FF60009BF0F7FF000E1F
:10A8D800F86E1F0EF76403D00800F55007D06F001C
:10A8E800DBFFE9FF6F00DFFFEAFFEF50296E2A6AFE
:10A8F8002750292628502A222A5009E10A0E295CC5
:10A90800D8A089EF54F08BEF54F035EF54F02B506A
:10A918002C10D8A492EF54F094EF54F0A2EF54F016
:10A928002DC027F02EC028F0271E281E274A282AC7
:10A9380027C025F028C026F0A6EF54F02DC025F03A
:10A948002EC026F01200136E1350D8B4AEEF54F098
:10A95800B0EF54F0D2EF54F00EBEB7EF54F0B5EFAD
:10A9680054F0D2EF54F00BC00FF00CC010F00DC033
:10A9780011F00EC012F00F1E101E111E121E0F2A0B
:10A98800000E1022112212220FC015F010C016F06E
:10A9980011C017F012C018F0DAEF54F00BC015F020
:10A9A8000CC016F00DC017F00EC018F00B500C10AC
:10A9B8000D100E10D8A4E3EF54F0E5EF54F0EFEFCC
:10A9C80054F0000E0B6E000E0C6E000E0D6E000E95
:10A9D8000E6E80EF55F0960E146EF9EF54F0142AAF
:10A9E800D8901832173216321532000E15140F6E21
:10A9F800000E1614106E000E1714116EFE0E1814A9
:10AA0800126E0F50101011101210D8A40EEF55F03E
:10AA180010EF55F0F3EF54F01EEF55F0142A010E25
:10AA28001526000E162217221822D890183217322F
:10AA380016321532000E15140F6E000E1614106E15
:10AA4800000E1714116EFF0E1814126E0F5010100E
:10AA580011101210D8A433EF55F035EF55F012EF5E
:10AA680055F03DEF55F01406D890153616361736C2
:10AA7800183617BE42EF55F044EF55F04CEF55F03D
:10AA8800020E14604AEF55F04CEF55F037EF55F0D1
:10AA980014B051EF55F053EF55F054EF55F0179EA1
:10AAA800D890143214C00FF0106A116A126A0FC0DD
:10AAB80012F0116A106A0F6A0F5015121050161210
:10AAC80011501712125018121350D8B46EEF55F0D7
:10AAD80070EF55F078EF55F00EBE77EF55F075EF43
:10AAE80055F078EF55F0188E15C00BF016C00CF025
:10AAF80017C00DF018C00EF01200000E2F6E000ED9
:10AB0800306E3F0E316E000E326E000E346E000E47
:10AB1800336ED89033341B6E34341C6E1D6A1CBEE1
:10AB28001D061D501E6E2F501B240F6E30501C200A
:10AB3800106E31501D20116E32501E20126E0CEC1A
:10AB48006CF0D8903334D96E3434DA6E230ED926AB
:10AB5800000EDA2260003FF0DEFF600043F0DDFF08
:10AB6800334A342A34BEC2EF55F0345009E1060E98
:10AB7800335CD8A0C2EF55F0C4EF55F08DEF55F017
:10AB880025501B6E26501C6E1D6A1E6A1CC01EF0C6
:10AB98001BC01DF01C6A1B6A1BC045F11CC046F196
:10ABA8001DC047F11EC048F123C01BF024C01CF093
:10ABB800000E1CBEFF0E1D6E1E6E45C11FF046C165
:10ABC80020F047C121F048C122F020C022F01FC068
:10ABD80021F0206A1F6A1B501F100101456F1C508D
:10ABE8002010466F1D502110476F1E502210486FCD
:10ABF80029501B6E2A501C6E1D6A1E6A1CC01EF04E
:10AC08001BC01DF01C6A1B6A1BC041F11CC042F12D
:10AC18001DC043F11EC044F127C01BF028C01CF022
:10AC2800000E1CBEFF0E1D6E1E6E41C11FF042C1FC
:10AC380020F043C121F044C122F020C022F01FC0FF
:10AC480021F0206A1F6A1B501F10416F1C502010F2
:10AC5800426F1D502110436F1E502210446F78EC34
:10AC680068F0640E01017B197C117D117E11D8B446
:10AC780040EF56F042EF56F056EF56F0640E7B6FF9
:10AC8800000E7C6F000E7D6F000E7E6F740E7F6F5E
:10AC9800650E806F730E816F740E826F000E836F66
:10ACA800D9EC6AF0120020EEEBF110EE1BF0060E64
:10ACB8006F006FFFE3FFE806FBE218C026F019C03B
:10ACC80027F026502710D8A46CEF56F06EEF56F0F8
:10ACD80072EF56F01B0E266E000E276E26C00BF084
:10ACE80027C00CF0D8EC68F00BC02AF00CC02BF091
:10ACF8004CC028F04DC029F029BE85EF56F087EFEB
:10AD080056F09CEF56F02A50285C2950800A1A6E9B
:10AD18002B50800A1A58D8A094EF56F096EF56F0A8
:10AD280098EF56F09CEF56F028C02AF029C02BF077
:10AD38002AC028F02BC029F0F4C024F0F5C025F073
:10AD48004EB0A9EF56F0ABEF56F0C8EF56F0B9EF9A
:10AD580056F0000E0E6E200E0D6E16C00FF017C0C6
:10AD680010F076EC5EF02A4A2B2A24502A5C2B50ED
:10AD7800800A1A6E2550800A1A58D8A0C6EF56F0D5
:10AD8800C8EF56F0ADEF56F0000E236E000E226E9F
:10AD9800F1EF56F060009BF0F6FF60009FF0F7FFC0
:10ADA800000EF86E1F0EF76403D00800F55007D0A8
:10ADB8006F00DBFFE9FF6F00DFFFEAFFEF501A6E5D
:10ADC8001A500D6E0E6A16C00FF017C010F076EC10
:10ADD8005EF0264A272A224A232A2850225C23503A
:10ADE800800A1A6E2950800A1A58D8A0FEEF56F029
:10ADF80000EF57F0CEEF56F04EA005EF57F007EFF3
:10AE080057F024EF57F015EF57F0000E0E6E200E96
:10AE18000D6E16C00FF017C010F076EC5EF02A4ADF
:10AE28002B2A24502A5C2B50800A1A6E2550800A3F
:10AE38001A58D8A022EF57F024EF57F009EF57F02F
:10AE48002AC016F02BC017F012000FC017F010C060
:10AE580018F011C019F012C01AF01306D8A0140681
:10AE6800132806E11428D8A43CEF57F03EEF57F01A
:10AE78004BEF57F0000E106E000E0F6EF3EF57F009
:10AE8800174A182A194A1A2A1306D8A01406600065
:10AE98005FF0F6FF600063F0F7FF000EF86E1F0E1C
:10AEA800F76403D00800F55007D06F00DBFFE9FF17
:10AEB8006F00DFFFEAFFEF500009D8B466EF57F0E4
:10AEC80068EF57F0C1EF57F0600067F0F6FF6000D9
:10AED8006BF0F7FF000EF86E1F0EF76403D0080042
:10AEE800F55007D06F00DBFFE9FF6F00DFFFEAFFD7
:10AEF800EF500009D8B483EF57F085EF57F0C1EF52
:10AF080057F013501410D8B48CEF57F08EEF57F059
:10AF1800C1EF57F0600067F0F6FF60006BF0F7FFD5
:10AF2800000EF86E1F0EF76403D00800F55007D026
:10AF38006F00DBFFE9FF6F00DFFFEAFFEF50156EE0
:10AF480060005FF0F6FF600063F0F7FF000EF86E38
:10AF58001F0EF76403D00800F55007D06F00DBFF21
:10AF6800E9FF6F00DFFFEAFFEF501518D8B4BFEF15
:10AF780057F0C1EF57F044EF57F060005FF0F6FF6D
:10AF8800600063F0F7FF000EF86E1F0EF76403D041
:10AF98000800F55007D06F00DBFFE9FF6F00DFFF07
:10AFA800EAFFEF50156E600067F0F6FF60006BF087
:10AFB800F7FF000EF86E1F0EF76403D00800F55077
:10AFC80007D06F00DBFFE9FF6F00DFFFEAFFEF50FC
:10AFD800166E1650155C0F6E106AD8A01006120077
:10AFE8000BC015F00CC016F00F501010D8A4FFEFCE
:10AFF80057F001EF58F003EF58F0BBEF58F060003E
:10B0080057F0D9FF60005BF0DAFF600037F0DFFF30
:10B018000F501524116E10501620126EFF0E1124B9
:10B02800D96EFF0E1220DA6E600037F0DFFF105085
:10B0380007E1030E0F5CD8B024EF58F026EF58F064
:10B0480028EF58F0BBEF58F020EE01F01550D92644
:10B058001650DA22600037F0DFFF20EE02F01550BC
:10B06800D9261650DA22600037F0DFFF0F5015247A
:10B07800116E10501620126EFE0E1124D96EFF0E9E
:10B088001220DA6E600037F0DFFF0F501524116EC2
:10B0980010501620126EFD0E1124D96EFF0E1220CC
:10B0A800DA6E600037F0DFFF105007E1070E0F5C23
:10B0B800D8B061EF58F063EF58F065EF58F0BBEF88
:10B0C80058F020EE03F01550D9261650DA22600009
:10B0D80037F0DFFF0F501524116E10501620126E36
:10B0E800FC0E1124D96EFF0E1220DA6E600037F0C4
:10B0F800DFFF105007E1090E0F5CD8B086EF58F05B
:10B1080088EF58F08AEF58F0BBEF58F015C011F0EF
:10B1180016C012F0111E121E114A122A030E111423
:10B12800136E146A135015261450162213500F5E0E
:10B138001450105AFC0E0F16FF0E1016B2EF58F0EE
:10B14800600057F0D9FF60005BF0DAFF600037F06D
:10B15800DFFF0F06D8A01006154A162A0F50101048
:10B16800D8A4B9EF58F0BBEF58F0A4EF58F012008C
:10B17800000E1C6E1ABEC5EF58F0C3EF58F0D7EF9B
:10B1880058F01A1E191E181E171E161E151E141EFC
:10B19800136C000E142215221622172218221922C7
:10B1A8001A22010E1C6E12BEDEEF58F0DCEF58F0CA
:10B1B800F0EF58F0121E111E101E0F1E0E1E0D1E4F
:10B1C8000C1E0B6C000E0C220D220E220F221022D8
:10B1D80011221222010E1C1A20EE1DF0070EDE6A43
:10B1E800E806FDE213501410151016101710181069
:10B1F80019101A10D8B403EF59F005EF59F057EFAA
:10B2080059F0010E1B6E13EF59F0D890133614360F
:10B21800153616361736183619361A361B2A1AAE48
:10B2280018EF59F01AEF59F009EF59F0D8901D3678
:10B238001E361F3620362136223623362436135042
:10B248000B5C14500C5815500D5816500E581750CA
:10B258000F5818501058195011581A501258D8A091
:10B2680038EF59F03AEF59F04BEF59F013500B5EA5
:10B2780014500C5A15500D5A16500E5A17500F5A92
:10B288001850105A1950115A1A50125A1D80D89035
:10B298001A32193218321732163215321432133262
:10B2A8001B2E1AEF59F01C50D8B45DEF59F05FEF20
:10B2B80059F06FEF59F0241E231E221E211E201E56
:10B2C8001F1E1E1E1D6C000E1E221F222022212260
:10B2D8002222232224221DC00BF01EC00CF01FC006
:10B2E8000DF020C00EF021C00FF022C010F023C0D6
:10B2F80011F024C012F01200000E1C6E12BE89EF6D
:10B3080059F087EF59F09BEF59F0121E111E101ECD
:10B318000F1E0E1E0D1E0C1E0B6C000E0C220D2295
:10B328000E220F22102211221222010E1C6E1ABEAA
:10B33800A2EF59F0A0EF59F0B2EF59F01A1E191EFA
:10B34800181E171E161E151E141E136C000E14222E
:10B35800152216221722182219221A221350141005
:10B36800151016101710181019101A10D8B4BFEFAE
:10B3780059F0C1EF59F009EF5AF0010E1B6ECFEFEB
:10B3880059F0D8901336143615361636173618363F
:10B3980019361A361B2A1AAED4EF59F0D6EF59F0DF
:10B3A800C5EF59F013500B5C14500C5815500D583C
:10B3B80016500E5817500F58185010581950115849
:10B3C8001A501258D8A0EBEF59F0EDEF59F0FDEFF5
:10B3D80059F013500B5E14500C5A15500D5A165054
:10B3E8000E5A17500F5A1850105A1950115A1A500D
:10B3F800125AD8901A3219321832173216321532B8
:10B40800143213321B2ED6EF59F01C50D8B40FEF5C
:10B418005AF011EF5AF021EF5AF0121E111E101EA9
:10B428000F1E0E1E0D1E0C1E0B6C000E0C220D2284
:10B438000E220F221022112212220BC00BF00CC078
:10B448000CF00DC00DF00EC00EF00FC00FF010C0C4
:10B4580010F011C011F012C012F01200000E00011D
:10B46800A66F000EA56F400E896F020E8A6FB30E8D
:10B478008B6F610E8C6F7F0E8D6F010E8E6FDA0EE3
:10B488008F6F620E906F090E916F630E926F4E0E62
:10B49800936F620E946F47EC68F000018951A527FD
:10B4A8008A51A623400EA525896F020EA6218A6F10
:10B4B800D00E8B6F610E8C6FDAC00BF0DBC00CF016
:10B4C800030E0E6EE80E0D6EB9EC65F00BC08DF034
:10B4D8000CC08EF0000E0E6E0A0E0D6EDAC00BF068
:10B4E800DBC00CF0B9EC65F00BC012F00CC013F027
:10B4F800000E156E640E146EE4EC67F012C08FF047
:10B5080013C090F0DCC00BF0DDC00CF0030E0E6E23
:10B51800E80E0D6EB9EC65F00BC091F00CC092F01E
:10B52800000E0E6E0A0E0D6EDCC00BF0DDC00CF0C6
:10B53800B9EC65F00BC012F00CC013F0000E156EDC
:10B54800640E146EE4EC67F012C093F013C094F02C
:10B5580047EC68F000018951A5278A51A623400EBF
:10B568000B6E020E0C6EA5C00DF0A6C00EF0000EFC
:10B57800C8EC64F00001A46F400EA525896F020E87
:10B58800A6218A6F420E8B6F620E8C6FA4C08DF05D
:10B598008E6B47EC68F000018951A5278A51A623D4
:10B5A800F60E896F620E8A6F400E8B6F020E8C6FDB
:10B5B80085EC6DF01200000E0001D96F4EEF5BF0C4
:10B5C800BBBAE9EF5AF0ECEF5AF0010EEDEF5AF082
:10B5D800000EFF0AD86FD83BD847BB50D819DF0BED
:10B5E800D819BB6EA9EC68F00001D86F000EF625DB
:10B5F800D96E040EF721DA6E600063F3DFFFF64BB5
:10B60800F72BF75109E1020EF65DD8A00EEF5BF0BB
:10B6180010EF5BF032EF5BF0FF0EF625D96E030EEC
:10B62800F721DA6E0A0EDE18D8A41DEF5BF01FEFC3
:10B638005BF032EF5BF0FE0EF625D96E030EF721B4
:10B64800DA6E0D0EDE18D8A42CEF5BF02EEF5BF04F
:10B6580032EF5BF0010ED96F61EF5BF0F705D8A010
:10B6680038EF5BF03AEF5BF04EEF5BF0000EF76FF0
:10B67800000EF66F000E0B6E040E0C6E000E0E6EB2
:10B68800000E0D6E010E106E000E0F6EF4EC57F0EA
:10B6980061EF5BF040EC6EF00009D8B456EF5BF058
:10B6A80058EF5BF061EF5BF00001F705D8A05FEFA2
:10B6B8005BF061EF5BF0E4EF5AF00001D951D8B4C8
:10B6C80068EF5BF06AEF5BF07FEF5BF00FEC3AF04E
:10B6D800000E0001F76F000EF66F000E0B6E040EE1
:10B6E8000C6E000E0E6E000E0D6E010E106E000E2A
:10B6F8000F6EF4EC57F012000D500E10D8A487EF1F
:10B708005BF089EF5BF0A8EF5BF00001F851D8B46B
:10B7180090EF5BF092EF5BF0A0EF5BF0F8076F0E35
:10B72800F825D96EDA6A010EDA22DF500F6E0F5053
:10B73800146E156A14EF5CF0E8EC6EF00BC014F0B0
:10B748000CC015F014EF5CF020EE07F00D50D92670
:10B758000E50DA22DE50DE10D8B4B5EF5BF0B7EF4A
:10B768005BF0DBEF5BF020EE07F00D50D9260E50B2
:10B77800DA22DE06000EDD5A6F0078FF0FF06F0048
:10B7880074FF10F00DC011F00EC012F00F5011260A
:10B7980010501222050E1124D96E000E1220DA6EF6
:10B7A800DF50136E1350146E156A14EF5CF020EE20
:10B7B80003F00D50D9260E50DA226F0078FF0FF0F3
:10B7C8006F0074FF10F0600037F0D9FF60003BF0A5
:10B7D800DAFF6F0078FF11F06F0074FF12F00F505E
:10B7E8001124D96E10501220DA6EDF50136E1350E8
:10B7F800146E156A14501510D8A405EF5CF007EF05
:10B808005CF00BEF5CF01468156814EF5CF020EE48
:10B8180003F00D50D9260E50DA22DE2A000EDD2262
:10B8280014C00DF015C00EF012000001623563352A
:10B83800696F6951D8A423EF5CF025EF5CF02FEF16
:10B848005CF0000E606F000E616F000E626F000EFC
:10B85800636F9CEF5CF060C064F061C065F062C02B
:10B8680066F063C067F0200E3FEF5CF0D890673356
:10B87800663365336433E82E3AEF5CF06451686FE1
:10B88800628FFF0E6017FF0E6117FF0E6217000E22
:10B898006317960E695F69BF56EF5CF054EF5CF072
:10B8A8006CEF5CF06951800A970FD8B05EEF5CF0DE
:10B8B80060EF5CF062EF5CF025EF5CF0D8906333EA
:10B8C800623361336033693F62EF5CF084EF5CF0B0
:10B8D8001F0E696572EF5CF074EF5CF07CEF5CF052
:10B8E80025EF5CF0D89060376137623763376907B6
:10B8F8006951D8A482EF5CF084EF5CF076EF5CF0DD
:10B908006851D8B48AEF5CF08CEF5CF094EF5CF08F
:10B91800631F621F611F606D000E61236223632332
:10B9280060C060F061C061F062C062F063C063F043
:10B938001200000E0B14136E000E0C14146E800E01
:10B948000D14156E7F0E0E14166E1350141015106C
:10B958001610D8A4B2EF5CF0B4EF5CF0BCEF5CF06A
:10B96800000E0B6E000E0C6E000E0D6E000E0E6EAD
:10B97800000E0F14136E000E1014146E800E1114A6
:10B98800156E7F0E1214166E135014101510161023
:10B99800D8A4D1EF5CF0D3EF5CF0DBEF5CF0000EE5
:10B9A8000F6E000E106E000E116E000E126E0EAEAF
:10B9B800E0EF5CF0E2EF5CF0EBEF5CF00B6C0C1E80
:10B9C800D8B00C2A0D1ED8B00D2A800E0E5612AE15
:10B9D800F0EF5CF0F2EF5CF0FBEF5CF00F6C101E28
:10B9E800D8B0102A111ED8B0112A800E1256000E97
:10B9F8000B1A000E0C1A000E0D1A800E0E1A000EED
:10BA08000F1A000E101A000E111A800E121A0F507B
:10BA18000B5C10500C5811500D5812500E58D8B0DD
:10BA280018EF5DF01AEF5DF01DEF5DF0D8901EEF96
:10BA38005DF0D880120016501710D8A426EF5DF0DC
:10BA480028EF5DF03BEF5DF0ECC016F0EDC017F0AD
:10BA580016501710D8A433EF5DF035EF5DF03BEFCB
:10BA68005DF0000E166E000E176E95EF5DF016C0B5
:10BA78000FF017C010F018C011F019C012F00DEC3B
:10BA880067F00F5016261050172260005BF0D9FFA0
:10BA980060005FF0DAFFDF50D8A455EF5DF057EF94
:10BAA8005DF062EF5DF0000E0001EC6F000EED6FCF
:10BAB800ECC016F0EDC017F095EF5DF016C00FF072
:10BAC80017C010F018C011F019C012F044EC67F05C
:10BAD8000F5016240001EC6F10501720ED6F600016
