:0460000057EF30F036
:10600800E62EE62EE62EE62EE62EE62EE62EE62EE8
:10601800E62EE62EE62EF72BE62EE62EE62EE62ECA
:10602800E62EE62EE62EE62EE62EE62EE62EE62EC8
:10603800E62EE62EE62E552C422CE62E682CE32B77
:10604800E62EE62EE62EE62E2B18E62EE62EE62E79
:10605800E62EE62EE62EE62EE62EE62EE62EE62E98
:10606800E62EE62EE62EE62EE62EE62EE62EE62E88
:10607800E62EE62E2B18E62EE62EE62E2B182B18EB
:106088002B182B182B182B182B182B18E62EE62E4E
:10609800E62EE62EE62EE62E2B182B182B182B189C
:1060A800E62EE62EFF0099EF4BF000EAD496A812F0
:1060B8002C6E507F41033D87B9FBC5A59BD9E75D91
:1060C80063211F300E4C72C8F6B48A744A08368CA5
:1060D800B2F0CEE1DF9DA31927655B3B054779C385
:1060E800FDBF81AE90D2EC56682A14B38DCFF14B28
:1060F80075370926185A64DEE0A29CFCC280BE04EB
:106108003A78466957152B91AFEDD32D13516FD5BA
:10611800EBA997B886C4FA407E3C02625C1E209ABE
:10612800A4E6D8F7C98BB50F31734D5866241AA069
:106138009EDCE2CDF3B18F350B497717296B55EF0C
:10614800D193AD82BCFEC07A440638C6F8BA843E04
:1061580000427C536D2F11AB95D7E989B7F5CB7108
:106168004F0D331C22605EE4DA98A6013F7D43F9A7
:10617800C785BB94AAE8D66C52102E4E70320CB666
:1061880088CAF4DBE5A799231D5F619FA1E3DD675A
:10619800591B250A347648F2CC8EB0D0EEAC922842
:1061A80016546A457B3907BD83C1FFC2BA007AB568
:1061B8000000B900E89100BEA30094A70080A200E7
:1061C8001CBA0084BB0080BB00D2B60016BB001E00
:1061D800BB000EBA000EBB0000BA0090AB006EA95F
:1061E80000D2B90069643A25732C6F6666736574CA
:1061F8003A25752C7365713A25752C746D696E3A5C
:10620800256C642C746D61783A256C642C69724431
:106218006174613A0069643A25732C747970653A3F
:1062280025732C76657273696F6E3A25732825730A
:1062380029002C69726462673A25752F25752F2508
:106248003032782F25752F25752F25750069643A0A
:1062580025732C6D73673A626164437263002C6323
:1062680072633A253032780D0A004A756C2031374E
:106278002032303236006E65774964353035303A31
:10628800006D73673A636F6E666967006D73673A8E
:1062980073746174757300636D643A7265736574C1
:1062A800006D73673A646174610069643A616C6C8B
:1062B8002C00286E756C6C290069643A25732C00D3
:1062C8006E657749643A00526F6F6D4952002C2011
:1062D8000D0A090069643A257300302E310069649B
:0B62E8003A00646F3A00616C6C00002B
:1062F4000001EE5107E1090EED5DD8B084EF31F0F5
:1063040086EF31F088EF31F058EF34F0C16B000EB6
:10631400116E050E126E000E136E020E146E000E38
:106324000D6E020E0E6E86EC5AF00DC015F00EC006
:1063340016F07CEC45F011501210D8A4A4EF31F003
:10634400A6EF31F0ACEF31F0010E0001C26FBB9A41
:10635400F6EF31F0000E116E050E126EB20E136ED2
:10636400620E146E000E166E070E156E7CEC45F070
:1063740011501210D8A4C1EF31F0C3EF31F058EF2F
:1063840034F0010E0001C26FBB9A24C1B4F0070EB1
:10639400B417E0EC5CF00D50070B0001B425B96FA5
:1063A400000EBD6F000EBC6FE4EF31F0150E00015E
:1063B400B46FC60EE82EFED7B42FFCD70000000140
:1063C400BC4BBD2BB951B46FB56BB451BC5DBD5161
:1063D400800AB66FB551800AB659D8A0F4EF31F0EF
:1063E400F6EF31F0D8EF31F0E0EC5CF00DC053F192
:1063F4000EC054F10FC055F110C056F1000E0D6ED1
:10640400050E0E6EF70E0001ED250F6EFF0EEE2148
:10641400106E000E8DEC53F00001BA6FC06BF70ED6
:10642400ED25A06F040EEE21A16F660EA26F620E21
:10643400A36FC00EA46FA56B60EC59F0A0C0B7F0B9
:10644400A1C0B8F00001B751B811D8B42CEF32F0A4
:106454002EEF32F037EF32F0C051BA19D8B435EF1D
:1064640032F037EF32F03BEF32F0C3EC52F058EF3A
:1064740034F0000E186E050E196ED60E1A6E620EEA
:106484001B6E11EC4CF018C0C3F019C0C4F025EF1A
:1064940034F0E60E116E620E126EC3C013F0C4C067
:1064A40014F0000E166E030E156E7CEC45F01150C0
:1064B4001210D8A460EF32F062EF32F0CBEF32F07A
:1064C400030E0001C3250D6E000EC4210E6E8C0E4A
:1064D4000F6E010E106EECEC4EF00D500E10D8A4A1
:1064E40076EF32F078EF32F080EF32F0010E0001F7
:1064F400C26FBB9A17EF34F017EF34F0030E0001AC
:10650400C3250D6E000EC4210E6EEE0E0F6E620ECC
:10651400106EECEC4EF00D500E10D8A494EF32F047
:1065240096EF32F03DEF34F0010E0001C26F24C14A
:10653400B4F0070EB417E0EC5CF00D50070B00014B
:10654400B425BB6F000EBF6F000EBE6FB6EF32F006
:10655400150E0001B46FC60EE82EFED7B42FFCD77B
:1065640000000001BE4BBF2BBB51B46FB56BB451DF
:10657400BE5DBF51800AB66FB551800AB659D8A026
:10658400C6EF32F0C8EF32F0AAEF32F0BB9A17EF41
:1065940034F00001C251D8B4D2EF32F0D4EF32F06B
:1065A400F0EF32F0A90E116E620E126EC3C013F03A
:1065B400C4C014F0000E166E080E156E7CEC45F087
:1065C40011501210D8A4E9EF32F0EBEF32F0F0EFF3
:1065D40032F0010E0001C16F17EF34F00001C25117
:1065E400D8B4F7EF32F0F9EF32F015EF33F0890E4B
:1065F400116E620E126EC3C013F0C4C014F0000E0C
:10660400166E0A0E156E7CEC45F011501210D8A4CB
:106614000EEF33F010EF33F015EF33F0020E0001FC
:10662400C16F17EF34F00001C251D8B41CEF33F03E
:106634001EEF33F03AEF33F0940E116E620E126EC9
:10664400C3C013F0C4C014F0000E166E0A0E156E0B
:106654007CEC45F011501210D8A433EF33F035EF31
:1066640033F03AEF33F0030E0001C16F17EF34F04B
:106674000001C251D8B441EF33F043EF33F068EF77
:1066840033F0EA0E116E620E126EC3C013F0C4C072
:1066940014F0000E166E030E156E7CEC45F01150CE
:1066A4001210D8A458EF33F05AEF33F068EF33F0F8
:1066B400030E0001C3250D6E000EC4210E6E37ECCF
:1066C40041F00D507FEC5DF017EF34F00001C25142
:1066D400D8B46FEF33F071EF33F094EF33F0020E70
:1066E400C119D8A478EF33F07AEF33F094EF33F094
:1066F4009F0E116E620E126EC3C013F0C4C014F06C
:10670400000E166E090E156E7CEC45F01150121039
:10671400D8A48FEF33F091EF33F094EF33F0FF0010
:1067240017EF34F00001C251D8B49BEF33F09DEF62
:1067340033F0D2EF33F0020EC119D8A4A4EF33F032
:10674400A6EF33F0D2EF33F0C80E116E620E126E64
:10675400C3C013F0C4C014F0000E166E060E156EFE
:106764007CEC45F011501210D8A4BBEF33F0BDEF10
:1067740033F0D2EF33F08C0E0D6E010E0E6E060E5A
:106784000001C3250F6E000EC421106E000E126EA0
:10679400200E116E7BEC52F019EC59F017EF34F027
:1067A4000001C251D8B4D9EF33F0DBEF33F017EF67
:1067B40034F0020EC119D8A4E2EF33F0E4EF33F061
:1067C40017EF34F07E0E116E620E126EC3C013F01A
:1067D400C4C014F0000E166E0A0E156E7CEC45F063
:1067E40011501210D8A4F9EF33F0FBEF33F017EF88
:1067F40034F0E0EC5CF00DA002EF34F004EF34F080
:106804007EEF32F08C0E0D6E010E0E6E0A0E00013C
:10681400C3250F6E000EC421106E000E126E200EE2
:10682400116E7BEC52F0CEEF33F0000E186E000EBA
:10683400196ED60E1A6E620E1B6E11EC4CF018C057
:10684400C3F019C0C4F00001C351C411D8A42DEF82
:1068540034F02FEF34F04BEF32F03DEF34F044ECF2
:1068640054F057EF34F0B8EC47F057EF34F0F5EC50
:106874004FF057EF34F00001C151B46FB56BB5510F
:10688400000AD8B448EF34F057EF34F0B451010A99
:10689400D8B431EF34F0030AD8B439EF34F0010A34
:1068A400D8B435EF34F057EF34F0BB8A120000014E
:1068B400746B20EE75F0070EDE6AE806FDE225C073
:1068C4007DF026C07EF029BE73EF34F0295007E135
:1068D400250E285CD8B071EF34F073EF34F07CEF00
:1068E40034F028042910D8A47AEF34F07CEF34F083
:1068F40082EF34F0000EEA6F160EE96FF1EF36F016
:106904007D517E11D8B489EF34F08BEF34F0F1EF80
:1069140036F06000F7F1D9FF6000FBF1DAFFDF50D9
:10692400D8A497EF34F099EF34F09BEF34F0F1EF03
:1069340036F06000F7F1D9FF6000FBF1DAFFDF50B9
:106944007F6FAFEF34F07D4B7E2B6000F7F1D9FF02
:106954006000FBF1DAFFDF507F6F200E7F19D8B49F
:10696400B6EF34F0B8EF34F0A5EF34F07FC02DF07B
:10697400F70E2D26040E2D64C2EF34F0C4EF34F06C
:10698400A5EF34F02D0E7F19D8A4CBEF34F0CDEF62
:1069940034F0DAEF34F074817D4B7E2B6000F7F134
:1069A400D9FF6000FBF1DAFFDF507F6FE5EF34F0D1
:1069B4002B0E7F19D8A4E1EF34F0E3EF34F0E5EFC8
:1069C40034F0CEEF34F0300E7F19D8A4ECEF34F06D
:1069D400EEEF34F08BEF35F07D4B7E2B6000F7F15A
:1069E400D9FF6000FBF1DAFFDF507F6F28502910D8
:1069F400D8B4FFEF34F001EF35F00BEF35F0100EA3
:106A040028182910D8A409EF35F00BEF35F07DEFE5
:106A140035F0780E7F19D8B412EF35F014EF35F055
:106A24001DEF35F0580E7F19D8A41BEF35F01DEF7C
:106A340035F07DEF35F0000E296E100E286E7D4B7B
:106A44007E2B6000F7F1D9FF6000FBF1DAFFDF5025
:106A54007F6F7FC02DF0200E2D129F0E2D261A0E53
:106A64002D6037EF35F039EF35F05DEF35F07FC04D
:106A74002DF09F0E2D26190E2D6443EF35F045EFB2
:106A840035F04AEF35F07FC068F0696B51EF35F0AF
:106A94007FC02DF05F0E2D162D50686F696B68C096
:106AA4002DF0C90E2D26100E2D605BEF35F05DEF35
:106AB40035F077EF35F07FC02DF0200E2D129F0EAC
:106AC4002D26190E2D6469EF35F06BEF35F08BEF41
:106AD40035F07FC02DF0D00E2D26090E2D6475EFF4
:106AE40035F077EF35F08BEF35F074857D07D8A05E
:106AF4007E07F1EF36F0748528502910D8A485EF6D
:106B040035F087EF35F08BEF35F0000E296E080E67
:106B1400286E28502910D8A492EF35F094EF35F060
:106B240098EF35F0000E296E0A0E286E2A50D8B45C
:106B34009EEF35F0A0EF35F0CBEF35F074B1A5EF53
:106B440035F0A7EF35F0B9EF35F0FF0E6C6FFF0E9F
:106B54006D6FFF0E6E6FFF0E6F6FFF0E706FFF0E87
:106B6400716FFF0E726F7F0E736FD3EF35F0000EEF
:106B74006C6F000E6D6F000E6E6F000E6F6F000E67
:106B8400706F000E716F000E726F800E736FD3EF13
:106B940035F06C696D696E696F69706971697269E4
:106BA400736975C060F076C061F077C062F078C038
:106BB40063F079C064F07AC065F07BC066F07CC095
:106BC40067F07FC02DF0200E2D129F0E2D261A0E79
:106BD4002D60EFEF35F0F1EF35F00EEF36F07FC0BA
:106BE4002DF09F0E2D26190E2D64FBEF35F0FDEFD1
:106BF40035F002EF36F07FC06AF06B6B09EF36F0C8
:106C04007FC02DF05F0E2D162D506A6F6B6B6A518D
:106C1400C90F7F6F1CEF36F07FC02DF0D00E2D26EC
:106C24000A0E2D6018EF36F01AEF36F0D7EF36F073
:106C3400300E7F5F7F512D6E2E6A28502D5C2E50B2
:106C4400800A2F6E2950800A2F58D8A02CEF36F0D6
:106C54002EEF36F030EF36F0D7EF36F074B335EF71
:106C640036F037EF36F0CAEF36F028C00DF029C001
:106C74000EF0000E0EBEFF0E0F6E106E116E126E31
:106C8400136E146E75C015F076C016F077C017F049
:106C940078C018F079C019F07AC01AF07BC01BF0E4
:106CA4007CC01CF090EC51F00DC02DF00EC02EF005
:106CB4000FC02FF010C030F011C031F012C032F00C
:106CC40013C033F014C034F000017F512D24756FCC
:106CD400000E2E20766F000E2F20776F000E3020CE
:106CE400786F000E3120796F000E32207A6F000E1B
:106CF40033207B6F000E34207C6F6051755D6151D1
:106D0400765962517759635178596451795965516B
:106D14007A5966517B5967517C59D8A094EF36F063
:106D240096EF36F0B5EF36F02A50D8B49CEF36F033
:106D34009EEF36F0CAEF36F075516C5D76516D59A1
:106D440077516E5978516F59795170597A517159F7
:106D54007B5172597C517359D8B0B3EF36F0B5EF0B
:106D640036F0CAEF36F06CC075F06DC076F06EC0C8
:106D740077F06FC078F070C079F071C07AF072C0AB
:106D84007BF073C07CF0000EEA6F220EE96F74830F
:106D94007D4B7E2B6000F7F1D9FF6000FBF1DAFF39
:106DA400DF507F6F7485D3EF35F07451030BE80621
:106DB400D8A4DFEF36F0E1EF36F0F1EF36F07C1FC8
:106DC4007B1F7A1F791F781F771F761F756D000E42
:106DD40076237723782379237A237B237C232750F4
:106DE400D8B4F7EF36F0F9EF36F00DEF37F074B5AD
:106DF400FEEF36F000EF37F004EF37F025C07DF0FA
:106E040026C07EF02750D96EDA6A6000F7F1DEFF03
:106E14006000FBF1DDFF75C025F076C026F077C079
:106E240027F078C028F079C029F07AC02AF07BC016
:106E34002BF07CC02CF012003550D96EDA6A6F004A
:106E44007BFFF6FF6F0077FFF7FF000EF86E080078
:106E5400F550250AD8A431EF37F033EF37F096EF29
:106E640039F03550D96EDA6ADE2A000EDD22000EC2
:106E7400496E000E486E48C04BF001018269836977
:106E84003A6A65EF37F04B823550D96EDA6ADE2AFA
:106E9400000EDD2265EF37F0010E3A6E65EF37F034
:106EA4003550D96EDA6A6F007BFFF6FF6F0077FF0B
:106EB400F7FF000EF86E0800F550300AD8B445EF1D
:106EC40037F04EEF37F03A50D8B46BEF37F06DEF40
:106ED40037F052EF37F035C00DF036C00EF0C8EC85
:106EE4004DF00DC048F00EC049F049BE7EEF37F0BA
:106EF4007CEF37F083EF37F04B80486C491ED8B0F5
:106F0400492A3550D96EDA6A6F0078FF40F06F0075
:106F140074FF41F0600003F1F6FF600007F1F7FF32
:106F2400000EF86E08006F00D4FF3FF0A5EF37F0B5
:106F3400404A412ABCEF37F0690E3F6EBCEF37F090
:106F44003F6ABCEF37F03F50640AD8B49EEF37F085
:106F54000D0AD8B49EEF37F0050AD8B49AEF37F08B
:106F6400190AD8B49EEF37F00D0AD8B49EEF37F063
:106F7400A2EF37F0600003F1F6FF600007F1F7FFBE
:106F8400000EF86E0800F550640AD8B4CCEF37F060
:106F9400CEEF37F013EF38F0600003F1F6FF600036
:106FA40007F1F7FF000EF86E0800F550690AD8A43F
:106FB400DEEF37F0E0EF37F03FEF38F013EF38F063
:106FC4006000DBF0D9FF6000DFF0DAFFDF50DF2A7A
:106FD400DF2AD96EDA6A6F0078FF3BF06F0074FF26
:106FE4003CF0000E3CBEFF0E3D6E3E6E1EEF38F0D0
:106FF4006000DBF0D9FF6000DFF0DAFF040EDF266B
:10700400DF5CD96EDA6A6F0078FF3BF06F0078FFBF
:107014003CF06F0078FF3DF06F0078FF3EF01EEF0C
:1070240038F03F50690AD8B4E2EF37F0050AD8B413
:10703400FAEF37F01EEF38F0010E4024386E000EE0
:107044004120396E3550D96EDA6A6000E3F0DEFF14
:107054006000E7F0DDFF34C025F03BC026F03CC003
:1070640027F03DC028F03EC029F003EC43F025C0D2
:1070740034F026C035F0B3EF39F0600003F1F6FFC9
:10708400600007F1F7FF000EF86E0800F550780A6B
:10709400D8B44FEF38F051EF38F097EF38F0600084
:1070A40003F1F6FF600007F1F7FF000EF86E080029
:1070B400F550750AD8A461EF38F063EF38F0EBEFC0
:1070C40038F097EF38F06000DBF0D9FF6000DFF0B4
:1070D400DAFFDF50DF2ADF2AD96EDA6A6F0078FF21
:1070E40038F06F0074FF39F038C03BF039C03CF021
:1070F4003D6A3E6AA2EF38F06000DBF0D9FF600021
:10710400DFF0DAFF040EDF26DF5CD96EDA6A6F0087
:1071140078FF3BF06F0078FF3CF06F0078FF3DF0A4
:107124006F0078FF3EF0A2EF38F03F50690AD8B400
:1071340065EF38F0050AD8B47EEF38F0A2EF38F0E6
:10714400010E4024386E000E4120396E3550D96E40
:10715400DA6A6000E3F0DEFF6000E7F0DDFFD7EFFE
:1071640038F034C025F03BC026F03CC027F03DC0C9
:1071740028F03EC029F085EC49F025C034F026C043
:1071840035F0B3EF39F034C025F03BC026F03CC0F5
:1071940027F03DC028F03EC029F062EC48F025C03D
:1071A40034F026C035F0B3EF39F0600003F1F6FF98
:1071B400600007F1F7FF000EF86E0800F550750A3D
:1071C400D8B4B3EF38F00D0AD8B4C5EF38F0EBEF0C
:1071D40038F03A6A3550D96EDA6A6F007BFFF6FFF1
:1071E4006F0077FFF7FF000EF86E0800F550730A82
:1071F400D8A4FFEF38F001EF39F00BEF39F0355038
:10720400D96EDA6ADE2A000EDD22010E3A6E67EFCD
:1072140039F03550D96EDA6A6F007BFFF6FF6F00E4
:1072240077FFF7FF000EF86E0800F5506C0AD8A43B
:107234001EEF39F020EF39F067EF39F03550D96E91
:10724400DA6A6F0078FF38F06F0074FF39F0010ECE
:107254003826000E39226000E3F0F6FF6000E7F004
:10726400F7FF000EF86E0800F5506C0AD8A43DEF45
:1072740039F03FEF39F067EF39F03550D96EDA6AFB
:107284006F0078FF38F06F0074FF39F0020E382673
:10729400000E39226000E3F0F6FF6000E7F0F7FF2C
:1072A400000EF86E0800F550730AD8A45CEF39F0AC
:1072B4005EEF39F067EF39F03550D96EDA6A030EB4
:1072C400DE26000EDD2207EF39F03A50D8B46DEF18
:1072D40039F06FEF39F08AEF39F034C017F06000FD
:1072E400DBF0D9FF6000DFF0DAFF020EDF26DF5C9F
:1072F400D96EDA6A6F0078FF18F06F0078FF19F022
:10730400FDEC46F017C034F018C035F0B3EF39F097
:107314003550D96EDA6ADE2A000EDD22000E356E93
:10732400000E346EB3EF39F03550D96EDA6A6F005F
:107334007BFFF6FF6F0077FFF7FF000EF86E080083
:10734400F5500F6E106A34C011F02AEC4EF035502F
:10735400D96EDA6ADE2A000EDD22000E356E010EC9
:10736400346E120000018351D96EDA6A6F007BFF1C
:10737400F6FF6F0077FFF7FF000EF86E0800F55078
:10738400250AD8A4C8EF39F0CAEF39F0D9EF3AF09A
:107394008351D96EDA6ADE2A000EDD22000EE86F10
:1073A400000EE76FE751E811D8A4DBEF39F0DEEF08
:1073B40039F0010EDFEF39F0000EF36F8351D96E0F
:1073C400DA6A6F0078FF0DF06F0074FF0EF037EC8F
:1073D40041F00DC0E7F00EC0E8F0F7EF39F083514B
:1073E400D96EDA6ADE2A000EDD2200018351D96EDD
:1073F400DA6A6F007BFFF6FF6F0077FFF7FF000E7E
:10740400F86E08006F00D4FF86F0D00E8627090EB0
:1074140086650FEF3AF011EF3AF0F1EF39F083514E
:10742400D96EDA6A6F007BFFF6FF6F0077FFF7FF14
:10743400000EF86E0800F550780AD8B424EF3AF03C
:1074440026EF3AF03BEF3AF08351D96EDA6A6F00D7
:107454007BFFF6FF6F0077FFF7FF000EF86E080062
:10746400F550580AD8A439EF3AF03BEF3AF07CEFE4
:107474003AF08351D96EDA6ADE2A000EDD2282C028
:1074840080F08C0E816F69EC3DF080C08AF081C081
:107494008BF000018BBF57EF3AF08B5108E18A055E
:1074A400D8A057EF3AF059EF3AF076EF3AF060008F
:1074B40013F2D9FF600017F2DAFF020EDF26DF5C59
:1074C400D96EDA6A6F0078FF88F06F0078FF89F070
:1074D400600023F2D9FF600027F2DAFF600033F284
:1074E400DEFF600037F2DFFF8AC082F08BC083F0DA
:1074F400A5EF3BF08351D96EDA6A6F007BFFF6FF8C
:107504006F0077FFF7FF000EF86E0800F550250AAC
:10751400D8A48FEF3AF091EF3AF0D1EF3AF082C06D
:1075240018F05EEC55F082C00FF012EC4AF00FC078
:1075340094F010C095F0250E000194199511D8A46B
:10754400A6EF3AF0A8EF3AF0B8EF3AF08351D96ECB
:10755400DA6ADE2A000EDD220101804B812B000E47
:107564000001836F000E826FA5EF3BF0942908E1C0
:107574009529D8B4C0EF3AF0C2EF3AF0CAEF3AF026
:1075840094C00DF095C00EF082C00FF0EFEC50F0F7
:10759400FF0E0001836FFE0E826FA5EF3BF0835157
:1075A400D96EDA6ADE2A000EDD22B1EF3AF082C02B
:1075B4000FF012EC4AF00FC094F010C095F00001E7
:1075C4008351D96EDA6A6F007BFFF6FF6F0077FF95
:1075D400F7FF000EF86E0800F550200AD8B4F5EF56
:1075E4003AF0F7EF3AF010EF3BF08351D96EDA6AD4
:1075F4006F007BFFF6FF6F0077FFF7FF000EF86E5A
:1076040008006F00D4FF86F0F70E8627050E86610A
:107614000EEF3BF010EF3BF07CEF3BF08351D96E63
:10762400DA6ADE2A000EDD228351D96EDA6A6F002F
:107634007BFFF6FF6F0077FFF7FF000EF86E080080
:10764400F550200AD8B429EF3BF02BEF3BF010EFB4
:107654003BF08351D96EDA6A6F007BFFF6FF6F004F
:1076640077FFF7FF000EF86E08006F00D4FF86F076
:10767400F70E8627040E866542EF3BF044EF3BF09D
:1076840010EF3BF051EF3BF00101804B812B82C0A6
:107694000FF012EC4AF00FC094F010C095F0200ED9
:1076A400000194199511D8B45AEF3BF05CEF3BF00C
:1076B40046EF3BF094C086F0F70E8627040E8665ED
:1076C40066EF3BF068EF3BF046EF3BF0942908E1AE
:1076D4009529D8B470EF3BF072EF3BF0B1EF3AF07C
:1076E40094C00DF095C00EF082C00FF0EFEC50F096
:1076F400B1EF3AF08351D96EDA6A6F007BFFF6FF7F
:107704006F0077FFF7FF000EF86E0800F550866FE4
:10771400876B9451861907E195518719D8A495EF81
:107724003BF097EF3BF099EF3BF0A8EF3AF0942948
:1077340006E19529D8A4A1EF3BF0A3EF3BF0C2EFFB
:107744003AF0826983691200000E1D6E000E1C6EF1
:10775400000E256E000E246E000E276E000E266E9F
:10776400000E1D6E000E1C6E94EF3CF01C500D2498
:10777400D96E1D500E20DA6EDF50136E146A245039
:10778400020DF3501E0FD96EDA6A60004FF0DEFF6F
:10779400600053F0DDFF244A252A030E2418251027
:1077A400D8A4D7EF3BF0D9EF3BF092EF3CF01EC0EA
:1077B40013F01FC014F0D89014321332D89014323E
:1077C40013323F0E1316000E1416440E1324D96EF2
:1077D400020E1420DA6E26501124E16E2750122076
:1077E400E26E6F007FFFE7FF20EE20F06F0078FF6E
:1077F40013F06F0074FF14F0040E156ED890143259
:107804001332152E00EF3CF00F0E1316000E141653
:10781400030E1E14166E000E1F14176E163A173A36
:10782400F00E171616500F0B1712F00E1616440E04
:107834001624186E020E1720196E13501824D96ED0
:1078440014501920DA6E265011241A6E2750122073
:107854001B6E010E1A24E16E000E1B20E26E6F00F7
:107864007FFFE7FF20EE22F06F0078FF13F06F0038
:1078740074FF14F0060E156ED89014321332152EC0
:107884003EEF3CF0030E1316000E14160F0E2014D8
:10789400166E000E2114176ED89016361736D8902F
:1078A40016361736440E1624186E020E1720196E5B
:1078B40013501824D96E14501920DA6E265011244E
:1078C4001A6E275012201B6E020E1A24E16E000E4F
:1078D4001B20E26E6F007FFFE7FF3F0E2214136E42
:1078E400000E2314146E440E1324D96E020E1420B9
:1078F400DA6E26501124156E27501220166E030ED0
:107904001524E16E000E1620E26E6F007FFFE7FF84
:10791400000E256E000E246E040E2626000E27226D
:107924001C4A1D2A0F501C5C10501D58D8A09DEFF6
:107934003CF09FEF3CF0B8EF3BF024502510D8B456
:10794400A6EF3CF0A8EF3CF05DEF3DF024042510D9
:10795400D8A4AFEF3CF0B1EF3CF0B5EF3CF0000E33
:10796400216E000E206E1EC013F01FC014F0D890BC
:1079740014321332D890143213323F0E1316000E01
:107984001416440E1324D96E020E1420DA6E2650F7
:107994001124E16E27501220E26E6F007FFFE7FF93
:1079A40020EE20F06F0078FF13F06F0074FF14F0E6
:1079B400040E156ED89014321332152EDCEF3CF001
:1079C4000F0E1316000E1416030E1E14166E000E60
:1079D4001F14176E163A173AF00E171616500F0B9F
:1079E4001712F00E1616440E1624186E020E1720E7
:1079F400196E13501824D96E14501920DA6E2650BB
:107A040011241A6E275012201B6E010E1A24E16EE7
:107A1400000E1B20E26E6F007FFFE7FF020E2418AA
:107A24002510D8A418EF3DF01AEF3DF03DEF3DF0DE
:107A34000F0E2014136E000E2114146ED8901336FA
:107A44001436D89013361436440E1324D96E020E0D
:107A54001420DA6E26501124156E27501220166E4B
:107A6400020E1524E16E000E1620E26E6F007FFFF9
:107A7400E7FF4BEF3DF026501124136E27501220E0
:107A8400146E020E1324D96E000E1420DA6E3D0E0D
:107A9400DF6E26501124136E27501220146E030E2D
:107AA4001324D96E000E1420DA6E3D0EDF6E040E20
:107AB4002626000E272226501124D96E2750122084
:107AC400DA6EDF6A26C00DF027C00EF01200000E39
:107AD400426E000E416E80C018F05EEC55F000015D
:107AE400E751E811D8A479EF3DF07BEF3DF081EF49
:107AF4003DF0000E3E6E1F0E3D6E85EF3DF0E7C07B
:107B04003DF0E8C03EF0000E446E000E436E98EF68
:107B14003EF080C00FF012EC4AF00FC045F010C0E8
:107B240046F0452806E14628D8A49BEF3DF09DEF9A
:107B34003DF0B6EF3DF00001E751E811D8A4A5EF00
:107B44003DF0A7EF3DF0B0EF3DF043504410D8A412
:107B5400AEEF3DF0B0EF3DF0B6EF3DF045C080F044
:107B640046C081F023EF3FF02D0E45184610D8B4DF
:107B7400BEEF3DF0C0EF3DF0CAEF3DF02B0E4518CF
:107B84004610D8A4C8EF3DF0CAEF3DF0E1EF3DF058
:107B940044BED5EF3DF0445008E14304D8A0D5EFEE
:107BA4003DF0D7EF3DF08AEF3EF045C00DF046C002
:107BB4000EF080C00FF0EFEC50F0B2EF3EF0300E5C
:107BC40045184610D8A4E9EF3DF0EBEF3DF03AEF4D
:107BD4003EF0240E4324D96E020E4420DA6E600077
:107BE40017F1DFFF434A442A0101804B812B80C0F7
:107BF4000FF012EC4AF00FC045F010C046F0580EDA
:107C040045184610D8B409EF3EF00BEF3EF015EFDF
:107C14003EF0780E45184610D8A413EF3EF015EF49
:107C24003EF026EF3EF041504210D8B41CEF3EF037
:107C34001EEF3EF020EF3EF0D7EF3DF043C041F0A1
:107C440044C042F08AEF3EF0452808E14628D8B403
:107C54002EEF3EF030EF3EF098EF3EF045C00DF0D1
:107C640046C00EF080C00FF0EFEC50F098EF3EF0FD
:107C740045C035F0D00E3526090E356444EF3EF08C
:107C840046EF3EF08AEF3EF045C035F0200E351247
:107C94009F0E3526050E356452EF3EF054EF3EF04C
:107CA4008AEF3EF0452808E14628D8B45CEF3EF060
:107CB4005EEF3EF066EF3EF045C00DF046C00EF0BC
:107CC40080C00FF0EFEC50F041504210D8B46DEF8B
:107CD4003EF06FEF3EF0B2EF3EF0FF0E4324356E00
:107CE400FF0E4420366E4150351807E142503618D5
:107CF400D8A47FEF3EF081EF3EF0B2EF3EF04306B2
:107D0400D8A0440601018007D8A08107B2EF3EF055
:107D1400240E4324D96E020E4420DA6E600017F15B
:107D2400DFFF434A442A0101804B812B3D50435CD1
:107D34004450800A356E3E50800A3558D8B0A5EFBD
:107D44003EF0A7EF3EF0B2EF3EF0445009E11F0EC3
:107D5400435CD8A0B0EF3EF0B2EF3EF08BEF3DF0C5
:107D6400240E4324D96E020E4420DA6EDF6A240EF8
:107D7400256E020E266E3F0E276E000E296E100E23
:107D8400286E000E2A6E59EC34F025C035F026C05A
:107D940036F027C037F028C038F029C039F02AC09F
:107DA4003AF02BC03BF02CC03CF000018151D96E5D
:107DB400DA6A6000D7F0DEFF6000DBF0DEFF60000F
:107DC400DFF0DEFF6000E3F0DEFF6000E7F0DEFFDF
:107DD4006000EBF0DEFF6000EFF0DEFF6000F3F028
:107DE400DEFFE951EA11D8A4FAEF3EF0FCEF3EF0D1
:107DF4001FEF3FF043504410D8B403EF3FF005EFBA
:107E04003FF01FEF3FF0240E3F1809E1020E401827
:107E1400D8B40FEF3FF011EF3FF01FEF3FF0F351F5
:107E2400D8B417EF3FF01AEF3FF0010E1BEF3FF00D
:107E3400000E806F816B23EF3FF0FF0E816FFE0E0B
:107E4400806F120001013CA12AEF3FF02CEF3FF0BC
:107E54002FEF3FF0BF8030EF3FF0BF903CA335EFF2
:107E64003FF037EF3FF03AEF3FF0BC823BEF3FF09B
:107E7400BC923CA540EF3FF042EF3FF045EF3FF0AE
:107E8400BC8046EF3FF0BC903CA74BEF3FF04DEF7A
:107E94003FF050EF3FF0BE8451EF3FF0BE94146AC0
:107EA400CCAE57EF3FF05AEF3FF0010E5BEF3FF0DF
:107EB400000E010B1412CDA862EF3FF066EF3FF005
:107EC400116A112A67EF3FF0116A010E1116D8905A
:107ED40011341412CDAA71EF3FF075EF3FF0116A1F
:107EE400112A76EF3FF0116A010E1116D89011365F
:107EF400D89011341412CDAC82EF3FF086EF3FF0EE
:107F0400116A112A87EF3FF0116A010E1116D890F9
:107F14001136D8901136D8901134141214C03DF192
:107F2400000E166E000E156E15C011F03DC112F054
:107F3400112A9FEF3FF0D8901232112E9DEF3FF09F
:107F44001250010B136E4F0E1524D96E010E16201C
:107F5400DA6EDF50D8A4B1EF3FF0B3EF3FF0F6EFA5
:107F64003FF01304D8A4B9EF3FF0BBEF3FF0F6EFB6
:107F74003FF04F0E1524D96E010E1620DA6E010E55
:107F8400DF6EE0EC5CF03C0E116E010E126E030E1F
:107F94001126000E1222D8901534D96E1634DA6EDA
:107FA400D890D936DA361150D9261250DA22600028
:107FB40037F0DEFF60003BF0DEFF60003FF0DEFFE5
:107FC400600043F0DEFF15C011F0010E126E112A9D
:107FD400EEEF3FF0D8901236112EECEF3FF0125036
:107FE40001013E1335EF40F04F0E1524D96E010EFA
:107FF4001620DA6EDE04D8A402EF40F004EF40F05D
:1080040035EF40F01350D8A40AEF40F00CEF40F0E5
:1080140035EF40F04F0E1524D96E010E1620DA6E9E
:10802400DF6AE0EC5CF03C0E116E010E126E030E82
:108034001126000E1222D8901534D96E1634DA6E39
:10804400D890D936DA361150D9261250DA22600087
:1080540037F0DEFF60003BF0DEFF60003FF0DEFF44
:10806400600043F0DEFF154A162A16BE43EF40F0C7
:10807400165009E1040E155CD8A043EF40F045EF1B
:1080840040F096EF3FF01200900E256E0F0E266E14
:108094007F0E2C6E2B68800E2A6E000E296E000E49
:1080A400306E000E2F6E2FC01AF030C01BF0D89027
:1080B4001A361B361A5025241C6E1B5026201D6EA2
:1080C400010E1C24D96E000E1D20DA6EDF501E6EC8
:1080D400D8902F34D96E3034DA6E2550D9262650F4
:1080E400DA22DF501F6E1E502D6E1FC02EF0D89066
:1080F4002F34D96E3034DA6E900ED9260F0EDA2270
:108104006000B7F0DEFF6000BBF0DDFF2B502D5C9C
:108114002E50800A1A6E2C50800A1A58D8B095EF47
:1081240040F097EF40F09BEF40F02DC02BF02EC0B5
:108134002CF02D50295C2A50800A1A6E2E50800A89
:108144001A58D8B0A8EF40F0AAEF40F0AEEF40F0D4
:108154002DC029F02EC02AF02F4A302A030E305C9D
:10816400D8A0B7EF40F0B9EF40F055EF40F02B50F6
:10817400295C276E2C502A58286E27502810D8A422
:10818400C6EF40F0C8EF40F0CCEF40F0000E286E90
:10819400010E276E000E0D6EFF0E0E6E000E0F6E9A
:1081A400000E106E27C011F028C012F0136A146A72
:1081B4009DEC50F00DC021F00EC022F0000E306E88
:1081C400000E2F6ED8902F34D96E3034DA6E900EA4
:1081D400D9260F0EDA226F0078FF1AF06F0074FFB1
:1081E4001BF02B501A5C236E2C501B58246E900EDF
:1081F4002F24D96E150E3020DA6E23C00DF024C062
:108204000EF00F6A106A21C011F022C012F0136A36
:10821400146A93EC55F00EC00DF00FC00EF010C0B0
:108224000FF0106A0D50DF6E2F4A302A030E305CB7
:10823400D8A01FEF41F021EF41F0E4EF40F02BC054
:10824400F1F02CC0F2F029C0EFF02AC0F0F00001E8
:10825400FC2B090EFC6531EF41F033EF41F034EFB4
:1082640041F0FC6B0101E32B1200000E146E000EB2
:10827400136E126A40EF41F00D4A0E2A600037F087
:10828400F6FF60003BF0F7FF000EF86E1F0EF76478
:1082940003D00800F55007D06F00DBFFE9FF6F0043
:1082A400DFFFEAFFEF50200AD8B45BEF41F05DEF47
:1082B40041F03EEF41F0600037F0F6FF60003BF024
:1082C400F7FF000EF86E1F0EF76403D00800F55098
:1082D40007D06F00DBFFE9FF6F00DFFFEAFFEF501D
:1082E4000F6EF70E0F26040E0F647BEF41F07DEF47
:1082F40041F03EEF41F0600037F0F6FF60003BF0E4
:10830400F7FF000EF86E1F0EF76403D00800F55057
:1083140007D06F00DBFFE9FF6F00DFFFEAFFEF50DC
:108324002D0AD8A498EF41F09AEF41F0A0EF41F064
:10833400010E126E0D4A0E2AECEF41F0600037F088
:10834400F6FF60003BF0F7FF000EF86E1F0EF764B7
:1083540003D00800F55007D06F00DBFFE9FF6F0082
:10836400DFFFEAFFEF502B0AD8A4BBEF41F0BDEFCB
:1083740041F0ECEF41F09CEF41F00A0E13026F0064
:10838400CCFF0FF06F00D0FF10F01402F350102652
:10839400600037F0F6FF60003BF0F7FF000EF86E68
:1083A4001F0EF76403D00800F55007D06F00DBFF01
:1083B400E9FF6F00DFFFEAFFEF50116E11500F5E0F
:1083C400000E105A300E0F24136E000E1020146E7F
:1083D4009CEF41F0600037F0F6FF60003BF0F7FFE0
:1083E400000EF86E1F0EF76403D00800F55007D096
:1083F4006F00DBFFE9FF6F00DFFFEAFFEF500F6E56
:10840400D00E0F26090E0F640AEF42F00CEF42F073
:10841400BFEF41F01250D8A412EF42F014EF42F033
:1084240022EF42F013C00FF014C010F00F1E101E04
:108434000F4A102A0FC00DF010C00EF026EF42F0C4
:1084440013C00DF014C00EF01200E0EC5CF001015A
:1084540053510D5CE96F54510E58EA6F55510F5842
:10846400EB6F56511058EC6FEC51EB110BE1D00E41
:10847400E95D070EEA59D8A042EF42F044EF42F01A
:10848400C2EF42F0E0EC5CF00DC053F10EC054F1C9
:108494000FC055F110C056F14AEC4FF0800E0D6E2E
:1084A400AD0E0E6E000E0F6E23EC5DF03D01F48FE9
:1084B4004DC04CF0000E0001EE6F000EED6F050193
:1084C400006BC2EF42F075EC5CF00101E96F000E45
:1084D4000001ED25D96E050EEE21DA6E6000A7F7D6
:1084E400DFFFED4BEE2BE0EC5CF00DC057F10EC05E
:1084F40058F10FC059F110C05AF10001EE05D8A08F
:1085040086EF42F088EF42F08EEF42F0000EEE6FFD
:10851400000EED6FC2EF42F0EE5109E10C0EED5D7D
:10852400D8A097EF42F099EF42F0C2EF42F0FF0E6D
:10853400ED25D96E040EEE21DA6E0A0EDE18D8A4EB
:10854400A6EF42F0A8EF42F0C2EF42F0FE0EED2596
:10855400D96E040EEE21DA6E0D0EDE18D8A4B5EF36
:1085640042F0B7EF42F0C2EF42F0000EED25D96EB3
:10857400050EEE21DA6EDF6A7AEC31F05CEF42F040
:1085840039EC5CF00009D8B4CAEF42F0CCEF42F009
:10859400D5EF42F00001EE05D8A0D3EF42F0D5EFBD
:1085A40042F065EF42F0E0EC5CF0010157510D5CE4
:1085B400E96F58510E58EA6F59510F58EB6F5A51E1
:1085C4001058EC6FEC51EB11EA1109E1050EE95D6D
:1085D400D8A0EFEF42F0F1EF42F002EF43F0000ECB
:1085E4000001EE6F000EED6F0501006BE0EC5CF036
:1085F4000DC057F10EC058F10FC059F110C05AF117
:108604001200010E2C6E29BE0AEF43F00DEF43F069
:10861400010E0EEF43F0000E2F6E48C02DF049C03E
:108624002EF02F50D8B419EF43F01BEF43F032EF84
:1086340043F02D06D8A02E062F50D8A424EF43F0E3
:1086440026EF43F02CEF43F0000E2B6E2B0E2A6E18
:1086540030EF43F0000E2B6E2D0E2A6E2AC02FF041
:10866400000E316E1F0E306E0101CB6B7CEF43F0B8
:108674003006D8A03106AC0E3024D96E010E31205C
:10868400DA6E26C00DF027C00EF028C00FF029C006
:1086940010F00A0E116E000E126E000E136E000E14
:1086A400146E87EC4CF00DC017F00EC018F0A3EC5C
:1086B4005AF01750300FDF6E2C6A2D06D8A02E0604
:1086C40026C00DF027C00EF028C00FF029C010F00E
:1086D4000A0E116E000E126E000E136E000E146E52
:1086E4009AEC4AF00DC026F00EC027F00FC028F017
:1086F40010C029F031BE87EF43F0315008E1300457
:10870400D8A087EF43F089EF43F0B0EF43F0265051
:10871400271028102910D8A492EF43F094EF43F0C7
:108724003AEF43F02C50D8A49AEF43F09CEF43F077
:108734003AEF43F02EBEA7EF43F02E5008E12D048C
:10874400D8A0A7EF43F0A9EF43F0B0EF43F04BB24A
:10875400AEEF43F0B0EF43F03AEF43F02F50D8B40C
:10876400B6EF43F0B8EF43F0C4EF43F03006D8A0BF
:108774003106AC0E3024D96E010E3120DA6E600061
:10878400BFF0DFFF25C01DF0AC0E30241E6E010EBD
:1087940031201F6E2DC020F02EC021F0A0EC4FF030
:1087A4001DC025F01EC026F0120093EF44F0E0EC4B
:1087B4005CF0010167510D5C316E68510E58326EE8
:1087C40069510F58336E6A511058346E3450331057
:1087D400321009E1640E315CD8A0F3EF43F0F5EFF9
:1087E40043F0A9EF44F03C0E226E140E216E390EB4
:1087F400236E246A020E256E8CEC4EF00009D8B468
:1088040006EF44F008EF44F018EF44F039C0E2F109
:1088140039A00FEF44F011EF44F018EF44F0536A1D
:108824000001FA6B010EFB6FA9EF44F0E0EC5CF081
:10883400CE0E0D240101676FFF0E0E20686FFF0E30
:108844000F20696FFF0E10206A6FA9EF44F0535098
:10885400316E326A060ED89031363236E82E2DEF5C
:1088640044F02C0E3124356E340E3220366E5350C3
:10887400316E326A060ED89031363236E82E3DEF2C
:1088840044F0900E3124376E0F0E3220386E35C00E
:1088940021F036C022F037C023F038C024F0400E57
:1088A400256E8CEC4EF00009D8B45BEF44F05DEF1C
:1088B40044F078EF44F00001FA6B532A170E536426
:1088C40066EF44F068EF44F0A9EF44F046EC40F062
:1088D400E0EC5CF00DC067F10EC068F10FC069F107
:1088E40010C06AF10001FB6BA9EF44F00001FA2B00
:1088F400310EFA6580EF44F082EF44F0A9EF44F0C2
:10890400E0EC5CF0CE0E0D240101676FFF0E0E202B
:10891400686FFF0E0F20696FFF0E10206A6F74EFEF
:1089240044F00001FB51316E326A3250000AD8B46F
:108934009EEF44F0A9EF44F03150000AD8B4D9EFC7
:1089440043F0010AD8B429EF44F0A9EF44F012002F
:10895400000E2D6E000E2E6E3F0E2F6E000E306E2A
:10896400000E326E000E316ED8903134196E3234EE
:108974001A6E1B6A1ABE1B061B501C6E2D5019243E
:10898400116E2E501A20126E2F501B20136E305071
:108994001C20146E67EC5AF03150020DF350210F75
:1089A400D96EDA6A600047F0DEFF60004BF0DDFF4D
:1089B400314A322A32BEE8EF44F0325009E1060E61
:1089C400315CD8A0E8EF44F0EAEF44F0B6EF44F0AD
:1089D4002350196E24501A6E1B6A1C6A1AC01CF0AC
:1089E40019C01BF01A6A196A19C0C9F01AC0CAF072
:1089F4001BC0CBF01CC0CCF021C019F022C01AF06F
:108A0400000E1ABEFF0E1B6E1C6EC9C01DF0CAC03C
:108A14001EF0CBC01FF0CCC020F01EC020F01DC043
:108A24001FF01E6A1D6A19501D100001C96F1A50EB
:108A34001E10CA6F1B501F10CB6F1C502010CC6F20
:108A44002750196E28501A6E1B6A1C6A1AC01CF033
:108A540019C01BF01A6A196A19C0C5F01AC0C6F009
:108A64001BC0C7F01CC0C8F025C019F026C01AF0FE
:108A7400000E1ABEFF0E1B6E1C6EC5C01DF0C6C0D4
:108A84001EF0C7C01FF0C8C020F01EC020F01DC0DB
:108A94001FF01E6A1D6A19501D10C56F1A501E1052
:108AA400C66F1B501F10C76F1C502010C86F5FEC9F
:108AB40056F0640E0101881989118A118B11D8B4FA
:108AC40066EF45F068EF45F07BEF45F0640E886F84
:108AD400000E896F000E8A6F000E8B6F740E8C6F00
:108AE400650E8D6F730E8E6F740E8F6F906B19EC15
:108AF40059F012001506D8A01606152806E1162806
:108B0400D8A487EF45F089EF45F096EF45F0000EC5
:108B1400126E000E116E3EEF46F0114A122A134AED
:108B2400142A1506D8A01606600047F0F6FF600068
:108B34004BF0F7FF000EF86E1F0EF76403D0080029
:108B4400F55007D06F00DBFFE9FF6F00DFFFEAFF9E
:108B5400EF500009D8B4B1EF45F0B3EF45F00CEF96
:108B640046F060004FF0F6FF600053F0F7FF000E90
:108B7400F86E1F0EF76403D00800F55007D06F009D
:108B8400DBFFE9FF6F00DFFFEAFFEF500009D8B415
:108B9400CEEF45F0D0EF45F00CEF46F0155016102F
:108BA400D8B4D7EF45F0D9EF45F00CEF46F06000AC
:108BB4004FF0F6FF600053F0F7FF000EF86E1F0E43
:108BC400F76403D00800F55007D06F00DBFFE9FF1E
:108BD4006F00DFFFEAFFEF50176E600047F0F6FF0B
:108BE40060004BF0F7FF000EF86E1F0EF76403D021
:108BF4000800F55007D06F00DBFFE9FF6F00DFFFCF
:108C0400EAFFEF501718D8B40AEF46F00CEF46F01D
:108C14008FEF45F0600047F0F6FF60004BF0F7FF80
:108C2400000EF86E1F0EF76403D00800F55007D04D
:108C34006F00DBFFE9FF6F00DFFFEAFFEF50176E05
:108C440060004FF0F6FF600053F0F7FF000EF86E7F
:108C54001F0EF76403D00800F55007D06F00DBFF48
:108C6400E9FF6F00DFFFEAFFEF50186E1850175C42
:108C7400116E126AD8A01206120000018F6F000153
:108C84008F51806F816B180E80036F00CCFF82F0D0
:108C94006F00D0FF83F08103F3508327010E80031C
:108CA400F3508327000E8225926F090E8321936F60
:108CB40057EC5DF00DC080F00EC081F0000E000195
:108CC40081BFFF0E826F836FD8908035846F8135AA
:108CD400856F8235866F8335876F5CEC5DF00DC0E0
:108CE40080F00EC081F0000E000181BFFF0E826F84
:108CF400836FD8908035886F8135896F82358A6F0C
:108D040083358B6F92C060F093C061F0EC0E626F9C
:108D1400610E636F8C0E646F010E656F8F51800D51
:108D24006F00CCFF66F06F00D0FF67F0F6C068F00C
:108D3400696B84C06AF085C06BF086C06CF087C034
:108D44006DF088C06EF089C06FF08AC070F08BC07F
:108D540071F04BEC57F060C090F061C091F00001ED
:108D64008F51806F816B070ED89080378137E82E42
:108D7400B6EF46F052EC5DF0000180510D248C6F8B
:108D840081510E208D6F8CC00DF08DC00EF0000E41
:108D9400106E800E0F6E90519225116E9151932199
:108DA400126EA6EC3BF0FF0E0D240001806FFF0E47
:108DB4000E20816F805190278151912392C00DF034
:108DC40093C00EF090C00FF091C010F0000E8DEC27
:108DD40053F000018E6F90519225606F9151932151
:108DE400616F660E626F620E636F8EC064F0656BB6
:108DF4004BEC57F0120018C020F019C021F020509D
:108E04002110D8A408EF47F00AEF47F00EEF47F01F
:108E1400BA0E206E620E216E000E236E000E226EBC
:108E240016EF47F0224A232A225020241A6E235098
:108E340021201B6E60006BF0F6FF60006FF0F7FFFF
:108E4400000EF86E1F0EF76403D00800F55007D02B
:108E54006F00DBFFE9FF6F00DFFFEAFFEF5000095F
:108E6400D8A437EF47F039EF47F014EF47F022C0AA
:108E74001CF023C01DF048C01EF049C01FF04BB0C9
:108E840046EF47F048EF47F084EF47F054EF47F0E0
:108E9400000E106E200E0F6E17C011F02AEC4EF06B
:108EA400224A232A1E50225C2350800A1A6E1F5025
:108EB400800A1A58D8A061EF47F063EF47F04AEFF1
:108EC40047F084EF47F0600083F0F6FF600087F01E
:108ED400F7FF000EF86E1F0EF76403D00800F5507C
:108EE40007D06F00DBFFE9FF6F00DFFFEAFFEF5001
:108EF4001A6E1A500F6E106A17C011F02AEC4EF059
:108F0400204A212A1C06D8A01D061C2806E11D287B
:108F1400D8A48FEF47F091EF47F065EF47F04BA0EF
:108F240096EF47F098EF47F0B3EF47F0A4EF47F020
:108F3400000E106E200E0F6E17C011F02AEC4EF0CA
:108F4400224A232A1E50225C2350800A1A6E1F5084
:108F5400800A1A58D8A0B1EF47F0B3EF47F09AEF60
:108F640047F022C017F023C018F01200000E0001D1
:108F7400886F000E876F000E606F030E616F1D0E09
:108F8400626F620E636F8C0E646F010E656FCF0E9D
:108F9400666F620E676FE20E686F620E696F720E23
:108FA4006A6F620E6B6F4BEC57F0000160518727BC
:108FB40061518823F9EC5CF00DC089F00EC08AF091
:108FC400000E00018725606F030E8821616F3A0E41
:108FD400626F620E636F600027F2D9FF60002BF2AC
:108FE400DAFFDF50806F8051646F656B20EE01F013
:108FF4008951D9268A51DA22DF50816F8151666FF7
:10900400676B20EE02F08951D9268A51DA22DF50AB
:10901400826F8251686F696B20EE03F08951D92603
:109024008A51DA22DF50836F83516A6F6B6B20EEB3
:1090340004F08951D9268A51DA22DF50846F845191
:109044006C6F6D6B20EE05F08951D9268A51DA22B6
:10905400DF50856F85516E6F6F6B4BEC57F00001DD
:109064006051872761518823000E0D6E030E0E6E2A
:1090740087C00FF088C010F0000E8DEC53F0000193
:10908400866F000E8725606F030E8821616F660E60
:10909400626F620E636F86C064F0656B4BEC57F0D1
:1090A40000016051872761518823DF0E606F620ED3
:1090B400616F000E626F030E636F03EC5CF01200CD
:1090C400010E2E6E48C02FF049C030F0000E336EF2
:1090D4001F0E326E0101CB6BACEF48F03206D8A004
:1090E400330626500F0B316E0A0E31607CEF48F0C8
:1090F4007EEF48F082EF48F0300E312684EF48F0DE
:10910400570E3126AC0E3224D96E010E3320DA6E9E
:109114006000C7F0DFFF2E6A2F06D8A0300626C0F5
:109124002AF027C02BF028C02CF029C02DF0050E02
:10913400A1EF48F0D8902D322C322B322A32E82E6F
:109144009CEF48F02AC026F02BC027F02CC028F052
:109154002DC029F033BEB8EF48F0335009E1020EB8
:10916400325CD8A0B8EF48F0BAEF48F0E1EF48F02D
:109174002650271028102910D8A4C3EF48F0C5EFB3
:1091840048F070EF48F02E50D8A4CBEF48F0CDEF64
:1091940048F070EF48F030BED8EF48F0305008E1A6
:1091A4002F04D8A0D8EF48F0DAEF48F0E1EF48F008
:1091B4004BB2DFEF48F0E1EF48F070EF48F025C024
:1091C4001DF0AC0E32241E6E010E33201F6E2FC014
:1091D40020F030C021F0A0EC4FF01DC025F01EC0DF
:1091E40026F0120096EC5CF00009D8B4FCEF48F0CD
:1091F400FEEF48F038EF49F00BEF49F00EEC5DF06C
:1092040084EF49F0C2EC5DF084EF49F0000E84EF86
:1092140049F015C116F020EE09F102D81CEF49F00F
:109224000500FA6EDE50FD6EDE50FE6EDE50FF6EFF
:10923400FA501200196E1A6A1A50000AD8B425EFAF
:1092440049F008EF49F01950010AD8B408EF49F081
:10925400030AD8B400EF49F0010AD8B404EF49F086
:10926400070AD8B408EF49F008EF49F08BEC5CF03A
:109274000009D8B440EF49F042EF49F083EF49F0D8
:1092840001012351030B0009D8B44BEF49F04DEF12
:1092940049F059EF49F0010E196E2351030B1A6E70
:1092A40019501A5E23511A18FC0B1A18236F600008
:1092B40077F4D9FF60007BF4DAFFDF501B6E1D4B9F
:1092C4001E2B1F07D8A020071F512011D8A46DEF13
:1092D40049F06FEF49F077EF49F0CAEC53F0196E9B
:1092E40019501D6E1E6A7BEF49F0000E1E6E030EB0
:1092F4001D6E1DC01CF01B5066EC5DF01C5084EF0D
:1093040049F0030E1200010E2A6E48C02BF049C02A
:109314002CF0000E2E6E1F0E2D6E0101CB6BCFEFC5
:1093240049F02D06D8A02E06AC0E2D24D96E010EC0
:109334002E20DA6E26C00DF027C00EF028C00FF0E4
:1093440029C010F00A0E116E000E126E000E136E7C
:10935400000E146E07EC53F00D50300FDF6E2A6AC6
:109364002B06D8A02C0626C00DF027C00EF028C06E
:109374000FF029C010F00A0E116E000E126E000ECE
:10938400136E000E146E9DEC50F00DC026F00EC04E
:1093940027F00FC028F010C029F02D502E10D8B49B
:1093A400D6EF49F0D8EF49F0FFEF49F026502710E7
:1093B40028102910D8A4E1EF49F0E3EF49F093EF26
:1093C40049F02A50D8A4E9EF49F0EBEF49F093EFC4
:1093D40049F02CBEF6EF49F02C5008E12B04D8A03C
:1093E400F6EF49F0F8EF49F0FFEF49F04BB2FDEF2B
:1093F40049F0FFEF49F093EF49F025C01DF0AC0EA2
:109404002D241E6E010E2E201F6E2BC020F02CC0AA
:1094140021F0A0EC4FF01DC025F01EC026F0120074
:109424000F50D8A418EF4AF01AEF4AF038EF4AF078
:109434004A50D8A420EF4AF022EF4AF02AEF4AF02B
:1094440093EC5DF00DC016F00EC017F095EF4AF0E6
:109454004A06770E4A24D96EDA6A010EDA22DF5000
:10946400116E1150166E176A95EF4AF00F50D96EAF
:10947400DA6A070ED926DE50DE10D8B444EF4AF07B
:1094840046EF4AF061EF4AF00F50D96EDA6A070EE0
:10949400D926DE06000EDD5A6F0078FF11F06F004A
:1094A40074FF12F00F501124D96EDA6A040ED92613
:1094B400DF50136E1350166E176A95EF4AF00F5073
:1094C400D96EDA6A020ED9266F0078FF11F06F00A8
:1094D40074FF12F00F50D96EDA6A6F0078FF13F040
:1094E4006F0074FF14F011501324D96E125014201D
:1094F400DA6EDF50156E1550166E176A1650171077
:10950400D8A487EF4AF089EF4AF08DEF4AF0166845
:10951400176895EF4AF00F50D96EDA6A020ED92611
:10952400DE2A000EDD2216C00FF017C010F0120064
:10953400166A14BEA2EF4AF0A0EF4AF0ACEF4AF06C
:10954400141E131E121E116C000E1222132214225A
:10955400010E166E10BEB3EF4AF0B1EF4AF0BDEF44
:109564004AF0101E0F1E0E1E0D6C000E0E220F224E
:109574001022010E161A000E176E000E186E000E41
:10958400196E000E1A6E1150121013101410D8B464
:10959400CEEF4AF0D0EF4AF006EF4BF0010E156E15
:1095A400DAEF4AF0D8901136123613361436152AEB
:1095B40014AEDFEF4AF0E1EF4AF0D4EF4AF0D8906E
:1095C4001736183619361A3611500D5C12500E58CB
:1095D40013500F5814501058D8A0F3EF4AF0F5EF79
:1095E4004AF0FEEF4AF011500D5E12500E5A13501D
:1095F4000F5A1450105A1780D89014321332123262
:109604001132152EE1EF4AF01650D8B40CEF4BF09E
:109614000EEF4BF016EF4BF01A1E191E181E176CA6
:10962400000E182219221A2217C00DF018C00EF0CD
:1096340019C00FF01AC010F012003901D851F80BFC
:109644000509D86FD88DF10E0D6E010E0E6EF50E54
:109654000F6E010E106E15EC58F0F80E3901D81784
:10966400D89D27EC42F0FDEC55F03901D851F80BA8
:109674000509D86FD88DE0EC5CF001015B510D5CFD
:10968400ED6F5C510E58EE6F5D510F58EF6F5E51E8
:109694001058F06FF051EF11EE1109E10A0EED5D73
:1096A400D8A057EF4BF059EF4BF071EF4BF0E0ECD3
:1096B4005CF00DC05BF10EC05CF10FC05DF110C039
:1096C4005EF1F80E3901D817D89D24EC3FF0D7ECA1
:1096D40043F03901D851F80B0509D86FD88DE0EC67
:1096E4005CF0010163510D5CED6F64510E58EE6F37
:1096F40065510F58EF6F66511058F06FF051EF112C
:10970400EE1109E1C80EED5DD8A08BEF4BF08DEFA3
:109714004BF098EF4BF0E0EC5CF00DC063F10EC041
:1097240064F10FC065F110C066F1040012000E0E62
:10973400F66EB40EF76E000EF86E00EE44F210EE04
:1097440041F009006F00D7FFEEFFE550E150F9E169
:1097540002EE00F113EE90F3EE6AE550E150FCE105
:10976400E250FAE102EE00F010EE00F1EE6AE5508C
:10977400E150FCE1E250FAE101EE00F310EEFFF0FB
:10978400EE6AE550E150FCE1E250FAE101EE00F24C
:1097940010EEFFF0EE6AE550E150FCE1E250FAE130
:1097A40001EE00F110EE00F1EE6AE550E150FCE14B
:1097B400E250FAE101EE00F010EEFFF0EE6AE5503F
:1097C400E150FCE1E250FAE100EE00F310EE00F1AA
:1097D400EE6AE550E150FCE1E250FAE100EE00F2FD
:1097E400440EEE6AE806FDE100EE00F1E90EEE6AD1
:1097F400E806FDE100EEC5F0390EEE6AE806FDE18B
:1098040000EE48F00C0EEE6AE806FDE1080ED56E97
:10981400600ED66E000ED76E00012DEF5CF018506E
:109824001910D8A418EF4CF01AEF4CF02DEF4CF0AF
:10983400E3C018F0E4C019F018501910D8A425EFAB
:109844004CF027EF4CF02DEF4CF0000E186E000E8C
:10985400196E86EF4CF018C011F019C012F01AC03E
:1098640013F01BC014F0F0EC54F0115018261250F1
:109874001922600063F0D9FF600067F0DAFFDF505F
:10988400D8A447EF4CF049EF4CF054EF4CF0000EE5
:109894000001E36F000EE46FE3C018F0E4C019F0B8
:1098A40086EF4CF018C011F019C012F01AC013F072
:1098B4001BC014F027EC55F0115018240001E36F7D
:1098C40012501920E46F60008FF3D9FF600093F306
:1098D400DAFFDF50D8B471EF4CF073EF4CF07EEF49
:1098E4004CF060008FF3D9FF600093F3DAFFDF6A76
:1098F400E34BE42B82EF4CF0000EE36F000EE46FB9
:1099040018C018F019C019F01200166A10BE8FEFB3
:109914004CF08DEF4CF099EF4CF0101E0F1E0E1E04
:109924000D6C000E0E220F221022010E166E14BEB4
:10993400A0EF4CF09EEF4CF0A8EF4CF0141E131E59
:10994400121E116C000E1222132214221150121036
:1099540013101410D8B4B1EF4CF0B3EF4CF0E3EFA4
:109964004CF0010E156EBDEF4CF0D8901136123646
:1099740013361436152A14AEC2EF4CF0C4EF4CF073
:10998400B7EF4CF011500D5C12500E5813500F5895
:1099940014501058D8A0D1EF4CF0D3EF4CF0DBEFBB
:1099A4004CF011500D5E12500E5A13500F5A1450B1
:1099B400105AD8901432133212321132152EC4EFC9
:1099C4004CF01650D8B4E9EF4CF0EBEF4CF0F3EF59
:1099D4004CF0101E0F1E0E1E0D6C000E0E220F22D8
:1099E40010220DC00DF00EC00EF00FC00FF010C00D
:1099F40010F0120097C09EF098C09FF0000E010175
:109A0400816F000E806F80C1E5F081C1E6F0E9C08E
:109A14009AF0EAC09BF02FEF4DF0000E0001EA6FC0
:109A2400000EE96F96C082F09E0E836F99C084F099
:109A3400856BB4EC39F082C09CF083C09DF00001CA
:109A44009DBF29EF4DF027EF4DF02BEF4DF041EF87
:109A54004DF09C51E5279D51E62360007BF2F6FF13
:109A640060007FF2F7FF000EF86E0800F550000961
:109A7400D8A43FEF4DF041EF4DF00FEF4DF09AC0F9
:109A8400E9F09BC0EAF000019C2906E19D29D8A4D5
:109A94004EEF4DF050EF4DF05FEF4DF0E551E61114
:109AA400D8A457EF4DF059EF4DF05FEF4DF09CC047
:109AB40096F09DC097F063EF4DF0E5C096F0E6C0D8
:109AC40097F01200000E4F24D96EDA6A040EDA22DF
:109AD400DF6A3D01F9A771EF4DF073EF4DF089EFA7
:109AE4004DF0000E4F24D96EDA6A040EDA22040116
:109AF400DF8202D889EF4DF00500FA6E0001D751DC
:109B0400FD6ED851FE6ED951FF6EFA5012003D0120
:109B1400F9A38FEF4DF091EF4DF0A7EF4DF0000E4C
:109B24004F24D96EDA6A040EDA220401DF8402D8E3
:109B3400A7EF4DF00500FA6E01017D51FD6E7E51D7
:109B4400FE6E7F51FF6EFA501200000E4F24D96E44
:109B5400DA6A040EDA22DF50D8B4B3EF4DF0B5EF71
:109B64004DF0C5EF4DF002D8C3EF4DF00500FA6E8D
:109B740001017A51FD6E7B51FE6E7C51FF6EFA50ED
:109B84001200C7EF4DF0EAEC5AF01200000E136E0B
:109B9400000E126E0D50D96EDA6A6F007BFFF6FF6D
:109BA4006F0077FFF7FF000EF86E0800F5502A0AE1
:109BB400D8A4DFEF4DF0E1EF4DF00EEF4EF00D5075
:109BC400D96EDA6ADE2A000EDD220E50D96EDA6A08
:109BD400020EDF26DF5CD96EDA6A6F0078FF12F0BE
:109BE4006F0078FF13F025EF4EF00A0E12026F009B
:109BF400CCFF0FF06F00D0FF10F01302F3501026CB
:109C040011500F24126E000E1020136E0D50D96ED9
:109C1400DA6ADE2A000EDD220D50D96EDA6A6F0090
:109C24007BFFF6FF6F0077FFF7FF000EF86E08006A
:109C3400F550D00F116E090E116423EF4EF025EF8D
:109C44004EF0F7EF4DF012C00DF013C00EF01200FD
:109C54001150D8B430EF4EF032EF4EF03AEF4EF0F0
:109C64001150D8A438EF4EF03AEF4EF03FEF4EF0DB
:109C74000F504DEC5DF08BEF4EF01150D96EDA6A57
:109C8400090ED926DE50DE10D8B44BEF4EF04DEF5E
:109C94004EF066EF4EF01150D96EDA6A090ED926ED
:109CA4001150E16EE26A020EE126DE50E65CE650F7
:109CB400800A166EDE50800A1658D8B064EF4EF053
:109CC40066EF4EF08BEF4EF01150D96EDA6A020E49
:109CD400D9266F0078FF12F06F0074FF13F0115053
:109CE400D96EDA6A6F0078FF14F06F0074FF15F014
:109CF40012501424D96E13501520DA6E60003FF010
:109D0400DFFF1150D96EDA6A020ED926DE2A000E60
:109D1400DD2212007DEC5BF00009D8A494EF4EF034
:109D240096EF4EF09BEF4EF00101E52B000EEBEFAA
:109D34004EF02250276E21C028F023C029F024C001
:109D44002AF025C02BF0660E4BEC53F00009D8B472
:109D5400AEEF4EF0B0EF4EF0B2EF4EF098EF4EF0A3
:109D64007A0E126EB20E136E000E146E290E156E5C
:109D740051EC5CF0270E0D6E0E6A000E106E020E92
:109D84000F6EA3EC5BF0000E126E000E136E000E4D
:109D9400146E000E156E000E166E45EC5CF083EC2E
:109DA4005DF0D4EC5AF0266E2604D8B4DCEF4EF005
:109DB400DEEF4EF0D3EF4EF02650D8B4E4EF4EF081
:109DC400E6EF4EF0EAEF4EF00101E42B98EF4EF08F
:109DD400010E1200F2EF4EF00D4A0E2A0F4A102A1D
:109DE400600037F0D9FF60003BF0DAFFDF50116EFE
:109DF40060003FF0F6FF600043F0F7FF000EF86EDE
:109E04001F0EF76403D00800F55007D06F00DBFF86
:109E1400E9FF6F00DFFFEAFFEF501118D8A415EF38
:109E24004FF017EF4FF025EF4FF0600037F0D9FFF8
:109E340060003BF0DAFFDF50D8A423EF4FF025EFAA
:109E44004FF0EEEF4EF0600037F0D9FF60003BF0CA
:109E5400DAFFDF50116E60003FF0F6FF600043F060
:109E6400F7FF000EF86E1F0EF76403D00800F550DC
:109E740007D06F00DBFFE9FF6F00DFFFEAFFEF5061
:109E8400126E1250115C0D6E0E6AD8A00E061200EE
:109E940039019397C80E0D6E9A0E0E6E000E0F6E5A
:109EA40023EC5DF039019399CC0E0D6EB30E0E6E5A
:109EB400000E0F6E1CEC5DF03901939D7A0E0D6E51
:109EC400BB0E0E6E000E0F6E15EC5DF03D01EC6BDB
:109ED400ED6BEE6BEF6BF06BF16BB00EF26F900EFF
:109EE400F36F020EF46F8A0EF56FF66BF76BF86B77
:109EF400F96BFA6B940E0D6EBB0E0E6E000E0F6EA8
:109F040031EC5DF0920E0D6EBB0E0E6E000E0F6EF8
:109F14002AEC5DF0740E0D6EBB0E0E6E000E0F6E0D
:109F240038EC5DF00001F86B526A516A50684F6A70
:109F34004E6AF96B39019387938D12004BA0A5EFFC
:109F44004FF0A7EF4FF0AFEF4FF01EC017F01FC058
:109F540018F01DC019F028EC5AF021BEB6EF4FF0EE
:109F6400B4EF4FF0BAEF4FF0000E216E000E206EEA
:109F7400000E246E000E236ECAEF4FF0000E106E1A
:109F8400200E0F6E1DC011F02AEC4EF0234A242A35
:109F94002050235C2450800A226E2150800A2258CB
:109FA400D8A0D7EF4FF0D9EF4FF0C0EF4FF04BB040
:109FB400DEEF4FF0E0EF4FF0E8EF4FF01EC017F088
:109FC4001FC018F01DC019F028EC5AF01EC00DF087
:109FD4001FC00EF086EC5AF020500D241D6E215047
:109FE4000E201E6E1200000E0001826F000E816FA3
:109FF400000E606F030E616FDC0E626F620E636FA2
:10A004008C0E646F010E656F4BEC57F000016051CC
:10A01400812761518223000E0D6E030E0E6E81C0E6
:10A024000FF082C010F0000E8DEC53F00001806F31
:10A03400000E8125606F030E8221616F660E626FD0
:10A04400620E636F80C064F0656B4BEC57F00001E7
:10A054006051812761518223000E606F020E616F8F
:10A06400C10E626F620E636F8C0E646F010E656FBA
:10A074004BEC57F00001F56BDF0E606F620E616F01
:10A08400000E626F030E636F03EC5CF01200BE6A95
:10A09400BD6ABA6ABF6ABB6ABC6A030EC66ED60ED4
:10A0A400C76EC268DE0EC36EF80EC46ECF0EC56EE8
:10A0B400070E3A01706F100E606FC00E506F806B08
:10A0C400800E906FDE0E406F700E716F060E916FF2
:10A0D400030E816F516B200E416F880E616F5A6BB6
:10A0E4005B6B6A6B6B6B7A6B7B6B826B926B426B99
:10A0F400526B626B300E726F4369536963697369A3
:10A10400070E836F936944695469646974690F0E17
:10A11400846F94691C0EE36F240E1D6F130E2B6F56
:10A12400230E1C6F140E126F130EE56F140EE66FE0
:10A134001D0EE46F1200000E156E000E166E000E5A
:10A14400176E000E186E1150121013101410D8B49C
:10A15400AEEF50F0B0EF50F0E6EF50F0010E196E94
:10A16400BAEF50F0D8901136123613361436192A35
:10A1740014AEBFEF50F0C1EF50F0B4EF50F0D890F0
:10A18400153616361736183611500D5C12500E5807
:10A1940013500F5814501058D8A0D3EF50F0D5EFE7
:10A1A40050F0DEEF50F011500D5E12500E5A135065
:10A1B4000F5A1450105A1580D89014321332123298
:10A1C4001132192EC1EF50F015C00DF016C00EF06B
:10A1D40017C00FF018C010F012000D2806E10E2869
:10A1E400D8A4F7EF50F0F9EF50F0FBEF50F03FEF49
:10A1F40051F00F50D8A401EF51F003EF51F018EFD4
:10A2040051F0030E4A18D8B40AEF51F00CEF51F094
:10A214003FEF51F0770E4A24D96EDA6A010EDA2242
:10A22400600037F0DFFF4A2A3FEF51F00F50D96E3C
:10A23400DA6A070ED926030EDE18DE10D8B425EF2D
:10A2440051F027EF51F03FEF51F00F50D96EDA6A19
:10A25400070ED926DF50106E0F501024D96EDA6A1B
:10A26400040ED926600037F0DFFF0F50D96EDA6A8A
:10A27400070ED926DE2A000EDD22120001012389F1
:10A2840064EF51F0A8EC5DF0080E8FEF51F0A8ECEC
:10A294005DF0070E8FEF51F001011F296BEC5DF0AB
:10A2A400040E8FEF51F0070E01012119D8B45DEFB0
:10A2B40051F05FEF51F061EF51F0ABEC5DF00F0E38
:10A2C4008FEF51F012C116F002D873EF51F0050070
:10A2D400FA6E0051FD6E0151FE6E0251FF6EFA508E
:10A2E4001200196E1A6A1A50000AD8B47CEF51F0A1
:10A2F40055EF51F01950010AD8B455EF51F0030A43
:10A30400D8B449EF51F0010AD8B444EF51F0070A28
:10A31400D8B44EEF51F055EF51F0120020EE1DF07D
:10A32400070EDE6AE806FDE20DA09BEF51F09DEFFB
:10A3340051F0ADEF51F015501D2616501E22175046
:10A344001F2218502022195021221A5022221B5059
:10A3540023221C502422D890153616361736183668
:10A3640019361A361B361C36D89014321332123270
:10A37400113210320F320E320D320D500E100F10FA
:10A3840010101110121013101410D8A4CCEF51F0A7
:10A39400CEEF51F096EF51F01DC00DF01EC00EF03F
:10A3A4001FC00FF020C010F021C011F022C012F025
:10A3B40023C013F024C014F01200A1EC5CF00009D7
:10A3C400D8A4E7EF51F0E9EF51F0ECEF51F0040EAF
:10A3D4002DEF52F001012351030B0009D8B4F5EF1E
:10A3E40051F0F7EF51F003EF52F0010E1B6E2351C1
:10A3F400030B1C6E1B501C5E23511C18FC0B1C18F9
:10A40400236F1F07D8A020071F512011D8B40DEFC8
:10A4140052F00FEF52F01DEF52F0A5EC5DF060002A
:10A4240077F4D9FF60007BF4DAFFDF6E01011D4B86
:10A434001E2BE9EF51F040EC51F01D6EA5EC5DF0E0
:10A44400600077F4D9FF60007BF4DAFFDF6E01016E
:10A454001D4B1E2B1D5012003D01F48F800E0D6EFE
:10A46400AD0E0E6E000E0F6E23EC5DF0000E0001BB
:10A47400EE6F000EED6F000E0D6E050E0E6E000EEB
:10A48400106E000E0F6E010E126E000E116E48EC6F
:10A494005AF0E0EC5CF00DC053F10EC054F10FC063
:10A4A40055F110C056F1000E0001606F020E616F8D
:10A4B400C10E626F620E636F8C0E646F010E656F66
:10A4C4004BEC57F096EC5DF00001F66F946B9451F1
:10A4D4003FEC46F00001942B050E946574EF52F0A6
:10A4E40076EF52F069EF52F0060EF56F3F0EF46FFF
:10A4F40012000DC013F00EC014F0A1EF52F01106BB
:10A50400D8A0120660003FF0D9FF600043F0DAFFE4
:10A514000F4A102A60004FF0E1FF600053F0E2FFA1
:10A52400134A142A6F007FFFE7FFE750D8A49DEF7A
:10A5340052F09FEF52F0A1EF52F0B5EF52F01150EC
:10A544001210D8A4A8EF52F0AAEF52F081EF52F003
:10A55400B5EF52F060004FF0D9FF600053F0DAFF1E
:10A56400DF6A134A142A1106D8A01206112806E13C
:10A574001228D8A4C0EF52F0C2EF52F0ACEF52F060
:10A584001200000E0001826F000E816F000E606FDA
:10A59400030E616F550E626F620E636F8C0E646FF3
:10A5A400010E656F4BEC57F000016051812761513A
:10A5B4008223000E0D6E030E0E6E81C00FF082C05A
:10A5C40010F0000E8DEC53F00001806F000E812519
:10A5D400606F030E8221616F660E626F620E636F9D
:10A5E40080C064F0656B4BEC57F00001605181272B
:10A5F40061518223DF0E606F620E616F000E626F25
:10A60400030E636F03EC5CF0120011501210131070
:10A614001410D8B410EF53F012EF53F042EF53F08C
:10A62400010E156E1CEF53F0D89011361236133606
:10A634001436152A14AE21EF53F023EF53F016EF1E
:10A6440053F011500D5C12500E5813500F58145003
:10A654001058D8A030EF53F032EF53F03AEF53F0E4
:10A6640011500D5E12500E5A13500F5A1450105AB6
:10A67400D8901432133212321132152E23EF53F0C4
:10A684000DC00DF00EC00EF00FC00FF010C010F092
:10A6940012000D6E010E0E6E010123B754EF53F03C
:10A6A40056EF53F08BEF53F00DC01CF12395238725
:10A6B400FC0E23170F0E216F010E1B6FF40E1A6F81
:10A6C40023898C0E006FBB0E016F000E026F126B9C
:10A6D4008C0E036FBB0E046F000E056F136B8C0E94
:10A6E400066FBB0E076F000E086F146B8C0E096F9C
:10A6F400BB0E0A6F000E0B6F156B880E0C6FBB0E32
:10A704000D6F000E0E6F166BB7EC5DF011EC5CF084
:10A714000E6A0E501200136E13C016F00D500E1078
:10A72400D8A497EF53F099EF53F09CEF53F0000E39
:10A73400C9EF53F00F500D24146E10500E20156EF7
:10A74400BDEF53F0600037F0D9FF60003BF0DAFF53
:10A75400DF501618116E126AB30E1124F66E600ED5
:10A764001220F76EF86A000EF82208006F00D4FF7A
:10A7740016F00D4A0E2A14500D5C15500E58D8A030
:10A78400C6EF53F0C8EF53F0A4EF53F01650120085
:10A7940001012389DFEF53F0A8EC5DF0070E06EF0B
:10A7A40054F001011F296BEC5DF0030E06EF54F029
:10A7B400ABEC5DF00A0E06EF54F012C116F002D8AD
:10A7C400EEEF53F00500FA6E0051FD6E0151FE6E7E
:10A7D4000251FF6EFA501200196E1A6A1A50000ADA
:10A7E400D8B4F7EF53F0DAEF53F01950010AD8B4A4
:10A7F400DAEF53F0030AD8B4CEEF53F0060AD8B414
:10A80400D3EF53F0DAEF53F01200116E0D500E1027
:10A814000F10D8B410EF54F012EF54F02EEF54F0A0
:10A824001150030D000EF324D96E010EF420DA6EDC
:10A83400600037F0DEFF60003BF0DEFF60003FF0B9
:10A84400DEFF120E1124D96EDA6A010EDA226000DC
:10A8540043F0DFFF43EF54F01150030D000EF324D7
:10A86400D96E010EF420DA6E8C0EDE6EBB0EDE6E37
:10A87400000EDE6E120E1124D96EDA6A010EDA228F
:10A88400DF6A1200DF0E0001606F620E616FF75124
:10A89400656F666B180E65036F00CCFF67F06F0081
:10A8A400D0FF68F06603F3506827010E6503F35088
:10A8B4006827000E6725626F090E6821636F03EC39
:10A8C4005CF0F7C065F0010E0001666F652B6DEF5B
:10A8D40054F0D8906637652F6BEF54F00001665141
:10A8E400F413F72B050EF7657AEF54F07CEF54F070
:10A8F4007DEF54F0F76B120075EC57F00101235112
:10A90400030B0009D8B489EF54F08BEF54F098EF9F
:10A9140054F096EC5CF00009D8B493EF54F095EF42
:10A9240054F098EF54F0100E0101216F01012151F0
:10A93400030DB30EF324F66E610EF420F76EF86A7D
:10A94400000EF82202D8B4EF54F00500FA6E0900A4
:10A95400F550FD6E0900F550FE6E0900F550FF6ECE
:10A96400FA5012000101216F1200B7EC5DF0020EE3
:10A974000101226FCAEF54F00EEC5DF0EFEF54F0DA
:10A98400C2EC5DF0EFEF54F000EC5DF0EFEF54F04B
:10A9940013C116F020EE03F102D8DBEF54F00500EA
:10A9A400FA6EDE50FD6EDE50FE6EDE50FF6EFA5023
:10A9B4001200196E1A6A1A50000AD8B4E4EF54F05F
:10A9C400C6EF54F01950020AD8B4BEEF54F0010A8D
:10A9D400D8B4C2EF54F0C6EF54F01200000E176E54
:10A9E400000E166EFAEF54F0114A122A164A172A6C
:10A9F400600047F0D9FF60004BF0DAFFDF50D8B4B5
:10AA040006EF55F008EF55F022EF55F013C00DF0A6
:10AA140014C00EF0600047F0D9FF60004BF0DAFF7D
:10AA2400DF50156E15500F6E106A2EEC56F00D5057
:10AA34000E10D8A420EF55F022EF55F0F6EF54F0A5
:10AA440016C011F017C012F01200000E176E000E9F
:10AA5400166E31EF55F0114A122A164A172A600071
:10AA640047F0D9FF60004BF0DAFFDF50D8B43DEF78
:10AA740055F03FEF55F059EF55F013C00DF014C0E9
:10AA84000EF0600047F0D9FF60004BF0DAFFDF50B2
:10AA9400156E15500F6E106A2EEC56F00D500E10F8
:10AAA400D8B457EF55F059EF55F02DEF55F016C0C7
:10AAB40011F017C012F0120080EF55F0200E1A1892
:10AAC4001B10D8B468EF55F06AEF55F080EF55F0DD
:10AAD4001AC019F0F70E1926040E196474EF55F014
:10AAE40076EF55F080EF55F01AC00DF01BC00EF054
:10AAF40018C00FF0EFEC50F092EF55F018C00FF0C3
:10AB040012EC4AF00FC01AF010C01BF01A2806E12C
:10AB14001B28D8A490EF55F092EF55F060EF55F054
:10AB24001200000E156E000E166E000E176E000E4B
:10AB3400186E0DA0A0EF55F0A2EF55F0AAEF55F056
:10AB44001150152612501622135017221450182291
:10AB5400D8901136123613361436D89010320F327C
:10AB64000E320D320D500E100F101010D8A4BDEF80
:10AB740055F0BFEF55F09BEF55F015C00DF016C022
:10AB84000EF017C00FF018C010F01200FC0E0101F7
:10AB94002317020E226F2395D7EF55F0C0EC5DF01A
:10ABA400FCEF55F00F0EFCEF55F014C116F020EE3B
:10ABB40006F102D8E8EF55F00500FA6EDE50FD6E9E
:10ABC400DE50FE6EDE50FF6EFA501200196E1A6AE5
:10ABD4001A50000AD8B4F1EF55F0D4EF55F01950DB
:10ABE400020AD8B4D0EF55F0010AD8B4D0EF55F02A
:10ABF400D4EF55F0120096EC5DF00001946F050E51
:10AC0400F56507EF56F009EF56F020EF56F0F651D0
:10AC14009419D8B410EF56F012EF56F020EF56F016
:10AC24003F0EF419D8A419EF56F01BEF56F020EF9D
:10AC340056F094C0F6F0F56BF46BF76B060EF56105
:10AC440026EF56F028EF56F02DEF56F0F5513FEC75
:10AC540046F00001F52B1200600037F0F6FF6000AB
:10AC64003BF0F7FF000EF86E0800F5500F18D8A45B
:10AC74003EEF56F040EF56F046EF56F00DC00DF0A3
:10AC84000EC00EF05EEF56F0600037F0F6FF600085
:10AC94003BF0F7FF0D4A0E2A000EF86E0800F5503F
:10ACA4000009D8A458EF56F05AEF56F02EEF56F09C
:10ACB400000E0D6E000E0E6E1200840E156E010E47
:10ACC400166E15C00DF016C00EF0000E106E000EBC
:10ACD4000F6E000E126E280E116E48EC5AF0000E24
:10ACE400186E000E176E17501524D96E18501620C2
:10ACF400DA6E17C00DF018C00EF0F4EC5BF0DF6EE6
:10AD0400174A182A185009E1280E175CD8A08DEFAD
:10AD140056F08FEF56F075EF56F0120043C046F030
:10AD240044C047F0000E0001EC6F000EEB6FA9EF7A
:10AD340056F042C034F0460E356E45C036F0376AE0
:10AD44001EEC37F034500001EB273550EC23600043
:10AD54001BF1F6FF60001FF1F7FF000EF86E08000C
:10AD6400F5500009D8A4B9EF56F0BBEF56F09BEFAD
:10AD740056F0EBC042F0ECC043F012003D01F9A3E1
:10AD8400C6EF56F0C8EF56F0E6EF56F0F299F99395
:10AD9400F289E6EF56F06F00A0F703F04D28046E39
:10ADA4004C500418D8B4D9EF56F0DBEF56F0E6EF68
:10ADB40056F0000E4D24D96EDA6A080EDA226000CD
:10ADC4000FF0DFFF04C04DF03901A3B7ECEF56F0EC
:10ADD400EEEF56F0CDEF56F01200BB8AD7EC5CF0E4
:10ADE4007AEC5DF0AAEC44F0D00E0001956FC90E28
:10ADF400E82EFED7952FFCD700D02EEC52F0C8ECED
:10AE04005DF03901D88B000E0101346F800E356F6F
:10AE1400FF0E366FFF0E376F800E396F000E386FDE
:10AE2400000E286F800E296FFF0E2A6FFF0E2B6F06
:10AE340082EC59F012003901A5AF23EF57F025EF4A
:10AE440057F027EF57F04AEF57F0A5AD2CEF57F026
:10AE54002EEF57F030EF57F04AEF57F03D0163A55E
:10AE640036EF57F038EF57F03AEF57F04AEF57F014
:10AE740063AF3FEF57F041EF57F043EF57F04AEF1E
:10AE840057F060A948EF57F04AEF57F01DEF57F01D
:10AE94001200640E0001746F60C075F061C076F03A
:10AEA400000E786F000E776F000E7F6F000E7E6FBE
:10AEB400750E426E62C043F063C044F0740E456E7A
:10AEC40090EC56F042C072F043C073F00001775129
:10AED4006025D96E78516121DA6EDF6A72C060F044
:10AEE40073C061F01200C2EC5CF00009D8B47DEFCD
:10AEF40057F07FEF57F083EF57F0B4EC5DF09DEF20
:10AF040057F0ACEC5CF00009D8B48BEF57F08DEF40
:10AF140057F091EF57F0AEEC5DF09DEF57F0B7ECC2
:10AF24005CF00009D8B499EF57F09BEF57F09DEF10
:10AF340057F0B1EC5DF012001F6E010E206E01019E
:10AF440023B5A7EF57F0A9EF57F0C4EF57F02385C7
:10AF5400206A1F516BEC5DF01F50D8B4B4EF57F06A
:10AF6400B6EF57F0BDEF57F0040E0101216FBDECB1
:10AF74005AF0C2EF57F0030E0101216F80EC5CF030
:10AF8400D6EC5BF0205012006F00E8FF09F06F0070
:10AF9400ECFF0AF03901A39F0001D451D511D61159
:10AFA400D8B4D7EF57F0D9EF57F0E6EF57F002D8FF
:10AFB400E6EF57F00500FA6ED451FD6ED551FE6EE2
:10AFC400D651FF6EFA50120060002BF0FBFF6000B8
:06AFD40027F0FAFF110056
:10AFDC006F00E8FF0BF06F00ECFF0CF03901A1974C
:10AFEC000001D151D211D311D8B4FFEF57F001EFBA
:10AFFC0058F00EEF58F002D80EEF58F00500FA6E2C
:10B00C00D151FD6ED251FE6ED351FF6EFA5012002B
:10B01C00600033F0FBFF60002FF0FAFF11006000BE
:10B02C0037F0D9FF60003BF0DAFF600027F3DEFF5A
:10B03C0060002BF3DEFF60002FF3DEFF600033F3C4
:10B04C00DEFF60003FF0D9FF600043F0DAFF6000E4
:10B05C0017F3DEFF60001BF3DEFF60001FF3DEFF63
:10B06C00600023F3DEFF1200000ED2BE010E106E44
:10B07C000E50030B3901E16F600037F0E0F960000E
:10B08C003FF0E3F93F0EE517E585D29E550EE66FCE
:10B09C00AA0EE66FE583E5B356EF58F058EF58F07B
:10B0AC0051EF58F0E59510B002D0D29E01D0D28E5F
:10B0BC0012003E01DE6BDF6BE06BE16BE46BE56B6A
:10B0CC00EA6BEC6BF16BF36BF46BF56BF66BF76B8C
:10B0DC00F96BFA6BFB6BFC6BFD6BFE6B3F0EFF6F42
:10B0EC00840EF86F3901A19791879A0E0D6EBB0EE5
:10B0FC000E6E000E0F6E46EC5DF012006F00E8FF56
:10B10C0001F06F00ECFF02F00001DD51DE11DF11E8
:10B11C00D8B493EF58F095EF58F0A2EF58F002D84E
:10B12C00A2EF58F00500FA6EDD51FD6EDE51FE6E99
:10B13C00DF51FF6EFA50120060000BF0FBFF600055
:06B14C0007F0FAFF1100FC
:10B154006F00E8FF05F06F00ECFF06F00001E0511E
:10B16400E111E211D8B4B9EF58F0BBEF58F0C8EFD1
:10B1740058F002D8C8EF58F00500FA6EE051FD6EA1
:10B18400E151FE6EE251FF6EFA50120060001BF0B6
:0AB19400FBFF600017F0FAFF110046
:10B1A0006F00E8FF07F06F00ECFF08F00001DA51D4
:10B1B000DB11DC11D8B4DFEF58F0E1EF58F0EEEF1F
:10B1C00058F002D8EEEF58F00500FA6EDA51FD6E35
:10B1D000DB51FE6EDC51FF6EFA501200600023F06E
:10B1E000FBFF60001FF0FAFF11000D6EF9EF58F041
:10B1F00004005050D8B4FFEF58F001EF59F0F8EFC9
:10B2000058F039019399000E5224D96EDA6A060E6D
:10B21000DA22600037F0DFFF522A5228D8A413EF59
:10B2200059F015EF59F016EF59F0526A500693890C
:10B230001200840E116E010E126E000E146E000EBE
:10B24000136E13C00DF014C00EF013501124D96EFC
:10B2500014501220DA6EDF500F6E3AEC58F0134A99
:10B26000142A145009E1280E135CD8A03AEF59F0C3
:10B270003CEF59F021EF59F0120016C018F01850A9
:10B28000D96EDA6A6F0078FF0DF06F0074FF0EF070
:10B290001850D96EDA6A020ED926DF50176E175091
:10B2A0000F6E106AA3EC5BF0000E126E000E136EB0
:10B2B000000E146E000E156E51EC5CF0020E1200C2
:10B2C000A40E0001A86FA0C0A9F0A1C0AAF0000EB2
:10B2D000AC6F000EAB6F000EB16F000EB06FA90E19
:10B2E000966FA2C097F0A3C098F0A80E996FFCECDF
:10B2F0004CF096C0A6F097C0A7F0A6C0A0F0A7C0DB
:10B30000A1F01200E0EC5CF00DC067F10EC068F136
:10B310000FC069F110C06AF13C0E226E140E216E4E
:10B320002C0E236E246A020E256E8CEC4EF0000962
:10B33000D8A49DEF59F0A0EF59F0010EA1EF59F0FC
:10B34000000E0101E06F12001650D96EDA6A020E8B
:10B35000D926DF50176E17C00DF00E6A1650D96E41
:10B36000DA6A6F0078FF0FF06F0074FF10F0A3EC43
:10B370005BF0000E126E000E136E000E146E000EC7
:10B38000156E51EC5CF0020E1200D28A000ED2BE95
:10B39000010E0D6ED29E550ED46EAA0ED46ED490B0
:10B3A000D76A600ED66E080ED56E550ED46EAA0EF4
:10B3B000D46ED4800DB002D0D29E01D0D28E39018D
:10B3C000838D83898387838F818712005028D8B427
:10B3D000ECEF59F0EEEF59F004EF5AF0000E512463
:10B3E000D96EDA6A060EDA22DF503D01EA6F512A81
:10B3F0005128D8A4FEEF59F000EF5AF001EF5AF0AF
:10B40000516A502A06EF5AF03901939912004142CD
:10B41000434445464748494A4B4C4D4E4F50515284
:10B42000535455565758595A616263646566676844
:10B43000696A6B6C6D6E6F70717273747576777804
:0FB44000797A303132333435363738392B2F00A3
:10B45000000E1C6E000E1B6E37EF5AF01AC00FF074
:10B46000106A19C011F02AEC4EF01B4A1C2A1B501E
:10B470001724D96E1C501820DA6EDF501A6E1A503D
:10B48000D8A445EF5AF047EF5AF02EEF5AF01200C9
:10B490000DC013F00EC014F059EF5AF060004FF0D9
:10B4A000D9FF600053F0DAFF60003FF0DFFF134A7E
:10B4B000142A1106D8A01206112806E11228D8A4D1
:10B4C00064EF5AF066EF5AF04EEF5AF0120011C0D6
:10B4D0000DF012C00EF013C00FF014C010F0B5EC58
:10B4E0005BF0156E010E11240D6E000E12200E6E13
:10B4F000000E13200F6E000E1420106EB5EC5BF0E2
:10B50000166E1550116E16C012F012000DC00FF01D
:10B510000EC010F08EEF5AF00D4A0E2A600037F080
:10B52000D9FF60003BF0DAFFDF50D8A49AEF5AF061
:10B530009CEF5AF08CEF5AF00F500D5C0D6E1050CE
:10B540000E580E6E120018BEA8EF5AF0AAEF5AF06D
:10B55000B0EF5AF017C017F018C018F0BCEF5AF04F
:10B5600017C019F018C01AF0191E1A1E194A1A2A03
:10B5700019C017F01AC018F0120001012351FC0B7A
:10B580000209236F1F052011D8A4C9EF5AF0CBEF91
:10B590005AF0CDEF5AF040EC51F0D88001011C3543
:10B5A00066EC5DF0040E1200010E0D6E010123B574
:10B5B000DCEF5AF0DEEF5AF0E8EF5AF023971C69FF
:10B5C000B7EC5DF0E5EC5BF075EC5DF022C10DF0E1
:10B5D0000D501200000E4F24D96EDA6A070EDA22DF
:10B5E0006F00A3F7DFFF4F2A4F28D8A4FAEF5AF0D5
:10B5F000FCEF5AF0FDEF5AF04F6A0001F92B1200F0
:10B6000016C00DF00E6A000E106E010E0F6EA3EC48
:10B610005BF0000E126E000E136E000E146E000E24
:10B62000156E51EC5CF0040E120016C00DF00E6A9F
:10B63000000E106E020E0F6EA3EC5BF0000E126E89
:10B64000000E136E000E146E000E156E51EC5CF0C1
:10B65000020E120016C00DF00E6A000E106E010EE2
:10B660000F6EA3EC5BF0000E126E000E136E000E58
:10B67000146E000E156E51EC5CF0020E120016C036
:10B680000DF00E6A000E106E020E0F6EA3EC5BF052
:10B69000000E126E000E136E000E146E000E156E6C
:10B6A00051EC5CF0040E1200C5EC59F0CDEC5CF0EE
:10B6B00049EC50F0C6EC5BF05FEC58F05DEC5CF0F0
:10B6C00069EC5CF090EC5BF04AEC4FF01FEC5CF046
:10B6D00012009CEC5DF099EC5DF00009D8B473EFBA
:10B6E0005BF075EF5BF07BEF5BF0000E6BEC5DF0F9
:10B6F000000E66EC5DF0000E12000D6ACDA883EF1F
:10B700005BF085EF5BF08EEF5BF0CDAA8AEF5BF02C
:10B710008CEF5BF08EEF5BF0010E0D6E0D501200A2
:10B72000460EB96EF90EB76EB66A3901A39F938FB4
:10B73000960E0D6EBB0E0E6E000E0F6E3FEC5DF0A2
:10B74000800EB86E1200010123A9A9EF5BF0ABEFE8
:10B750005BF0B4EF5BF00DC01DF10EC01EF10FC029
:10B760001FF110C020F1239912003901E5513F0B60
:10B770008009E56F60003FF0F8FF60003BF0F7FFE5
:10B78000600037F0F6FF0800F5501200200E390176
:10B79000D96FDB6BDD6B080EDF6FDE6BDCA1D3EFE7
:10B7A0005BF0D5EF5BF0CEEF5BF01200DCEF5BF00F
:10B7B0001DEC57F07EEC54F0010123B5E2EF5BF095
:10B7C000E4EF5BF0D8EF5BF01200390196919693AD
:10B7D000959D959F3D0164916495649F649D6493DC
:10B7E00060936095609112000E50030B3901E16F78
:10B7F000600037F0E0F93F0EE517E581000000003A
:10B800003901E3511200620E0001646F000E426EB6
:10B8100060C043F061C044F0640E456E90EC56F099
:10B8200012003D015DBF17EF5CF019EF5CF01EEFF9
:10B830005CF0636B646B606B56695D8F1200040E85
:10B840003D015D6F800E5E6F180E5F6F030E656FBA
:10B85000636B646B606B5669120054EC5BF0D28EC4
:10B86000D28CEFEC56F01FEC4BF033EF5CF057EF5F
:10B8700030F04C504D18D8A440EF5CF043EF5CF032
:10B88000010E44EF5CF0000E120012C00DF013C068
:10B890000EF014C00FF015C010F0020E07EC54F0BB
:10B8A000120012C00DF013C00EF014C00FF015C03E
:10B8B00010F0000E07EC54F01200010EA26EA16A07
:10B8C000A36A4F0E9F6E9E6A3901A791810EA06EEA
:10B8D0001200010EAE6EAD6AAF6A070EAB6EAA6AB9
:10B8E0003901A495E50EAC6E1200000E4C24D96E01
:10B8F000DA6A080EDA22DF500D6E4C2A0D50120063
:10B9000001012351FC0B0209236F1C511C2566EC1D
:10B910005DF0030E12003D0162BB91EF5CF094EF0D
:10B920005CF0010E95EF5CF0000E12003D015EBB75
:10B930009CEF5CF09FEF5CF0010EA0EF5CF0000E5E
:10B9400012003D0162B1A7EF5CF0AAEF5CF0010EBE
:10B95000ABEF5CF0000E12003D0163B5B2EF5CF09E
:10B96000B5EF5CF0010EB6EF5CF0000E12003D0189
:10B9700060B9BDEF5CF0C0EF5CF0010EC1EF5CF0B0
:10B98000000E12003D0163BFC8EF5CF0CBEF5CF02E
:10B99000010ECCEF5CF0000E12003901C06BC16BE0
:10B9A000C26BC36BC46BC56BC66BC76B1200E20E78
:10B9B0000D6EB90E0E6E000E0F6E3FEC5DF01200B4
:10B9C00073C10DF074C10EF075C10FF076C110F0A7
:10B9D000120070EC5DF001012395020E226F0F0E34
:10B9E0001200010E01017327000E742375237623C4
:10B9F0001200FBC0E1F1E00E0D6E010E0E6E1200A2
:10BA000070EC5DF001012395226B0F0E12009FEC8C
:10BA10005DF09CEC5DF061EC5DF0120001011F51E6
:10BA20006BEC5DF0BDEC5AF012000DC0DAF00EC008
:10BA3000DBF00FC0DCF012000DC0DDF00EC0DEF058
:10BA40000FC0DFF012000DC0E0F00EC0E1F00FC03B
:10BA5000E2F012000DC07DF10EC07EF10FC07FF14B
:10BA600012000DC0D7F00EC0D8F00FC0D9F01200F0
:10BA70000DC07AF10EC07BF10FC07CF112000DC039
:10BA8000D4F00EC0D5F00FC0D6F012000DC0D1F02A
:10BA90000EC0D2F00FC0D3F012000E6E0E50F5ECB7
:10BAA00058F01200900E0D6E150E0E6E1200F1C0C1
:10BAB0000DF0F2C00EF01200EFC00DF0F0C00EF06D
:10BAC000120001012395226B0F0E12000D6E600013
:10BAD00037F055FD12000D6E600037F056FD120074
